{
	"data": {
		"bytecode": {
			"linkReferences": {},
			"object": "608060405234801561001057600080fd5b50336000806101000a81548173ffffffffffffffffffffffffffffffffffffffff021916908373ffffffffffffffffffffffffffffffffffffffff1602179055506108c0806100606000396000f3fe608060405234801561001057600080fd5b50600436106100575760003560e01c80630147fb0c1461005c5780632215ec2c1461008c57806354f6127f146100bc5780638da5cb5b146100ec578063a31d29c81461010a575b600080fd5b610076600480360381019061007191906103d7565b610126565b6040516100839190610619565b60405180910390f35b6100a660048036038101906100a19190610444565b61013e565b6040516100b3919061059c565b60405180910390f35b6100d660048036038101906100d191906103d7565b6101c4565b6040516100e39190610619565b60405180910390f35b6100f46101e1565b6040516101019190610581565b60405180910390f35b610124600480360381019061011f9190610404565b610205565b005b60016020528060005260406000206000915090505481565b60008082604051602001610152919061056a565b60405160208183030381529060405280519060200120905060006001600083815260200190815260200160002081905550807f0b9e739be1da46c8bc5578d0e27291c6f1a74f7c9028de596480af04a394cdeb846040516101b391906105b7565b60405180910390a280915050919050565b600060016000838152602001908152602001600020549050919050565b60008054906101000a900473ffffffffffffffffffffffffffffffffffffffff1681565b60008054906101000a900473ffffffffffffffffffffffffffffffffffffffff1673ffffffffffffffffffffffffffffffffffffffff163373ffffffffffffffffffffffffffffffffffffffff1614610293576040517f08c379a000000000000000000000000000000000000000000000000000000000815260040161028a906105f9565b60405180910390fd5b60006001600084815260200190815260200160002054146102e9576040517f08c379a00000000000000000000000000000000000000000000000000000000081526004016102e0906105d9565b60405180910390fd5b806001600084815260200190815260200160002081905550817f041e0e2d123c8df5baf138c9cb3250f6eb4c993c7705695328dd865d1318dcbf826040516103319190610619565b60405180910390a25050565b600061035061034b84610659565b610634565b90508281526020810184848401111561036c5761036b61079e565b5b6103778482856106f7565b509392505050565b60008135905061038e8161085c565b92915050565b600082601f8301126103a9576103a8610799565b5b81356103b984826020860161033d565b91505092915050565b6000813590506103d181610873565b92915050565b6000602082840312156103ed576103ec6107a8565b5b60006103fb8482850161037f565b91505092915050565b6000806040838503121561041b5761041a6107a8565b5b60006104298582860161037f565b925050602061043a858286016103c2565b9150509250929050565b60006020828403121561045a576104596107a8565b5b600082013567ffffffffffffffff811115610478576104776107a3565b5b61048484828501610394565b91505092915050565b610496816106b1565b82525050565b6104a5816106c3565b82525050565b60006104b68261068a565b6104c08185610695565b93506104d0818560208601610706565b6104d9816107ad565b840191505092915050565b60006104ef8261068a565b6104f981856106a6565b9350610509818560208601610706565b80840191505092915050565b6000610522602583610695565b915061052d826107be565b604082019050919050565b6000610545602a83610695565b91506105508261080d565b604082019050919050565b610564816106ed565b82525050565b600061057682846104e4565b915081905092915050565b6000602082019050610596600083018461048d565b92915050565b60006020820190506105b1600083018461049c565b92915050565b600060208201905081810360008301526105d181846104ab565b905092915050565b600060208201905081810360008301526105f281610515565b9050919050565b6000602082019050818103600083015261061281610538565b9050919050565b600060208201905061062e600083018461055b565b92915050565b600061063e61064f565b905061064a8282610739565b919050565b6000604051905090565b600067ffffffffffffffff8211156106745761067361076a565b5b61067d826107ad565b9050602081019050919050565b600081519050919050565b600082825260208201905092915050565b600081905092915050565b60006106bc826106cd565b9050919050565b6000819050919050565b600073ffffffffffffffffffffffffffffffffffffffff82169050919050565b6000819050919050565b82818337600083830152505050565b60005b83811015610724578082015181840152602081019050610709565b83811115610733576000848401525b50505050565b610742826107ad565b810181811067ffffffffffffffff821117156107615761076061076a565b5b80604052505050565b7f4e487b7100000000000000000000000000000000000000000000000000000000600052604160045260246000fd5b600080fd5b600080fd5b600080fd5b600080fd5b6000601f19601f8301169050919050565b7f4461746120666f7220746865207265717565737420616c72656164792070726f60008201527f7669646564000000000000000000000000000000000000000000000000000000602082015250565b7f4f6e6c7920636f6e7472616374206f776e65722063616e2063616c6c2074686960008201527f732066756e6374696f6e00000000000000000000000000000000000000000000602082015250565b610865816106c3565b811461087057600080fd5b50565b61087c816106ed565b811461088757600080fd5b5056fea2646970667358221220c56885ccb1c98e770dd3f0a74a67012c408458a70f35fd1e104d3540657f4d6964736f6c63430008060033",
			"opcodes": "PUSH1 0x80 PUSH1 0x40 MSTORE CALLVALUE DUP1 ISZERO PUSH2 0x10 JUMPI PUSH1 0x0 DUP1 REVERT JUMPDEST POP CALLER PUSH1 0x0 DUP1 PUSH2 0x100 EXP DUP2 SLOAD DUP2 PUSH20 0xFFFFFFFFFFFFFFFFFFFFFFFFFFFFFFFFFFFFFFFF MUL NOT AND SWAP1 DUP4 PUSH20 0xFFFFFFFFFFFFFFFFFFFFFFFFFFFFFFFFFFFFFFFF AND MUL OR SWAP1 SSTORE POP PUSH2 0x8C0 DUP1 PUSH2 0x60 PUSH1 0x0 CODECOPY PUSH1 0x0 RETURN INVALID PUSH1 0x80 PUSH1 0x40 MSTORE CALLVALUE DUP1 ISZERO PUSH2 0x10 JUMPI PUSH1 0x0 DUP1 REVERT JUMPDEST POP PUSH1 0x4 CALLDATASIZE LT PUSH2 0x57 JUMPI PUSH1 0x0 CALLDATALOAD PUSH1 0xE0 SHR DUP1 PUSH4 0x147FB0C EQ PUSH2 0x5C JUMPI DUP1 PUSH4 0x2215EC2C EQ PUSH2 0x8C JUMPI DUP1 PUSH4 0x54F6127F EQ PUSH2 0xBC JUMPI DUP1 PUSH4 0x8DA5CB5B EQ PUSH2 0xEC JUMPI DUP1 PUSH4 0xA31D29C8 EQ PUSH2 0x10A JUMPI JUMPDEST PUSH1 0x0 DUP1 REVERT JUMPDEST PUSH2 0x76 PUSH1 0x4 DUP1 CALLDATASIZE SUB DUP2 ADD SWAP1 PUSH2 0x71 SWAP2 SWAP1 PUSH2 0x3D7 JUMP JUMPDEST PUSH2 0x126 JUMP JUMPDEST PUSH1 0x40 MLOAD PUSH2 0x83 SWAP2 SWAP1 PUSH2 0x619 JUMP JUMPDEST PUSH1 0x40 MLOAD DUP1 SWAP2 SUB SWAP1 RETURN JUMPDEST PUSH2 0xA6 PUSH1 0x4 DUP1 CALLDATASIZE SUB DUP2 ADD SWAP1 PUSH2 0xA1 SWAP2 SWAP1 PUSH2 0x444 JUMP JUMPDEST PUSH2 0x13E JUMP JUMPDEST PUSH1 0x40 MLOAD PUSH2 0xB3 SWAP2 SWAP1 PUSH2 0x59C JUMP JUMPDEST PUSH1 0x40 MLOAD DUP1 SWAP2 SUB SWAP1 RETURN JUMPDEST PUSH2 0xD6 PUSH1 0x4 DUP1 CALLDATASIZE SUB DUP2 ADD SWAP1 PUSH2 0xD1 SWAP2 SWAP1 PUSH2 0x3D7 JUMP JUMPDEST PUSH2 0x1C4 JUMP JUMPDEST PUSH1 0x40 MLOAD PUSH2 0xE3 SWAP2 SWAP1 PUSH2 0x619 JUMP JUMPDEST PUSH1 0x40 MLOAD DUP1 SWAP2 SUB SWAP1 RETURN JUMPDEST PUSH2 0xF4 PUSH2 0x1E1 JUMP JUMPDEST PUSH1 0x40 MLOAD PUSH2 0x101 SWAP2 SWAP1 PUSH2 0x581 JUMP JUMPDEST PUSH1 0x40 MLOAD DUP1 SWAP2 SUB SWAP1 RETURN JUMPDEST PUSH2 0x124 PUSH1 0x4 DUP1 CALLDATASIZE SUB DUP2 ADD SWAP1 PUSH2 0x11F SWAP2 SWAP1 PUSH2 0x404 JUMP JUMPDEST PUSH2 0x205 JUMP JUMPDEST STOP JUMPDEST PUSH1 0x1 PUSH1 0x20 MSTORE DUP1 PUSH1 0x0 MSTORE PUSH1 0x40 PUSH1 0x0 KECCAK256 PUSH1 0x0 SWAP2 POP SWAP1 POP SLOAD DUP2 JUMP JUMPDEST PUSH1 0x0 DUP1 DUP3 PUSH1 0x40 MLOAD PUSH1 0x20 ADD PUSH2 0x152 SWAP2 SWAP1 PUSH2 0x56A JUMP JUMPDEST PUSH1 0x40 MLOAD PUSH1 0x20 DUP2 DUP4 SUB SUB DUP2 MSTORE SWAP1 PUSH1 0x40 MSTORE DUP1 MLOAD SWAP1 PUSH1 0x20 ADD KECCAK256 SWAP1 POP PUSH1 0x0 PUSH1 0x1 PUSH1 0x0 DUP4 DUP2 MSTORE PUSH1 0x20 ADD SWAP1 DUP2 MSTORE PUSH1 0x20 ADD PUSH1 0x0 KECCAK256 DUP2 SWAP1 SSTORE POP DUP1 PUSH32 0xB9E739BE1DA46C8BC5578D0E27291C6F1A74F7C9028DE596480AF04A394CDEB DUP5 PUSH1 0x40 MLOAD PUSH2 0x1B3 SWAP2 SWAP1 PUSH2 0x5B7 JUMP JUMPDEST PUSH1 0x40 MLOAD DUP1 SWAP2 SUB SWAP1 LOG2 DUP1 SWAP2 POP POP SWAP2 SWAP1 POP JUMP JUMPDEST PUSH1 0x0 PUSH1 0x1 PUSH1 0x0 DUP4 DUP2 MSTORE PUSH1 0x20 ADD SWAP1 DUP2 MSTORE PUSH1 0x20 ADD PUSH1 0x0 KECCAK256 SLOAD SWAP1 POP SWAP2 SWAP1 POP JUMP JUMPDEST PUSH1 0x0 DUP1 SLOAD SWAP1 PUSH2 0x100 EXP SWAP1 DIV PUSH20 0xFFFFFFFFFFFFFFFFFFFFFFFFFFFFFFFFFFFFFFFF AND DUP2 JUMP JUMPDEST PUSH1 0x0 DUP1 SLOAD SWAP1 PUSH2 0x100 EXP SWAP1 DIV PUSH20 0xFFFFFFFFFFFFFFFFFFFFFFFFFFFFFFFFFFFFFFFF AND PUSH20 0xFFFFFFFFFFFFFFFFFFFFFFFFFFFFFFFFFFFFFFFF AND CALLER PUSH20 0xFFFFFFFFFFFFFFFFFFFFFFFFFFFFFFFFFFFFFFFF AND EQ PUSH2 0x293 JUMPI PUSH1 0x40 MLOAD PUSH32 0x8C379A000000000000000000000000000000000000000000000000000000000 DUP2 MSTORE PUSH1 0x4 ADD PUSH2 0x28A SWAP1 PUSH2 0x5F9 JUMP JUMPDEST PUSH1 0x40 MLOAD DUP1 SWAP2 SUB SWAP1 REVERT JUMPDEST PUSH1 0x0 PUSH1 0x1 PUSH1 0x0 DUP5 DUP2 MSTORE PUSH1 0x20 ADD SWAP1 DUP2 MSTORE PUSH1 0x20 ADD PUSH1 0x0 KECCAK256 SLOAD EQ PUSH2 0x2E9 JUMPI PUSH1 0x40 MLOAD PUSH32 0x8C379A000000000000000000000000000000000000000000000000000000000 DUP2 MSTORE PUSH1 0x4 ADD PUSH2 0x2E0 SWAP1 PUSH2 0x5D9 JUMP JUMPDEST PUSH1 0x40 MLOAD DUP1 SWAP2 SUB SWAP1 REVERT JUMPDEST DUP1 PUSH1 0x1 PUSH1 0x0 DUP5 DUP2 MSTORE PUSH1 0x20 ADD SWAP1 DUP2 MSTORE PUSH1 0x20 ADD PUSH1 0x0 KECCAK256 DUP2 SWAP1 SSTORE POP DUP2 PUSH32 0x41E0E2D123C8DF5BAF138C9CB3250F6EB4C993C7705695328DD865D1318DCBF DUP3 PUSH1 0x40 MLOAD PUSH2 0x331 SWAP2 SWAP1 PUSH2 0x619 JUMP JUMPDEST PUSH1 0x40 MLOAD DUP1 SWAP2 SUB SWAP1 LOG2 POP POP JUMP JUMPDEST PUSH1 0x0 PUSH2 0x350 PUSH2 0x34B DUP5 PUSH2 0x659 JUMP JUMPDEST PUSH2 0x634 JUMP JUMPDEST SWAP1 POP DUP3 DUP2 MSTORE PUSH1 0x20 DUP2 ADD DUP5 DUP5 DUP5 ADD GT ISZERO PUSH2 0x36C JUMPI PUSH2 0x36B PUSH2 0x79E JUMP JUMPDEST JUMPDEST PUSH2 0x377 DUP5 DUP3 DUP6 PUSH2 0x6F7 JUMP JUMPDEST POP SWAP4 SWAP3 POP POP POP JUMP JUMPDEST PUSH1 0x0 DUP2 CALLDATALOAD SWAP1 POP PUSH2 0x38E DUP2 PUSH2 0x85C JUMP JUMPDEST SWAP3 SWAP2 POP POP JUMP JUMPDEST PUSH1 0x0 DUP3 PUSH1 0x1F DUP4 ADD SLT PUSH2 0x3A9 JUMPI PUSH2 0x3A8 PUSH2 0x799 JUMP JUMPDEST JUMPDEST DUP2 CALLDATALOAD PUSH2 0x3B9 DUP5 DUP3 PUSH1 0x20 DUP7 ADD PUSH2 0x33D JUMP JUMPDEST SWAP2 POP POP SWAP3 SWAP2 POP POP JUMP JUMPDEST PUSH1 0x0 DUP2 CALLDATALOAD SWAP1 POP PUSH2 0x3D1 DUP2 PUSH2 0x873 JUMP JUMPDEST SWAP3 SWAP2 POP POP JUMP JUMPDEST PUSH1 0x0 PUSH1 0x20 DUP3 DUP5 SUB SLT ISZERO PUSH2 0x3ED JUMPI PUSH2 0x3EC PUSH2 0x7A8 JUMP JUMPDEST JUMPDEST PUSH1 0x0 PUSH2 0x3FB DUP5 DUP3 DUP6 ADD PUSH2 0x37F JUMP JUMPDEST SWAP2 POP POP SWAP3 SWAP2 POP POP JUMP JUMPDEST PUSH1 0x0 DUP1 PUSH1 0x40 DUP4 DUP6 SUB SLT ISZERO PUSH2 0x41B JUMPI PUSH2 0x41A PUSH2 0x7A8 JUMP JUMPDEST JUMPDEST PUSH1 0x0 PUSH2 0x429 DUP6 DUP3 DUP7 ADD PUSH2 0x37F JUMP JUMPDEST SWAP3 POP POP PUSH1 0x20 PUSH2 0x43A DUP6 DUP3 DUP7 ADD PUSH2 0x3C2 JUMP JUMPDEST SWAP2 POP POP SWAP3 POP SWAP3 SWAP1 POP JUMP JUMPDEST PUSH1 0x0 PUSH1 0x20 DUP3 DUP5 SUB SLT ISZERO PUSH2 0x45A JUMPI PUSH2 0x459 PUSH2 0x7A8 JUMP JUMPDEST JUMPDEST PUSH1 0x0 DUP3 ADD CALLDATALOAD PUSH8 0xFFFFFFFFFFFFFFFF DUP2 GT ISZERO PUSH2 0x478 JUMPI PUSH2 0x477 PUSH2 0x7A3 JUMP JUMPDEST JUMPDEST PUSH2 0x484 DUP5 DUP3 DUP6 ADD PUSH2 0x394 JUMP JUMPDEST SWAP2 POP POP SWAP3 SWAP2 POP POP JUMP JUMPDEST PUSH2 0x496 DUP2 PUSH2 0x6B1 JUMP JUMPDEST DUP3 MSTORE POP POP JUMP JUMPDEST PUSH2 0x4A5 DUP2 PUSH2 0x6C3 JUMP JUMPDEST DUP3 MSTORE POP POP JUMP JUMPDEST PUSH1 0x0 PUSH2 0x4B6 DUP3 PUSH2 0x68A JUMP JUMPDEST PUSH2 0x4C0 DUP2 DUP6 PUSH2 0x695 JUMP JUMPDEST SWAP4 POP PUSH2 0x4D0 DUP2 DUP6 PUSH1 0x20 DUP7 ADD PUSH2 0x706 JUMP JUMPDEST PUSH2 0x4D9 DUP2 PUSH2 0x7AD JUMP JUMPDEST DUP5 ADD SWAP2 POP POP SWAP3 SWAP2 POP POP JUMP JUMPDEST PUSH1 0x0 PUSH2 0x4EF DUP3 PUSH2 0x68A JUMP JUMPDEST PUSH2 0x4F9 DUP2 DUP6 PUSH2 0x6A6 JUMP JUMPDEST SWAP4 POP PUSH2 0x509 DUP2 DUP6 PUSH1 0x20 DUP7 ADD PUSH2 0x706 JUMP JUMPDEST DUP1 DUP5 ADD SWAP2 POP POP SWAP3 SWAP2 POP POP JUMP JUMPDEST PUSH1 0x0 PUSH2 0x522 PUSH1 0x25 DUP4 PUSH2 0x695 JUMP JUMPDEST SWAP2 POP PUSH2 0x52D DUP3 PUSH2 0x7BE JUMP JUMPDEST PUSH1 0x40 DUP3 ADD SWAP1 POP SWAP2 SWAP1 POP JUMP JUMPDEST PUSH1 0x0 PUSH2 0x545 PUSH1 0x2A DUP4 PUSH2 0x695 JUMP JUMPDEST SWAP2 POP PUSH2 0x550 DUP3 PUSH2 0x80D JUMP JUMPDEST PUSH1 0x40 DUP3 ADD SWAP1 POP SWAP2 SWAP1 POP JUMP JUMPDEST PUSH2 0x564 DUP2 PUSH2 0x6ED JUMP JUMPDEST DUP3 MSTORE POP POP JUMP JUMPDEST PUSH1 0x0 PUSH2 0x576 DUP3 DUP5 PUSH2 0x4E4 JUMP JUMPDEST SWAP2 POP DUP2 SWAP1 POP SWAP3 SWAP2 POP POP JUMP JUMPDEST PUSH1 0x0 PUSH1 0x20 DUP3 ADD SWAP1 POP PUSH2 0x596 PUSH1 0x0 DUP4 ADD DUP5 PUSH2 0x48D JUMP JUMPDEST SWAP3 SWAP2 POP POP JUMP JUMPDEST PUSH1 0x0 PUSH1 0x20 DUP3 ADD SWAP1 POP PUSH2 0x5B1 PUSH1 0x0 DUP4 ADD DUP5 PUSH2 0x49C JUMP JUMPDEST SWAP3 SWAP2 POP POP JUMP JUMPDEST PUSH1 0x0 PUSH1 0x20 DUP3 ADD SWAP1 POP DUP2 DUP2 SUB PUSH1 0x0 DUP4 ADD MSTORE PUSH2 0x5D1 DUP2 DUP5 PUSH2 0x4AB JUMP JUMPDEST SWAP1 POP SWAP3 SWAP2 POP POP JUMP JUMPDEST PUSH1 0x0 PUSH1 0x20 DUP3 ADD SWAP1 POP DUP2 DUP2 SUB PUSH1 0x0 DUP4 ADD MSTORE PUSH2 0x5F2 DUP2 PUSH2 0x515 JUMP JUMPDEST SWAP1 POP SWAP2 SWAP1 POP JUMP JUMPDEST PUSH1 0x0 PUSH1 0x20 DUP3 ADD SWAP1 POP DUP2 DUP2 SUB PUSH1 0x0 DUP4 ADD MSTORE PUSH2 0x612 DUP2 PUSH2 0x538 JUMP JUMPDEST SWAP1 POP SWAP2 SWAP1 POP JUMP JUMPDEST PUSH1 0x0 PUSH1 0x20 DUP3 ADD SWAP1 POP PUSH2 0x62E PUSH1 0x0 DUP4 ADD DUP5 PUSH2 0x55B JUMP JUMPDEST SWAP3 SWAP2 POP POP JUMP JUMPDEST PUSH1 0x0 PUSH2 0x63E PUSH2 0x64F JUMP JUMPDEST SWAP1 POP PUSH2 0x64A DUP3 DUP3 PUSH2 0x739 JUMP JUMPDEST SWAP2 SWAP1 POP JUMP JUMPDEST PUSH1 0x0 PUSH1 0x40 MLOAD SWAP1 POP SWAP1 JUMP JUMPDEST PUSH1 0x0 PUSH8 0xFFFFFFFFFFFFFFFF DUP3 GT ISZERO PUSH2 0x674 JUMPI PUSH2 0x673 PUSH2 0x76A JUMP JUMPDEST JUMPDEST PUSH2 0x67D DUP3 PUSH2 0x7AD JUMP JUMPDEST SWAP1 POP PUSH1 0x20 DUP2 ADD SWAP1 POP SWAP2 SWAP1 POP JUMP JUMPDEST PUSH1 0x0 DUP2 MLOAD SWAP1 POP SWAP2 SWAP1 POP JUMP JUMPDEST PUSH1 0x0 DUP3 DUP3 MSTORE PUSH1 0x20 DUP3 ADD SWAP1 POP SWAP3 SWAP2 POP POP JUMP JUMPDEST PUSH1 0x0 DUP2 SWAP1 POP SWAP3 SWAP2 POP POP JUMP JUMPDEST PUSH1 0x0 PUSH2 0x6BC DUP3 PUSH2 0x6CD JUMP JUMPDEST SWAP1 POP SWAP2 SWAP1 POP JUMP JUMPDEST PUSH1 0x0 DUP2 SWAP1 POP SWAP2 SWAP1 POP JUMP JUMPDEST PUSH1 0x0 PUSH20 0xFFFFFFFFFFFFFFFFFFFFFFFFFFFFFFFFFFFFFFFF DUP3 AND SWAP1 POP SWAP2 SWAP1 POP JUMP JUMPDEST PUSH1 0x0 DUP2 SWAP1 POP SWAP2 SWAP1 POP JUMP JUMPDEST DUP3 DUP2 DUP4 CALLDATACOPY PUSH1 0x0 DUP4 DUP4 ADD MSTORE POP POP POP JUMP JUMPDEST PUSH1 0x0 JUMPDEST DUP4 DUP2 LT ISZERO PUSH2 0x724 JUMPI DUP1 DUP3 ADD MLOAD DUP2 DUP5 ADD MSTORE PUSH1 0x20 DUP2 ADD SWAP1 POP PUSH2 0x709 JUMP JUMPDEST DUP4 DUP2 GT ISZERO PUSH2 0x733 JUMPI PUSH1 0x0 DUP5 DUP5 ADD MSTORE JUMPDEST POP POP POP POP JUMP JUMPDEST PUSH2 0x742 DUP3 PUSH2 0x7AD JUMP JUMPDEST DUP2 ADD DUP2 DUP2 LT PUSH8 0xFFFFFFFFFFFFFFFF DUP3 GT OR ISZERO PUSH2 0x761 JUMPI PUSH2 0x760 PUSH2 0x76A JUMP JUMPDEST JUMPDEST DUP1 PUSH1 0x40 MSTORE POP POP POP JUMP JUMPDEST PUSH32 0x4E487B7100000000000000000000000000000000000000000000000000000000 PUSH1 0x0 MSTORE PUSH1 0x41 PUSH1 0x4 MSTORE PUSH1 0x24 PUSH1 0x0 REVERT JUMPDEST PUSH1 0x0 DUP1 REVERT JUMPDEST PUSH1 0x0 DUP1 REVERT JUMPDEST PUSH1 0x0 DUP1 REVERT JUMPDEST PUSH1 0x0 DUP1 REVERT JUMPDEST PUSH1 0x0 PUSH1 0x1F NOT PUSH1 0x1F DUP4 ADD AND SWAP1 POP SWAP2 SWAP1 POP JUMP JUMPDEST PUSH32 0x4461746120666F7220746865207265717565737420616C72656164792070726F PUSH1 0x0 DUP3 ADD MSTORE PUSH32 0x7669646564000000000000000000000000000000000000000000000000000000 PUSH1 0x20 DUP3 ADD MSTORE POP JUMP JUMPDEST PUSH32 0x4F6E6C7920636F6E7472616374206F776E65722063616E2063616C6C20746869 PUSH1 0x0 DUP3 ADD MSTORE PUSH32 0x732066756E6374696F6E00000000000000000000000000000000000000000000 PUSH1 0x20 DUP3 ADD MSTORE POP JUMP JUMPDEST PUSH2 0x865 DUP2 PUSH2 0x6C3 JUMP JUMPDEST DUP2 EQ PUSH2 0x870 JUMPI PUSH1 0x0 DUP1 REVERT JUMPDEST POP JUMP JUMPDEST PUSH2 0x87C DUP2 PUSH2 0x6ED JUMP JUMPDEST DUP2 EQ PUSH2 0x887 JUMPI PUSH1 0x0 DUP1 REVERT JUMPDEST POP JUMP INVALID LOG2 PUSH5 0x6970667358 0x22 SLT KECCAK256 0xC5 PUSH9 0x85CCB1C98E770DD3F0 0xA7 0x4A PUSH8 0x12C408458A70F35 REVERT 0x1E LT 0x4D CALLDATALOAD BLOCKHASH PUSH6 0x7F4D6964736F PUSH13 0x63430008060033000000000000 "
		},
		"gasEstimates": {
			"creation": {
				"codeDepositCost": "448000",
				"executionCost": "24746",
				"totalCost": "472746"
			},
			"external": {
				"data(bytes32)": "2743",
				"getData(bytes32)": "2802",
				"owner()": "2555",
				"provideData(bytes32,uint256)": "infinite",
				"requestData(string)": "infinite"
			}
		},
		"methodIdentifiers": {
			"data(bytes32)": "0147fb0c",
			"getData(bytes32)": "54f6127f",
			"owner()": "8da5cb5b",
			"provideData(bytes32,uint256)": "a31d29c8",
			"requestData(string)": "2215ec2c"
		}
	},
	"abi": [
		{
			"inputs": [],
			"stateMutability": "nonpayable",
			"type": "constructor"
		},
		{
			"anonymous": false,
			"inputs": [
				{
					"indexed": true,
					"internalType": "bytes32",
					"name": "requestId",
					"type": "bytes32"
				},
				{
					"indexed": false,
					"internalType": "string",
					"name": "url",
					"type": "string"
				}
			],
			"name": "DataRequest",
			"type": "event"
		},
		{
			"anonymous": false,
			"inputs": [
				{
					"indexed": true,
					"internalType": "bytes32",
					"name": "requestId",
					"type": "bytes32"
				},
				{
					"indexed": false,
					"internalType": "uint256",
					"name": "result",
					"type": "uint256"
				}
			],
			"name": "DataResponse",
			"type": "event"
		},
		{
			"inputs": [
				{
					"internalType": "bytes32",
					"name": "",
					"type": "bytes32"
				}
			],
			"name": "data",
			"outputs": [
				{
					"internalType": "uint256",
					"name": "",
					"type": "uint256"
				}
			],
			"stateMutability": "view",
			"type": "function"
		},
		{
			"inputs": [
				{
					"internalType": "bytes32",
					"name": "requestId",
					"type": "bytes32"
				}
			],
			"name": "getData",
			"outputs": [
				{
					"internalType": "uint256",
					"name": "",
					"type": "uint256"
				}
			],
			"stateMutability": "view",
			"type": "function"
		},
		{
			"inputs": [],
			"name": "owner",
			"outputs": [
				{
					"internalType": "address",
					"name": "",
					"type": "address"
				}
			],
			"stateMutability": "view",
			"type": "function"
		},
		{
			"inputs": [
				{
					"internalType": "bytes32",
					"name": "requestId",
					"type": "bytes32"
				},
				{
					"internalType": "uint256",
					"name": "result",
					"type": "uint256"
				}
			],
			"name": "provideData",
			"outputs": [],
			"stateMutability": "nonpayable",
			"type": "function"
		},
		{
			"inputs": [
				{
					"internalType": "string",
					"name": "url",
					"type": "string"
				}
			],
			"name": "requestData",
			"outputs": [
				{
					"internalType": "bytes32",
					"name": "",
					"type": "bytes32"
				}
			],
			"stateMutability": "nonpayable",
			"type": "function"
		}
	]
}