{
  "contractName": "BaseCertContract",
  "abi": [
    {
      "inputs": [],
      "stateMutability": "nonpayable",
      "type": "constructor"
    },
    {
      "anonymous": false,
      "inputs": [
        {
          "indexed": true,
          "internalType": "address",
          "name": "user",
          "type": "address"
        }
      ],
      "name": "addedm1",
      "type": "event"
    },
    {
      "anonymous": false,
      "inputs": [
        {
          "indexed": true,
          "internalType": "address",
          "name": "user",
          "type": "address"
        }
      ],
      "name": "addedm2",
      "type": "event"
    },
    {
      "inputs": [
        {
          "internalType": "int256",
          "name": "infop",
          "type": "int256"
        }
      ],
      "name": "addcertifier",
      "outputs": [],
      "stateMutability": "nonpayable",
      "type": "function"
    },
    {
      "inputs": [
        {
          "internalType": "address",
          "name": "ut1",
          "type": "address"
        }
      ],
      "name": "delm1",
      "outputs": [],
      "stateMutability": "nonpayable",
      "type": "function"
    },
    {
      "inputs": [
        {
          "internalType": "address",
          "name": "ut2",
          "type": "address"
        }
      ],
      "name": "delm2",
      "outputs": [],
      "stateMutability": "nonpayable",
      "type": "function"
    },
    {
      "inputs": [
        {
          "internalType": "address",
          "name": "ut1",
          "type": "address"
        }
      ],
      "name": "addm1",
      "outputs": [],
      "stateMutability": "nonpayable",
      "type": "function"
    },
    {
      "inputs": [
        {
          "internalType": "address",
          "name": "ut2",
          "type": "address"
        }
      ],
      "name": "addm2",
      "outputs": [],
      "stateMutability": "nonpayable",
      "type": "function"
    },
    {
      "inputs": [],
      "name": "isCertifier_",
      "outputs": [
        {
          "internalType": "bool",
          "name": "",
          "type": "bool"
        }
      ],
      "stateMutability": "view",
      "type": "function"
    },
    {
      "inputs": [],
      "name": "isM1",
      "outputs": [
        {
          "internalType": "bool",
          "name": "",
          "type": "bool"
        }
      ],
      "stateMutability": "view",
      "type": "function"
    },
    {
      "inputs": [],
      "name": "isM2",
      "outputs": [
        {
          "internalType": "bool",
          "name": "",
          "type": "bool"
        }
      ],
      "stateMutability": "view",
      "type": "function"
    }
  ],
  "bytecode": "0x608060405234801561001057600080fd5b50600280546001600160a01b03191633179055610666806100326000396000f3fe608060405234801561001057600080fd5b50600436106100885760003560e01c8063513f8c2f1161005b578063513f8c2f146100f55780635f7a980114610108578063c477cc5f1461011b578063d91728891461012e57600080fd5b8063041b1a7b1461008d57806307890067146100b5578063258c6647146100ca578063377c69bd146100e2575b600080fd5b6100a16002546001600160a01b0316331490565b604051901515815260200160405180910390f35b6100c86100c33660046105c8565b610146565b005b3360009081526001602052604090205460ff166100a1565b6100c86100f03660046105c8565b6102be565b6100c86101033660046105f1565b610351565b6100c86101163660046105c8565b6103ae565b6100c86101293660046105c8565b610524565b3360009081526020819052604090205460ff166100a1565b6002546001600160a01b0316331461019f5760405162461bcd60e51b81526020600482015260176024820152763cb7ba9030b932903737ba10309031b2b93a34b334b2b960491b60448201526064015b60405180910390fd5b6002546001600160a01b038083169116036101fc5760405162461bcd60e51b815260206004820181905260248201527f4120636572697469666965722063616e6e6f7420626520616c736f2061204d316044820152606401610196565b6001600160a01b03811660009081526003602052604090205443116102595760405162461bcd60e51b8152602060048201526013602482015272796f752068617665207374696c6c2074696d6560681b6044820152606401610196565b6102644360286105b5565b6001600160a01b038216600081815260036020908152604080832094909455819052828120805460ff19166001179055915190917f2756cd91fb7c0be01353207b0107f45f9dbe5f2837c4a796fe7d95c060d7588291a250565b3360009081526001602081905260409091205460ff161515146103235760405162461bcd60e51b815260206004820152601a60248201527f796f7520617265206e6f74207175616c696669656420757365720000000000006044820152606401610196565b6001600160a01b0316600090815260046020908152604080832083905560019091529020805460ff19169055565b600381136103995760405162461bcd60e51b81526020600482015260156024820152743cb7ba9030b932b713ba10309031b2ba34b334b2b960591b6044820152606401610196565b50600280546001600160a01b03191633179055565b6002546001600160a01b031633146104025760405162461bcd60e51b81526020600482015260176024820152763cb7ba9030b932903737ba10309031b2b93a34b334b2b960491b6044820152606401610196565b6002546001600160a01b0380831691160361045f5760405162461bcd60e51b815260206004820181905260248201527f4120636572697469666965722063616e6e6f7420626520616c736f2061204d316044820152606401610196565b6001600160a01b03811660009081526004602052604090205443116104bc5760405162461bcd60e51b8152602060048201526013602482015272796f752068617665207374696c6c2074696d6560681b6044820152606401610196565b6104c74360286105b5565b6001600160a01b038216600081815260046020908152604080832094909455600190819052838220805460ff19169091179055915190917f6b0e1d28d263422a620520c077040ce995db3e9b959e1daf117338b2b6f3c0eb91a250565b3360009081526020819052604090205460ff1615156001146105885760405162461bcd60e51b815260206004820152601a60248201527f796f7520617265206e6f74207175616c696669656420757365720000000000006044820152606401610196565b6001600160a01b03166000908152600360209081526040808320839055908290529020805460ff19169055565b60006105c1828461060a565b9392505050565b6000602082840312156105da57600080fd5b81356001600160a01b03811681146105c157600080fd5b60006020828403121561060357600080fd5b5035919050565b6000821982111561062b57634e487b7160e01b600052601160045260246000fd5b50019056fea26469706673582212205b39b622c19f92945f475c334693f3e95cf5590c9287cd044cb08e48250a8d9e64736f6c634300080d0033",
  "immutableReferences": {},
  "source": "//Base certification contract\n\n// SPDX-License-Identifier: MIT\npragma solidity ^0.8.0;\n\nimport \"@openzeppelin/contracts/utils/math/SafeMath.sol\";\n\ncontract BaseCertContract {\n    mapping(address => bool) internal m1; //producer that certifies bodyworks and engines\n\n    mapping(address => bool) internal m2; //user that test pump\n    \n    address internal certifier; //who specified the parameter for the verification.\n\n    mapping(address => uint256) internal timem1;//block when the service ends for m1\n\n    mapping(address => uint256) internal timem2;//block when the service ends for m1\n\n    //Events with information goal\n    event addedm1(address indexed user);\n    event addedm2(address indexed user);\n\n    constructor() public{\n      certifier = msg.sender;     \n    }\n\n    function addcertifier(int infop) external{\n        require(infop>3,\"you aren't a cetifier\");\n        certifier = msg.sender;\n    }\n\n    modifier isCertifier{\n      require(certifier == msg.sender, \"you are not a certifier\");\n      _;\n\n\n    }\n\n    modifier ism1{\n      require(m1[msg.sender] == true, \"you are not qualified user\");\n      _;\n\n\n    }\n\n    modifier ism2{\n      require(m2[msg.sender] == true, \"you are not qualified user\");\n      _;\n\n\n    }\n\n    function delm1(address  ut1) external ism1{ \n\n        delete timem1[ut1];\n        delete m1[ut1];\n    }  \n\n    function delm2(address  ut2) external ism2{ \n\n        delete timem2[ut2];\n        delete m2[ut2];\n    }  \n\n    function addm1(address  ut1) external isCertifier{ \n        \n        require(certifier != ut1, \"A ceritifier cannot be also a M1\");\n        require(timem1[ut1]<block.number,\"you have still time\");\n        timem1[ut1] = SafeMath.add(block.number, 40); //Assign to the producer the block where its service ends\n        m1[ut1] = true; //ut1 is a producer of engine and bodywork\n        emit addedm1(ut1);\n    } \n\n    function addm2(address ut2) external isCertifier{\n        require(certifier != ut2, \"A ceritifier cannot be also a M1\");\n        require(timem2[ut2]<block.number,\"you have still time\");\n        timem2[ut2] = SafeMath.add(block.number, 40); //Assign to the producer the block where its service ends\n        m2[ut2] = true; //ut2 is a pump tester\n        emit addedm2(ut2);\n    } \n\n    function isCertifier_() view external returns(bool){\n   \n        return certifier == msg.sender;\n    }  \n\n   function isM1() view external returns(bool) {\n        return m1[msg.sender];\n    }   \n\n    function isM2() view external returns(bool){\n   \n        return m2[msg.sender];\n    }  \n\n\n}",
  "sourcePath": "/home/parallels/Desktop/BLOCK_PROJ/BlockchainProject/Proj_source/contracts/Certificate_contract.sol",
  "compiler": {
    "name": "solc",
    "version": "0.8.13+commit.abaa5c0e.Emscripten.clang"
  },
  "schemaVersion": "3.4.13",
  "updatedAt": "2023-08-21T13:29:17.174Z",
  "devdoc": {
    "kind": "dev",
    "methods": {},
    "version": 1
  },
  "userdoc": {
    "kind": "user",
    "methods": {},
    "version": 1
  }
}