{
  "contractName": "ElectricPump",
  "abi": [
    {
      "inputs": [
        {
          "internalType": "address",
          "name": "ele",
          "type": "address"
        }
      ],
      "stateMutability": "nonpayable",
      "type": "constructor"
    },
    {
      "anonymous": false,
      "inputs": [
        {
          "indexed": true,
          "internalType": "address",
          "name": "user",
          "type": "address"
        }
      ],
      "name": "addedm1",
      "type": "event"
    },
    {
      "anonymous": false,
      "inputs": [
        {
          "indexed": true,
          "internalType": "address",
          "name": "user",
          "type": "address"
        }
      ],
      "name": "addedm2",
      "type": "event"
    },
    {
      "anonymous": false,
      "inputs": [
        {
          "indexed": true,
          "internalType": "uint256",
          "name": "fatt",
          "type": "uint256"
        },
        {
          "indexed": true,
          "internalType": "address",
          "name": "user",
          "type": "address"
        },
        {
          "indexed": false,
          "internalType": "string",
          "name": "producer",
          "type": "string"
        }
      ],
      "name": "certBody",
      "type": "event"
    },
    {
      "anonymous": false,
      "inputs": [
        {
          "indexed": true,
          "internalType": "uint256",
          "name": "fatt",
          "type": "uint256"
        },
        {
          "indexed": true,
          "internalType": "address",
          "name": "user",
          "type": "address"
        },
        {
          "indexed": false,
          "internalType": "string",
          "name": "producer",
          "type": "string"
        }
      ],
      "name": "certEngine",
      "type": "event"
    },
    {
      "anonymous": false,
      "inputs": [
        {
          "indexed": true,
          "internalType": "string",
          "name": "lot",
          "type": "string"
        },
        {
          "indexed": true,
          "internalType": "address",
          "name": "user",
          "type": "address"
        }
      ],
      "name": "certPump",
      "type": "event"
    },
    {
      "inputs": [
        {
          "internalType": "int256",
          "name": "infop",
          "type": "int256"
        }
      ],
      "name": "addcertifier",
      "outputs": [],
      "stateMutability": "nonpayable",
      "type": "function"
    },
    {
      "inputs": [
        {
          "internalType": "address",
          "name": "ut1",
          "type": "address"
        }
      ],
      "name": "addm1",
      "outputs": [],
      "stateMutability": "nonpayable",
      "type": "function"
    },
    {
      "inputs": [
        {
          "internalType": "address",
          "name": "ut2",
          "type": "address"
        }
      ],
      "name": "addm2",
      "outputs": [],
      "stateMutability": "nonpayable",
      "type": "function"
    },
    {
      "inputs": [
        {
          "internalType": "address",
          "name": "ut1",
          "type": "address"
        }
      ],
      "name": "delm1",
      "outputs": [],
      "stateMutability": "nonpayable",
      "type": "function"
    },
    {
      "inputs": [
        {
          "internalType": "address",
          "name": "ut2",
          "type": "address"
        }
      ],
      "name": "delm2",
      "outputs": [],
      "stateMutability": "nonpayable",
      "type": "function"
    },
    {
      "inputs": [],
      "name": "isCertifier_",
      "outputs": [
        {
          "internalType": "bool",
          "name": "",
          "type": "bool"
        }
      ],
      "stateMutability": "view",
      "type": "function",
      "constant": true
    },
    {
      "inputs": [],
      "name": "isM1",
      "outputs": [
        {
          "internalType": "bool",
          "name": "",
          "type": "bool"
        }
      ],
      "stateMutability": "view",
      "type": "function",
      "constant": true
    },
    {
      "inputs": [],
      "name": "isM2",
      "outputs": [
        {
          "internalType": "bool",
          "name": "",
          "type": "bool"
        }
      ],
      "stateMutability": "view",
      "type": "function",
      "constant": true
    },
    {
      "inputs": [
        {
          "internalType": "uint256",
          "name": "fatt",
          "type": "uint256"
        },
        {
          "internalType": "string",
          "name": "producer",
          "type": "string"
        }
      ],
      "name": "certificateEngine",
      "outputs": [],
      "stateMutability": "nonpayable",
      "type": "function"
    },
    {
      "inputs": [
        {
          "internalType": "uint256",
          "name": "fatt",
          "type": "uint256"
        },
        {
          "internalType": "string",
          "name": "producer",
          "type": "string"
        }
      ],
      "name": "certificateBody",
      "outputs": [],
      "stateMutability": "nonpayable",
      "type": "function"
    },
    {
      "inputs": [
        {
          "internalType": "uint256",
          "name": "body_fatt",
          "type": "uint256"
        },
        {
          "internalType": "uint256",
          "name": "engine_fatt",
          "type": "uint256"
        },
        {
          "internalType": "int256",
          "name": "freq",
          "type": "int256"
        },
        {
          "internalType": "int256",
          "name": "maxspeed",
          "type": "int256"
        },
        {
          "internalType": "int256",
          "name": "maxdepth",
          "type": "int256"
        },
        {
          "internalType": "int256",
          "name": "temp",
          "type": "int256"
        },
        {
          "internalType": "string",
          "name": "object",
          "type": "string"
        }
      ],
      "name": "certificatePumpA",
      "outputs": [],
      "stateMutability": "nonpayable",
      "type": "function"
    },
    {
      "inputs": [
        {
          "internalType": "uint256",
          "name": "body_fatt",
          "type": "uint256"
        },
        {
          "internalType": "string",
          "name": "lott",
          "type": "string"
        },
        {
          "internalType": "int256",
          "name": "freq",
          "type": "int256"
        },
        {
          "internalType": "int256",
          "name": "maxspeed",
          "type": "int256"
        },
        {
          "internalType": "int256",
          "name": "maxdepth",
          "type": "int256"
        },
        {
          "internalType": "int256",
          "name": "temp",
          "type": "int256"
        },
        {
          "internalType": "string",
          "name": "object",
          "type": "string"
        }
      ],
      "name": "certificatePumpT",
      "outputs": [],
      "stateMutability": "nonpayable",
      "type": "function"
    },
    {
      "inputs": [
        {
          "internalType": "string",
          "name": "object",
          "type": "string"
        }
      ],
      "name": "getElectricPumpData",
      "outputs": [
        {
          "internalType": "uint256",
          "name": "",
          "type": "uint256"
        },
        {
          "internalType": "uint256",
          "name": "",
          "type": "uint256"
        },
        {
          "internalType": "int256",
          "name": "",
          "type": "int256"
        },
        {
          "internalType": "int256",
          "name": "",
          "type": "int256"
        },
        {
          "internalType": "int256",
          "name": "",
          "type": "int256"
        },
        {
          "internalType": "int256",
          "name": "",
          "type": "int256"
        },
        {
          "internalType": "string",
          "name": "",
          "type": "string"
        }
      ],
      "stateMutability": "view",
      "type": "function",
      "constant": true
    },
    {
      "inputs": [
        {
          "internalType": "uint256",
          "name": "fatt",
          "type": "uint256"
        }
      ],
      "name": "isCertificatedBody",
      "outputs": [
        {
          "internalType": "bool",
          "name": "",
          "type": "bool"
        }
      ],
      "stateMutability": "view",
      "type": "function",
      "constant": true
    },
    {
      "inputs": [
        {
          "internalType": "uint256",
          "name": "fatt",
          "type": "uint256"
        }
      ],
      "name": "isCertificatedEngine",
      "outputs": [
        {
          "internalType": "bool",
          "name": "",
          "type": "bool"
        }
      ],
      "stateMutability": "view",
      "type": "function",
      "constant": true
    },
    {
      "inputs": [
        {
          "internalType": "string",
          "name": "lot",
          "type": "string"
        }
      ],
      "name": "isCertificatedPump",
      "outputs": [
        {
          "internalType": "bool",
          "name": "",
          "type": "bool"
        }
      ],
      "stateMutability": "view",
      "type": "function",
      "constant": true
    }
  ],
  "bytecode": "0x60806040523480156200001157600080fd5b5060405162002f8c38038062002f8c83398181016040528101906200003791906200012a565b33600260006101000a81548173ffffffffffffffffffffffffffffffffffffffff021916908373ffffffffffffffffffffffffffffffffffffffff16021790555080600560006101000a81548173ffffffffffffffffffffffffffffffffffffffff021916908373ffffffffffffffffffffffffffffffffffffffff160217905550506200015c565b600080fd5b600073ffffffffffffffffffffffffffffffffffffffff82169050919050565b6000620000f282620000c5565b9050919050565b6200010481620000e5565b81146200011057600080fd5b50565b6000815190506200012481620000f9565b92915050565b600060208284031215620001435762000142620000c0565b5b6000620001538482850162000113565b91505092915050565b612e20806200016c6000396000f3fe608060405234801561001057600080fd5b50600436106101005760003560e01c806350a7c85611610097578063c477cc5f11610066578063c477cc5f14610281578063c86e9a341461029d578063d9172889146102d3578063e7160ca0146102f157610100565b806350a7c85614610211578063513f8c2f1461022d5780635f7a9801146102495780635fc234ce1461026557610100565b8063258c6647116100d3578063258c66471461018b57806327a6a7d1146101a9578063377c69bd146101c55780633e8518d2146101e157610100565b8063041b1a7b146101055780630789006714610123578063190cf7fc1461013f5780631daa86b51461016f575b600080fd5b61010d610321565b60405161011a9190612014565b60405180910390f35b61013d600480360381019061013891906120a1565b610379565b005b61015960048036038101906101549190612104565b610605565b6040516101669190612014565b60405180910390f35b610189600480360381019061018491906122ad565b610655565b005b610193610c1c565b6040516101a09190612014565b60405180910390f35b6101c360048036038101906101be919061236b565b610c70565b005b6101df60048036038101906101da91906120a1565b610e28565b005b6101fb60048036038101906101f69190612104565b610f50565b6040516102089190612014565b60405180910390f35b61022b6004803603810190610226919061236b565b610fa0565b005b610247600480360381019061024291906123c7565b611158565b005b610263600480360381019061025e91906120a1565b6111df565b005b61027f600480360381019061027a91906123f4565b61146b565b005b61029b600480360381019061029691906120a1565b611a90565b005b6102b760048036038101906102b291906124ce565b611bb6565b6040516102ca97969594939291906125bd565b60405180910390f35b6102db611e9d565b6040516102e89190612014565b60405180910390f35b61030b600480360381019061030691906124ce565b611ef0565b6040516103189190612014565b60405180910390f35b60003373ffffffffffffffffffffffffffffffffffffffff16600260009054906101000a900473ffffffffffffffffffffffffffffffffffffffff1673ffffffffffffffffffffffffffffffffffffffff1614905090565b3373ffffffffffffffffffffffffffffffffffffffff16600260009054906101000a900473ffffffffffffffffffffffffffffffffffffffff1673ffffffffffffffffffffffffffffffffffffffff1614610409576040517f08c379a00000000000000000000000000000000000000000000000000000000081526004016104009061267f565b60405180910390fd5b8073ffffffffffffffffffffffffffffffffffffffff16600260009054906101000a900473ffffffffffffffffffffffffffffffffffffffff1673ffffffffffffffffffffffffffffffffffffffff1603610499576040517f08c379a0000000000000000000000000000000000000000000000000000000008152600401610490906126eb565b60405180910390fd5b43600360008373ffffffffffffffffffffffffffffffffffffffff1673ffffffffffffffffffffffffffffffffffffffff168152602001908152602001600020541061051a576040517f08c379a000000000000000000000000000000000000000000000000000000000815260040161051190612757565b60405180910390fd5b610525436028611f40565b600360008373ffffffffffffffffffffffffffffffffffffffff1673ffffffffffffffffffffffffffffffffffffffff1681526020019081526020016000208190555060016000808373ffffffffffffffffffffffffffffffffffffffff1673ffffffffffffffffffffffffffffffffffffffff16815260200190815260200160002060006101000a81548160ff0219169083151502179055508073ffffffffffffffffffffffffffffffffffffffff167f2756cd91fb7c0be01353207b0107f45f9dbe5f2837c4a796fe7d95c060d7588260405160405180910390a250565b6000600960008360405160200161061c9190612798565b60405160208183030381529060405280519060200120815260200190815260200160002060009054906101000a900460ff169050919050565b60011515600160003373ffffffffffffffffffffffffffffffffffffffff1673ffffffffffffffffffffffffffffffffffffffff16815260200190815260200160002060009054906101000a900460ff161515146106e8576040517f08c379a00000000000000000000000000000000000000000000000000000000081526004016106df906127ff565b60405180910390fd5b43600460003373ffffffffffffffffffffffffffffffffffffffff1673ffffffffffffffffffffffffffffffffffffffff1681526020019081526020016000205411610769576040517f08c379a00000000000000000000000000000000000000000000000000000000081526004016107609061286b565b60405180910390fd5b6001151560076000896040516020016107829190612798565b60405160208183030381529060405280519060200120815260200190815260200160002060009054906101000a900460ff161515146107f6576040517f08c379a00000000000000000000000000000000000000000000000000000000081526004016107ed906128d7565b60405180910390fd5b60011515600960008860405160200161080f9190612798565b60405160208183030381529060405280519060200120815260200190815260200160002060009054906101000a900460ff16151514610883576040517f08c379a000000000000000000000000000000000000000000000000000000000815260040161087a90612943565b60405180910390fd5b603285146108c6576040517f08c379a00000000000000000000000000000000000000000000000000000000081526004016108bd906129af565b60405180910390fd5b610b22841461090a576040517f08c379a000000000000000000000000000000000000000000000000000000000815260040161090190612a41565b60405180910390fd5b600f831461094d576040517f08c379a000000000000000000000000000000000000000000000000000000000815260040161094490612ad3565b60405180910390fd5b6087821315610991576040517f08c379a000000000000000000000000000000000000000000000000000000000815260040161098890612b3f565b60405180910390fd5b600160086000836040516020016109a89190612b9b565b60405160208183030381529060405280519060200120815260200190815260200160002060006101000a81548160ff0219169083151502179055508660066000836040516020016109f99190612b9b565b60405160208183030381529060405280519060200120815260200190815260200160002060000181905550856006600083604051602001610a3a9190612b9b565b60405160208183030381529060405280519060200120815260200190815260200160002060010181905550846006600083604051602001610a7b9190612b9b565b60405160208183030381529060405280519060200120815260200190815260200160002060020181905550836006600083604051602001610abc9190612b9b565b60405160208183030381529060405280519060200120815260200190815260200160002060030181905550826006600083604051602001610afd9190612b9b565b60405160208183030381529060405280519060200120815260200190815260200160002060040181905550816006600083604051602001610b3e9190612b9b565b60405160208183030381529060405280519060200120815260200190815260200160002060050181905550806006600083604051602001610b7f9190612b9b565b6040516020818303038152906040528051906020012081526020019081526020016000206006019080519060200190610bb9929190611f56565b503373ffffffffffffffffffffffffffffffffffffffff1681604051610bdf9190612b9b565b60405180910390207f031f6fce36e6a5bcdc3203334227b4cc1e68e8c9dcb4e79f20f7a1ed6fd6161460405160405180910390a350505050505050565b6000600160003373ffffffffffffffffffffffffffffffffffffffff1673ffffffffffffffffffffffffffffffffffffffff16815260200190815260200160002060009054906101000a900460ff16905090565b600115156000803373ffffffffffffffffffffffffffffffffffffffff1673ffffffffffffffffffffffffffffffffffffffff16815260200190815260200160002060009054906101000a900460ff16151514610d02576040517f08c379a0000000000000000000000000000000000000000000000000000000008152600401610cf9906127ff565b60405180910390fd5b43600360003373ffffffffffffffffffffffffffffffffffffffff1673ffffffffffffffffffffffffffffffffffffffff1681526020019081526020016000205411610d83576040517f08c379a0000000000000000000000000000000000000000000000000000000008152600401610d7a9061286b565b60405180910390fd5b60016009600084604051602001610d9a9190612798565b60405160208183030381529060405280519060200120815260200190815260200160002060006101000a81548160ff0219169083151502179055503373ffffffffffffffffffffffffffffffffffffffff16827fae896347b69b86c73035885156e34afa655820d19bd2bf6af5030d92504fbc5283604051610e1c9190612bb2565b60405180910390a35050565b60011515600160003373ffffffffffffffffffffffffffffffffffffffff1673ffffffffffffffffffffffffffffffffffffffff16815260200190815260200160002060009054906101000a900460ff16151514610ebb576040517f08c379a0000000000000000000000000000000000000000000000000000000008152600401610eb2906127ff565b60405180910390fd5b600460008273ffffffffffffffffffffffffffffffffffffffff1673ffffffffffffffffffffffffffffffffffffffff16815260200190815260200160002060009055600160008273ffffffffffffffffffffffffffffffffffffffff1673ffffffffffffffffffffffffffffffffffffffff16815260200190815260200160002060006101000a81549060ff021916905550565b60006007600083604051602001610f679190612798565b60405160208183030381529060405280519060200120815260200190815260200160002060009054906101000a900460ff169050919050565b600115156000803373ffffffffffffffffffffffffffffffffffffffff1673ffffffffffffffffffffffffffffffffffffffff16815260200190815260200160002060009054906101000a900460ff16151514611032576040517f08c379a0000000000000000000000000000000000000000000000000000000008152600401611029906127ff565b60405180910390fd5b43600360003373ffffffffffffffffffffffffffffffffffffffff1673ffffffffffffffffffffffffffffffffffffffff16815260200190815260200160002054116110b3576040517f08c379a00000000000000000000000000000000000000000000000000000000081526004016110aa9061286b565b60405180910390fd5b600160076000846040516020016110ca9190612798565b60405160208183030381529060405280519060200120815260200190815260200160002060006101000a81548160ff0219169083151502179055503373ffffffffffffffffffffffffffffffffffffffff16827fc5de4dc559709017f38644da79f99d5a40af2d5898fa3e11929b51423829005e8360405161114c9190612bb2565b60405180910390a35050565b6003811361119b576040517f08c379a000000000000000000000000000000000000000000000000000000000815260040161119290612c20565b60405180910390fd5b33600260006101000a81548173ffffffffffffffffffffffffffffffffffffffff021916908373ffffffffffffffffffffffffffffffffffffffff16021790555050565b3373ffffffffffffffffffffffffffffffffffffffff16600260009054906101000a900473ffffffffffffffffffffffffffffffffffffffff1673ffffffffffffffffffffffffffffffffffffffff161461126f576040517f08c379a00000000000000000000000000000000000000000000000000000000081526004016112669061267f565b60405180910390fd5b8073ffffffffffffffffffffffffffffffffffffffff16600260009054906101000a900473ffffffffffffffffffffffffffffffffffffffff1673ffffffffffffffffffffffffffffffffffffffff16036112ff576040517f08c379a00000000000000000000000000000000000000000000000000000000081526004016112f6906126eb565b60405180910390fd5b43600460008373ffffffffffffffffffffffffffffffffffffffff1673ffffffffffffffffffffffffffffffffffffffff1681526020019081526020016000205410611380576040517f08c379a000000000000000000000000000000000000000000000000000000000815260040161137790612757565b60405180910390fd5b61138b436028611f40565b600460008373ffffffffffffffffffffffffffffffffffffffff1673ffffffffffffffffffffffffffffffffffffffff1681526020019081526020016000208190555060018060008373ffffffffffffffffffffffffffffffffffffffff1673ffffffffffffffffffffffffffffffffffffffff16815260200190815260200160002060006101000a81548160ff0219169083151502179055508073ffffffffffffffffffffffffffffffffffffffff167f6b0e1d28d263422a620520c077040ce995db3e9b959e1daf117338b2b6f3c0eb60405160405180910390a250565b60011515600160003373ffffffffffffffffffffffffffffffffffffffff1673ffffffffffffffffffffffffffffffffffffffff16815260200190815260200160002060009054906101000a900460ff161515146114fe576040517f08c379a00000000000000000000000000000000000000000000000000000000081526004016114f5906127ff565b60405180910390fd5b43600460003373ffffffffffffffffffffffffffffffffffffffff1673ffffffffffffffffffffffffffffffffffffffff168152602001908152602001600020541161157f576040517f08c379a00000000000000000000000000000000000000000000000000000000081526004016115769061286b565b60405180910390fd5b6001151560076000896040516020016115989190612798565b60405160208183030381529060405280519060200120815260200190815260200160002060009054906101000a900460ff1615151461160c576040517f08c379a0000000000000000000000000000000000000000000000000000000008152600401611603906128d7565b60405180910390fd5b600560009054906101000a900473ffffffffffffffffffffffffffffffffffffffff1673ffffffffffffffffffffffffffffffffffffffff16638748a146876040518263ffffffff1660e01b81526004016116679190612bb2565b602060405180830381865afa158015611684573d6000803e3d6000fd5b505050506040513d601f19601f820116820180604052508101906116a89190612c6c565b6116e7576040517f08c379a00000000000000000000000000000000000000000000000000000000081526004016116de90612943565b60405180910390fd5b6032851461172a576040517f08c379a0000000000000000000000000000000000000000000000000000000008152600401611721906129af565b60405180910390fd5b610b22841461176e576040517f08c379a000000000000000000000000000000000000000000000000000000000815260040161176590612a41565b60405180910390fd5b600f83146117b1576040517f08c379a00000000000000000000000000000000000000000000000000000000081526004016117a890612ad3565b60405180910390fd5b60878213156117f5576040517f08c379a00000000000000000000000000000000000000000000000000000000081526004016117ec90612b3f565b60405180910390fd5b6001600860008360405160200161180c9190612b9b565b60405160208183030381529060405280519060200120815260200190815260200160002060006101000a81548160ff02191690831515021790555086600660008360405160200161185d9190612b9b565b6040516020818303038152906040528051906020012081526020019081526020016000206000018190555084600660008360405160200161189e9190612b9b565b604051602081830303815290604052805190602001208152602001908152602001600020600201819055508360066000836040516020016118df9190612b9b565b604051602081830303815290604052805190602001208152602001908152602001600020600301819055508260066000836040516020016119209190612b9b565b604051602081830303815290604052805190602001208152602001908152602001600020600401819055508160066000836040516020016119619190612b9b565b604051602081830303815290604052805190602001208152602001908152602001600020600501819055508060066000836040516020016119a29190612b9b565b60405160208183030381529060405280519060200120815260200190815260200160002060060190805190602001906119dc929190611f56565b508560066000836040516020016119f39190612b9b565b6040516020818303038152906040528051906020012081526020019081526020016000206007019080519060200190611a2d929190611f56565b503373ffffffffffffffffffffffffffffffffffffffff1681604051611a539190612b9b565b60405180910390207f031f6fce36e6a5bcdc3203334227b4cc1e68e8c9dcb4e79f20f7a1ed6fd6161460405160405180910390a350505050505050565b600115156000803373ffffffffffffffffffffffffffffffffffffffff1673ffffffffffffffffffffffffffffffffffffffff16815260200190815260200160002060009054906101000a900460ff16151514611b22576040517f08c379a0000000000000000000000000000000000000000000000000000000008152600401611b19906127ff565b60405180910390fd5b600360008273ffffffffffffffffffffffffffffffffffffffff1673ffffffffffffffffffffffffffffffffffffffff168152602001908152602001600020600090556000808273ffffffffffffffffffffffffffffffffffffffff1673ffffffffffffffffffffffffffffffffffffffff16815260200190815260200160002060006101000a81549060ff021916905550565b600080600080600080606060011515600860008a604051602001611bda9190612b9b565b60405160208183030381529060405280519060200120815260200190815260200160002060009054906101000a900460ff16151514611c4e576040517f08c379a0000000000000000000000000000000000000000000000000000000008152600401611c4590612ce5565b60405180910390fd5b6006600089604051602001611c639190612b9b565b60405160208183030381529060405280519060200120815260200190815260200160002060000154600660008a604051602001611ca09190612b9b565b60405160208183030381529060405280519060200120815260200190815260200160002060010154600660008b604051602001611cdd9190612b9b565b60405160208183030381529060405280519060200120815260200190815260200160002060020154600660008c604051602001611d1a9190612b9b565b60405160208183030381529060405280519060200120815260200190815260200160002060030154600660008d604051602001611d579190612b9b565b60405160208183030381529060405280519060200120815260200190815260200160002060040154600660008e604051602001611d949190612b9b565b60405160208183030381529060405280519060200120815260200190815260200160002060050154600660008f604051602001611dd19190612b9b565b604051602081830303815290604052805190602001208152602001908152602001600020600701808054611e0490612d34565b80601f0160208091040260200160405190810160405280929190818152602001828054611e3090612d34565b8015611e7d5780601f10611e5257610100808354040283529160200191611e7d565b820191906000526020600020905b815481529060010190602001808311611e6057829003601f168201915b505050505090509650965096509650965096509650919395979092949650565b60008060003373ffffffffffffffffffffffffffffffffffffffff1673ffffffffffffffffffffffffffffffffffffffff16815260200190815260200160002060009054906101000a900460ff16905090565b60006008600083604051602001611f079190612b9b565b60405160208183030381529060405280519060200120815260200190815260200160002060009054906101000a900460ff169050919050565b60008183611f4e9190612d94565b905092915050565b828054611f6290612d34565b90600052602060002090601f016020900481019282611f845760008555611fcb565b82601f10611f9d57805160ff1916838001178555611fcb565b82800160010185558215611fcb579182015b82811115611fca578251825591602001919060010190611faf565b5b509050611fd89190611fdc565b5090565b5b80821115611ff5576000816000905550600101611fdd565b5090565b60008115159050919050565b61200e81611ff9565b82525050565b60006020820190506120296000830184612005565b92915050565b6000604051905090565b600080fd5b600080fd5b600073ffffffffffffffffffffffffffffffffffffffff82169050919050565b600061206e82612043565b9050919050565b61207e81612063565b811461208957600080fd5b50565b60008135905061209b81612075565b92915050565b6000602082840312156120b7576120b6612039565b5b60006120c58482850161208c565b91505092915050565b6000819050919050565b6120e1816120ce565b81146120ec57600080fd5b50565b6000813590506120fe816120d8565b92915050565b60006020828403121561211a57612119612039565b5b6000612128848285016120ef565b91505092915050565b6000819050919050565b61214481612131565b811461214f57600080fd5b50565b6000813590506121618161213b565b92915050565b600080fd5b600080fd5b6000601f19601f8301169050919050565b7f4e487b7100000000000000000000000000000000000000000000000000000000600052604160045260246000fd5b6121ba82612171565b810181811067ffffffffffffffff821117156121d9576121d8612182565b5b80604052505050565b60006121ec61202f565b90506121f882826121b1565b919050565b600067ffffffffffffffff82111561221857612217612182565b5b61222182612171565b9050602081019050919050565b82818337600083830152505050565b600061225061224b846121fd565b6121e2565b90508281526020810184848401111561226c5761226b61216c565b5b61227784828561222e565b509392505050565b600082601f83011261229457612293612167565b5b81356122a484826020860161223d565b91505092915050565b600080600080600080600060e0888a0312156122cc576122cb612039565b5b60006122da8a828b016120ef565b97505060206122eb8a828b016120ef565b96505060406122fc8a828b01612152565b955050606061230d8a828b01612152565b945050608061231e8a828b01612152565b93505060a061232f8a828b01612152565b92505060c088013567ffffffffffffffff8111156123505761234f61203e565b5b61235c8a828b0161227f565b91505092959891949750929550565b6000806040838503121561238257612381612039565b5b6000612390858286016120ef565b925050602083013567ffffffffffffffff8111156123b1576123b061203e565b5b6123bd8582860161227f565b9150509250929050565b6000602082840312156123dd576123dc612039565b5b60006123eb84828501612152565b91505092915050565b600080600080600080600060e0888a03121561241357612412612039565b5b60006124218a828b016120ef565b975050602088013567ffffffffffffffff8111156124425761244161203e565b5b61244e8a828b0161227f565b965050604061245f8a828b01612152565b95505060606124708a828b01612152565b94505060806124818a828b01612152565b93505060a06124928a828b01612152565b92505060c088013567ffffffffffffffff8111156124b3576124b261203e565b5b6124bf8a828b0161227f565b91505092959891949750929550565b6000602082840312156124e4576124e3612039565b5b600082013567ffffffffffffffff8111156125025761250161203e565b5b61250e8482850161227f565b91505092915050565b612520816120ce565b82525050565b61252f81612131565b82525050565b600081519050919050565b600082825260208201905092915050565b60005b8381101561256f578082015181840152602081019050612554565b8381111561257e576000848401525b50505050565b600061258f82612535565b6125998185612540565b93506125a9818560208601612551565b6125b281612171565b840191505092915050565b600060e0820190506125d2600083018a612517565b6125df6020830189612517565b6125ec6040830188612526565b6125f96060830187612526565b6126066080830186612526565b61261360a0830185612526565b81810360c08301526126258184612584565b905098975050505050505050565b7f796f7520617265206e6f74206120636572746966696572000000000000000000600082015250565b6000612669601783612540565b915061267482612633565b602082019050919050565b600060208201905081810360008301526126988161265c565b9050919050565b7f4120636572697469666965722063616e6e6f7420626520616c736f2061204d31600082015250565b60006126d5602083612540565b91506126e08261269f565b602082019050919050565b60006020820190508181036000830152612704816126c8565b9050919050565b7f796f752068617665207374696c6c2074696d6500000000000000000000000000600082015250565b6000612741601383612540565b915061274c8261270b565b602082019050919050565b6000602082019050818103600083015261277081612734565b9050919050565b6000819050919050565b61279261278d826120ce565b612777565b82525050565b60006127a48284612781565b60208201915081905092915050565b7f796f7520617265206e6f74207175616c69666965642075736572000000000000600082015250565b60006127e9601a83612540565b91506127f4826127b3565b602082019050919050565b60006020820190508181036000830152612818816127dc565b9050919050565b7f796f75722074696d65206f6620757361676520656e6400000000000000000000600082015250565b6000612855601683612540565b91506128608261281f565b602082019050919050565b6000602082019050818103600083015261288481612848565b9050919050565b7f626f6479206e6f7420666f756e64000000000000000000000000000000000000600082015250565b60006128c1600e83612540565b91506128cc8261288b565b602082019050919050565b600060208201905081810360008301526128f0816128b4565b9050919050565b7f656e67696e65206e6f7420666f756e6400000000000000000000000000000000600082015250565b600061292d601083612540565b9150612938826128f7565b602082019050919050565b6000602082019050818103600083015261295c81612920565b9050919050565b7f6572726f7220616c696d656e746174696f6e206672657175656e637900000000600082015250565b6000612999601c83612540565b91506129a482612963565b602082019050919050565b600060208201905081810360008301526129c88161298c565b9050919050565b7f6572726f72206e6f6d696e616c2073706565642066756c6c206361706163697460008201527f7900000000000000000000000000000000000000000000000000000000000000602082015250565b6000612a2b602183612540565b9150612a36826129cf565b604082019050919050565b60006020820190508181036000830152612a5a81612a1e565b9050919050565b7f6572726f72206d6178696d616c206465707468206f66207574696c697a61746960008201527f6f6e000000000000000000000000000000000000000000000000000000000000602082015250565b6000612abd602283612540565b9150612ac882612a61565b604082019050919050565b60006020820190508181036000830152612aec81612ab0565b9050919050565b7f54656d706572617475726520636c617373206572726f72000000000000000000600082015250565b6000612b29601783612540565b9150612b3482612af3565b602082019050919050565b60006020820190508181036000830152612b5881612b1c565b9050919050565b600081905092915050565b6000612b7582612535565b612b7f8185612b5f565b9350612b8f818560208601612551565b80840191505092915050565b6000612ba78284612b6a565b915081905092915050565b60006020820190508181036000830152612bcc8184612584565b905092915050565b7f796f75206172656e277420612063657469666965720000000000000000000000600082015250565b6000612c0a601583612540565b9150612c1582612bd4565b602082019050919050565b60006020820190508181036000830152612c3981612bfd565b9050919050565b612c4981611ff9565b8114612c5457600080fd5b50565b600081519050612c6681612c40565b92915050565b600060208284031215612c8257612c81612039565b5b6000612c9084828501612c57565b91505092915050565b7f50756d702069736e2774207265636f7264656400000000000000000000000000600082015250565b6000612ccf601383612540565b9150612cda82612c99565b602082019050919050565b60006020820190508181036000830152612cfe81612cc2565b9050919050565b7f4e487b7100000000000000000000000000000000000000000000000000000000600052602260045260246000fd5b60006002820490506001821680612d4c57607f821691505b602082108103612d5f57612d5e612d05565b5b50919050565b7f4e487b7100000000000000000000000000000000000000000000000000000000600052601160045260246000fd5b6000612d9f826120ce565b9150612daa836120ce565b9250827fffffffffffffffffffffffffffffffffffffffffffffffffffffffffffffffff03821115612ddf57612dde612d65565b5b82820190509291505056fea2646970667358221220f9754eaabcfc3265d067771f0b2206cd565cfc5f363c4ba37862f897f53fbb3664736f6c634300080d0033",
  "immutableReferences": {},
  "source": "//Project method\n\n// SPDX-License-Identifier: MIT\npragma solidity ^0.8.0;\nimport \"./Certificate_contract.sol\";\nimport \"./Proj_contract.sol\";\n\ncontract ElectricPump is BaseCertContract{\n\n    //Struct for a electric pump\n    struct ElecPump{ \n \t\tuint body_fatt; \n        uint engine_fatt;\n        int freq; \n        int maxspeed; \n        int maxdepth; \n        int temp; \n        string object;\n        string lot;\n    }\n\n    ElectricEngine el;\n\n    mapping(bytes32 => ElecPump) private dat;\n   \n    mapping(bytes32 => bool) private body; \n    mapping(bytes32 => bool) private pump;\n    mapping(bytes32 => bool) private engine;\n\n    \n    \n\n    event certBody(uint indexed fatt, address indexed user,string producer);\n    event certEngine(uint indexed fatt, address indexed user,string producer);\n    event certPump(string indexed lot, address indexed user);\n\n   \n\n    constructor(address ele) public BaseCertContract(){\n        el = ElectricEngine(ele);\n    }\n\n\n\n\n    function certificateEngine(uint fatt, string memory producer) external ism1{ //Ask engine data (Producer and Fattura d'aquisto) to certidicate the engine\n        \n        require(timem1[msg.sender]>block.number, \"your time of usage end\");\n        engine[keccak256(abi.encodePacked(fatt))] = true; //the key value for the threads is now the invoice (fattura) code.\n        emit certEngine(fatt,msg.sender,producer);\n    }\n\n    function certificateBody(uint fatt, string memory producer) external ism1{ //Ask for body data (Producer and Fattura d'aquisto) to certificate the body\n      \n        require(timem1[msg.sender]>block.number, \"your time of usage end\");\n        body[keccak256(abi.encodePacked(fatt))] = true;//the key value for the threads is now the invoice (fattura) code.\n        emit certBody(fatt,msg.sender,producer);\n    }\n\n    //Cetificate Pump with instert engine\n    function certificatePumpA(uint body_fatt, uint engine_fatt,int freq, int maxspeed, int maxdepth, int temp, string memory object) external ism2{\n        require(timem2[msg.sender]>block.number, \"your time of usage end\"); \n        require(body[keccak256(abi.encodePacked(body_fatt))] == true, \"body not found\"); //body_fatt -> body invoice\n        require(engine[keccak256(abi.encodePacked(engine_fatt))] == true, \"engine not found\"); //engine_fatt -> engine invoice id\n        require(freq == 50, \"error alimentation frequency\");\n        require(maxspeed == 2850, \"error nominal speed full capacity\");\n        require(maxdepth == 15, \"error maximal depth of utilization\");\n        require(temp <= 135, \"Temperature class error\"); //check if the tested temperature class is less then or equal to teh one defined in the certificate (defiened when the cintract is created)\n        pump[keccak256(abi.encodePacked(object))] = true; //set as true an engine with ID lotto, azienda:number.\n        dat[keccak256(abi.encodePacked(object))].body_fatt = body_fatt;\n        dat[keccak256(abi.encodePacked(object))].engine_fatt = engine_fatt;\n        dat[keccak256(abi.encodePacked(object))].freq = freq;\n        dat[keccak256(abi.encodePacked(object))].maxspeed = maxspeed;\n        dat[keccak256(abi.encodePacked(object))].maxdepth = maxdepth;\n        dat[keccak256(abi.encodePacked(object))].temp = temp;\n        dat[keccak256(abi.encodePacked(object))].object = object;\n        emit certPump(object,msg.sender);\n    } \n\n    //Cetificate Pump with Conttact EletricEngine\n    function certificatePumpT(uint body_fatt, string memory lott, int freq, int maxspeed, int maxdepth, int temp, string memory object) public ism2{\n        require(timem2[msg.sender]>block.number, \"your time of usage end\"); \n        require(body[keccak256(abi.encodePacked(body_fatt))] == true, \"body not found\"); //body_fatt -> body invoice\n        require(el.isCertificatedEngines(lott), \"engine not found\"); //engine_fatt -> engine invoice id\n        require(freq == 50, \"error alimentation frequency\");\n        require(maxspeed == 2850, \"error nominal speed full capacity\");\n        require(maxdepth == 15, \"error maximal depth of utilization\");\n        require(temp <= 135, \"Temperature class error\"); //check if the tested temperature class is less then or equal to teh one defined in the certificate (defiened when the cintract is created)\n        pump[keccak256(abi.encodePacked(object))] = true; //set as true an engine with ID lotto, azienda:number.\n        dat[keccak256(abi.encodePacked(object))].body_fatt = body_fatt;\n        dat[keccak256(abi.encodePacked(object))].freq = freq;\n        dat[keccak256(abi.encodePacked(object))].maxspeed = maxspeed;\n        dat[keccak256(abi.encodePacked(object))].maxdepth = maxdepth;\n        dat[keccak256(abi.encodePacked(object))].temp = temp;\n        dat[keccak256(abi.encodePacked(object))].object = object;\n        dat[keccak256(abi.encodePacked(object))].lot = lott;\n        emit certPump(object,msg.sender);\n    } \n\n    //Get info of a electric pump\n    function getElectricPumpData(string memory object) external view returns(uint,uint,int,int,int,int,string memory){\n       \n        require(pump[keccak256(abi.encodePacked(object))] == true, \"Pump isn't recorded\");\n        return (dat[keccak256(abi.encodePacked(object))].body_fatt, dat[keccak256(abi.encodePacked(object))].engine_fatt, dat[keccak256(abi.encodePacked(object))].freq, dat[keccak256(abi.encodePacked(object))].maxspeed, dat[keccak256(abi.encodePacked(object))].maxdepth, dat[keccak256(abi.encodePacked(object))].temp,dat[keccak256(abi.encodePacked(object))].lot);\n    }\n\n\n    function isCertificatedBody(uint fatt) view external returns(bool){ \n      \n        return body[keccak256(abi.encodePacked(fatt))];\n    } \n\n    function isCertificatedEngine(uint fatt) view external returns(bool){\n \n        return engine[keccak256(abi.encodePacked(fatt))];\n    } \n\n    function isCertificatedPump(string memory lot) view external returns(bool){\n    \n        return pump[keccak256(abi.encodePacked(lot))];\n    } \n\n}\n",
  "sourcePath": "/home/parallels/Desktop/BLOCK_PROJ/BlockchainProject/Proj_source/contracts/pump_contract.sol",
  "compiler": {
    "name": "solc",
    "version": "0.8.13+commit.abaa5c0e.Emscripten.clang"
  },
  "schemaVersion": "3.4.13",
  "updatedAt": "2023-08-20T13:59:58.484Z",
  "networkType": "ethereum",
  "devdoc": {
    "kind": "dev",
    "methods": {},
    "version": 1
  },
  "userdoc": {
    "kind": "user",
    "methods": {},
    "version": 1
  }
}