{
  "contractName": "ElectricEngine",
  "abi": [
    {
      "inputs": [],
      "stateMutability": "nonpayable",
      "type": "constructor"
    },
    {
      "anonymous": false,
      "inputs": [
        {
          "indexed": true,
          "internalType": "address",
          "name": "payer",
          "type": "address"
        },
        {
          "indexed": false,
          "internalType": "uint256",
          "name": "amount",
          "type": "uint256"
        }
      ],
      "name": "StorageFeePaid",
      "type": "event"
    },
    {
      "inputs": [
        {
          "internalType": "int8",
          "name": "info1",
          "type": "int8"
        },
        {
          "internalType": "int8",
          "name": "info2",
          "type": "int8"
        },
        {
          "internalType": "int8",
          "name": "info3",
          "type": "int8"
        },
        {
          "internalType": "int8",
          "name": "info4",
          "type": "int8"
        },
        {
          "internalType": "int8",
          "name": "info5",
          "type": "int8"
        }
      ],
      "name": "UserProofs",
      "outputs": [],
      "stateMutability": "nonpayable",
      "type": "function"
    },
    {
      "inputs": [
        {
          "internalType": "int8",
          "name": "proof1",
          "type": "int8"
        },
        {
          "internalType": "int8",
          "name": "proof2",
          "type": "int8"
        },
        {
          "internalType": "int8",
          "name": "proof3",
          "type": "int8"
        },
        {
          "internalType": "int8",
          "name": "proof4",
          "type": "int8"
        },
        {
          "internalType": "int256",
          "name": "proof5",
          "type": "int256"
        }
      ],
      "name": "UserProofs",
      "outputs": [],
      "stateMutability": "nonpayable",
      "type": "function"
    },
    {
      "inputs": [
        {
          "internalType": "int256",
          "name": "infop",
          "type": "int256"
        }
      ],
      "name": "addcertifier",
      "outputs": [],
      "stateMutability": "nonpayable",
      "type": "function"
    },
    {
      "inputs": [
        {
          "internalType": "int8",
          "name": "infop",
          "type": "int8"
        }
      ],
      "name": "addm1",
      "outputs": [],
      "stateMutability": "nonpayable",
      "type": "function"
    },
    {
      "inputs": [
        {
          "internalType": "int8",
          "name": "infop",
          "type": "int8"
        }
      ],
      "name": "addm2",
      "outputs": [],
      "stateMutability": "nonpayable",
      "type": "function"
    },
    {
      "inputs": [
        {
          "internalType": "int8",
          "name": "infop",
          "type": "int8"
        }
      ],
      "name": "addG",
      "outputs": [],
      "stateMutability": "nonpayable",
      "type": "function"
    },
    {
      "inputs": [
        {
          "internalType": "int8",
          "name": "infop",
          "type": "int8"
        }
      ],
      "name": "addmF",
      "outputs": [],
      "stateMutability": "nonpayable",
      "type": "function"
    },
    {
      "inputs": [
        {
          "internalType": "int256",
          "name": "proofo",
          "type": "int256"
        },
        {
          "internalType": "string",
          "name": "object",
          "type": "string"
        }
      ],
      "name": "certificateSteels",
      "outputs": [],
      "stateMutability": "nonpayable",
      "type": "function"
    },
    {
      "inputs": [
        {
          "internalType": "int256",
          "name": "proofo",
          "type": "int256"
        },
        {
          "internalType": "string",
          "name": "object",
          "type": "string"
        }
      ],
      "name": "certificateCoppers",
      "outputs": [],
      "stateMutability": "nonpayable",
      "type": "function"
    },
    {
      "inputs": [
        {
          "internalType": "int256",
          "name": "proofo",
          "type": "int256"
        },
        {
          "internalType": "string",
          "name": "object",
          "type": "string"
        }
      ],
      "name": "certificateThreads",
      "outputs": [],
      "stateMutability": "nonpayable",
      "type": "function"
    },
    {
      "inputs": [
        {
          "internalType": "int256",
          "name": "proofo",
          "type": "int256"
        },
        {
          "internalType": "string",
          "name": "object",
          "type": "string"
        }
      ],
      "name": "certificateCages",
      "outputs": [],
      "stateMutability": "nonpayable",
      "type": "function"
    },
    {
      "inputs": [
        {
          "internalType": "int256",
          "name": "proofo",
          "type": "int256"
        },
        {
          "internalType": "string",
          "name": "object",
          "type": "string"
        }
      ],
      "name": "certificateEngines",
      "outputs": [],
      "stateMutability": "nonpayable",
      "type": "function"
    },
    {
      "inputs": [
        {
          "internalType": "string",
          "name": "object",
          "type": "string"
        }
      ],
      "name": "isCertificatesSteels",
      "outputs": [
        {
          "internalType": "bool",
          "name": "",
          "type": "bool"
        }
      ],
      "stateMutability": "view",
      "type": "function"
    },
    {
      "inputs": [
        {
          "internalType": "string",
          "name": "object",
          "type": "string"
        }
      ],
      "name": "isCertificatedCoppers",
      "outputs": [
        {
          "internalType": "bool",
          "name": "",
          "type": "bool"
        }
      ],
      "stateMutability": "view",
      "type": "function"
    },
    {
      "inputs": [
        {
          "internalType": "string",
          "name": "object",
          "type": "string"
        }
      ],
      "name": "isCertificatedThreads",
      "outputs": [
        {
          "internalType": "bool",
          "name": "",
          "type": "bool"
        }
      ],
      "stateMutability": "view",
      "type": "function"
    },
    {
      "inputs": [
        {
          "internalType": "string",
          "name": "object",
          "type": "string"
        }
      ],
      "name": "isCertificatedCages",
      "outputs": [
        {
          "internalType": "bool",
          "name": "",
          "type": "bool"
        }
      ],
      "stateMutability": "view",
      "type": "function"
    },
    {
      "inputs": [
        {
          "internalType": "string",
          "name": "object",
          "type": "string"
        }
      ],
      "name": "isCertificatedEngines",
      "outputs": [
        {
          "internalType": "bool",
          "name": "",
          "type": "bool"
        }
      ],
      "stateMutability": "view",
      "type": "function"
    }
  ],
  "bytecode": "0x60806040523480156200001157600080fd5b50600160008073984765fcd218d3937e4298dd1746b47828d5e9f873ffffffffffffffffffffffffffffffffffffffff1673ffffffffffffffffffffffffffffffffffffffff16815260200190815260200160002060006101000a81548160ff021916908315150217905550600180600073ccf44cea3140c0253d845d04973bc0d0e5eed16373ffffffffffffffffffffffffffffffffffffffff1673ffffffffffffffffffffffffffffffffffffffff16815260200190815260200160002060006101000a81548160ff0219169083151502179055506001600360007310cdeae4c0d04ad512e017e3f7d236a463c578bb73ffffffffffffffffffffffffffffffffffffffff1673ffffffffffffffffffffffffffffffffffffffff16815260200190815260200160002060006101000a81548160ff02191690831515021790555060016002600073eaaf394c2468442ecb543d43b11326903e27e31173ffffffffffffffffffffffffffffffffffffffff1673ffffffffffffffffffffffffffffffffffffffff16815260200190815260200160002060006101000a81548160ff021916908315150217905550602842620001cf91906200042d565b6005600073984765fcd218d3937e4298dd1746b47828d5e9f873ffffffffffffffffffffffffffffffffffffffff1673ffffffffffffffffffffffffffffffffffffffff168152602001908152602001600020819055506028426200023591906200042d565b6006600073984765fcd218d3937e4298dd1746b47828d5e9f873ffffffffffffffffffffffffffffffffffffffff1673ffffffffffffffffffffffffffffffffffffffff168152602001908152602001600020819055506028426200029b91906200042d565b6007600073984765fcd218d3937e4298dd1746b47828d5e9f873ffffffffffffffffffffffffffffffffffffffff1673ffffffffffffffffffffffffffffffffffffffff168152602001908152602001600020819055506028426200030191906200042d565b6008600073984765fcd218d3937e4298dd1746b47828d5e9f873ffffffffffffffffffffffffffffffffffffffff1673ffffffffffffffffffffffffffffffffffffffff1681526020019081526020016000208190555073984765fcd218d3937e4298dd1746b47828d5e9f8600460006101000a81548173ffffffffffffffffffffffffffffffffffffffff021916908373ffffffffffffffffffffffffffffffffffffffff16021790555033600960006101000a81548173ffffffffffffffffffffffffffffffffffffffff021916908373ffffffffffffffffffffffffffffffffffffffff1602179055506200048a565b6000819050919050565b7f4e487b7100000000000000000000000000000000000000000000000000000000600052601160045260246000fd5b60006200043a82620003f4565b91506200044783620003f4565b9250827fffffffffffffffffffffffffffffffffffffffffffffffffffffffffffffffff038211156200047f576200047e620003fe565b5b828201905092915050565b6124ef806200049a6000396000f3fe608060405234801561001057600080fd5b506004361061010b5760003560e01c80637aa3ae7e116100a257806397c974b11161007157806397c974b1146102b05780639e5c3196146102cc578063a7e3d64c146102e8578063ce41e22214610318578063d8748771146103345761010b565b80637aa3ae7e1461022c5780637cfe177914610248578063862a9faf146102645780638748a146146102805761010b565b8063513f8c2f116100de578063513f8c2f146101945780635a174a61146101b05780635f64ab86146101e0578063735a29c7146102105761010b565b8063107b95dd14610110578063188ad88a1461014057806343f7c9c01461015c5780634767be3914610178575b600080fd5b61012a60048036038101906101259190611a6b565b610350565b6040516101379190611acf565b60405180910390f35b61015a60048036038101906101559190611b20565b6103a0565b005b61017660048036038101906101719190611bb5565b610685565b005b610192600480360381019061018d9190611b20565b6107df565b005b6101ae60048036038101906101a99190611c30565b6109aa565b005b6101ca60048036038101906101c59190611a6b565b610a31565b6040516101d79190611acf565b60405180910390f35b6101fa60048036038101906101f59190611a6b565b610a81565b6040516102079190611acf565b60405180910390f35b61022a60048036038101906102259190611c5d565b610ad1565b005b61024660048036038101906102419190611b20565b610bf3565b005b610262600480360381019061025d9190611b20565b610eee565b005b61027e60048036038101906102799190611c5d565b6111e9565b005b61029a60048036038101906102959190611a6b565b61130b565b6040516102a79190611acf565b60405180910390f35b6102ca60048036038101906102c59190611c8a565b61135b565b005b6102e660048036038101906102e19190611c5d565b6114b2565b005b61030260048036038101906102fd9190611a6b565b6115d4565b60405161030f9190611acf565b60405180910390f35b610332600480360381019061032d9190611b20565b611624565b005b61034e60048036038101906103499190611c5d565b6117ef565b005b6000600b6000836040516020016103679190611d7f565b60405160208183030381529060405280519060200120815260200190815260200160002060009054906101000a900460ff169050919050565b60106002815481106103b5576103b4611d96565b5b90600052602060002001548213610401576040517f08c379a00000000000000000000000000000000000000000000000000000000081526004016103f890611e22565b60405180910390fd5b60011515600b60008360405160200161041a9190611d7f565b60405160208183030381529060405280519060200120815260200190815260200160002060009054906101000a900460ff1615151461048e576040517f08c379a000000000000000000000000000000000000000000000000000000000815260040161048590611e8e565b60405180910390fd5b60011515600a6000836040516020016104a79190611d7f565b60405160208183030381529060405280519060200120815260200190815260200160002060009054906101000a900460ff1615151461051b576040517f08c379a000000000000000000000000000000000000000000000000000000000815260040161051290611efa565b60405180910390fd5b60011515600360003373ffffffffffffffffffffffffffffffffffffffff1673ffffffffffffffffffffffffffffffffffffffff16815260200190815260200160002060009054906101000a900460ff161515146105ae576040517f08c379a00000000000000000000000000000000000000000000000000000000081526004016105a590611f66565b60405180910390fd5b42600860003373ffffffffffffffffffffffffffffffffffffffff1673ffffffffffffffffffffffffffffffffffffffff168152602001908152602001600020541161062f576040517f08c379a000000000000000000000000000000000000000000000000000000000815260040161062690611fd2565b60405180910390fd5b6001600e6000836040516020016106469190611d7f565b60405160208183030381529060405280519060200120815260200190815260200160002060006101000a81548160ff0219169083151502179055505050565b600460009054906101000a900473ffffffffffffffffffffffffffffffffffffffff1673ffffffffffffffffffffffffffffffffffffffff163373ffffffffffffffffffffffffffffffffffffffff1614610715576040517f08c379a000000000000000000000000000000000000000000000000000000000815260040161070c9061203e565b60405180910390fd5b8460000b601160008154811061072e5761072d611d96565b5b90600052602060002001819055508360000b601160018154811061075557610754611d96565b5b90600052602060002001819055508260000b601160028154811061077c5761077b611d96565b5b90600052602060002001819055508160000b60116003815481106107a3576107a2611d96565b5b90600052602060002001819055508060000b60116004815481106107ca576107c9611d96565b5b90600052602060002001819055505050505050565b60106000815481106107f4576107f3611d96565b5b90600052602060002001548213610840576040517f08c379a0000000000000000000000000000000000000000000000000000000008152600401610837906120aa565b60405180910390fd5b60011515600360003373ffffffffffffffffffffffffffffffffffffffff1673ffffffffffffffffffffffffffffffffffffffff16815260200190815260200160002060009054906101000a900460ff161515146108d3576040517f08c379a00000000000000000000000000000000000000000000000000000000081526004016108ca90611f66565b60405180910390fd5b42600860003373ffffffffffffffffffffffffffffffffffffffff1673ffffffffffffffffffffffffffffffffffffffff1681526020019081526020016000205411610954576040517f08c379a000000000000000000000000000000000000000000000000000000000815260040161094b90611fd2565b60405180910390fd5b6001600b60008360405160200161096b9190611d7f565b60405160208183030381529060405280519060200120815260200190815260200160002060006101000a81548160ff0219169083151502179055505050565b600381136109ed576040517f08c379a00000000000000000000000000000000000000000000000000000000081526004016109e490612116565b60405180910390fd5b33600460006101000a81548173ffffffffffffffffffffffffffffffffffffffff021916908373ffffffffffffffffffffffffffffffffffffffff16021790555050565b6000600e600083604051602001610a489190611d7f565b60405160208183030381529060405280519060200120815260200190815260200160002060009054906101000a900460ff169050919050565b6000600c600083604051602001610a989190611d7f565b60405160208183030381529060405280519060200120815260200190815260200160002060009054906101000a900460ff169050919050565b6011600181548110610ae657610ae5611d96565b5b90600052602060002001548160000b13610b35576040517f08c379a0000000000000000000000000000000000000000000000000000000008152600401610b2c90612182565b60405180910390fd5b602842610b4291906121db565b6006600073984765fcd218d3937e4298dd1746b47828d5e9f873ffffffffffffffffffffffffffffffffffffffff1673ffffffffffffffffffffffffffffffffffffffff1681526020019081526020016000208190555060016000803373ffffffffffffffffffffffffffffffffffffffff1673ffffffffffffffffffffffffffffffffffffffff16815260200190815260200160002060006101000a81548160ff02191690831515021790555050565b6010600381548110610c0857610c07611d96565b5b90600052602060002001548213610c54576040517f08c379a0000000000000000000000000000000000000000000000000000000008152600401610c4b9061227d565b60405180910390fd5b60011515600e600083604051602001610c6d9190611d7f565b60405160208183030381529060405280519060200120815260200190815260200160002060009054906101000a900460ff16151514610ce1576040517f08c379a0000000000000000000000000000000000000000000000000000000008152600401610cd8906122e9565b60405180910390fd5b60011515600260003373ffffffffffffffffffffffffffffffffffffffff1673ffffffffffffffffffffffffffffffffffffffff16815260200190815260200160002060009054906101000a900460ff1615151480610d8f5750600115156000803373ffffffffffffffffffffffffffffffffffffffff1673ffffffffffffffffffffffffffffffffffffffff16815260200190815260200160002060009054906101000a900460ff161515145b610dce576040517f08c379a0000000000000000000000000000000000000000000000000000000008152600401610dc590611f66565b60405180910390fd5b42600760003373ffffffffffffffffffffffffffffffffffffffff1673ffffffffffffffffffffffffffffffffffffffff168152602001908152602001600020541180610e59575042600560003373ffffffffffffffffffffffffffffffffffffffff1673ffffffffffffffffffffffffffffffffffffffff16815260200190815260200160002054115b610e98576040517f08c379a0000000000000000000000000000000000000000000000000000000008152600401610e8f90611fd2565b60405180910390fd5b6001600c600083604051602001610eaf9190611d7f565b60405160208183030381529060405280519060200120815260200190815260200160002060006101000a81548160ff0219169083151502179055505050565b6010600481548110610f0357610f02611d96565b5b90600052602060002001548213610f4f576040517f08c379a0000000000000000000000000000000000000000000000000000000008152600401610f469061227d565b60405180910390fd5b60011515600c600083604051602001610f689190611d7f565b60405160208183030381529060405280519060200120815260200190815260200160002060009054906101000a900460ff16151514610fdc576040517f08c379a0000000000000000000000000000000000000000000000000000000008152600401610fd3906122e9565b60405180910390fd5b600115156000803373ffffffffffffffffffffffffffffffffffffffff1673ffffffffffffffffffffffffffffffffffffffff16815260200190815260200160002060009054906101000a900460ff161515148061108a575060011515600160003373ffffffffffffffffffffffffffffffffffffffff1673ffffffffffffffffffffffffffffffffffffffff16815260200190815260200160002060009054906101000a900460ff161515145b6110c9576040517f08c379a00000000000000000000000000000000000000000000000000000000081526004016110c090611f66565b60405180910390fd5b42600560003373ffffffffffffffffffffffffffffffffffffffff1673ffffffffffffffffffffffffffffffffffffffff168152602001908152602001600020541180611154575042600660003373ffffffffffffffffffffffffffffffffffffffff1673ffffffffffffffffffffffffffffffffffffffff16815260200190815260200160002054115b611193576040517f08c379a000000000000000000000000000000000000000000000000000000000815260040161118a90611fd2565b60405180910390fd5b6001600e6000836040516020016111aa9190611d7f565b60405160208183030381529060405280519060200120815260200190815260200160002060006101000a81548160ff0219169083151502179055505050565b60116000815481106111fe576111fd611d96565b5b90600052602060002001548160000b1361124d576040517f08c379a000000000000000000000000000000000000000000000000000000000815260040161124490612355565b60405180910390fd5b60284261125a91906121db565b6005600073984765fcd218d3937e4298dd1746b47828d5e9f873ffffffffffffffffffffffffffffffffffffffff1673ffffffffffffffffffffffffffffffffffffffff1681526020019081526020016000208190555060016000803373ffffffffffffffffffffffffffffffffffffffff1673ffffffffffffffffffffffffffffffffffffffff16815260200190815260200160002060006101000a81548160ff02191690831515021790555050565b6000600e6000836040516020016113229190611d7f565b60405160208183030381529060405280519060200120815260200190815260200160002060009054906101000a900460ff169050919050565b600460009054906101000a900473ffffffffffffffffffffffffffffffffffffffff1673ffffffffffffffffffffffffffffffffffffffff163373ffffffffffffffffffffffffffffffffffffffff16146113eb576040517f08c379a00000000000000000000000000000000000000000000000000000000081526004016113e29061203e565b60405180910390fd5b8460000b601060008154811061140457611403611d96565b5b90600052602060002001819055508360000b601060018154811061142b5761142a611d96565b5b90600052602060002001819055508260000b601060028154811061145257611451611d96565b5b90600052602060002001819055508160000b601060038154811061147957611478611d96565b5b906000526020600020018190555080601060048154811061149d5761149c611d96565b5b90600052602060002001819055505050505050565b60116002815481106114c7576114c6611d96565b5b90600052602060002001548160000b13611516576040517f08c379a000000000000000000000000000000000000000000000000000000000815260040161150d906123c1565b60405180910390fd5b60284261152391906121db565b6007600073984765fcd218d3937e4298dd1746b47828d5e9f873ffffffffffffffffffffffffffffffffffffffff1673ffffffffffffffffffffffffffffffffffffffff1681526020019081526020016000208190555060016000803373ffffffffffffffffffffffffffffffffffffffff1673ffffffffffffffffffffffffffffffffffffffff16815260200190815260200160002060006101000a81548160ff02191690831515021790555050565b6000600a6000836040516020016115eb9190611d7f565b60405160208183030381529060405280519060200120815260200190815260200160002060009054906101000a900460ff169050919050565b601060018154811061163957611638611d96565b5b90600052602060002001548213611685576040517f08c379a000000000000000000000000000000000000000000000000000000000815260040161167c9061242d565b60405180910390fd5b60011515600260003373ffffffffffffffffffffffffffffffffffffffff1673ffffffffffffffffffffffffffffffffffffffff16815260200190815260200160002060009054906101000a900460ff16151514611718576040517f08c379a000000000000000000000000000000000000000000000000000000000815260040161170f90611f66565b60405180910390fd5b42600760003373ffffffffffffffffffffffffffffffffffffffff1673ffffffffffffffffffffffffffffffffffffffff1681526020019081526020016000205411611799576040517f08c379a000000000000000000000000000000000000000000000000000000000815260040161179090611fd2565b60405180910390fd5b6001600a6000836040516020016117b09190611d7f565b60405160208183030381529060405280519060200120815260200190815260200160002060006101000a81548160ff0219169083151502179055505050565b601160048154811061180457611803611d96565b5b90600052602060002001548160000b13611853576040517f08c379a000000000000000000000000000000000000000000000000000000000815260040161184a90612499565b60405180910390fd5b60284261186091906121db565b6008600073984765fcd218d3937e4298dd1746b47828d5e9f873ffffffffffffffffffffffffffffffffffffffff1673ffffffffffffffffffffffffffffffffffffffff1681526020019081526020016000208190555060016000803373ffffffffffffffffffffffffffffffffffffffff1673ffffffffffffffffffffffffffffffffffffffff16815260200190815260200160002060006101000a81548160ff02191690831515021790555050565b6000604051905090565b600080fd5b600080fd5b600080fd5b600080fd5b6000601f19601f8301169050919050565b7f4e487b7100000000000000000000000000000000000000000000000000000000600052604160045260246000fd5b6119788261192f565b810181811067ffffffffffffffff8211171561199757611996611940565b5b80604052505050565b60006119aa611911565b90506119b6828261196f565b919050565b600067ffffffffffffffff8211156119d6576119d5611940565b5b6119df8261192f565b9050602081019050919050565b82818337600083830152505050565b6000611a0e611a09846119bb565b6119a0565b905082815260208101848484011115611a2a57611a2961192a565b5b611a358482856119ec565b509392505050565b600082601f830112611a5257611a51611925565b5b8135611a628482602086016119fb565b91505092915050565b600060208284031215611a8157611a8061191b565b5b600082013567ffffffffffffffff811115611a9f57611a9e611920565b5b611aab84828501611a3d565b91505092915050565b60008115159050919050565b611ac981611ab4565b82525050565b6000602082019050611ae46000830184611ac0565b92915050565b6000819050919050565b611afd81611aea565b8114611b0857600080fd5b50565b600081359050611b1a81611af4565b92915050565b60008060408385031215611b3757611b3661191b565b5b6000611b4585828601611b0b565b925050602083013567ffffffffffffffff811115611b6657611b65611920565b5b611b7285828601611a3d565b9150509250929050565b60008160000b9050919050565b611b9281611b7c565b8114611b9d57600080fd5b50565b600081359050611baf81611b89565b92915050565b600080600080600060a08688031215611bd157611bd061191b565b5b6000611bdf88828901611ba0565b9550506020611bf088828901611ba0565b9450506040611c0188828901611ba0565b9350506060611c1288828901611ba0565b9250506080611c2388828901611ba0565b9150509295509295909350565b600060208284031215611c4657611c4561191b565b5b6000611c5484828501611b0b565b91505092915050565b600060208284031215611c7357611c7261191b565b5b6000611c8184828501611ba0565b91505092915050565b600080600080600060a08688031215611ca657611ca561191b565b5b6000611cb488828901611ba0565b9550506020611cc588828901611ba0565b9450506040611cd688828901611ba0565b9350506060611ce788828901611ba0565b9250506080611cf888828901611b0b565b9150509295509295909350565b600081519050919050565b600081905092915050565b60005b83811015611d39578082015181840152602081019050611d1e565b83811115611d48576000848401525b50505050565b6000611d5982611d05565b611d638185611d10565b9350611d73818560208601611d1b565b80840191505092915050565b6000611d8b8284611d4e565b915081905092915050565b7f4e487b7100000000000000000000000000000000000000000000000000000000600052603260045260246000fd5b600082825260208201905092915050565b7f6e6f742076616c69642054687265616473000000000000000000000000000000600082015250565b6000611e0c601183611dc5565b9150611e1782611dd6565b602082019050919050565b60006020820190508181036000830152611e3b81611dff565b9050919050565b7f6e6f7420666f756e6420537465656c7300000000000000000000000000000000600082015250565b6000611e78601083611dc5565b9150611e8382611e42565b602082019050919050565b60006020820190508181036000830152611ea781611e6b565b9050919050565b7f6e6f7420666f756e6420436f7070657273000000000000000000000000000000600082015250565b6000611ee4601183611dc5565b9150611eef82611eae565b602082019050919050565b60006020820190508181036000830152611f1381611ed7565b9050919050565b7f796f7520617265206e6f74207175616c69666965642075736572000000000000600082015250565b6000611f50601a83611dc5565b9150611f5b82611f1a565b602082019050919050565b60006020820190508181036000830152611f7f81611f43565b9050919050565b7f796f75722074696d65206f6620757361676520656e6400000000000000000000600082015250565b6000611fbc601683611dc5565b9150611fc782611f86565b602082019050919050565b60006020820190508181036000830152611feb81611faf565b9050919050565b7f796f7520617265206e6f74206120636572746966696572000000000000000000600082015250565b6000612028601783611dc5565b915061203382611ff2565b602082019050919050565b600060208201905081810360008301526120578161201b565b9050919050565b7f6e6f742076616c696420537465656c7300000000000000000000000000000000600082015250565b6000612094601083611dc5565b915061209f8261205e565b602082019050919050565b600060208201905081810360008301526120c381612087565b9050919050565b7f796f75206172656e277420612063657469666965720000000000000000000000600082015250565b6000612100601583611dc5565b915061210b826120ca565b602082019050919050565b6000602082019050818103600083015261212f816120f3565b9050919050565b7f796f75206172656e27742061206d320000000000000000000000000000000000600082015250565b600061216c600f83611dc5565b915061217782612136565b602082019050919050565b6000602082019050818103600083015261219b8161215f565b9050919050565b6000819050919050565b7f4e487b7100000000000000000000000000000000000000000000000000000000600052601160045260246000fd5b60006121e6826121a2565b91506121f1836121a2565b9250827fffffffffffffffffffffffffffffffffffffffffffffffffffffffffffffffff03821115612226576122256121ac565b5b828201905092915050565b7f6e6f742076616c69642043616765730000000000000000000000000000000000600082015250565b6000612267600f83611dc5565b915061227282612231565b602082019050919050565b600060208201905081810360008301526122968161225a565b9050919050565b7f6e6f7420666f756e642054687265616473000000000000000000000000000000600082015250565b60006122d3601183611dc5565b91506122de8261229d565b602082019050919050565b60006020820190508181036000830152612302816122c6565b9050919050565b7f796f75206172656e27742061206d310000000000000000000000000000000000600082015250565b600061233f600f83611dc5565b915061234a82612309565b602082019050919050565b6000602082019050818103600083015261236e81612332565b9050919050565b7f796f75206172656e277420612047000000000000000000000000000000000000600082015250565b60006123ab600e83611dc5565b91506123b682612375565b602082019050919050565b600060208201905081810360008301526123da8161239e565b9050919050565b7f6e6f742076616c696420436f7070657273000000000000000000000000000000600082015250565b6000612417601183611dc5565b9150612422826123e1565b602082019050919050565b600060208201905081810360008301526124468161240a565b9050919050565b7f796f75206172656e277420612046000000000000000000000000000000000000600082015250565b6000612483600e83611dc5565b915061248e8261244d565b602082019050919050565b600060208201905081810360008301526124b281612476565b905091905056fea2646970667358221220488fbf87b6fd5a07492735f16cb3fa44152dc9b8ebe26b3c5ce0085d651a429e64736f6c634300080d0033",
  "immutableReferences": {},
  "source": "// SPDX-License-Identifier: MIT\npragma solidity ^0.8.0;\n\ncontract ElectricEngine {\n\n    mapping(address => bool) private m1;\n    mapping(address => bool) private m2;\n    mapping(address => bool) private g;\n    mapping(address => bool) private f;\n    address private certifier; //who specified the parameter for the verification.\n\n    mapping(address => uint) private timem1;\n    mapping(address => uint) private timem2;\n    mapping(address => uint) private timeg;\n    mapping(address => uint) private timef;\n\n    address private owner;\n\n    mapping(bytes32 => bool) private bubbleCopper;\n    mapping(bytes32 => bool) private bubbleSteel;\n    mapping(bytes32 => bool) private cages;\n    mapping(bytes32 => bool) private engines;\n    mapping(bytes32 => bool) private threads;\n\n\n\n    mapping(address => uint256) private storedItems;\n\n    event StorageFeePaid(address indexed payer, uint256 amount);\n    \n    int[] private proof;\n    int[] private info;\n\n    constructor(){\n      m1[0x984765fCd218D3937E4298Dd1746b47828D5E9f8] = true;\n      m2[0xCCf44CeA3140c0253D845D04973bC0D0E5eED163] = true;\n      f[0x10CdeAE4C0d04aD512E017E3F7d236a463c578bB] = true;\n      g[0xeaaF394C2468442eCb543d43B11326903e27e311] = true;\n      timem1[0x984765fCd218D3937E4298Dd1746b47828D5E9f8] = block.timestamp + 40;\n      timem2[0x984765fCd218D3937E4298Dd1746b47828D5E9f8] = block.timestamp + 40;\n      timeg[0x984765fCd218D3937E4298Dd1746b47828D5E9f8] = block.timestamp + 40;\n      timef[0x984765fCd218D3937E4298Dd1746b47828D5E9f8] = block.timestamp + 40;\n      certifier = 0x984765fCd218D3937E4298Dd1746b47828D5E9f8;\n      owner = msg.sender;\n\n\n     \n    }\n\n    \n\n    function UserProofs( int8 info1, int8 info2, int8 info3, int8 info4, int8 info5) external{\n        require(msg.sender == certifier, \"you are not a certifier\");\n        info[0] = info1;\n        info[1] = info2;\n        info[2] = info3;\n        info[3] = info4;\n        info[4] = info5;\n\n    }\n\n    function UserProofs(int8 proof1, int8 proof2, int8 proof3, int8 proof4, int proof5) external{\n        require(msg.sender == certifier, \"you are not a certifier\");\n        proof[0] = proof1;\n        proof[1] = proof2;\n        proof[2] = proof3;\n        proof[3] = proof4;\n        proof[4] = proof5;\n\n    }\n\n    function addcertifier(int infop) external{\n        require(infop>3,\"you aren't a cetifier\");\n        certifier = msg.sender;\n\n    }\n\n    function addm1(int8 infop) external {\n        require(infop>info[0],\"you aren't a m1\");\n        timem1[0x984765fCd218D3937E4298Dd1746b47828D5E9f8] = block.timestamp + 40;\n        m1[msg.sender] = true;\n    } \n\n    function addm2(int8 infop) external {\n        require(infop>info[1],\"you aren't a m2\");\n        timem2[0x984765fCd218D3937E4298Dd1746b47828D5E9f8] = block.timestamp + 40;\n        m1[msg.sender] = true;\n    } \n\n    function addG(int8 infop) external {\n        require(infop>info[2],\"you aren't a G\");\n        timeg[0x984765fCd218D3937E4298Dd1746b47828D5E9f8] = block.timestamp + 40;\n        m1[msg.sender] = true;\n    } \n\n    function addmF(int8 infop) external {\n        require(infop>info[4],\"you aren't a F\");\n        timef[0x984765fCd218D3937E4298Dd1746b47828D5E9f8] = block.timestamp + 40;\n        m1[msg.sender] = true;\n    } \n\n\n    function certificateSteels(int proofo, string memory object) external {\n      \n        require(proofo>proof[0],\"not valid Steels\");\n        require(f[msg.sender] == true, \"you are not qualified user\");\n        require(timef[msg.sender]>block.timestamp, \"your time of usage end\");\n        bubbleSteel[keccak256(abi.encodePacked(object))] = true;\n    }   \n\n    function certificateCoppers(int proofo, string memory object) external {\n        require(proofo>proof[1],\"not valid Coppers\");\n        require(g[msg.sender] == true, \"you are not qualified user\");\n        require(timeg[msg.sender]>block.timestamp, \"your time of usage end\");\n        bubbleCopper[keccak256(abi.encodePacked(object))] = true;\n    }   \n\n    function certificateThreads(int proofo, string memory object) external {\n        require(proofo>proof[2],\"not valid Threads\");\n        require(bubbleSteel[keccak256(abi.encodePacked(object))] == true, \"not found Steels\");\n        require(bubbleCopper[keccak256(abi.encodePacked(object))] == true, \"not found Coppers\");\n        require(f[msg.sender] == true, \"you are not qualified user\");\n        require(timef[msg.sender]>block.timestamp, \"your time of usage end\");\n        threads[keccak256(abi.encodePacked(object))] = true;\n    } \n\n    function certificateCages(int proofo, string memory object) external {\n        require(proofo>proof[3],\"not valid Cages\");\n        require(threads[keccak256(abi.encodePacked(object))] == true, \"not found Threads\");\n        require(g[msg.sender] == true || m1[msg.sender] == true, \"you are not qualified user\"); //sistemare\n        require(timeg[msg.sender]>block.timestamp || timem1[msg.sender]>block.timestamp, \"your time of usage end\"); //sistemare\n        cages[keccak256(abi.encodePacked(object))] = true;\n    } \n\n    function certificateEngines(int proofo, string memory object) external {\n        require(proofo>proof[4],\"not valid Cages\");\n        require(cages[keccak256(abi.encodePacked(object))] == true, \"not found Threads\");\n        require(m1[msg.sender] == true || m2[msg.sender] == true, \"you are not qualified user\");//sistemare\n        require(timem1[msg.sender]>block.timestamp || timem2[msg.sender]>block.timestamp, \"your time of usage end\"); //sistemare\n        threads[keccak256(abi.encodePacked(object))] = true;\n    } \n\n    function isCertificatesSteels(string memory object) view external returns(bool) {\n        return bubbleSteel[keccak256(abi.encodePacked(object))];\n    }   \n\n    function isCertificatedCoppers(string memory object) view external returns(bool){\n   \n        return bubbleCopper[keccak256(abi.encodePacked(object))];\n    }   \n\n    function isCertificatedThreads(string memory object) view external returns(bool){\n      \n        return threads[keccak256(abi.encodePacked(object))];\n    } \n\n    function isCertificatedCages(string memory object) view external returns(bool){\n \n        return cages[keccak256(abi.encodePacked(object))];\n    } \n\n    function isCertificatedEngines(string memory object) view external returns(bool){\n    \n        return threads[keccak256(abi.encodePacked(object))];\n    } \n\n\n\n\n\n    /*function payStorageFee() external payable {\n        require(msg.sender == customer, \"Only the customer can pay the storage fee\");\n        require(msg.value > 0, \"Storage fee should be greater than zero\");\n        balances[storageProvider] += msg.value;\n        emit StorageFeePaid(msg.sender, msg.value);\n    }\n\n    function storeItems(uint256 _amount) external {\n        require(msg.sender == customer, \"Only the customer can store items\");\n        require(balances[customer] >= _amount, \"Insufficient balance to store items\");\n        balances[customer] -= _amount;\n        storedItems[customer] += _amount;\n        emit ItemsStored(msg.sender, _amount);\n    }\n\n    function retrieveItems(uint256 _amount) external {\n        require(msg.sender == customer, \"Only the customer can retrieve items\");\n        require(storedItems[customer] >= _amount, \"Insufficient stored items to retrieve\");\n        storedItems[customer] -= _amount;\n        balances[customer] += _amount;\n        emit ItemsRetrieved(msg.sender, _amount);\n    }*/\n}\n",
  "sourcePath": "/home/parallels/Desktop/BLOCK_PROJ/BlockchainProject/Proj_source/contracts/Proj_contract.sol",
  "compiler": {
    "name": "solc",
    "version": "0.8.13+commit.abaa5c0e.Emscripten.clang"
  },
  "schemaVersion": "3.4.13",
  "updatedAt": "2023-06-17T09:10:31.198Z",
  "devdoc": {
    "kind": "dev",
    "methods": {},
    "version": 1
  },
  "userdoc": {
    "kind": "user",
    "methods": {},
    "version": 1
  }
}