{
  "contractName": "ElectricEngine",
  "abi": [
    {
      "inputs": [],
      "stateMutability": "nonpayable",
      "type": "constructor"
    },
    {
      "anonymous": false,
      "inputs": [
        {
          "indexed": true,
          "internalType": "address",
          "name": "user",
          "type": "address"
        }
      ],
      "name": "addedm1",
      "type": "event"
    },
    {
      "anonymous": false,
      "inputs": [
        {
          "indexed": true,
          "internalType": "address",
          "name": "user",
          "type": "address"
        }
      ],
      "name": "addedm2",
      "type": "event"
    },
    {
      "anonymous": false,
      "inputs": [
        {
          "indexed": false,
          "internalType": "uint256",
          "name": "fatt",
          "type": "uint256"
        },
        {
          "indexed": true,
          "internalType": "address",
          "name": "user",
          "type": "address"
        },
        {
          "indexed": false,
          "internalType": "string",
          "name": "producer",
          "type": "string"
        }
      ],
      "name": "certCages",
      "type": "event"
    },
    {
      "anonymous": false,
      "inputs": [
        {
          "indexed": false,
          "internalType": "string",
          "name": "lot",
          "type": "string"
        },
        {
          "indexed": true,
          "internalType": "address",
          "name": "user",
          "type": "address"
        }
      ],
      "name": "certEngines",
      "type": "event"
    },
    {
      "anonymous": false,
      "inputs": [
        {
          "indexed": false,
          "internalType": "uint256",
          "name": "fatt",
          "type": "uint256"
        },
        {
          "indexed": true,
          "internalType": "address",
          "name": "user",
          "type": "address"
        },
        {
          "indexed": false,
          "internalType": "string",
          "name": "producer",
          "type": "string"
        }
      ],
      "name": "certThreads",
      "type": "event"
    },
    {
      "inputs": [
        {
          "internalType": "int256",
          "name": "infop",
          "type": "int256"
        }
      ],
      "name": "addcertifier",
      "outputs": [],
      "stateMutability": "nonpayable",
      "type": "function"
    },
    {
      "inputs": [
        {
          "internalType": "address",
          "name": "ut1",
          "type": "address"
        }
      ],
      "name": "addm1",
      "outputs": [],
      "stateMutability": "nonpayable",
      "type": "function"
    },
    {
      "inputs": [
        {
          "internalType": "address",
          "name": "ut2",
          "type": "address"
        }
      ],
      "name": "addm2",
      "outputs": [],
      "stateMutability": "nonpayable",
      "type": "function"
    },
    {
      "inputs": [
        {
          "internalType": "uint256",
          "name": "fatt",
          "type": "uint256"
        },
        {
          "internalType": "string",
          "name": "producer",
          "type": "string"
        }
      ],
      "name": "certificateThreads",
      "outputs": [],
      "stateMutability": "nonpayable",
      "type": "function"
    },
    {
      "inputs": [
        {
          "internalType": "uint256",
          "name": "fatt",
          "type": "uint256"
        },
        {
          "internalType": "string",
          "name": "producer",
          "type": "string"
        }
      ],
      "name": "certificateCage",
      "outputs": [],
      "stateMutability": "nonpayable",
      "type": "function"
    },
    {
      "inputs": [
        {
          "internalType": "uint256",
          "name": "cage_fatt",
          "type": "uint256"
        },
        {
          "internalType": "uint256",
          "name": "thread_fatt",
          "type": "uint256"
        },
        {
          "internalType": "int256",
          "name": "temp",
          "type": "int256"
        },
        {
          "internalType": "int256",
          "name": "ts",
          "type": "int256"
        },
        {
          "internalType": "int256",
          "name": "fr",
          "type": "int256"
        },
        {
          "internalType": "int256",
          "name": "Y",
          "type": "int256"
        },
        {
          "internalType": "string",
          "name": "object",
          "type": "string"
        }
      ],
      "name": "certificateEngines",
      "outputs": [],
      "stateMutability": "nonpayable",
      "type": "function"
    },
    {
      "inputs": [
        {
          "internalType": "uint256",
          "name": "fatt",
          "type": "uint256"
        }
      ],
      "name": "isCertificatedThreads",
      "outputs": [
        {
          "internalType": "bool",
          "name": "",
          "type": "bool"
        }
      ],
      "stateMutability": "view",
      "type": "function",
      "constant": true
    },
    {
      "inputs": [
        {
          "internalType": "uint256",
          "name": "fatt",
          "type": "uint256"
        }
      ],
      "name": "isCertificatedCages",
      "outputs": [
        {
          "internalType": "bool",
          "name": "",
          "type": "bool"
        }
      ],
      "stateMutability": "view",
      "type": "function",
      "constant": true
    },
    {
      "inputs": [
        {
          "internalType": "string",
          "name": "lot",
          "type": "string"
        }
      ],
      "name": "isCertificatedEngines",
      "outputs": [
        {
          "internalType": "bool",
          "name": "",
          "type": "bool"
        }
      ],
      "stateMutability": "view",
      "type": "function",
      "constant": true
    },
    {
      "inputs": [],
      "name": "isM1",
      "outputs": [
        {
          "internalType": "bool",
          "name": "",
          "type": "bool"
        }
      ],
      "stateMutability": "view",
      "type": "function",
      "constant": true
    },
    {
      "inputs": [],
      "name": "isM2",
      "outputs": [
        {
          "internalType": "bool",
          "name": "",
          "type": "bool"
        }
      ],
      "stateMutability": "view",
      "type": "function",
      "constant": true
    }
  ],
  "bytecode": "0x608060405234801561001057600080fd5b5033600560006101000a81548173ffffffffffffffffffffffffffffffffffffffff021916908373ffffffffffffffffffffffffffffffffffffffff16021790555061199f806100616000396000f3fe608060405234801561001057600080fd5b50600436106100a95760003560e01c8063513f8c2f11610071578063513f8c2f146101505780635e3e7ab61461016c5780635f7a98011461019c5780638748a146146101b8578063af9f124f146101e8578063d917288914610204576100a9565b806307890067146100ae57806316981434146100ca578063258c6647146100e65780632c690b3f146101045780632cd47e1a14610120575b600080fd5b6100c860048036038101906100c39190610fce565b610222565b005b6100e460048036038101906100df9190611177565b61041e565b005b6100ee6105d7565b6040516100fb91906111ee565b60405180910390f35b61011e60048036038101906101199190611177565b61062b565b005b61013a60048036038101906101359190611209565b6107e4565b60405161014791906111ee565b60405180910390f35b61016a6004803603810190610165919061126c565b610834565b005b61018660048036038101906101819190611209565b6108bb565b60405161019391906111ee565b60405180910390f35b6101b660048036038101906101b19190610fce565b61090b565b005b6101d260048036038101906101cd9190611299565b610b07565b6040516101df91906111ee565b60405180910390f35b61020260048036038101906101fd91906112e2565b610b57565b005b61020c610ef3565b60405161021991906111ee565b60405180910390f35b3373ffffffffffffffffffffffffffffffffffffffff16600260009054906101000a900473ffffffffffffffffffffffffffffffffffffffff1673ffffffffffffffffffffffffffffffffffffffff16146102b2576040517f08c379a00000000000000000000000000000000000000000000000000000000081526004016102a9906113fd565b60405180910390fd5b42600360008373ffffffffffffffffffffffffffffffffffffffff1673ffffffffffffffffffffffffffffffffffffffff1681526020019081526020016000205410610333576040517f08c379a000000000000000000000000000000000000000000000000000000000815260040161032a90611469565b60405180910390fd5b61033e426028610f46565b600360008373ffffffffffffffffffffffffffffffffffffffff1673ffffffffffffffffffffffffffffffffffffffff1681526020019081526020016000208190555060016000808373ffffffffffffffffffffffffffffffffffffffff1673ffffffffffffffffffffffffffffffffffffffff16815260200190815260200160002060006101000a81548160ff0219169083151502179055508073ffffffffffffffffffffffffffffffffffffffff167f2756cd91fb7c0be01353207b0107f45f9dbe5f2837c4a796fe7d95c060d7588260405160405180910390a250565b600115156000803373ffffffffffffffffffffffffffffffffffffffff1673ffffffffffffffffffffffffffffffffffffffff16815260200190815260200160002060009054906101000a900460ff161515146104b0576040517f08c379a00000000000000000000000000000000000000000000000000000000081526004016104a7906114d5565b60405180910390fd5b42600360003373ffffffffffffffffffffffffffffffffffffffff1673ffffffffffffffffffffffffffffffffffffffff1681526020019081526020016000205411610531576040517f08c379a000000000000000000000000000000000000000000000000000000000815260040161052890611541565b60405180910390fd5b600160066000846040516020016105489190611582565b60405160208183030381529060405280519060200120815260200190815260200160002060006101000a81548160ff0219169083151502179055503373ffffffffffffffffffffffffffffffffffffffff167f7fc2a2441cf93b10214bb4f95f4e39a190bc195d0296d475c4806a8a17448f5f83836040516105cb929190611623565b60405180910390a25050565b6000600160003373ffffffffffffffffffffffffffffffffffffffff1673ffffffffffffffffffffffffffffffffffffffff16815260200190815260200160002060009054906101000a900460ff16905090565b600115156000803373ffffffffffffffffffffffffffffffffffffffff1673ffffffffffffffffffffffffffffffffffffffff16815260200190815260200160002060009054906101000a900460ff161515146106bd576040517f08c379a00000000000000000000000000000000000000000000000000000000081526004016106b4906114d5565b60405180910390fd5b42600360003373ffffffffffffffffffffffffffffffffffffffff1673ffffffffffffffffffffffffffffffffffffffff168152602001908152602001600020541161073e576040517f08c379a000000000000000000000000000000000000000000000000000000000815260040161073590611541565b60405180910390fd5b600160086000846040516020016107559190611582565b60405160208183030381529060405280519060200120815260200190815260200160002060006101000a81548160ff0219169083151502179055503373ffffffffffffffffffffffffffffffffffffffff167f9dce5852767e8ff17b82fed93e65b4f5345480011604fe1525eb93ef83811d6583836040516107d8929190611623565b60405180910390a25050565b600060086000836040516020016107fb9190611582565b60405160208183030381529060405280519060200120815260200190815260200160002060009054906101000a900460ff169050919050565b60038113610877576040517f08c379a000000000000000000000000000000000000000000000000000000000815260040161086e9061169f565b60405180910390fd5b33600260006101000a81548173ffffffffffffffffffffffffffffffffffffffff021916908373ffffffffffffffffffffffffffffffffffffffff16021790555050565b600060066000836040516020016108d29190611582565b60405160208183030381529060405280519060200120815260200190815260200160002060009054906101000a900460ff169050919050565b3373ffffffffffffffffffffffffffffffffffffffff16600260009054906101000a900473ffffffffffffffffffffffffffffffffffffffff1673ffffffffffffffffffffffffffffffffffffffff161461099b576040517f08c379a0000000000000000000000000000000000000000000000000000000008152600401610992906113fd565b60405180910390fd5b42600460008373ffffffffffffffffffffffffffffffffffffffff1673ffffffffffffffffffffffffffffffffffffffff1681526020019081526020016000205410610a1c576040517f08c379a0000000000000000000000000000000000000000000000000000000008152600401610a1390611469565b60405180910390fd5b610a27426028610f46565b600460008373ffffffffffffffffffffffffffffffffffffffff1673ffffffffffffffffffffffffffffffffffffffff1681526020019081526020016000208190555060018060008373ffffffffffffffffffffffffffffffffffffffff1673ffffffffffffffffffffffffffffffffffffffff16815260200190815260200160002060006101000a81548160ff0219169083151502179055508073ffffffffffffffffffffffffffffffffffffffff167f6b0e1d28d263422a620520c077040ce995db3e9b959e1daf117338b2b6f3c0eb60405160405180910390a250565b60006007600083604051602001610b1e91906116fb565b60405160208183030381529060405280519060200120815260200190815260200160002060009054906101000a900460ff169050919050565b60011515600160003373ffffffffffffffffffffffffffffffffffffffff1673ffffffffffffffffffffffffffffffffffffffff16815260200190815260200160002060009054906101000a900460ff16151514610bea576040517f08c379a0000000000000000000000000000000000000000000000000000000008152600401610be1906114d5565b60405180910390fd5b42600460003373ffffffffffffffffffffffffffffffffffffffff1673ffffffffffffffffffffffffffffffffffffffff1681526020019081526020016000205411610c6b576040517f08c379a0000000000000000000000000000000000000000000000000000000008152600401610c6290611541565b60405180910390fd5b600115156006600089604051602001610c849190611582565b60405160208183030381529060405280519060200120815260200190815260200160002060009054906101000a900460ff16151514610cf8576040517f08c379a0000000000000000000000000000000000000000000000000000000008152600401610cef9061175e565b60405180910390fd5b60016008600088604051602001610d0f9190611582565b60405160208183030381529060405280519060200120815260200190815260200160002060006101000a81548160ff0219169083151502179055610d88576040517f08c379a0000000000000000000000000000000000000000000000000000000008152600401610d7f906117ca565b60405180910390fd5b6087851315610dcc576040517f08c379a0000000000000000000000000000000000000000000000000000000008152600401610dc390611836565b60405180910390fd5b60e68414158015610dde575060328314155b8015610e0a57507fffffffffffffffffffffffffffffffffffffffffffffffffffffffffffffffff8214155b15610e4a576040517f08c379a0000000000000000000000000000000000000000000000000000000008152600401610e41906118a2565b60405180910390fd5b60016007600083604051602001610e6191906116fb565b60405160208183030381529060405280519060200120815260200190815260200160002060006101000a81548160ff0219169083151502179055503373ffffffffffffffffffffffffffffffffffffffff167f07a9eee897cf9c187115548d8c2a3448f1291d8c8329bb0234099309a58057a782604051610ee291906118c2565b60405180910390a250505050505050565b60008060003373ffffffffffffffffffffffffffffffffffffffff1673ffffffffffffffffffffffffffffffffffffffff16815260200190815260200160002060009054906101000a900460ff16905090565b60008183610f549190611913565b905092915050565b6000604051905090565b600080fd5b600080fd5b600073ffffffffffffffffffffffffffffffffffffffff82169050919050565b6000610f9b82610f70565b9050919050565b610fab81610f90565b8114610fb657600080fd5b50565b600081359050610fc881610fa2565b92915050565b600060208284031215610fe457610fe3610f66565b5b6000610ff284828501610fb9565b91505092915050565b6000819050919050565b61100e81610ffb565b811461101957600080fd5b50565b60008135905061102b81611005565b92915050565b600080fd5b600080fd5b6000601f19601f8301169050919050565b7f4e487b7100000000000000000000000000000000000000000000000000000000600052604160045260246000fd5b6110848261103b565b810181811067ffffffffffffffff821117156110a3576110a261104c565b5b80604052505050565b60006110b6610f5c565b90506110c2828261107b565b919050565b600067ffffffffffffffff8211156110e2576110e161104c565b5b6110eb8261103b565b9050602081019050919050565b82818337600083830152505050565b600061111a611115846110c7565b6110ac565b90508281526020810184848401111561113657611135611036565b5b6111418482856110f8565b509392505050565b600082601f83011261115e5761115d611031565b5b813561116e848260208601611107565b91505092915050565b6000806040838503121561118e5761118d610f66565b5b600061119c8582860161101c565b925050602083013567ffffffffffffffff8111156111bd576111bc610f6b565b5b6111c985828601611149565b9150509250929050565b60008115159050919050565b6111e8816111d3565b82525050565b600060208201905061120360008301846111df565b92915050565b60006020828403121561121f5761121e610f66565b5b600061122d8482850161101c565b91505092915050565b6000819050919050565b61124981611236565b811461125457600080fd5b50565b60008135905061126681611240565b92915050565b60006020828403121561128257611281610f66565b5b600061129084828501611257565b91505092915050565b6000602082840312156112af576112ae610f66565b5b600082013567ffffffffffffffff8111156112cd576112cc610f6b565b5b6112d984828501611149565b91505092915050565b600080600080600080600060e0888a03121561130157611300610f66565b5b600061130f8a828b0161101c565b97505060206113208a828b0161101c565b96505060406113318a828b01611257565b95505060606113428a828b01611257565b94505060806113538a828b01611257565b93505060a06113648a828b01611257565b92505060c088013567ffffffffffffffff81111561138557611384610f6b565b5b6113918a828b01611149565b91505092959891949750929550565b600082825260208201905092915050565b7f796f7520617265206e6f74206120636572746966696572000000000000000000600082015250565b60006113e76017836113a0565b91506113f2826113b1565b602082019050919050565b60006020820190508181036000830152611416816113da565b9050919050565b7f796f752068617665207374696c6c2074696d6500000000000000000000000000600082015250565b60006114536013836113a0565b915061145e8261141d565b602082019050919050565b6000602082019050818103600083015261148281611446565b9050919050565b7f796f7520617265206e6f74207175616c69666965642075736572000000000000600082015250565b60006114bf601a836113a0565b91506114ca82611489565b602082019050919050565b600060208201905081810360008301526114ee816114b2565b9050919050565b7f796f75722074696d65206f6620757361676520656e6400000000000000000000600082015250565b600061152b6016836113a0565b9150611536826114f5565b602082019050919050565b6000602082019050818103600083015261155a8161151e565b9050919050565b6000819050919050565b61157c61157782610ffb565b611561565b82525050565b600061158e828461156b565b60208201915081905092915050565b6115a681610ffb565b82525050565b600081519050919050565b60005b838110156115d55780820151818401526020810190506115ba565b838111156115e4576000848401525b50505050565b60006115f5826115ac565b6115ff81856113a0565b935061160f8185602086016115b7565b6116188161103b565b840191505092915050565b6000604082019050611638600083018561159d565b818103602083015261164a81846115ea565b90509392505050565b7f796f75206172656e277420612063657469666965720000000000000000000000600082015250565b60006116896015836113a0565b915061169482611653565b602082019050919050565b600060208201905081810360008301526116b88161167c565b9050919050565b600081905092915050565b60006116d5826115ac565b6116df81856116bf565b93506116ef8185602086016115b7565b80840191505092915050565b600061170782846116ca565b915081905092915050565b7f6361676573206e6f7420666f756e640000000000000000000000000000000000600082015250565b6000611748600f836113a0565b915061175382611712565b602082019050919050565b600060208201905081810360008301526117778161173b565b9050919050565b7f74687265616473206e6f7420666f756e64000000000000000000000000000000600082015250565b60006117b46011836113a0565b91506117bf8261177e565b602082019050919050565b600060208201905081810360008301526117e3816117a7565b9050919050565b7f54656d706572617475726520636c617373206572726f72000000000000000000600082015250565b60006118206017836113a0565b915061182b826117ea565b602082019050919050565b6000602082019050818103600083015261184f81611813565b9050919050565b7f416c696d656e746174696f6e2074656e73696f6e204572726f72000000000000600082015250565b600061188c601a836113a0565b915061189782611856565b602082019050919050565b600060208201905081810360008301526118bb8161187f565b9050919050565b600060208201905081810360008301526118dc81846115ea565b905092915050565b7f4e487b7100000000000000000000000000000000000000000000000000000000600052601160045260246000fd5b600061191e82610ffb565b915061192983610ffb565b9250827fffffffffffffffffffffffffffffffffffffffffffffffffffffffffffffffff0382111561195e5761195d6118e4565b5b82820190509291505056fea2646970667358221220624d04e03668c013b12f9a9eca261671e52573334922e2848a78d085f6e4fc2464736f6c634300080d0033",
  "immutableReferences": {},
  "source": "// SPDX-License-Identifier: MIT\npragma solidity ^0.8.0;\n\nimport \"@openzeppelin/contracts/utils/math/SafeMath.sol\";\n\ncontract ElectricEngine {\n\n    mapping(address => bool) private m1;\n    mapping(address => bool) private m2;\n    //mapping(address => bool) private g;\n    //mapping(address => bool) private f;\n    address private certifier; //who specified the parameter for the verification.\n\n    mapping(address => uint256) private timem1;\n    mapping(address => uint256) private timem2;\n    //mapping(address => uint256) private timeg;\n    //mapping(address => uint256) private timef;\n\n    address private owner;\n\n    //mapping(bytes32 => bool) private bubbleCopper;\n    //mapping(bytes32 => bool) private bubbleSteel;\n    mapping(bytes32 => bool) private cages;\n    mapping(bytes32 => bool) private engines;\n    mapping(bytes32 => bool) private threads;\n\n\n    \n    event addedm1(address indexed user);\n    event addedm2(address indexed user);\n    //event addedf(address indexed user);\n    //event addedg(address indexed user);\n    event certThreads(uint fatt, address indexed user,string producer);\n    event certCages(uint fatt, address indexed user,string producer);\n    event certEngines(string lot, address indexed user);\n    \n    //int[5] private proof;\n    int[5] private info;\n\n\n    constructor(){\n\n      /*m1[0x984765fCd218D3937E4298Dd1746b47828D5E9f8] = true;\n      m2[0xCCf44CeA3140c0253D845D04973bC0D0E5eED163] = true;\n      f[0x10CdeAE4C0d04aD512E017E3F7d236a463c578bB] = true;\n      g[0xeaaF394C2468442eCb543d43B11326903e27e311] = true;\n      timem1[0x984765fCd218D3937E4298Dd1746b47828D5E9f8] = SafeMath.add(block.timestamp, 40);\n      timem2[0xCCf44CeA3140c0253D845D04973bC0D0E5eED163] = SafeMath.add(block.timestamp, 40);\n      timeg[0x10CdeAE4C0d04aD512E017E3F7d236a463c578bB] = SafeMath.add(block.timestamp, 40);\n      timef[0xeaaF394C2468442eCb543d43B11326903e27e311] = SafeMath.add(block.timestamp, 40);\n      certifier = 0x984765fCd218D3937E4298Dd1746b47828D5E9f8;*/\n      owner = msg.sender;\n      \n\n      // DOMANDA -- Facciamo creare i certificati europei agli utenti certificatori oppure usiamo i certificatori solo come gli utenti che controllano i singoli lotti?\n\n\n     \n    }\n\n    \n\n    /*function UserInfos( int8 info1, int8 info2, int8 info3, int8 info4, int8 info5) external{\n        require(msg.sender == certifier, \"you are not a certifier\");\n        info[0] = info1;\n        info[1] = info2;\n        info[2] = info3;\n        info[3] = info4;\n        info[4] = info5;\n\n    }*/\n\n    /*function UserProofs(int8 proof1, int8 proof2, int8 proof3, int8 proof4, int proof5) external{\n        require(msg.sender == certifier, \"you are not a certifier\");\n        proof[0] = proof1;\n        proof[1] = proof2;\n        proof[2] = proof3;\n        proof[3] = proof4;\n        proof[4] = proof5;\n\n    }*/\n\n    function addcertifier(int infop) external{\n        require(infop>3,\"you aren't a cetifier\");\n        certifier = msg.sender;\n        \n\n    }\n\n    function addm1(address ut1) external {\n\n        //require(infop>info[0],\"you aren't a m1\");\n        require(certifier == msg.sender, \"you are not a certifier\");\n        require(timem1[ut1]<block.timestamp,\"you have still time\");\n        timem1[ut1] = SafeMath.add(block.timestamp, 40);\n        m1[ut1] = true;\n        emit addedm1(ut1);\n    } \n\n    function addm2(address ut2) external {\n\n        //require(infop>info[1],\"you aren't a m2\");\n        require(certifier == msg.sender, \"you are not a certifier\");\n        require(timem2[ut2]<block.timestamp,\"you have still time\");\n        timem2[ut2] = SafeMath.add(block.timestamp, 40);\n        m2[ut2] = true;\n        emit addedm2(ut2);\n    } \n\n    /*function addG(int8 infop) external {\n        require(infop>info[2],\"you aren't a G\");\n        require(timeg[msg.sender]<block.timestamp,\"you have still time\");\n        timeg[msg.sender] = SafeMath.add(block.timestamp, 40);\n        m1[msg.sender] = true;\n        emit addedg(msg.sender);\n    } \n\n    function addmF(int8 infop) external {\n        require(infop>info[4],\"you aren't a F\");\n        require(timef[msg.sender]<block.timestamp,\"you have still time\");\n        timef[msg.sender] = SafeMath.add(block.timestamp, 40);\n        m1[msg.sender] = true;\n        emit addedf(msg.sender);\n\n    } */\n\n    /*\n\n    FOR NOW CERTIFY ONLY THREADS, CAGES AND ENGINES\n\n    function certificateSteels(int proofo, string memory object) external { \n      \n        require(proofo>proof[0],\"not valid Steels\");\n        require(f[msg.sender] == true, \"you are not qualified user\");\n        require(timef[msg.sender]>block.timestamp, \"your time of usage end\");\n        bubbleSteel[keccak256(abi.encodePacked(object))] = true;\n    } \n\n    function certificateCoppers(int proofo, string memory object) external {\n        require(proofo>proof[1],\"not valid Coppers\");\n        require(g[msg.sender] == true, \"you are not qualified user\");\n        require(timeg[msg.sender]>block.timestamp, \"your time of usage end\");\n        bubbleCopper[keccak256(abi.encodePacked(object))] = true;\n    }  \n\n    */\n\n    function certificateThreads(uint fatt, string memory producer) external { //Ask for threads data - Producer and Fattura d'aquisto\n        require(m1[msg.sender] == true, \"you are not qualified user\");//sistemare\n        require(timem1[msg.sender]>block.timestamp, \"your time of usage end\");\n        threads[keccak256(abi.encodePacked(fatt))] = true; //the key value for the threads is now the invoice (fattura) code\n        emit certThreads(fatt,msg.sender,producer);\n        //return(producer, fatt); //this function return the producer and the invoice code - if useful\n    }\n\n    function certificateCage(uint fatt, string memory producer) external { //Ask for cages data - Producer and Fattura d'aquisto\n        require(m1[msg.sender] == true, \"you are not qualified user\");//sistemare\n        require(timem1[msg.sender]>block.timestamp, \"your time of usage end\");\n        cages[keccak256(abi.encodePacked(fatt))] = true;\n        emit certCages(fatt,msg.sender,producer);\n        //return(producer, fatt); //As above\n    }\n\n    function certificateEngines(uint cage_fatt, uint thread_fatt, int temp, int ts, int fr, int Y, string memory object) external {\n        require(m2[msg.sender] == true, \"you are not qualified user\");//sistemare\n        require(timem2[msg.sender]>block.timestamp, \"your time of usage end\"); //sistemare\n        require(cages[keccak256(abi.encodePacked(cage_fatt))] == true, \"cages not found\"); //thread_fatt -> thread invoice id\n        require(threads[keccak256(abi.encodePacked(thread_fatt))] = true, \"threads not found\"); //cage_fatt -> cage invoice id\n        require(temp <= 135, \"Temperature class error\"); //check if the tested temperature class is less then or equal to teh one defined in the certificate (defiened when the cintract is created)\n        if (ts != 230 && fr != 50 && Y != -1){ //check the parameter for the alimentation tension\n            revert(\"Alimentation tension Error\");\n        }\n        engines[keccak256(abi.encodePacked(object))] = true; //set as true an engine with ID = object (numero del lotto??)\n        emit certEngines(object,msg.sender);\n    } \n\n   /* function isCertificatesSteels(string memory object) view external returns(bool) {\n        return bubbleSteel[keccak256(abi.encodePacked(object))];\n    }   \n\n    function isCertificatedCoppers(string memory object) view external returns(bool){\n   \n        return bubbleCopper[keccak256(abi.encodePacked(object))];\n    }   */\n\n    function isCertificatedThreads(uint fatt) view external returns(bool){\n      \n        return threads[keccak256(abi.encodePacked(fatt))];\n    } \n\n    function isCertificatedCages(uint fatt) view external returns(bool){\n \n        return cages[keccak256(abi.encodePacked(fatt))];\n    } \n\n    function isCertificatedEngines(string memory lot) view external returns(bool){\n    \n        return engines[keccak256(abi.encodePacked(lot))];\n    } \n\n   function isM1() view external returns(bool) {\n        return m1[msg.sender];\n    }   \n\n    function isM2() view external returns(bool){\n   \n        return m2[msg.sender];\n    }   \n\n    /*function isF() view external returns(bool){\n      \n        return f[msg.sender];\n    } \n\n    function isG() view external returns(bool){\n \n        return g[msg.sender];\n    } */\n\n\n\n\n\n\n    /*function payStorageFee() external payable {\n        require(msg.sender == customer, \"Only the customer can pay the storage fee\");\n        require(msg.value > 0, \"Storage fee should be greater than zero\");\n        balances[storageProvider] += msg.value;\n        emit StorageFeePaid(msg.sender, msg.value);\n    }\n\n    function storeItems(uint256 _amount) external {\n        require(msg.sender == customer, \"Only the customer can store items\");\n        require(balances[customer] >= _amount, \"Insufficient balance to store items\");\n        balances[customer] -= _amount;\n        storedItems[customer] += _amount;\n        emit ItemsStored(msg.sender, _amount);\n    }\n\n    function retrieveItems(uint256 _amount) external {\n        require(msg.sender == customer, \"Only the customer can retrieve items\");\n        require(storedItems[customer] >= _amount, \"Insufficient stored items to retrieve\");\n        storedItems[customer] -= _amount;\n        balances[customer] += _amount;\n        emit ItemsRetrieved(msg.sender, _amount);\n    }*/\n}\n\n\n\n",
  "sourcePath": "/home/parallels/Desktop/BLOCK_PROJ/BlockchainProject/Proj_source/contracts/Proj_contract.sol",
  "compiler": {
    "name": "solc",
    "version": "0.8.13+commit.abaa5c0e.Emscripten.clang"
  },
  "schemaVersion": "3.4.13",
  "updatedAt": "2023-06-30T15:15:49.156Z",
  "networkType": "ethereum",
  "devdoc": {
    "kind": "dev",
    "methods": {},
    "version": 1
  },
  "userdoc": {
    "kind": "user",
    "methods": {},
    "version": 1
  }
}