{
  "contractName": "ElectricEngine",
  "abi": [
    {
      "inputs": [],
      "stateMutability": "nonpayable",
      "type": "constructor"
    },
    {
      "anonymous": false,
      "inputs": [
        {
          "indexed": true,
          "internalType": "address",
          "name": "user",
          "type": "address"
        }
      ],
      "name": "addedm1",
      "type": "event"
    },
    {
      "anonymous": false,
      "inputs": [
        {
          "indexed": true,
          "internalType": "address",
          "name": "user",
          "type": "address"
        }
      ],
      "name": "addedm2",
      "type": "event"
    },
    {
      "anonymous": false,
      "inputs": [
        {
          "indexed": true,
          "internalType": "uint256",
          "name": "fatt",
          "type": "uint256"
        },
        {
          "indexed": true,
          "internalType": "address",
          "name": "user",
          "type": "address"
        },
        {
          "indexed": false,
          "internalType": "string",
          "name": "producer",
          "type": "string"
        }
      ],
      "name": "certCages",
      "type": "event"
    },
    {
      "anonymous": false,
      "inputs": [
        {
          "indexed": true,
          "internalType": "string",
          "name": "lot",
          "type": "string"
        },
        {
          "indexed": true,
          "internalType": "address",
          "name": "user",
          "type": "address"
        }
      ],
      "name": "certEngines",
      "type": "event"
    },
    {
      "anonymous": false,
      "inputs": [
        {
          "indexed": true,
          "internalType": "uint256",
          "name": "fatt",
          "type": "uint256"
        },
        {
          "indexed": true,
          "internalType": "address",
          "name": "user",
          "type": "address"
        },
        {
          "indexed": false,
          "internalType": "string",
          "name": "producer",
          "type": "string"
        }
      ],
      "name": "certThreads",
      "type": "event"
    },
    {
      "inputs": [
        {
          "internalType": "int256",
          "name": "infop",
          "type": "int256"
        }
      ],
      "name": "addcertifier",
      "outputs": [],
      "stateMutability": "nonpayable",
      "type": "function"
    },
    {
      "inputs": [
        {
          "internalType": "address",
          "name": "ut1",
          "type": "address"
        }
      ],
      "name": "addm1",
      "outputs": [],
      "stateMutability": "nonpayable",
      "type": "function"
    },
    {
      "inputs": [
        {
          "internalType": "address",
          "name": "ut2",
          "type": "address"
        }
      ],
      "name": "addm2",
      "outputs": [],
      "stateMutability": "nonpayable",
      "type": "function"
    },
    {
      "inputs": [
        {
          "internalType": "uint256",
          "name": "fatt",
          "type": "uint256"
        },
        {
          "internalType": "string",
          "name": "producer",
          "type": "string"
        }
      ],
      "name": "certificateThreads",
      "outputs": [],
      "stateMutability": "nonpayable",
      "type": "function"
    },
    {
      "inputs": [
        {
          "internalType": "uint256",
          "name": "fatt",
          "type": "uint256"
        },
        {
          "internalType": "string",
          "name": "producer",
          "type": "string"
        }
      ],
      "name": "certificateCage",
      "outputs": [],
      "stateMutability": "nonpayable",
      "type": "function"
    },
    {
      "inputs": [
        {
          "internalType": "uint256",
          "name": "cage_fatt",
          "type": "uint256"
        },
        {
          "internalType": "uint256",
          "name": "thread_fatt",
          "type": "uint256"
        },
        {
          "internalType": "int256",
          "name": "temp",
          "type": "int256"
        },
        {
          "internalType": "int256",
          "name": "ts",
          "type": "int256"
        },
        {
          "internalType": "int256",
          "name": "fr",
          "type": "int256"
        },
        {
          "internalType": "int256",
          "name": "Y",
          "type": "int256"
        },
        {
          "internalType": "string",
          "name": "object",
          "type": "string"
        }
      ],
      "name": "certificateEngines",
      "outputs": [],
      "stateMutability": "nonpayable",
      "type": "function"
    },
    {
      "inputs": [
        {
          "internalType": "uint256",
          "name": "fatt",
          "type": "uint256"
        }
      ],
      "name": "isCertificatedThreads",
      "outputs": [
        {
          "internalType": "bool",
          "name": "",
          "type": "bool"
        }
      ],
      "stateMutability": "view",
      "type": "function",
      "constant": true
    },
    {
      "inputs": [
        {
          "internalType": "uint256",
          "name": "fatt",
          "type": "uint256"
        }
      ],
      "name": "isCertificatedCages",
      "outputs": [
        {
          "internalType": "bool",
          "name": "",
          "type": "bool"
        }
      ],
      "stateMutability": "view",
      "type": "function",
      "constant": true
    },
    {
      "inputs": [
        {
          "internalType": "string",
          "name": "lot",
          "type": "string"
        }
      ],
      "name": "isCertificatedEngines",
      "outputs": [
        {
          "internalType": "bool",
          "name": "",
          "type": "bool"
        }
      ],
      "stateMutability": "view",
      "type": "function",
      "constant": true
    },
    {
      "inputs": [],
      "name": "isM1",
      "outputs": [
        {
          "internalType": "bool",
          "name": "",
          "type": "bool"
        }
      ],
      "stateMutability": "view",
      "type": "function",
      "constant": true
    },
    {
      "inputs": [],
      "name": "isM2",
      "outputs": [
        {
          "internalType": "bool",
          "name": "",
          "type": "bool"
        }
      ],
      "stateMutability": "view",
      "type": "function",
      "constant": true
    }
  ],
  "bytecode": "0x608060405234801561001057600080fd5b5033600260006101000a81548173ffffffffffffffffffffffffffffffffffffffff021916908373ffffffffffffffffffffffffffffffffffffffff160217905550611af2806100616000396000f3fe608060405234801561001057600080fd5b50600436106100a95760003560e01c8063513f8c2f11610071578063513f8c2f146101505780635e3e7ab61461016c5780635f7a98011461019c5780638748a146146101b8578063af9f124f146101e8578063d917288914610204576100a9565b806307890067146100ae57806316981434146100ca578063258c6647146100e65780632c690b3f146101045780632cd47e1a14610120575b600080fd5b6100c860048036038101906100c391906110f4565b610222565b005b6100e460048036038101906100df919061129d565b6104ae565b005b6100ee610666565b6040516100fb9190611314565b60405180910390f35b61011e6004803603810190610119919061129d565b6106ba565b005b61013a6004803603810190610135919061132f565b610872565b6040516101479190611314565b60405180910390f35b61016a60048036038101906101659190611392565b6108c2565b005b6101866004803603810190610181919061132f565b610949565b6040516101939190611314565b60405180910390f35b6101b660048036038101906101b191906110f4565b610999565b005b6101d260048036038101906101cd91906113bf565b610c25565b6040516101df9190611314565b60405180910390f35b61020260048036038101906101fd9190611408565b610c75565b005b61020c611019565b6040516102199190611314565b60405180910390f35b3373ffffffffffffffffffffffffffffffffffffffff16600260009054906101000a900473ffffffffffffffffffffffffffffffffffffffff1673ffffffffffffffffffffffffffffffffffffffff16146102b2576040517f08c379a00000000000000000000000000000000000000000000000000000000081526004016102a990611523565b60405180910390fd5b8073ffffffffffffffffffffffffffffffffffffffff16600260009054906101000a900473ffffffffffffffffffffffffffffffffffffffff1673ffffffffffffffffffffffffffffffffffffffff1603610342576040517f08c379a00000000000000000000000000000000000000000000000000000000081526004016103399061158f565b60405180910390fd5b43600360008373ffffffffffffffffffffffffffffffffffffffff1673ffffffffffffffffffffffffffffffffffffffff16815260200190815260200160002054106103c3576040517f08c379a00000000000000000000000000000000000000000000000000000000081526004016103ba906115fb565b60405180910390fd5b6103ce43602861106c565b600360008373ffffffffffffffffffffffffffffffffffffffff1673ffffffffffffffffffffffffffffffffffffffff1681526020019081526020016000208190555060016000808373ffffffffffffffffffffffffffffffffffffffff1673ffffffffffffffffffffffffffffffffffffffff16815260200190815260200160002060006101000a81548160ff0219169083151502179055508073ffffffffffffffffffffffffffffffffffffffff167f2756cd91fb7c0be01353207b0107f45f9dbe5f2837c4a796fe7d95c060d7588260405160405180910390a250565b600115156000803373ffffffffffffffffffffffffffffffffffffffff1673ffffffffffffffffffffffffffffffffffffffff16815260200190815260200160002060009054906101000a900460ff16151514610540576040517f08c379a000000000000000000000000000000000000000000000000000000000815260040161053790611667565b60405180910390fd5b43600360003373ffffffffffffffffffffffffffffffffffffffff1673ffffffffffffffffffffffffffffffffffffffff16815260200190815260200160002054116105c1576040517f08c379a00000000000000000000000000000000000000000000000000000000081526004016105b8906116d3565b60405180910390fd5b600160056000846040516020016105d89190611714565b60405160208183030381529060405280519060200120815260200190815260200160002060006101000a81548160ff0219169083151502179055503373ffffffffffffffffffffffffffffffffffffffff16827f7fc2a2441cf93b10214bb4f95f4e39a190bc195d0296d475c4806a8a17448f5f8360405161065a91906117a6565b60405180910390a35050565b6000600160003373ffffffffffffffffffffffffffffffffffffffff1673ffffffffffffffffffffffffffffffffffffffff16815260200190815260200160002060009054906101000a900460ff16905090565b600115156000803373ffffffffffffffffffffffffffffffffffffffff1673ffffffffffffffffffffffffffffffffffffffff16815260200190815260200160002060009054906101000a900460ff1615151461074c576040517f08c379a000000000000000000000000000000000000000000000000000000000815260040161074390611667565b60405180910390fd5b43600360003373ffffffffffffffffffffffffffffffffffffffff1673ffffffffffffffffffffffffffffffffffffffff16815260200190815260200160002054116107cd576040517f08c379a00000000000000000000000000000000000000000000000000000000081526004016107c4906116d3565b60405180910390fd5b600160076000846040516020016107e49190611714565b60405160208183030381529060405280519060200120815260200190815260200160002060006101000a81548160ff0219169083151502179055503373ffffffffffffffffffffffffffffffffffffffff16827f9dce5852767e8ff17b82fed93e65b4f5345480011604fe1525eb93ef83811d658360405161086691906117a6565b60405180910390a35050565b600060076000836040516020016108899190611714565b60405160208183030381529060405280519060200120815260200190815260200160002060009054906101000a900460ff169050919050565b60038113610905576040517f08c379a00000000000000000000000000000000000000000000000000000000081526004016108fc90611814565b60405180910390fd5b33600260006101000a81548173ffffffffffffffffffffffffffffffffffffffff021916908373ffffffffffffffffffffffffffffffffffffffff16021790555050565b600060056000836040516020016109609190611714565b60405160208183030381529060405280519060200120815260200190815260200160002060009054906101000a900460ff169050919050565b3373ffffffffffffffffffffffffffffffffffffffff16600260009054906101000a900473ffffffffffffffffffffffffffffffffffffffff1673ffffffffffffffffffffffffffffffffffffffff1614610a29576040517f08c379a0000000000000000000000000000000000000000000000000000000008152600401610a2090611523565b60405180910390fd5b8073ffffffffffffffffffffffffffffffffffffffff16600260009054906101000a900473ffffffffffffffffffffffffffffffffffffffff1673ffffffffffffffffffffffffffffffffffffffff1603610ab9576040517f08c379a0000000000000000000000000000000000000000000000000000000008152600401610ab09061158f565b60405180910390fd5b43600460008373ffffffffffffffffffffffffffffffffffffffff1673ffffffffffffffffffffffffffffffffffffffff1681526020019081526020016000205410610b3a576040517f08c379a0000000000000000000000000000000000000000000000000000000008152600401610b31906115fb565b60405180910390fd5b610b4543602861106c565b600460008373ffffffffffffffffffffffffffffffffffffffff1673ffffffffffffffffffffffffffffffffffffffff1681526020019081526020016000208190555060018060008373ffffffffffffffffffffffffffffffffffffffff1673ffffffffffffffffffffffffffffffffffffffff16815260200190815260200160002060006101000a81548160ff0219169083151502179055508073ffffffffffffffffffffffffffffffffffffffff167f6b0e1d28d263422a620520c077040ce995db3e9b959e1daf117338b2b6f3c0eb60405160405180910390a250565b60006006600083604051602001610c3c9190611870565b60405160208183030381529060405280519060200120815260200190815260200160002060009054906101000a900460ff169050919050565b60011515600160003373ffffffffffffffffffffffffffffffffffffffff1673ffffffffffffffffffffffffffffffffffffffff16815260200190815260200160002060009054906101000a900460ff16151514610d08576040517f08c379a0000000000000000000000000000000000000000000000000000000008152600401610cff90611667565b60405180910390fd5b43600460003373ffffffffffffffffffffffffffffffffffffffff1673ffffffffffffffffffffffffffffffffffffffff1681526020019081526020016000205411610d89576040517f08c379a0000000000000000000000000000000000000000000000000000000008152600401610d80906116d3565b60405180910390fd5b600115156005600089604051602001610da29190611714565b60405160208183030381529060405280519060200120815260200190815260200160002060009054906101000a900460ff16151514610e16576040517f08c379a0000000000000000000000000000000000000000000000000000000008152600401610e0d906118d3565b60405180910390fd5b600115156007600088604051602001610e2f9190611714565b60405160208183030381529060405280519060200120815260200190815260200160002060009054906101000a900460ff16151514610ea3576040517f08c379a0000000000000000000000000000000000000000000000000000000008152600401610e9a9061193f565b60405180910390fd5b6087851315610ee7576040517f08c379a0000000000000000000000000000000000000000000000000000000008152600401610ede906119ab565b60405180910390fd5b60e68414158015610ef9575060328314155b8015610f2557507fffffffffffffffffffffffffffffffffffffffffffffffffffffffffffffffff8214155b15610f65576040517f08c379a0000000000000000000000000000000000000000000000000000000008152600401610f5c90611a17565b60405180910390fd5b60016006600083604051602001610f7c9190611870565b60405160208183030381529060405280519060200120815260200190815260200160002060006101000a81548160ff0219169083151502179055503373ffffffffffffffffffffffffffffffffffffffff1681604051610fdc9190611870565b60405180910390207f07a9eee897cf9c187115548d8c2a3448f1291d8c8329bb0234099309a58057a760405160405180910390a350505050505050565b60008060003373ffffffffffffffffffffffffffffffffffffffff1673ffffffffffffffffffffffffffffffffffffffff16815260200190815260200160002060009054906101000a900460ff16905090565b6000818361107a9190611a66565b905092915050565b6000604051905090565b600080fd5b600080fd5b600073ffffffffffffffffffffffffffffffffffffffff82169050919050565b60006110c182611096565b9050919050565b6110d1816110b6565b81146110dc57600080fd5b50565b6000813590506110ee816110c8565b92915050565b60006020828403121561110a5761110961108c565b5b6000611118848285016110df565b91505092915050565b6000819050919050565b61113481611121565b811461113f57600080fd5b50565b6000813590506111518161112b565b92915050565b600080fd5b600080fd5b6000601f19601f8301169050919050565b7f4e487b7100000000000000000000000000000000000000000000000000000000600052604160045260246000fd5b6111aa82611161565b810181811067ffffffffffffffff821117156111c9576111c8611172565b5b80604052505050565b60006111dc611082565b90506111e882826111a1565b919050565b600067ffffffffffffffff82111561120857611207611172565b5b61121182611161565b9050602081019050919050565b82818337600083830152505050565b600061124061123b846111ed565b6111d2565b90508281526020810184848401111561125c5761125b61115c565b5b61126784828561121e565b509392505050565b600082601f83011261128457611283611157565b5b813561129484826020860161122d565b91505092915050565b600080604083850312156112b4576112b361108c565b5b60006112c285828601611142565b925050602083013567ffffffffffffffff8111156112e3576112e2611091565b5b6112ef8582860161126f565b9150509250929050565b60008115159050919050565b61130e816112f9565b82525050565b60006020820190506113296000830184611305565b92915050565b6000602082840312156113455761134461108c565b5b600061135384828501611142565b91505092915050565b6000819050919050565b61136f8161135c565b811461137a57600080fd5b50565b60008135905061138c81611366565b92915050565b6000602082840312156113a8576113a761108c565b5b60006113b68482850161137d565b91505092915050565b6000602082840312156113d5576113d461108c565b5b600082013567ffffffffffffffff8111156113f3576113f2611091565b5b6113ff8482850161126f565b91505092915050565b600080600080600080600060e0888a0312156114275761142661108c565b5b60006114358a828b01611142565b97505060206114468a828b01611142565b96505060406114578a828b0161137d565b95505060606114688a828b0161137d565b94505060806114798a828b0161137d565b93505060a061148a8a828b0161137d565b92505060c088013567ffffffffffffffff8111156114ab576114aa611091565b5b6114b78a828b0161126f565b91505092959891949750929550565b600082825260208201905092915050565b7f796f7520617265206e6f74206120636572746966696572000000000000000000600082015250565b600061150d6017836114c6565b9150611518826114d7565b602082019050919050565b6000602082019050818103600083015261153c81611500565b9050919050565b7f4120636572697469666965722063616e6e6f7420626520616c736f2061204d31600082015250565b60006115796020836114c6565b915061158482611543565b602082019050919050565b600060208201905081810360008301526115a88161156c565b9050919050565b7f796f752068617665207374696c6c2074696d6500000000000000000000000000600082015250565b60006115e56013836114c6565b91506115f0826115af565b602082019050919050565b60006020820190508181036000830152611614816115d8565b9050919050565b7f796f7520617265206e6f74207175616c69666965642075736572000000000000600082015250565b6000611651601a836114c6565b915061165c8261161b565b602082019050919050565b6000602082019050818103600083015261168081611644565b9050919050565b7f796f75722074696d65206f6620757361676520656e6400000000000000000000600082015250565b60006116bd6016836114c6565b91506116c882611687565b602082019050919050565b600060208201905081810360008301526116ec816116b0565b9050919050565b6000819050919050565b61170e61170982611121565b6116f3565b82525050565b600061172082846116fd565b60208201915081905092915050565b600081519050919050565b60005b8381101561175857808201518184015260208101905061173d565b83811115611767576000848401525b50505050565b60006117788261172f565b61178281856114c6565b935061179281856020860161173a565b61179b81611161565b840191505092915050565b600060208201905081810360008301526117c0818461176d565b905092915050565b7f796f75206172656e277420612063657469666965720000000000000000000000600082015250565b60006117fe6015836114c6565b9150611809826117c8565b602082019050919050565b6000602082019050818103600083015261182d816117f1565b9050919050565b600081905092915050565b600061184a8261172f565b6118548185611834565b935061186481856020860161173a565b80840191505092915050565b600061187c828461183f565b915081905092915050565b7f6361676573206e6f7420666f756e640000000000000000000000000000000000600082015250565b60006118bd600f836114c6565b91506118c882611887565b602082019050919050565b600060208201905081810360008301526118ec816118b0565b9050919050565b7f74687265616473206e6f7420666f756e64000000000000000000000000000000600082015250565b60006119296011836114c6565b9150611934826118f3565b602082019050919050565b600060208201905081810360008301526119588161191c565b9050919050565b7f54656d706572617475726520636c617373206572726f72000000000000000000600082015250565b60006119956017836114c6565b91506119a08261195f565b602082019050919050565b600060208201905081810360008301526119c481611988565b9050919050565b7f416c696d656e746174696f6e2074656e73696f6e204572726f72000000000000600082015250565b6000611a01601a836114c6565b9150611a0c826119cb565b602082019050919050565b60006020820190508181036000830152611a30816119f4565b9050919050565b7f4e487b7100000000000000000000000000000000000000000000000000000000600052601160045260246000fd5b6000611a7182611121565b9150611a7c83611121565b9250827fffffffffffffffffffffffffffffffffffffffffffffffffffffffffffffffff03821115611ab157611ab0611a37565b5b82820190509291505056fea2646970667358221220c8f2b4e6cce0152c26b8ec34fca56192eaa9de5465753e10333055c2371e349864736f6c634300080d0033",
  "immutableReferences": {},
  "source": "// SPDX-License-Identifier: MIT\npragma solidity ^0.8.0;\n\nimport \"@openzeppelin/contracts/utils/math/SafeMath.sol\";\n\ncontract ElectricEngine {\n\n    mapping(address => bool) private m1; //producer that certifies threads and cages\n    mapping(address => bool) private m2; //user that test engine\n    //mapping(address => bool) private g;\n    //mapping(address => bool) private f;\n    address private certifier; //who specified the parameter for the verification.\n\n    mapping(address => uint256) private timem1;//block when the service ends for m1\n    mapping(address => uint256) private timem2;//block when the service ends for m1\n    //mapping(address => uint256) private timeg;\n    //mapping(address => uint256) private timef;\n\n    //address private owner;\n\n    //mapping(bytes32 => bool) private bubbleCopper;\n    //mapping(bytes32 => bool) private bubbleSteel;\n    mapping(bytes32 => bool) private cages; \n    mapping(bytes32 => bool) private engines;\n    mapping(bytes32 => bool) private threads;\n\n\n    //Events with information goal\n    event addedm1(address indexed user);\n    event addedm2(address indexed user);\n    //event addedf(address indexed user);\n    //event addedg(address indexed user);\n    event certThreads(uint indexed fatt, address indexed user,string producer);\n    event certCages(uint indexed fatt, address indexed user,string producer);\n    event certEngines(string indexed lot, address indexed user);\n    \n    //int[5] private proof;\n    //int[5] private info;\n\n\n    constructor(){\n\n      /*m1[0x984765fCd218D3937E4298Dd1746b47828D5E9f8] = true;\n      m2[0xCCf44CeA3140c0253D845D04973bC0D0E5eED163] = true;\n      f[0x10CdeAE4C0d04aD512E017E3F7d236a463c578bB] = true;\n      g[0xeaaF394C2468442eCb543d43B11326903e27e311] = true;\n      timem1[0x984765fCd218D3937E4298Dd1746b47828D5E9f8] = SafeMath.add(block.number, 40);\n      timem2[0xCCf44CeA3140c0253D845D04973bC0D0E5eED163] = SafeMath.add(block.number, 40);\n      timeg[0x10CdeAE4C0d04aD512E017E3F7d236a463c578bB] = SafeMath.add(block.number, 40);\n      timef[0xeaaF394C2468442eCb543d43B11326903e27e311] = SafeMath.add(block.number, 40);\n      certifier = 0x984765fCd218D3937E4298Dd1746b47828D5E9f8;*/\n      //owner = msg.sender;\n      certifier = msg.sender;\n      \n\n      // DOMANDA -- Facciamo creare i certificati europei agli utenti certificatori oppure usiamo i certificatori solo come gli utenti che controllano i singoli lotti?\n\n\n     \n    }\n\n    \n\n    /*function UserInfos( int8 info1, int8 info2, int8 info3, int8 info4, int8 info5) external{\n        require(msg.sender == certifier, \"you are not a certifier\");\n        info[0] = info1;\n        info[1] = info2;\n        info[2] = info3;\n        info[3] = info4;\n        info[4] = info5;\n\n    }*/\n\n    /*function UserProofs(int8 proof1, int8 proof2, int8 proof3, int8 proof4, int proof5) external{\n        require(msg.sender == certifier, \"you are not a certifier\");\n        proof[0] = proof1;\n        proof[1] = proof2;\n        proof[2] = proof3;\n        proof[3] = proof4;\n        proof[4] = proof5;\n\n    }*/\n\n    function addcertifier(int infop) external{\n        require(infop>3,\"you aren't a cetifier\");\n        certifier = msg.sender;\n        \n\n    }\n\n    function addm1(address  ut1) external { \n\n        //require(infop>info[0],\"you aren't a m1\");\n        require(certifier == msg.sender, \"you are not a certifier\");\n        require(certifier != ut1, \"A ceritifier cannot be also a M1\");\n        require(timem1[ut1]<block.number,\"you have still time\");\n        timem1[ut1] = SafeMath.add(block.number, 40); //Assign to the producer the block where its service ends\n        m1[ut1] = true; //ut1 is a producer of cages and threads\n        emit addedm1(ut1);\n    } \n\n    function addm2(address ut2) external {\n\n        //require(infop>info[1],\"you aren't a m2\");\n        require(certifier == msg.sender, \"you are not a certifier\");\n        require(certifier != ut2, \"A ceritifier cannot be also a M1\");\n        require(timem2[ut2]<block.number,\"you have still time\");\n        timem2[ut2] = SafeMath.add(block.number, 40); //Assign to the producer the block where its service ends\n        m2[ut2] = true; //ut2 is a engine tester\n        emit addedm2(ut2);\n    } \n\n    /*function addG(int8 infop) external {\n        require(infop>info[2],\"you aren't a G\");\n        require(timeg[msg.sender]<block.timestamp,\"you have still time\");\n        timeg[msg.sender] = SafeMath.add(block.timestamp, 40);\n        m1[msg.sender] = true;\n        emit addedg(msg.sender);\n    } \n\n    function addmF(int8 infop) external {\n        require(infop>info[4],\"you aren't a F\");\n        require(timef[msg.sender]<block.timestamp,\"you have still time\");\n        timef[msg.sender] = SafeMath.add(block.timestamp, 40);\n        m1[msg.sender] = true;\n        emit addedf(msg.sender);\n\n    } */\n\n    /*\n\n    FOR NOW CERTIFY ONLY THREADS, CAGES AND ENGINES\n\n    function certificateSteels(int proofo, string memory object) external { \n      \n        require(proofo>proof[0],\"not valid Steels\");\n        require(f[msg.sender] == true, \"you are not qualified user\");\n        require(timef[msg.sender]>block.number, \"your time of usage end\");\n        bubbleSteel[keccak256(abi.encodePacked(object))] = true;\n    } \n\n    function certificateCoppers(int proofo, string memory object) external {\n        require(proofo>proof[1],\"not valid Coppers\");\n        require(g[msg.sender] == true, \"you are not qualified user\");\n        require(timeg[msg.sender]>block.number, \"your time of usage end\");\n        bubbleCopper[keccak256(abi.encodePacked(object))] = true;\n    }  \n\n    */\n\n    function certificateThreads(uint fatt, string memory producer) external { //Ask threads data (Producer and Fattura d'aquisto) to certidicate the threads\n        require(m1[msg.sender] == true, \"you are not qualified user\");\n        require(timem1[msg.sender]>block.number, \"your time of usage end\");\n        threads[keccak256(abi.encodePacked(fatt))] = true; //the key value for the threads is now the invoice (fattura) code.\n        emit certThreads(fatt,msg.sender,producer);\n        //return(producer, fatt); //this function return the producer and the invoice code - if useful\n    }\n\n    function certificateCage(uint fatt, string memory producer) external { //Ask for cages data (Producer and Fattura d'aquisto) to certificate the cages\n        require(m1[msg.sender] == true, \"you are not qualified user\");\n        require(timem1[msg.sender]>block.number, \"your time of usage end\");\n        cages[keccak256(abi.encodePacked(fatt))] = true;//the key value for the threads is now the invoice (fattura) code.\n        emit certCages(fatt,msg.sender,producer);\n        //return(producer, fatt); //As above\n    }\n\n    function certificateEngines(uint cage_fatt, uint thread_fatt, int temp, int ts, int fr, int Y, string memory object) external {\n        require(m2[msg.sender] == true, \"you are not qualified user\");\n        require(timem2[msg.sender]>block.number, \"your time of usage end\"); \n        require(cages[keccak256(abi.encodePacked(cage_fatt))] == true, \"cages not found\"); //cage_fatt -> cage invoice//thread_fatt -> thread invoice id\n        require(threads[keccak256(abi.encodePacked(thread_fatt))] == true, \"threads not found\"); //thread_fatt -> thread invoice id\n        require(temp <= 135, \"Temperature class error\"); //check if the tested temperature class is less then or equal to teh one defined in the certificate (defiened when the cintract is created)\n        if (ts != 230 && fr != 50 && Y != -1){ //check the parameter for the alimentation tension\n            revert(\"Alimentation tension Error\");\n        }\n        engines[keccak256(abi.encodePacked(object))] = true; //set as true an engine with ID lotto, azienda:number.\n        //segnare i due pezzi cages e thread come non certificati !!!!!!!!!!!!!!!!!!!!!!!!!!!!!!!!!!!!!!!!!!!!!!!!!!!!!!!!!!!!!!!!!!!!!!!!!!!!!!!!!!!!!!!!!!!!!!!!!!!!!!!!!!!!!!!!!!!!\n        emit certEngines(object,msg.sender);\n    } \n\n   /* function isCertificatesSteels(string memory object) view external returns(bool) {\n        return bubbleSteel[keccak256(abi.encodePacked(object))];\n    }   \n\n    function isCertificatedCoppers(string memory object) view external returns(bool){\n   \n        return bubbleCopper[keccak256(abi.encodePacked(object))];\n    }   */\n\n    function isCertificatedThreads(uint fatt) view external returns(bool){ \n      \n        return threads[keccak256(abi.encodePacked(fatt))];\n    } \n\n    function isCertificatedCages(uint fatt) view external returns(bool){\n \n        return cages[keccak256(abi.encodePacked(fatt))];\n    } \n\n    function isCertificatedEngines(string memory lot) view external returns(bool){\n    \n        return engines[keccak256(abi.encodePacked(lot))];\n    } \n\n   function isM1() view external returns(bool) {\n        return m1[msg.sender];\n    }   \n\n    function isM2() view external returns(bool){\n   \n        return m2[msg.sender];\n    }   \n\n    /*function isF() view external returns(bool){\n      \n        return f[msg.sender];\n    } \n\n    function isG() view external returns(bool){\n \n        return g[msg.sender];\n    } */\n\n\n\n\n\n\n    /*function payStorageFee() external payable {\n        require(msg.sender == customer, \"Only the customer can pay the storage fee\");\n        require(msg.value > 0, \"Storage fee should be greater than zero\");\n        balances[storageProvider] += msg.value;\n        emit StorageFeePaid(msg.sender, msg.value);\n    }\n\n    function storeItems(uint256 _amount) external {\n        require(msg.sender == customer, \"Only the customer can store items\");\n        require(balances[customer] >= _amount, \"Insufficient balance to store items\");\n        balances[customer] -= _amount;\n        storedItems[customer] += _amount;\n        emit ItemsStored(msg.sender, _amount);\n    }\n\n    function retrieveItems(uint256 _amount) external {\n        require(msg.sender == customer, \"Only the customer can retrieve items\");\n        require(storedItems[customer] >= _amount, \"Insufficient stored items to retrieve\");\n        storedItems[customer] -= _amount;\n        balances[customer] += _amount;\n        emit ItemsRetrieved(msg.sender, _amount);\n    }*/\n}\n\n\n\n",
  "sourcePath": "/home/parallels/Desktop/BLOCK_PROJ/BlockchainProject/Proj_source/contracts/Proj_contract.sol",
  "compiler": {
    "name": "solc",
    "version": "0.8.13+commit.abaa5c0e.Emscripten.clang"
  },
  "schemaVersion": "3.4.13",
  "updatedAt": "2023-07-02T20:40:27.288Z",
  "networkType": "ethereum",
  "devdoc": {
    "kind": "dev",
    "methods": {},
    "version": 1
  },
  "userdoc": {
    "kind": "user",
    "methods": {},
    "version": 1
  }
}