{
  "contractName": "ElectricEngine",
  "abi": [
    {
      "inputs": [],
      "stateMutability": "nonpayable",
      "type": "constructor"
    },
    {
      "anonymous": false,
      "inputs": [
        {
          "indexed": true,
          "internalType": "address",
          "name": "payer",
          "type": "address"
        },
        {
          "indexed": false,
          "internalType": "uint256",
          "name": "amount",
          "type": "uint256"
        }
      ],
      "name": "StorageFeePaid",
      "type": "event"
    },
    {
      "inputs": [],
      "name": "timeft",
      "outputs": [
        {
          "internalType": "uint256",
          "name": "",
          "type": "uint256"
        }
      ],
      "stateMutability": "view",
      "type": "function",
      "constant": true
    },
    {
      "inputs": [
        {
          "internalType": "int8",
          "name": "info1",
          "type": "int8"
        },
        {
          "internalType": "int8",
          "name": "info2",
          "type": "int8"
        },
        {
          "internalType": "int8",
          "name": "info3",
          "type": "int8"
        },
        {
          "internalType": "int8",
          "name": "info4",
          "type": "int8"
        },
        {
          "internalType": "int8",
          "name": "info5",
          "type": "int8"
        }
      ],
      "name": "UserInfos",
      "outputs": [],
      "stateMutability": "nonpayable",
      "type": "function"
    },
    {
      "inputs": [
        {
          "internalType": "int8",
          "name": "proof1",
          "type": "int8"
        },
        {
          "internalType": "int8",
          "name": "proof2",
          "type": "int8"
        },
        {
          "internalType": "int8",
          "name": "proof3",
          "type": "int8"
        },
        {
          "internalType": "int8",
          "name": "proof4",
          "type": "int8"
        },
        {
          "internalType": "int256",
          "name": "proof5",
          "type": "int256"
        }
      ],
      "name": "UserProofs",
      "outputs": [],
      "stateMutability": "nonpayable",
      "type": "function"
    },
    {
      "inputs": [
        {
          "internalType": "int256",
          "name": "infop",
          "type": "int256"
        }
      ],
      "name": "addcertifier",
      "outputs": [],
      "stateMutability": "nonpayable",
      "type": "function"
    },
    {
      "inputs": [
        {
          "internalType": "int8",
          "name": "infop",
          "type": "int8"
        }
      ],
      "name": "addm1",
      "outputs": [],
      "stateMutability": "nonpayable",
      "type": "function"
    },
    {
      "inputs": [
        {
          "internalType": "int8",
          "name": "infop",
          "type": "int8"
        }
      ],
      "name": "addm2",
      "outputs": [],
      "stateMutability": "nonpayable",
      "type": "function"
    },
    {
      "inputs": [
        {
          "internalType": "int8",
          "name": "infop",
          "type": "int8"
        }
      ],
      "name": "addG",
      "outputs": [],
      "stateMutability": "nonpayable",
      "type": "function"
    },
    {
      "inputs": [
        {
          "internalType": "int8",
          "name": "infop",
          "type": "int8"
        }
      ],
      "name": "addmF",
      "outputs": [],
      "stateMutability": "nonpayable",
      "type": "function"
    },
    {
      "inputs": [
        {
          "internalType": "int256",
          "name": "proofo",
          "type": "int256"
        },
        {
          "internalType": "string",
          "name": "object",
          "type": "string"
        }
      ],
      "name": "certificateSteels",
      "outputs": [],
      "stateMutability": "nonpayable",
      "type": "function"
    },
    {
      "inputs": [
        {
          "internalType": "int256",
          "name": "proofo",
          "type": "int256"
        },
        {
          "internalType": "string",
          "name": "object",
          "type": "string"
        }
      ],
      "name": "certificateCoppers",
      "outputs": [],
      "stateMutability": "nonpayable",
      "type": "function"
    },
    {
      "inputs": [
        {
          "internalType": "int256",
          "name": "proofo",
          "type": "int256"
        },
        {
          "internalType": "string",
          "name": "object",
          "type": "string"
        }
      ],
      "name": "certificateThreads",
      "outputs": [],
      "stateMutability": "nonpayable",
      "type": "function"
    },
    {
      "inputs": [
        {
          "internalType": "int256",
          "name": "proofo",
          "type": "int256"
        },
        {
          "internalType": "string",
          "name": "object",
          "type": "string"
        }
      ],
      "name": "certificateCages",
      "outputs": [],
      "stateMutability": "nonpayable",
      "type": "function"
    },
    {
      "inputs": [
        {
          "internalType": "int256",
          "name": "proofo",
          "type": "int256"
        },
        {
          "internalType": "string",
          "name": "object",
          "type": "string"
        }
      ],
      "name": "certificateEngines",
      "outputs": [],
      "stateMutability": "nonpayable",
      "type": "function"
    },
    {
      "inputs": [
        {
          "internalType": "string",
          "name": "object",
          "type": "string"
        }
      ],
      "name": "isCertificatesSteels",
      "outputs": [
        {
          "internalType": "bool",
          "name": "",
          "type": "bool"
        }
      ],
      "stateMutability": "view",
      "type": "function",
      "constant": true
    },
    {
      "inputs": [
        {
          "internalType": "string",
          "name": "object",
          "type": "string"
        }
      ],
      "name": "isCertificatedCoppers",
      "outputs": [
        {
          "internalType": "bool",
          "name": "",
          "type": "bool"
        }
      ],
      "stateMutability": "view",
      "type": "function",
      "constant": true
    },
    {
      "inputs": [
        {
          "internalType": "string",
          "name": "object",
          "type": "string"
        }
      ],
      "name": "isCertificatedThreads",
      "outputs": [
        {
          "internalType": "bool",
          "name": "",
          "type": "bool"
        }
      ],
      "stateMutability": "view",
      "type": "function",
      "constant": true
    },
    {
      "inputs": [
        {
          "internalType": "string",
          "name": "object",
          "type": "string"
        }
      ],
      "name": "isCertificatedCages",
      "outputs": [
        {
          "internalType": "bool",
          "name": "",
          "type": "bool"
        }
      ],
      "stateMutability": "view",
      "type": "function",
      "constant": true
    },
    {
      "inputs": [
        {
          "internalType": "string",
          "name": "object",
          "type": "string"
        }
      ],
      "name": "isCertificatedEngines",
      "outputs": [
        {
          "internalType": "bool",
          "name": "",
          "type": "bool"
        }
      ],
      "stateMutability": "view",
      "type": "function",
      "constant": true
    },
    {
      "inputs": [],
      "name": "isM1",
      "outputs": [
        {
          "internalType": "bool",
          "name": "",
          "type": "bool"
        }
      ],
      "stateMutability": "view",
      "type": "function",
      "constant": true
    },
    {
      "inputs": [],
      "name": "isM2",
      "outputs": [
        {
          "internalType": "bool",
          "name": "",
          "type": "bool"
        }
      ],
      "stateMutability": "view",
      "type": "function",
      "constant": true
    },
    {
      "inputs": [],
      "name": "isF",
      "outputs": [
        {
          "internalType": "bool",
          "name": "",
          "type": "bool"
        }
      ],
      "stateMutability": "view",
      "type": "function",
      "constant": true
    },
    {
      "inputs": [],
      "name": "isG",
      "outputs": [
        {
          "internalType": "bool",
          "name": "",
          "type": "bool"
        }
      ],
      "stateMutability": "view",
      "type": "function",
      "constant": true
    }
  ],
  "bytecode": "0x60806040523480156200001157600080fd5b50600160008073984765fcd218d3937e4298dd1746b47828d5e9f873ffffffffffffffffffffffffffffffffffffffff1673ffffffffffffffffffffffffffffffffffffffff16815260200190815260200160002060006101000a81548160ff021916908315150217905550600180600073ccf44cea3140c0253d845d04973bc0d0e5eed16373ffffffffffffffffffffffffffffffffffffffff1673ffffffffffffffffffffffffffffffffffffffff16815260200190815260200160002060006101000a81548160ff0219169083151502179055506001600360007310cdeae4c0d04ad512e017e3f7d236a463c578bb73ffffffffffffffffffffffffffffffffffffffff1673ffffffffffffffffffffffffffffffffffffffff16815260200190815260200160002060006101000a81548160ff02191690831515021790555060016002600073eaaf394c2468442ecb543d43b11326903e27e31173ffffffffffffffffffffffffffffffffffffffff1673ffffffffffffffffffffffffffffffffffffffff16815260200190815260200160002060006101000a81548160ff0219169083151502179055506000602842620001d1919062000409565b9050806005600073984765fcd218d3937e4298dd1746b47828d5e9f873ffffffffffffffffffffffffffffffffffffffff1673ffffffffffffffffffffffffffffffffffffffff16815260200190815260200160002081905550806006600073ccf44cea3140c0253d845d04973bc0d0e5eed16373ffffffffffffffffffffffffffffffffffffffff1673ffffffffffffffffffffffffffffffffffffffff1681526020019081526020016000208190555080600760007310cdeae4c0d04ad512e017e3f7d236a463c578bb73ffffffffffffffffffffffffffffffffffffffff1673ffffffffffffffffffffffffffffffffffffffff16815260200190815260200160002081905550806008600073eaaf394c2468442ecb543d43b11326903e27e31173ffffffffffffffffffffffffffffffffffffffff1673ffffffffffffffffffffffffffffffffffffffff1681526020019081526020016000208190555073984765fcd218d3937e4298dd1746b47828d5e9f8600460006101000a81548173ffffffffffffffffffffffffffffffffffffffff021916908373ffffffffffffffffffffffffffffffffffffffff16021790555033600960006101000a81548173ffffffffffffffffffffffffffffffffffffffff021916908373ffffffffffffffffffffffffffffffffffffffff1602179055505062000466565b6000819050919050565b7f4e487b7100000000000000000000000000000000000000000000000000000000600052601160045260246000fd5b60006200041682620003d0565b91506200042383620003d0565b9250827fffffffffffffffffffffffffffffffffffffffffffffffffffffffffffffffff038211156200045b576200045a620003da565b5b828201905092915050565b61265080620004766000396000f3fe608060405234801561001057600080fd5b50600436106101425760003560e01c80637cfe1779116100b8578063a7e3d64c1161007c578063a7e3d64c1461035d578063ae2c76671461038d578063ce41e222146103ab578063d8748771146103c7578063d9172889146103e3578063dbc789641461040157610142565b80637cfe1779146102bd578063862a9faf146102d95780638748a146146102f557806397c974b1146103255780639e5c31961461034157610142565b80635a174a611161010a5780635a174a61146101e95780635f64ab86146102195780636354511f146102495780636eebccf614610267578063735a29c7146102855780637aa3ae7e146102a157610142565b8063107b95dd14610147578063188ad88a14610177578063258c6647146101935780634767be39146101b1578063513f8c2f146101cd575b600080fd5b610161600480360381019061015c9190611ba2565b61041d565b60405161016e9190611c06565b60405180910390f35b610191600480360381019061018c9190611c57565b61046d565b005b61019b610749565b6040516101a89190611c06565b60405180910390f35b6101cb60048036038101906101c69190611c57565b61079d565b005b6101e760048036038101906101e29190611cb3565b61095f565b005b61020360048036038101906101fe9190611ba2565b6109e6565b6040516102109190611c06565b60405180910390f35b610233600480360381019061022e9190611ba2565b610a36565b6040516102409190611c06565b60405180910390f35b610251610a86565b60405161025e9190611c06565b60405180910390f35b61026f610ada565b60405161027c9190611cf9565b60405180910390f35b61029f600480360381019061029a9190611d4d565b610ae2565b005b6102bb60048036038101906102b69190611c57565b610be5565b005b6102d760048036038101906102d29190611c57565b610ed7565b005b6102f360048036038101906102ee9190611d4d565b6111c9565b005b61030f600480360381019061030a9190611ba2565b6112cc565b60405161031c9190611c06565b60405180910390f35b61033f600480360381019061033a9190611d7a565b61131c565b005b61035b60048036038101906103569190611d4d565b611446565b005b61037760048036038101906103729190611ba2565b611549565b6040516103849190611c06565b60405180910390f35b610395611599565b6040516103a29190611c06565b60405180910390f35b6103c560048036038101906103c09190611c57565b6115ed565b005b6103e160048036038101906103dc9190611d4d565b6117af565b005b6103eb6118b2565b6040516103f89190611c06565b60405180910390f35b61041b60048036038101906104169190611df5565b611905565b005b6000600b6000836040516020016104349190611eea565b60405160208183030381529060405280519060200120815260200190815260200160002060009054906101000a900460ff169050919050565b601060026005811061048257610481611f01565b5b015482136104c5576040517f08c379a00000000000000000000000000000000000000000000000000000000081526004016104bc90611f8d565b60405180910390fd5b60011515600b6000836040516020016104de9190611eea565b60405160208183030381529060405280519060200120815260200190815260200160002060009054906101000a900460ff16151514610552576040517f08c379a000000000000000000000000000000000000000000000000000000000815260040161054990611ff9565b60405180910390fd5b60011515600a60008360405160200161056b9190611eea565b60405160208183030381529060405280519060200120815260200190815260200160002060009054906101000a900460ff161515146105df576040517f08c379a00000000000000000000000000000000000000000000000000000000081526004016105d690612065565b60405180910390fd5b60011515600360003373ffffffffffffffffffffffffffffffffffffffff1673ffffffffffffffffffffffffffffffffffffffff16815260200190815260200160002060009054906101000a900460ff16151514610672576040517f08c379a0000000000000000000000000000000000000000000000000000000008152600401610669906120d1565b60405180910390fd5b42600860003373ffffffffffffffffffffffffffffffffffffffff1673ffffffffffffffffffffffffffffffffffffffff16815260200190815260200160002054116106f3576040517f08c379a00000000000000000000000000000000000000000000000000000000081526004016106ea9061213d565b60405180910390fd5b6001600e60008360405160200161070a9190611eea565b60405160208183030381529060405280519060200120815260200190815260200160002060006101000a81548160ff0219169083151502179055505050565b6000600160003373ffffffffffffffffffffffffffffffffffffffff1673ffffffffffffffffffffffffffffffffffffffff16815260200190815260200160002060009054906101000a900460ff16905090565b60106000600581106107b2576107b1611f01565b5b015482136107f5576040517f08c379a00000000000000000000000000000000000000000000000000000000081526004016107ec906121a9565b60405180910390fd5b60011515600360003373ffffffffffffffffffffffffffffffffffffffff1673ffffffffffffffffffffffffffffffffffffffff16815260200190815260200160002060009054906101000a900460ff16151514610888576040517f08c379a000000000000000000000000000000000000000000000000000000000815260040161087f906120d1565b60405180910390fd5b42600860003373ffffffffffffffffffffffffffffffffffffffff1673ffffffffffffffffffffffffffffffffffffffff1681526020019081526020016000205411610909576040517f08c379a00000000000000000000000000000000000000000000000000000000081526004016109009061213d565b60405180910390fd5b6001600b6000836040516020016109209190611eea565b60405160208183030381529060405280519060200120815260200190815260200160002060006101000a81548160ff0219169083151502179055505050565b600381136109a2576040517f08c379a000000000000000000000000000000000000000000000000000000000815260040161099990612215565b60405180910390fd5b33600460006101000a81548173ffffffffffffffffffffffffffffffffffffffff021916908373ffffffffffffffffffffffffffffffffffffffff16021790555050565b6000600e6000836040516020016109fd9190611eea565b60405160208183030381529060405280519060200120815260200190815260200160002060009054906101000a900460ff169050919050565b6000600c600083604051602001610a4d9190611eea565b60405160208183030381529060405280519060200120815260200190815260200160002060009054906101000a900460ff169050919050565b6000600260003373ffffffffffffffffffffffffffffffffffffffff1673ffffffffffffffffffffffffffffffffffffffff16815260200190815260200160002060009054906101000a900460ff16905090565b600042905090565b6015600160058110610af757610af6611f01565b5b01548160000b13610b3d576040517f08c379a0000000000000000000000000000000000000000000000000000000008152600401610b3490612281565b60405180910390fd5b610b48426028611a32565b600660003373ffffffffffffffffffffffffffffffffffffffff1673ffffffffffffffffffffffffffffffffffffffff1681526020019081526020016000208190555060016000803373ffffffffffffffffffffffffffffffffffffffff1673ffffffffffffffffffffffffffffffffffffffff16815260200190815260200160002060006101000a81548160ff02191690831515021790555050565b6010600360058110610bfa57610bf9611f01565b5b01548213610c3d576040517f08c379a0000000000000000000000000000000000000000000000000000000008152600401610c34906122ed565b60405180910390fd5b60011515600e600083604051602001610c569190611eea565b60405160208183030381529060405280519060200120815260200190815260200160002060009054906101000a900460ff16151514610cca576040517f08c379a0000000000000000000000000000000000000000000000000000000008152600401610cc190612359565b60405180910390fd5b60011515600260003373ffffffffffffffffffffffffffffffffffffffff1673ffffffffffffffffffffffffffffffffffffffff16815260200190815260200160002060009054906101000a900460ff1615151480610d785750600115156000803373ffffffffffffffffffffffffffffffffffffffff1673ffffffffffffffffffffffffffffffffffffffff16815260200190815260200160002060009054906101000a900460ff161515145b610db7576040517f08c379a0000000000000000000000000000000000000000000000000000000008152600401610dae906120d1565b60405180910390fd5b42600760003373ffffffffffffffffffffffffffffffffffffffff1673ffffffffffffffffffffffffffffffffffffffff168152602001908152602001600020541180610e42575042600560003373ffffffffffffffffffffffffffffffffffffffff1673ffffffffffffffffffffffffffffffffffffffff16815260200190815260200160002054115b610e81576040517f08c379a0000000000000000000000000000000000000000000000000000000008152600401610e789061213d565b60405180910390fd5b6001600c600083604051602001610e989190611eea565b60405160208183030381529060405280519060200120815260200190815260200160002060006101000a81548160ff0219169083151502179055505050565b6010600460058110610eec57610eeb611f01565b5b01548213610f2f576040517f08c379a0000000000000000000000000000000000000000000000000000000008152600401610f26906122ed565b60405180910390fd5b60011515600c600083604051602001610f489190611eea565b60405160208183030381529060405280519060200120815260200190815260200160002060009054906101000a900460ff16151514610fbc576040517f08c379a0000000000000000000000000000000000000000000000000000000008152600401610fb390612359565b60405180910390fd5b600115156000803373ffffffffffffffffffffffffffffffffffffffff1673ffffffffffffffffffffffffffffffffffffffff16815260200190815260200160002060009054906101000a900460ff161515148061106a575060011515600160003373ffffffffffffffffffffffffffffffffffffffff1673ffffffffffffffffffffffffffffffffffffffff16815260200190815260200160002060009054906101000a900460ff161515145b6110a9576040517f08c379a00000000000000000000000000000000000000000000000000000000081526004016110a0906120d1565b60405180910390fd5b42600560003373ffffffffffffffffffffffffffffffffffffffff1673ffffffffffffffffffffffffffffffffffffffff168152602001908152602001600020541180611134575042600660003373ffffffffffffffffffffffffffffffffffffffff1673ffffffffffffffffffffffffffffffffffffffff16815260200190815260200160002054115b611173576040517f08c379a000000000000000000000000000000000000000000000000000000000815260040161116a9061213d565b60405180910390fd5b6001600e60008360405160200161118a9190611eea565b60405160208183030381529060405280519060200120815260200190815260200160002060006101000a81548160ff0219169083151502179055505050565b60156000600581106111de576111dd611f01565b5b01548160000b13611224576040517f08c379a000000000000000000000000000000000000000000000000000000000815260040161121b906123c5565b60405180910390fd5b61122f426028611a32565b600560003373ffffffffffffffffffffffffffffffffffffffff1673ffffffffffffffffffffffffffffffffffffffff1681526020019081526020016000208190555060016000803373ffffffffffffffffffffffffffffffffffffffff1673ffffffffffffffffffffffffffffffffffffffff16815260200190815260200160002060006101000a81548160ff02191690831515021790555050565b6000600e6000836040516020016112e39190611eea565b60405160208183030381529060405280519060200120815260200190815260200160002060009054906101000a900460ff169050919050565b600460009054906101000a900473ffffffffffffffffffffffffffffffffffffffff1673ffffffffffffffffffffffffffffffffffffffff163373ffffffffffffffffffffffffffffffffffffffff16146113ac576040517f08c379a00000000000000000000000000000000000000000000000000000000081526004016113a390612431565b60405180910390fd5b8460000b60106000600581106113c5576113c4611f01565b5b01819055508360000b60106001600581106113e3576113e2611f01565b5b01819055508260000b601060026005811061140157611400611f01565b5b01819055508160000b601060036005811061141f5761141e611f01565b5b018190555080601060046005811061143a57611439611f01565b5b01819055505050505050565b601560026005811061145b5761145a611f01565b5b01548160000b136114a1576040517f08c379a00000000000000000000000000000000000000000000000000000000081526004016114989061249d565b60405180910390fd5b6114ac426028611a32565b600760003373ffffffffffffffffffffffffffffffffffffffff1673ffffffffffffffffffffffffffffffffffffffff1681526020019081526020016000208190555060016000803373ffffffffffffffffffffffffffffffffffffffff1673ffffffffffffffffffffffffffffffffffffffff16815260200190815260200160002060006101000a81548160ff02191690831515021790555050565b6000600a6000836040516020016115609190611eea565b60405160208183030381529060405280519060200120815260200190815260200160002060009054906101000a900460ff169050919050565b6000600360003373ffffffffffffffffffffffffffffffffffffffff1673ffffffffffffffffffffffffffffffffffffffff16815260200190815260200160002060009054906101000a900460ff16905090565b601060016005811061160257611601611f01565b5b01548213611645576040517f08c379a000000000000000000000000000000000000000000000000000000000815260040161163c90612509565b60405180910390fd5b60011515600260003373ffffffffffffffffffffffffffffffffffffffff1673ffffffffffffffffffffffffffffffffffffffff16815260200190815260200160002060009054906101000a900460ff161515146116d8576040517f08c379a00000000000000000000000000000000000000000000000000000000081526004016116cf906120d1565b60405180910390fd5b42600760003373ffffffffffffffffffffffffffffffffffffffff1673ffffffffffffffffffffffffffffffffffffffff1681526020019081526020016000205411611759576040517f08c379a00000000000000000000000000000000000000000000000000000000081526004016117509061213d565b60405180910390fd5b6001600a6000836040516020016117709190611eea565b60405160208183030381529060405280519060200120815260200190815260200160002060006101000a81548160ff0219169083151502179055505050565b60156004600581106117c4576117c3611f01565b5b01548160000b1361180a576040517f08c379a000000000000000000000000000000000000000000000000000000000815260040161180190612575565b60405180910390fd5b611815426028611a32565b600860003373ffffffffffffffffffffffffffffffffffffffff1673ffffffffffffffffffffffffffffffffffffffff1681526020019081526020016000208190555060016000803373ffffffffffffffffffffffffffffffffffffffff1673ffffffffffffffffffffffffffffffffffffffff16815260200190815260200160002060006101000a81548160ff02191690831515021790555050565b60008060003373ffffffffffffffffffffffffffffffffffffffff1673ffffffffffffffffffffffffffffffffffffffff16815260200190815260200160002060009054906101000a900460ff16905090565b600460009054906101000a900473ffffffffffffffffffffffffffffffffffffffff1673ffffffffffffffffffffffffffffffffffffffff163373ffffffffffffffffffffffffffffffffffffffff1614611995576040517f08c379a000000000000000000000000000000000000000000000000000000000815260040161198c90612431565b60405180910390fd5b8460000b60156000600581106119ae576119ad611f01565b5b01819055508360000b60156001600581106119cc576119cb611f01565b5b01819055508260000b60156002600581106119ea576119e9611f01565b5b01819055508160000b6015600360058110611a0857611a07611f01565b5b01819055508060000b6015600460058110611a2657611a25611f01565b5b01819055505050505050565b60008183611a4091906125c4565b905092915050565b6000604051905090565b600080fd5b600080fd5b600080fd5b600080fd5b6000601f19601f8301169050919050565b7f4e487b7100000000000000000000000000000000000000000000000000000000600052604160045260246000fd5b611aaf82611a66565b810181811067ffffffffffffffff82111715611ace57611acd611a77565b5b80604052505050565b6000611ae1611a48565b9050611aed8282611aa6565b919050565b600067ffffffffffffffff821115611b0d57611b0c611a77565b5b611b1682611a66565b9050602081019050919050565b82818337600083830152505050565b6000611b45611b4084611af2565b611ad7565b905082815260208101848484011115611b6157611b60611a61565b5b611b6c848285611b23565b509392505050565b600082601f830112611b8957611b88611a5c565b5b8135611b99848260208601611b32565b91505092915050565b600060208284031215611bb857611bb7611a52565b5b600082013567ffffffffffffffff811115611bd657611bd5611a57565b5b611be284828501611b74565b91505092915050565b60008115159050919050565b611c0081611beb565b82525050565b6000602082019050611c1b6000830184611bf7565b92915050565b6000819050919050565b611c3481611c21565b8114611c3f57600080fd5b50565b600081359050611c5181611c2b565b92915050565b60008060408385031215611c6e57611c6d611a52565b5b6000611c7c85828601611c42565b925050602083013567ffffffffffffffff811115611c9d57611c9c611a57565b5b611ca985828601611b74565b9150509250929050565b600060208284031215611cc957611cc8611a52565b5b6000611cd784828501611c42565b91505092915050565b6000819050919050565b611cf381611ce0565b82525050565b6000602082019050611d0e6000830184611cea565b92915050565b60008160000b9050919050565b611d2a81611d14565b8114611d3557600080fd5b50565b600081359050611d4781611d21565b92915050565b600060208284031215611d6357611d62611a52565b5b6000611d7184828501611d38565b91505092915050565b600080600080600060a08688031215611d9657611d95611a52565b5b6000611da488828901611d38565b9550506020611db588828901611d38565b9450506040611dc688828901611d38565b9350506060611dd788828901611d38565b9250506080611de888828901611c42565b9150509295509295909350565b600080600080600060a08688031215611e1157611e10611a52565b5b6000611e1f88828901611d38565b9550506020611e3088828901611d38565b9450506040611e4188828901611d38565b9350506060611e5288828901611d38565b9250506080611e6388828901611d38565b9150509295509295909350565b600081519050919050565b600081905092915050565b60005b83811015611ea4578082015181840152602081019050611e89565b83811115611eb3576000848401525b50505050565b6000611ec482611e70565b611ece8185611e7b565b9350611ede818560208601611e86565b80840191505092915050565b6000611ef68284611eb9565b915081905092915050565b7f4e487b7100000000000000000000000000000000000000000000000000000000600052603260045260246000fd5b600082825260208201905092915050565b7f6e6f742076616c69642054687265616473000000000000000000000000000000600082015250565b6000611f77601183611f30565b9150611f8282611f41565b602082019050919050565b60006020820190508181036000830152611fa681611f6a565b9050919050565b7f6e6f7420666f756e6420537465656c7300000000000000000000000000000000600082015250565b6000611fe3601083611f30565b9150611fee82611fad565b602082019050919050565b6000602082019050818103600083015261201281611fd6565b9050919050565b7f6e6f7420666f756e6420436f7070657273000000000000000000000000000000600082015250565b600061204f601183611f30565b915061205a82612019565b602082019050919050565b6000602082019050818103600083015261207e81612042565b9050919050565b7f796f7520617265206e6f74207175616c69666965642075736572000000000000600082015250565b60006120bb601a83611f30565b91506120c682612085565b602082019050919050565b600060208201905081810360008301526120ea816120ae565b9050919050565b7f796f75722074696d65206f6620757361676520656e6400000000000000000000600082015250565b6000612127601683611f30565b9150612132826120f1565b602082019050919050565b600060208201905081810360008301526121568161211a565b9050919050565b7f6e6f742076616c696420537465656c7300000000000000000000000000000000600082015250565b6000612193601083611f30565b915061219e8261215d565b602082019050919050565b600060208201905081810360008301526121c281612186565b9050919050565b7f796f75206172656e277420612063657469666965720000000000000000000000600082015250565b60006121ff601583611f30565b915061220a826121c9565b602082019050919050565b6000602082019050818103600083015261222e816121f2565b9050919050565b7f796f75206172656e27742061206d320000000000000000000000000000000000600082015250565b600061226b600f83611f30565b915061227682612235565b602082019050919050565b6000602082019050818103600083015261229a8161225e565b9050919050565b7f6e6f742076616c69642043616765730000000000000000000000000000000000600082015250565b60006122d7600f83611f30565b91506122e2826122a1565b602082019050919050565b60006020820190508181036000830152612306816122ca565b9050919050565b7f6e6f7420666f756e642054687265616473000000000000000000000000000000600082015250565b6000612343601183611f30565b915061234e8261230d565b602082019050919050565b6000602082019050818103600083015261237281612336565b9050919050565b7f796f75206172656e27742061206d310000000000000000000000000000000000600082015250565b60006123af600f83611f30565b91506123ba82612379565b602082019050919050565b600060208201905081810360008301526123de816123a2565b9050919050565b7f796f7520617265206e6f74206120636572746966696572000000000000000000600082015250565b600061241b601783611f30565b9150612426826123e5565b602082019050919050565b6000602082019050818103600083015261244a8161240e565b9050919050565b7f796f75206172656e277420612047000000000000000000000000000000000000600082015250565b6000612487600e83611f30565b915061249282612451565b602082019050919050565b600060208201905081810360008301526124b68161247a565b9050919050565b7f6e6f742076616c696420436f7070657273000000000000000000000000000000600082015250565b60006124f3601183611f30565b91506124fe826124bd565b602082019050919050565b60006020820190508181036000830152612522816124e6565b9050919050565b7f796f75206172656e277420612046000000000000000000000000000000000000600082015250565b600061255f600e83611f30565b915061256a82612529565b602082019050919050565b6000602082019050818103600083015261258e81612552565b9050919050565b7f4e487b7100000000000000000000000000000000000000000000000000000000600052601160045260246000fd5b60006125cf82611ce0565b91506125da83611ce0565b9250827fffffffffffffffffffffffffffffffffffffffffffffffffffffffffffffffff0382111561260f5761260e612595565b5b82820190509291505056fea2646970667358221220e381f772de27b7f11ca6d06d9076e3d5ee77f60878b9a25a3393bbe6f5eb0f4c64736f6c634300080d0033",
  "immutableReferences": {},
  "source": "// SPDX-License-Identifier: MIT\npragma solidity ^0.8.0;\n\nimport \"@openzeppelin/contracts/utils/math/SafeMath.sol\";\n\ncontract ElectricEngine {\n\n    mapping(address => bool) private m1;\n    mapping(address => bool) private m2;\n    mapping(address => bool) private g;\n    mapping(address => bool) private f;\n    address private certifier; //who specified the parameter for the verification.\n\n    mapping(address => uint) private timem1;\n    mapping(address => uint) private timem2;\n    mapping(address => uint) private timeg;\n    mapping(address => uint) private timef;\n\n    address private owner;\n\n    mapping(bytes32 => bool) private bubbleCopper;\n    mapping(bytes32 => bool) private bubbleSteel;\n    mapping(bytes32 => bool) private cages;\n    mapping(bytes32 => bool) private engines;\n    mapping(bytes32 => bool) private threads;\n\n \n    mapping(address => uint256) private storedItems;\n\n    event StorageFeePaid(address indexed payer, uint256 amount);\n    \n    int[5] private proof;\n    int[5] private info;\n\n    constructor(){\n\n      m1[0x984765fCd218D3937E4298Dd1746b47828D5E9f8] = true;\n      m2[0xCCf44CeA3140c0253D845D04973bC0D0E5eED163] = true;\n      f[0x10CdeAE4C0d04aD512E017E3F7d236a463c578bB] = true;\n      g[0xeaaF394C2468442eCb543d43B11326903e27e311] = true;\n      uint256 time = block.timestamp + 40;\n      timem1[0x984765fCd218D3937E4298Dd1746b47828D5E9f8] = time;\n      timem2[0xCCf44CeA3140c0253D845D04973bC0D0E5eED163] = time;\n      timeg[0x10CdeAE4C0d04aD512E017E3F7d236a463c578bB] = time;\n      timef[0xeaaF394C2468442eCb543d43B11326903e27e311] = time;\n      certifier = 0x984765fCd218D3937E4298Dd1746b47828D5E9f8;\n      owner = msg.sender;\n\n\n     \n    }\n\n    function timeft() view external returns(uint){\n        return block.timestamp;\n\n    }\n    \n    \n\n    function UserInfos( int8 info1, int8 info2, int8 info3, int8 info4, int8 info5) external{\n        require(msg.sender == certifier, \"you are not a certifier\");\n        info[0] = info1;\n        info[1] = info2;\n        info[2] = info3;\n        info[3] = info4;\n        info[4] = info5;\n\n    }\n\n    function UserProofs(int8 proof1, int8 proof2, int8 proof3, int8 proof4, int proof5) external{\n        require(msg.sender == certifier, \"you are not a certifier\");\n        proof[0] = proof1;\n        proof[1] = proof2;\n        proof[2] = proof3;\n        proof[3] = proof4;\n        proof[4] = proof5;\n\n    }\n\n    function addcertifier(int infop) external{\n        require(infop>3,\"you aren't a cetifier\");\n        certifier = msg.sender;\n\n    }\n\n    function addm1(int8 infop) external {\n        require(infop>info[0],\"you aren't a m1\");\n        timem1[msg.sender] = SafeMath.add(block.timestamp, 40);\n        m1[msg.sender] = true;\n    } \n\n    function addm2(int8 infop) external {\n        require(infop>info[1],\"you aren't a m2\");\n        timem2[msg.sender] = SafeMath.add(block.timestamp, 40);\n        m1[msg.sender] = true;\n    } \n\n    function addG(int8 infop) external {\n        require(infop>info[2],\"you aren't a G\");\n        timeg[msg.sender] = SafeMath.add(block.timestamp, 40);\n        m1[msg.sender] = true;\n    } \n\n    function addmF(int8 infop) external {\n        require(infop>info[4],\"you aren't a F\");\n        timef[msg.sender] = SafeMath.add(block.timestamp, 40);\n        m1[msg.sender] = true;\n    } \n\n\n    function certificateSteels(int proofo, string memory object) external {\n      \n        require(proofo>proof[0],\"not valid Steels\");\n        require(f[msg.sender] == true, \"you are not qualified user\");\n        require(timef[msg.sender]>block.timestamp, \"your time of usage end\");\n        bubbleSteel[keccak256(abi.encodePacked(object))] = true;\n    }   \n\n    function certificateCoppers(int proofo, string memory object) external {\n        require(proofo>proof[1],\"not valid Coppers\");\n        require(g[msg.sender] == true, \"you are not qualified user\");\n        require(timeg[msg.sender]>block.timestamp, \"your time of usage end\");\n        bubbleCopper[keccak256(abi.encodePacked(object))] = true;\n    }   \n\n    function certificateThreads(int proofo, string memory object) external {\n        require(proofo>proof[2],\"not valid Threads\");\n        require(bubbleSteel[keccak256(abi.encodePacked(object))] == true, \"not found Steels\");\n        require(bubbleCopper[keccak256(abi.encodePacked(object))] == true, \"not found Coppers\");\n        require(f[msg.sender] == true, \"you are not qualified user\");\n        require(timef[msg.sender]>block.timestamp, \"your time of usage end\");\n        threads[keccak256(abi.encodePacked(object))] = true;\n    } \n\n    function certificateCages(int proofo, string memory object) external {\n        require(proofo>proof[3],\"not valid Cages\");\n        require(threads[keccak256(abi.encodePacked(object))] == true, \"not found Threads\");\n        require(g[msg.sender] == true || m1[msg.sender] == true, \"you are not qualified user\"); //sistemare\n        require(timeg[msg.sender]>block.timestamp || timem1[msg.sender]>block.timestamp, \"your time of usage end\"); //sistemare\n        cages[keccak256(abi.encodePacked(object))] = true;\n    } \n\n    function certificateEngines(int proofo, string memory object) external {\n        require(proofo>proof[4],\"not valid Cages\");\n        require(cages[keccak256(abi.encodePacked(object))] == true, \"not found Threads\");\n        require(m1[msg.sender] == true || m2[msg.sender] == true, \"you are not qualified user\");//sistemare\n        require(timem1[msg.sender]>block.timestamp || timem2[msg.sender]>block.timestamp, \"your time of usage end\"); //sistemare\n        threads[keccak256(abi.encodePacked(object))] = true;\n    } \n\n    function isCertificatesSteels(string memory object) view external returns(bool) {\n        return bubbleSteel[keccak256(abi.encodePacked(object))];\n    }   \n\n    function isCertificatedCoppers(string memory object) view external returns(bool){\n   \n        return bubbleCopper[keccak256(abi.encodePacked(object))];\n    }   \n\n    function isCertificatedThreads(string memory object) view external returns(bool){\n      \n        return threads[keccak256(abi.encodePacked(object))];\n    } \n\n    function isCertificatedCages(string memory object) view external returns(bool){\n \n        return cages[keccak256(abi.encodePacked(object))];\n    } \n\n    function isCertificatedEngines(string memory object) view external returns(bool){\n    \n        return threads[keccak256(abi.encodePacked(object))];\n    } \n\n   function isM1() view external returns(bool) {\n        return m1[msg.sender];\n    }   \n\n    function isM2() view external returns(bool){\n   \n        return m2[msg.sender];\n    }   \n\n    function isF() view external returns(bool){\n      \n        return f[msg.sender];\n    } \n\n    function isG() view external returns(bool){\n \n        return g[msg.sender];\n    } \n\n\n\n\n\n\n    /*function payStorageFee() external payable {\n        require(msg.sender == customer, \"Only the customer can pay the storage fee\");\n        require(msg.value > 0, \"Storage fee should be greater than zero\");\n        balances[storageProvider] += msg.value;\n        emit StorageFeePaid(msg.sender, msg.value);\n    }\n\n    function storeItems(uint256 _amount) external {\n        require(msg.sender == customer, \"Only the customer can store items\");\n        require(balances[customer] >= _amount, \"Insufficient balance to store items\");\n        balances[customer] -= _amount;\n        storedItems[customer] += _amount;\n        emit ItemsStored(msg.sender, _amount);\n    }\n\n    function retrieveItems(uint256 _amount) external {\n        require(msg.sender == customer, \"Only the customer can retrieve items\");\n        require(storedItems[customer] >= _amount, \"Insufficient stored items to retrieve\");\n        storedItems[customer] -= _amount;\n        balances[customer] += _amount;\n        emit ItemsRetrieved(msg.sender, _amount);\n    }*/\n}\n\n",
  "sourcePath": "/home/parallels/Desktop/BLOCK_PROJ/BlockchainProject/Proj_source/contracts/Proj_contract.sol",
  "compiler": {
    "name": "solc",
    "version": "0.8.13+commit.abaa5c0e.Emscripten.clang"
  },
  "schemaVersion": "3.4.13",
  "updatedAt": "2023-06-22T17:20:48.018Z",
  "networkType": "ethereum",
  "devdoc": {
    "kind": "dev",
    "methods": {},
    "version": 1
  },
  "userdoc": {
    "kind": "user",
    "methods": {},
    "version": 1
  }
}