{
  "contractName": "ElectricEngine",
  "abi": [
    {
      "inputs": [],
      "stateMutability": "nonpayable",
      "type": "constructor"
    },
    {
      "anonymous": false,
      "inputs": [
        {
          "indexed": true,
          "internalType": "address",
          "name": "user",
          "type": "address"
        }
      ],
      "name": "addedm1",
      "type": "event"
    },
    {
      "anonymous": false,
      "inputs": [
        {
          "indexed": true,
          "internalType": "address",
          "name": "user",
          "type": "address"
        }
      ],
      "name": "addedm2",
      "type": "event"
    },
    {
      "anonymous": false,
      "inputs": [
        {
          "indexed": true,
          "internalType": "uint256",
          "name": "fatt",
          "type": "uint256"
        },
        {
          "indexed": true,
          "internalType": "address",
          "name": "user",
          "type": "address"
        },
        {
          "indexed": false,
          "internalType": "string",
          "name": "producer",
          "type": "string"
        }
      ],
      "name": "certCages",
      "type": "event"
    },
    {
      "anonymous": false,
      "inputs": [
        {
          "indexed": true,
          "internalType": "string",
          "name": "lot",
          "type": "string"
        },
        {
          "indexed": true,
          "internalType": "address",
          "name": "user",
          "type": "address"
        }
      ],
      "name": "certEngines",
      "type": "event"
    },
    {
      "anonymous": false,
      "inputs": [
        {
          "indexed": true,
          "internalType": "uint256",
          "name": "fatt",
          "type": "uint256"
        },
        {
          "indexed": true,
          "internalType": "address",
          "name": "user",
          "type": "address"
        },
        {
          "indexed": false,
          "internalType": "string",
          "name": "producer",
          "type": "string"
        }
      ],
      "name": "certThreads",
      "type": "event"
    },
    {
      "inputs": [
        {
          "internalType": "int256",
          "name": "infop",
          "type": "int256"
        }
      ],
      "name": "addcertifier",
      "outputs": [],
      "stateMutability": "nonpayable",
      "type": "function"
    },
    {
      "inputs": [
        {
          "internalType": "address",
          "name": "ut1",
          "type": "address"
        }
      ],
      "name": "addm1",
      "outputs": [],
      "stateMutability": "nonpayable",
      "type": "function"
    },
    {
      "inputs": [
        {
          "internalType": "address",
          "name": "ut2",
          "type": "address"
        }
      ],
      "name": "addm2",
      "outputs": [],
      "stateMutability": "nonpayable",
      "type": "function"
    },
    {
      "inputs": [
        {
          "internalType": "address",
          "name": "ut1",
          "type": "address"
        }
      ],
      "name": "delm1",
      "outputs": [],
      "stateMutability": "nonpayable",
      "type": "function"
    },
    {
      "inputs": [
        {
          "internalType": "address",
          "name": "ut2",
          "type": "address"
        }
      ],
      "name": "delm2",
      "outputs": [],
      "stateMutability": "nonpayable",
      "type": "function"
    },
    {
      "inputs": [],
      "name": "isCertifier_",
      "outputs": [
        {
          "internalType": "bool",
          "name": "",
          "type": "bool"
        }
      ],
      "stateMutability": "view",
      "type": "function",
      "constant": true
    },
    {
      "inputs": [],
      "name": "isM1",
      "outputs": [
        {
          "internalType": "bool",
          "name": "",
          "type": "bool"
        }
      ],
      "stateMutability": "view",
      "type": "function",
      "constant": true
    },
    {
      "inputs": [],
      "name": "isM2",
      "outputs": [
        {
          "internalType": "bool",
          "name": "",
          "type": "bool"
        }
      ],
      "stateMutability": "view",
      "type": "function",
      "constant": true
    },
    {
      "inputs": [
        {
          "internalType": "uint256",
          "name": "fatt",
          "type": "uint256"
        },
        {
          "internalType": "string",
          "name": "producer",
          "type": "string"
        }
      ],
      "name": "certificateThreads",
      "outputs": [],
      "stateMutability": "nonpayable",
      "type": "function"
    },
    {
      "inputs": [
        {
          "internalType": "uint256",
          "name": "fatt",
          "type": "uint256"
        },
        {
          "internalType": "string",
          "name": "producer",
          "type": "string"
        }
      ],
      "name": "certificateCage",
      "outputs": [],
      "stateMutability": "nonpayable",
      "type": "function"
    },
    {
      "inputs": [
        {
          "internalType": "uint256",
          "name": "cage_fatt",
          "type": "uint256"
        },
        {
          "internalType": "uint256",
          "name": "thread_fatt",
          "type": "uint256"
        },
        {
          "internalType": "int256",
          "name": "temp",
          "type": "int256"
        },
        {
          "internalType": "int256",
          "name": "ts",
          "type": "int256"
        },
        {
          "internalType": "int256",
          "name": "fr",
          "type": "int256"
        },
        {
          "internalType": "int256",
          "name": "Y",
          "type": "int256"
        },
        {
          "internalType": "string",
          "name": "object",
          "type": "string"
        }
      ],
      "name": "certificateEngines",
      "outputs": [],
      "stateMutability": "nonpayable",
      "type": "function"
    },
    {
      "inputs": [
        {
          "internalType": "string",
          "name": "object",
          "type": "string"
        }
      ],
      "name": "getElectricEngineData",
      "outputs": [
        {
          "internalType": "uint256",
          "name": "",
          "type": "uint256"
        },
        {
          "internalType": "uint256",
          "name": "",
          "type": "uint256"
        },
        {
          "internalType": "int256",
          "name": "",
          "type": "int256"
        },
        {
          "internalType": "int256",
          "name": "",
          "type": "int256"
        },
        {
          "internalType": "int256",
          "name": "",
          "type": "int256"
        },
        {
          "internalType": "int256",
          "name": "",
          "type": "int256"
        }
      ],
      "stateMutability": "view",
      "type": "function",
      "constant": true
    },
    {
      "inputs": [
        {
          "internalType": "uint256",
          "name": "fatt",
          "type": "uint256"
        }
      ],
      "name": "isCertificatedThreads",
      "outputs": [
        {
          "internalType": "bool",
          "name": "",
          "type": "bool"
        }
      ],
      "stateMutability": "view",
      "type": "function",
      "constant": true
    },
    {
      "inputs": [
        {
          "internalType": "uint256",
          "name": "fatt",
          "type": "uint256"
        }
      ],
      "name": "isCertificatedCages",
      "outputs": [
        {
          "internalType": "bool",
          "name": "",
          "type": "bool"
        }
      ],
      "stateMutability": "view",
      "type": "function",
      "constant": true
    },
    {
      "inputs": [
        {
          "internalType": "string",
          "name": "lot",
          "type": "string"
        }
      ],
      "name": "isCertificatedEngines",
      "outputs": [
        {
          "internalType": "bool",
          "name": "",
          "type": "bool"
        }
      ],
      "stateMutability": "view",
      "type": "function",
      "constant": true
    }
  ],
  "bytecode": "0x608060405234801561001057600080fd5b50600280546001600160a01b0319163317905561138f806100326000396000f3fe608060405234801561001057600080fd5b50600436106100f55760003560e01c806348639350116100975780638748a146116100665780638748a14614610215578063af9f124f14610228578063c477cc5f1461023b578063d91728891461024e57600080fd5b8063486393501461019c578063513f8c2f146101dc5780635e3e7ab6146101ef5780635f7a98011461020257600080fd5b8063258c6647116100d3578063258c66471461014b5780632c690b3f146101635780632cd47e1a14610176578063377c69bd1461018957600080fd5b8063041b1a7b146100fa57806307890067146101235780631698143414610138575b600080fd5b61010e6002546001600160a01b0316331490565b60405190151581526020015b60405180910390f35b610136610131366004611033565b610266565b005b6101366101463660046110ff565b6103de565b3360009081526001602052604090205460ff1661010e565b6101366101713660046110ff565b6104da565b61010e610184366004611146565b6105ca565b610136610197366004611033565b610612565b6101af6101aa36600461115f565b610675565b604080519687526020870195909552938501929092526060840152608083015260a082015260c00161011a565b6101366101ea366004611146565b610888565b61010e6101fd366004611146565b6108e5565b610136610210366004611033565b6108fe565b61010e61022336600461115f565b610a74565b61013661023636600461119c565b610a8b565b610136610249366004611033565b610f26565b3360009081526020819052604090205460ff1661010e565b6002546001600160a01b031633146102bf5760405162461bcd60e51b81526020600482015260176024820152763cb7ba9030b932903737ba10309031b2b93a34b334b2b960491b60448201526064015b60405180910390fd5b6002546001600160a01b0380831691160361031c5760405162461bcd60e51b815260206004820181905260248201527f4120636572697469666965722063616e6e6f7420626520616c736f2061204d3160448201526064016102b6565b6001600160a01b03811660009081526003602052604090205443116103795760405162461bcd60e51b8152602060048201526013602482015272796f752068617665207374696c6c2074696d6560681b60448201526064016102b6565b610384436028610f87565b6001600160a01b038216600081815260036020908152604080832094909455819052828120805460ff19166001179055915190917f2756cd91fb7c0be01353207b0107f45f9dbe5f2837c4a796fe7d95c060d7588291a250565b3360009081526020819052604090205460ff1615156001146104125760405162461bcd60e51b81526004016102b690611213565b3360009081526003602052604090205443106104405760405162461bcd60e51b81526004016102b69061124a565b6001600660008460405160200161045991815260200190565b60405160208183030381529060405280519060200120815260200190815260200160002060006101000a81548160ff021916908315150217905550336001600160a01b0316827f7fc2a2441cf93b10214bb4f95f4e39a190bc195d0296d475c4806a8a17448f5f836040516104ce91906112aa565b60405180910390a35050565b3360009081526020819052604090205460ff16151560011461050e5760405162461bcd60e51b81526004016102b690611213565b33600090815260036020526040902054431061053c5760405162461bcd60e51b81526004016102b69061124a565b6001600860008460405160200161055591815260200190565b60405160208183030381529060405280519060200120815260200190815260200160002060006101000a81548160ff021916908315150217905550336001600160a01b0316827f9dce5852767e8ff17b82fed93e65b4f5345480011604fe1525eb93ef83811d65836040516104ce91906112aa565b600060086000836040516020016105e391815260200190565b60408051601f198184030181529181528151602092830120835290820192909252016000205460ff1692915050565b3360009081526001602081905260409091205460ff161515146106475760405162461bcd60e51b81526004016102b690611213565b6001600160a01b0316600090815260046020908152604080832083905560019091529020805460ff19169055565b600080600080600080600760008860405160200161069391906112dd565b60408051601f198184030181529181528151602092830120835290820192909252016000205460ff1615156001146107055760405162461bcd60e51b8152602060048201526015602482015274115b99da5b99481a5cdb89dd081c9958dbdc991959605a1b60448201526064016102b6565b600560008860405160200161071a91906112dd565b60405160208183030381529060405280519060200120815260200190815260200160002060000154600560008960405160200161075791906112dd565b60405160208183030381529060405280519060200120815260200190815260200160002060010154600560008a60405160200161079491906112dd565b60405160208183030381529060405280519060200120815260200190815260200160002060020154600560008b6040516020016107d191906112dd565b60405160208183030381529060405280519060200120815260200190815260200160002060030154600560008c60405160200161080e91906112dd565b60405160208183030381529060405280519060200120815260200190815260200160002060040154600560008d60405160200161084b91906112dd565b6040516020818303038152906040528051906020012081526020019081526020016000206005015495509550955095509550955091939550919395565b600381136108d05760405162461bcd60e51b81526020600482015260156024820152743cb7ba9030b932b713ba10309031b2ba34b334b2b960591b60448201526064016102b6565b50600280546001600160a01b03191633179055565b600060066000836040516020016105e391815260200190565b6002546001600160a01b031633146109525760405162461bcd60e51b81526020600482015260176024820152763cb7ba9030b932903737ba10309031b2b93a34b334b2b960491b60448201526064016102b6565b6002546001600160a01b038083169116036109af5760405162461bcd60e51b815260206004820181905260248201527f4120636572697469666965722063616e6e6f7420626520616c736f2061204d3160448201526064016102b6565b6001600160a01b0381166000908152600460205260409020544311610a0c5760405162461bcd60e51b8152602060048201526013602482015272796f752068617665207374696c6c2074696d6560681b60448201526064016102b6565b610a17436028610f87565b6001600160a01b038216600081815260046020908152604080832094909455600190819052838220805460ff19169091179055915190917f6b0e1d28d263422a620520c077040ce995db3e9b959e1daf117338b2b6f3c0eb91a250565b600060076000836040516020016105e391906112dd565b3360009081526001602081905260409091205460ff16151514610ac05760405162461bcd60e51b81526004016102b690611213565b336000908152600460205260409020544310610aee5760405162461bcd60e51b81526004016102b69061124a565b6006600088604051602001610b0591815260200190565b60408051601f198184030181529181528151602092830120835290820192909252016000205460ff161515600114610b715760405162461bcd60e51b815260206004820152600f60248201526e18d859d95cc81b9bdd08199bdd5b99608a1b60448201526064016102b6565b6008600087604051602001610b8891815260200190565b60408051601f198184030181529181528151602092830120835290820192909252016000205460ff161515600114610bf65760405162461bcd60e51b81526020600482015260116024820152701d1a1c9958591cc81b9bdd08199bdd5b99607a1b60448201526064016102b6565b6087851315610c475760405162461bcd60e51b815260206004820152601760248201527f54656d706572617475726520636c617373206572726f7200000000000000000060448201526064016102b6565b8360e614158015610c59575082603214155b8015610c6757508160001914155b15610cb45760405162461bcd60e51b815260206004820152601a60248201527f416c696d656e746174696f6e2074656e73696f6e204572726f7200000000000060448201526064016102b6565b60016007600083604051602001610ccb91906112dd565b60405160208183030381529060405280519060200120815260200190815260200160002060006101000a81548160ff021916908315150217905550866005600083604051602001610d1c91906112dd565b60405160208183030381529060405280519060200120815260200190815260200160002060000181905550856005600083604051602001610d5d91906112dd565b60405160208183030381529060405280519060200120815260200190815260200160002060010181905550846005600083604051602001610d9e91906112dd565b60405160208183030381529060405280519060200120815260200190815260200160002060020181905550836005600083604051602001610ddf91906112dd565b60405160208183030381529060405280519060200120815260200190815260200160002060030181905550826005600083604051602001610e2091906112dd565b60405160208183030381529060405280519060200120815260200190815260200160002060040181905550816005600083604051602001610e6191906112dd565b60405160208183030381529060405280519060200120815260200190815260200160002060050181905550806005600083604051602001610ea291906112dd565b6040516020818303038152906040528051906020012081526020019081526020016000206006019080519060200190610edc929190610f9a565b506040513390610eed9083906112dd565b604051908190038120907f07a9eee897cf9c187115548d8c2a3448f1291d8c8329bb0234099309a58057a790600090a350505050505050565b3360009081526020819052604090205460ff161515600114610f5a5760405162461bcd60e51b81526004016102b690611213565b6001600160a01b03166000908152600360209081526040808320839055908290529020805460ff19169055565b6000610f9382846112f9565b9392505050565b828054610fa69061131f565b90600052602060002090601f016020900481019282610fc8576000855561100e565b82601f10610fe157805160ff191683800117855561100e565b8280016001018555821561100e579182015b8281111561100e578251825591602001919060010190610ff3565b5061101a92915061101e565b5090565b5b8082111561101a576000815560010161101f565b60006020828403121561104557600080fd5b81356001600160a01b0381168114610f9357600080fd5b634e487b7160e01b600052604160045260246000fd5b600082601f83011261108357600080fd5b813567ffffffffffffffff8082111561109e5761109e61105c565b604051601f8301601f19908116603f011681019082821181831017156110c6576110c661105c565b816040528381528660208588010111156110df57600080fd5b836020870160208301376000602085830101528094505050505092915050565b6000806040838503121561111257600080fd5b82359150602083013567ffffffffffffffff81111561113057600080fd5b61113c85828601611072565b9150509250929050565b60006020828403121561115857600080fd5b5035919050565b60006020828403121561117157600080fd5b813567ffffffffffffffff81111561118857600080fd5b61119484828501611072565b949350505050565b600080600080600080600060e0888a0312156111b757600080fd5b873596506020880135955060408801359450606088013593506080880135925060a0880135915060c088013567ffffffffffffffff8111156111f857600080fd5b6112048a828b01611072565b91505092959891949750929550565b6020808252601a908201527f796f7520617265206e6f74207175616c69666965642075736572000000000000604082015260600190565b6020808252601690820152751e5bdd5c881d1a5b59481bd9881d5cd859d948195b9960521b604082015260600190565b60005b8381101561129557818101518382015260200161127d565b838111156112a4576000848401525b50505050565b60208152600082518060208401526112c981604085016020870161127a565b601f01601f19169190910160400192915050565b600082516112ef81846020870161127a565b9190910192915050565b6000821982111561131a57634e487b7160e01b600052601160045260246000fd5b500190565b600181811c9082168061133357607f821691505b60208210810361135357634e487b7160e01b600052602260045260246000fd5b5091905056fea2646970667358221220a2dc4e81073ff4c644158aab047a23f7e9c9f1884e0c5597e7d156f090b2cb2e64736f6c634300080d0033",
  "immutableReferences": {},
  "source": "//ElectricEngine contract\n\n// SPDX-License-Identifier: MIT\npragma solidity ^0.8.0;\nimport \"./Certificate_contract.sol\";\n\n\ncontract ElectricEngine is BaseCertContract{\n\n    //Struct for a electric engine\n    struct ElecEngine{ \n \t\tuint cage_fatt;\n        uint thread_fatt;\n        int temp;\n        int ts;\n        int fr;\n        int Y;\n        string object;\n    }\n\n    \n    mapping(bytes32 => ElecEngine) private dat;\n\n\n\n   \n    //mapping(address => bool) private g;\n    //mapping(address => bool) private f;\n  \n\n    \n    //mapping(address => uint256) private timeg;\n    //mapping(address => uint256) private timef;\n\n    //address private owner;\n\n    //mapping(bytes32 => bool) private bubbleCopper;\n    //mapping(bytes32 => bool) private bubbleSteel;\n    mapping(bytes32 => bool) private cages; \n    mapping(bytes32 => bool) private engines;\n    mapping(bytes32 => bool) private threads;\n\n\n    //event addedf(address indexed user);\n    //event addedg(address indexed user);\n    event certThreads(uint indexed fatt, address indexed user,string producer);\n    event certCages(uint indexed fatt, address indexed user,string producer);\n    event certEngines(string indexed lot, address indexed user);\n    \n    //int[5] private proof;\n    //int[5] private info;\n\n\n    constructor() public BaseCertContract(){\n\n      /*m1[0x984765fCd218D3937E4298Dd1746b47828D5E9f8] = true;\n      m2[0xCCf44CeA3140c0253D845D04973bC0D0E5eED163] = true;\n      f[0x10CdeAE4C0d04aD512E017E3F7d236a463c578bB] = true;\n      g[0xeaaF394C2468442eCb543d43B11326903e27e311] = true;\n      timem1[0x984765fCd218D3937E4298Dd1746b47828D5E9f8] = SafeMath.add(block.number, 40);\n      timem2[0xCCf44CeA3140c0253D845D04973bC0D0E5eED163] = SafeMath.add(block.number, 40);\n      timeg[0x10CdeAE4C0d04aD512E017E3F7d236a463c578bB] = SafeMath.add(block.number, 40);\n      timef[0xeaaF394C2468442eCb543d43B11326903e27e311] = SafeMath.add(block.number, 40);\n      certifier = 0x984765fCd218D3937E4298Dd1746b47828D5E9f8;*/\n      //owner = msg.sender;\n      \n      \n      \n\n      // DOMANDA -- Facciamo creare i certificati europei agli utenti certificatori oppure usiamo i certificatori solo come gli utenti che controllano i singoli lotti?\n\n\n     \n    }\n\n    \n\n    /*function UserInfos( int8 info1, int8 info2, int8 info3, int8 info4, int8 info5) external{\n        require(msg.sender == certifier, \"you are not a certifier\");\n        info[0] = info1;\n        info[1] = info2;\n        info[2] = info3;\n        info[3] = info4;\n        info[4] = info5;\n\n    }*/\n\n    /*function UserProofs(int8 proof1, int8 proof2, int8 proof3, int8 proof4, int proof5) external{\n        require(msg.sender == certifier, \"you are not a certifier\");\n        proof[0] = proof1;\n        proof[1] = proof2;\n        proof[2] = proof3;\n        proof[3] = proof4;\n        proof[4] = proof5;\n\n    }*/\n\n   \n\n \n    /*function addG(int8 infop) external {\n        require(infop>info[2],\"you aren't a G\");\n        require(timeg[msg.sender]<block.timestamp,\"you have still time\");\n        timeg[msg.sender] = SafeMath.add(block.timestamp, 40);\n        m1[msg.sender] = true;\n        emit addedg(msg.sender);\n    } \n\n    function addmF(int8 infop) external {\n        require(infop>info[4],\"you aren't a F\");\n        require(timef[msg.sender]<block.timestamp,\"you have still time\");\n        timef[msg.sender] = SafeMath.add(block.timestamp, 40);\n        m1[msg.sender] = true;\n        emit addedf(msg.sender);\n\n    } */\n\n    /*\n\n    FOR NOW CERTIFY ONLY THREADS, CAGES AND ENGINES\n\n    function certificateSteels(int proofo, string memory object) external { \n      \n        require(proofo>proof[0],\"not valid Steels\");\n        require(f[msg.sender] == true, \"you are not qualified user\");\n        require(timef[msg.sender]>block.number, \"your time of usage end\");\n        bubbleSteel[keccak256(abi.encodePacked(object))] = true;\n    } \n    \n\n    function certificateCoppers(int proofo, string memory object) external {\n        require(proofo>proof[1],\"not valid Coppers\");\n        require(g[msg.sender] == true, \"you are not qualified user\");\n        require(timeg[msg.sender]>block.number, \"your time of usage end\");\n        bubbleCopper[keccak256(abi.encodePacked(object))] = true;\n    }  \n\n    */\n\n    function certificateThreads(uint fatt, string memory producer) external ism1{ //Ask threads data (Producer and Fattura d'aquisto) to certidicate the threads\n        \n        require(timem1[msg.sender]>block.number, \"your time of usage end\");\n        threads[keccak256(abi.encodePacked(fatt))] = true; //the key value for the threads is now the invoice (fattura) code.\n        emit certThreads(fatt,msg.sender,producer);\n        //return(producer, fatt); //this function return the producer and the invoice code - if useful\n    }\n\n    function certificateCage(uint fatt, string memory producer) external ism1{ //Ask for cages data (Producer and Fattura d'aquisto) to certificate the cages\n        \n        require(timem1[msg.sender]>block.number, \"your time of usage end\");\n        cages[keccak256(abi.encodePacked(fatt))] = true;//the key value for the threads is now the invoice (fattura) code.\n        emit certCages(fatt,msg.sender,producer);\n        //return(producer, fatt); //As above\n    }\n\n    function certificateEngines(uint cage_fatt, uint thread_fatt, int temp, int ts, int fr, int Y, string memory object) external ism2{\n       \n        require(timem2[msg.sender]>block.number, \"your time of usage end\"); \n        require(cages[keccak256(abi.encodePacked(cage_fatt))] == true, \"cages not found\"); //cage_fatt -> cage invoice//thread_fatt -> thread invoice id\n        require(threads[keccak256(abi.encodePacked(thread_fatt))] == true, \"threads not found\"); //thread_fatt -> thread invoice id\n        require(temp <= 135, \"Temperature class error\"); //check if the tested temperature class is less then or equal to teh one defined in the certificate (defiened when the cintract is created)\n        if (ts != 230 && fr != 50 && Y != -1){ //check the parameter for the alimentation tension\n            revert(\"Alimentation tension Error\");\n        }\n        engines[keccak256(abi.encodePacked(object))] = true; //set as true an engine with ID lotto, azienda:number.\n        dat[keccak256(abi.encodePacked(object))].cage_fatt = cage_fatt;\n        dat[keccak256(abi.encodePacked(object))].thread_fatt = thread_fatt;\n        dat[keccak256(abi.encodePacked(object))].temp = temp;\n        dat[keccak256(abi.encodePacked(object))].ts = ts;\n        dat[keccak256(abi.encodePacked(object))].fr = fr;\n        dat[keccak256(abi.encodePacked(object))].Y = Y;\n        dat[keccak256(abi.encodePacked(object))].object = object;\n        //segnare i due pezzi cages e thread come non certificati !!!!!!!!!!!!!!!!!!!!!!!!!!!!!!!!!!!!!!!!!!!!!!!!!!!!!!!!!!!!!!!!!!!!!!!!!!!!!!!!!!!!!!!!!!!!!!!!!!!!!!!!!!!!!!!!!!!!\n        emit certEngines(object,msg.sender);\n    } \n\n   /* function isCertificatesSteels(string memory object) view external returns(bool) {\n        return bubbleSteel[keccak256(abi.encodePacked(object))];\n    }   \n\n    function isCertificatedCoppers(string memory object) view external returns(bool){\n   \n        return bubbleCopper[keccak256(abi.encodePacked(object))];\n    }   */\n\n    //Get info of a electric engine\n    function getElectricEngineData(string memory object) external view returns(uint,uint,int,int,int,int){\n       \n        require(engines[keccak256(abi.encodePacked(object))] == true, \"Engine isn't recorded\");\n        return (dat[keccak256(abi.encodePacked(object))].cage_fatt, dat[keccak256(abi.encodePacked(object))].thread_fatt, dat[keccak256(abi.encodePacked(object))].temp, dat[keccak256(abi.encodePacked(object))].ts, dat[keccak256(abi.encodePacked(object))].fr, dat[keccak256(abi.encodePacked(object))].Y);\n    }\n\n    function isCertificatedThreads(uint fatt) view external returns(bool){ \n      \n        return threads[keccak256(abi.encodePacked(fatt))];\n    } \n\n    function isCertificatedCages(uint fatt) view external returns(bool){\n \n        return cages[keccak256(abi.encodePacked(fatt))];\n    } \n\n    function isCertificatedEngines(string memory lot) view external returns(bool){\n    \n        return engines[keccak256(abi.encodePacked(lot))];\n    } \n\n  \n    /*function isF() view external returns(bool){\n      \n        return f[msg.sender];\n    } \n\n    function isG() view external returns(bool){\n \n        return g[msg.sender];\n    } */\n\n\n\n\n\n\n    /*function payStorageFee() external payable {\n        require(msg.sender == customer, \"Only the customer can pay the storage fee\");\n        require(msg.value > 0, \"Storage fee should be greater than zero\");\n        balances[storageProvider] += msg.value;\n        emit StorageFeePaid(msg.sender, msg.value);\n    }\n\n    function storeItems(uint256 _amount) external {\n        require(msg.sender == customer, \"Only the customer can store items\");\n        require(balances[customer] >= _amount, \"Insufficient balance to store items\");\n        balances[customer] -= _amount;\n        storedItems[customer] += _amount;\n        emit ItemsStored(msg.sender, _amount);\n    }\n\n    function retrieveItems(uint256 _amount) external {\n        require(msg.sender == customer, \"Only the customer can retrieve items\");\n        require(storedItems[customer] >= _amount, \"Insufficient stored items to retrieve\");\n        storedItems[customer] -= _amount;\n        balances[customer] += _amount;\n        emit ItemsRetrieved(msg.sender, _amount);\n    }*/\n}\n\n\n\n",
  "sourcePath": "/home/parallels/Desktop/BLOCK_PROJ/BlockchainProject/Proj_source/contracts/Proj_contract.sol",
  "compiler": {
    "name": "solc",
    "version": "0.8.13+commit.abaa5c0e.Emscripten.clang"
  },
  "schemaVersion": "3.4.13",
  "updatedAt": "2023-08-21T13:34:04.927Z",
  "networkType": "ethereum",
  "devdoc": {
    "kind": "dev",
    "methods": {},
    "version": 1
  },
  "userdoc": {
    "kind": "user",
    "methods": {},
    "version": 1
  }
}