{
  "contractName": "ElectricEngine",
  "abi": [
    {
      "inputs": [],
      "stateMutability": "nonpayable",
      "type": "constructor"
    },
    {
      "anonymous": false,
      "inputs": [
        {
          "indexed": true,
          "internalType": "address",
          "name": "user",
          "type": "address"
        }
      ],
      "name": "addedm1",
      "type": "event"
    },
    {
      "anonymous": false,
      "inputs": [
        {
          "indexed": true,
          "internalType": "address",
          "name": "user",
          "type": "address"
        }
      ],
      "name": "addedm2",
      "type": "event"
    },
    {
      "anonymous": false,
      "inputs": [
        {
          "indexed": true,
          "internalType": "uint256",
          "name": "fatt",
          "type": "uint256"
        },
        {
          "indexed": true,
          "internalType": "address",
          "name": "user",
          "type": "address"
        },
        {
          "indexed": false,
          "internalType": "string",
          "name": "producer",
          "type": "string"
        }
      ],
      "name": "certCages",
      "type": "event"
    },
    {
      "anonymous": false,
      "inputs": [
        {
          "indexed": true,
          "internalType": "string",
          "name": "lot",
          "type": "string"
        },
        {
          "indexed": true,
          "internalType": "address",
          "name": "user",
          "type": "address"
        }
      ],
      "name": "certEngines",
      "type": "event"
    },
    {
      "anonymous": false,
      "inputs": [
        {
          "indexed": true,
          "internalType": "uint256",
          "name": "fatt",
          "type": "uint256"
        },
        {
          "indexed": true,
          "internalType": "address",
          "name": "user",
          "type": "address"
        },
        {
          "indexed": false,
          "internalType": "string",
          "name": "producer",
          "type": "string"
        }
      ],
      "name": "certThreads",
      "type": "event"
    },
    {
      "inputs": [
        {
          "internalType": "int256",
          "name": "infop",
          "type": "int256"
        }
      ],
      "name": "addcertifier",
      "outputs": [],
      "stateMutability": "nonpayable",
      "type": "function"
    },
    {
      "inputs": [
        {
          "internalType": "address",
          "name": "ut1",
          "type": "address"
        }
      ],
      "name": "delm1",
      "outputs": [],
      "stateMutability": "nonpayable",
      "type": "function"
    },
    {
      "inputs": [
        {
          "internalType": "address",
          "name": "ut2",
          "type": "address"
        }
      ],
      "name": "delm2",
      "outputs": [],
      "stateMutability": "nonpayable",
      "type": "function"
    },
    {
      "inputs": [
        {
          "internalType": "address",
          "name": "ut1",
          "type": "address"
        }
      ],
      "name": "addm1",
      "outputs": [],
      "stateMutability": "nonpayable",
      "type": "function"
    },
    {
      "inputs": [
        {
          "internalType": "address",
          "name": "ut2",
          "type": "address"
        }
      ],
      "name": "addm2",
      "outputs": [],
      "stateMutability": "nonpayable",
      "type": "function"
    },
    {
      "inputs": [
        {
          "internalType": "uint256",
          "name": "fatt",
          "type": "uint256"
        },
        {
          "internalType": "string",
          "name": "producer",
          "type": "string"
        }
      ],
      "name": "certificateThreads",
      "outputs": [],
      "stateMutability": "nonpayable",
      "type": "function"
    },
    {
      "inputs": [
        {
          "internalType": "uint256",
          "name": "fatt",
          "type": "uint256"
        },
        {
          "internalType": "string",
          "name": "producer",
          "type": "string"
        }
      ],
      "name": "certificateCage",
      "outputs": [],
      "stateMutability": "nonpayable",
      "type": "function"
    },
    {
      "inputs": [
        {
          "internalType": "uint256",
          "name": "cage_fatt",
          "type": "uint256"
        },
        {
          "internalType": "uint256",
          "name": "thread_fatt",
          "type": "uint256"
        },
        {
          "internalType": "int256",
          "name": "temp",
          "type": "int256"
        },
        {
          "internalType": "int256",
          "name": "ts",
          "type": "int256"
        },
        {
          "internalType": "int256",
          "name": "fr",
          "type": "int256"
        },
        {
          "internalType": "int256",
          "name": "Y",
          "type": "int256"
        },
        {
          "internalType": "string",
          "name": "object",
          "type": "string"
        }
      ],
      "name": "certificateEngines",
      "outputs": [],
      "stateMutability": "nonpayable",
      "type": "function"
    },
    {
      "inputs": [
        {
          "internalType": "uint256",
          "name": "fatt",
          "type": "uint256"
        }
      ],
      "name": "isCertificatedThreads",
      "outputs": [
        {
          "internalType": "bool",
          "name": "",
          "type": "bool"
        }
      ],
      "stateMutability": "view",
      "type": "function",
      "constant": true
    },
    {
      "inputs": [
        {
          "internalType": "uint256",
          "name": "fatt",
          "type": "uint256"
        }
      ],
      "name": "isCertificatedCages",
      "outputs": [
        {
          "internalType": "bool",
          "name": "",
          "type": "bool"
        }
      ],
      "stateMutability": "view",
      "type": "function",
      "constant": true
    },
    {
      "inputs": [
        {
          "internalType": "string",
          "name": "lot",
          "type": "string"
        }
      ],
      "name": "isCertificatedEngines",
      "outputs": [
        {
          "internalType": "bool",
          "name": "",
          "type": "bool"
        }
      ],
      "stateMutability": "view",
      "type": "function",
      "constant": true
    },
    {
      "inputs": [],
      "name": "isM1",
      "outputs": [
        {
          "internalType": "bool",
          "name": "",
          "type": "bool"
        }
      ],
      "stateMutability": "view",
      "type": "function",
      "constant": true
    },
    {
      "inputs": [],
      "name": "isM2",
      "outputs": [
        {
          "internalType": "bool",
          "name": "",
          "type": "bool"
        }
      ],
      "stateMutability": "view",
      "type": "function",
      "constant": true
    }
  ],
  "bytecode": "0x608060405234801561001057600080fd5b5033600260006101000a81548173ffffffffffffffffffffffffffffffffffffffff021916908373ffffffffffffffffffffffffffffffffffffffff160217905550611e2e806100616000396000f3fe608060405234801561001057600080fd5b50600436106100cf5760003560e01c8063513f8c2f1161008c5780638748a146116100665780638748a146146101fa578063af9f124f1461022a578063c477cc5f14610246578063d917288914610262576100cf565b8063513f8c2f146101925780635e3e7ab6146101ae5780635f7a9801146101de576100cf565b806307890067146100d457806316981434146100f0578063258c66471461010c5780632c690b3f1461012a5780632cd47e1a14610146578063377c69bd14610176575b600080fd5b6100ee60048036038101906100e99190611430565b610280565b005b61010a600480360381019061010591906115d9565b61050c565b005b6101146106c4565b6040516101219190611650565b60405180910390f35b610144600480360381019061013f91906115d9565b610718565b005b610160600480360381019061015b919061166b565b6108d0565b60405161016d9190611650565b60405180910390f35b610190600480360381019061018b9190611430565b610920565b005b6101ac60048036038101906101a791906116ce565b610a48565b005b6101c860048036038101906101c3919061166b565b610acf565b6040516101d59190611650565b60405180910390f35b6101f860048036038101906101f39190611430565b610b1f565b005b610214600480360381019061020f91906116fb565b610e3b565b6040516102219190611650565b60405180910390f35b610244600480360381019061023f9190611744565b610e8b565b005b610260600480360381019061025b9190611430565b61122f565b005b61026a611355565b6040516102779190611650565b60405180910390f35b3373ffffffffffffffffffffffffffffffffffffffff16600260009054906101000a900473ffffffffffffffffffffffffffffffffffffffff1673ffffffffffffffffffffffffffffffffffffffff1614610310576040517f08c379a00000000000000000000000000000000000000000000000000000000081526004016103079061185f565b60405180910390fd5b8073ffffffffffffffffffffffffffffffffffffffff16600260009054906101000a900473ffffffffffffffffffffffffffffffffffffffff1673ffffffffffffffffffffffffffffffffffffffff16036103a0576040517f08c379a0000000000000000000000000000000000000000000000000000000008152600401610397906118cb565b60405180910390fd5b43600360008373ffffffffffffffffffffffffffffffffffffffff1673ffffffffffffffffffffffffffffffffffffffff1681526020019081526020016000205410610421576040517f08c379a000000000000000000000000000000000000000000000000000000000815260040161041890611937565b60405180910390fd5b61042c4360286113a8565b600360008373ffffffffffffffffffffffffffffffffffffffff1673ffffffffffffffffffffffffffffffffffffffff1681526020019081526020016000208190555060016000808373ffffffffffffffffffffffffffffffffffffffff1673ffffffffffffffffffffffffffffffffffffffff16815260200190815260200160002060006101000a81548160ff0219169083151502179055508073ffffffffffffffffffffffffffffffffffffffff167f2756cd91fb7c0be01353207b0107f45f9dbe5f2837c4a796fe7d95c060d7588260405160405180910390a250565b600115156000803373ffffffffffffffffffffffffffffffffffffffff1673ffffffffffffffffffffffffffffffffffffffff16815260200190815260200160002060009054906101000a900460ff1615151461059e576040517f08c379a0000000000000000000000000000000000000000000000000000000008152600401610595906119a3565b60405180910390fd5b43600360003373ffffffffffffffffffffffffffffffffffffffff1673ffffffffffffffffffffffffffffffffffffffff168152602001908152602001600020541161061f576040517f08c379a000000000000000000000000000000000000000000000000000000000815260040161061690611a0f565b60405180910390fd5b600160056000846040516020016106369190611a50565b60405160208183030381529060405280519060200120815260200190815260200160002060006101000a81548160ff0219169083151502179055503373ffffffffffffffffffffffffffffffffffffffff16827f7fc2a2441cf93b10214bb4f95f4e39a190bc195d0296d475c4806a8a17448f5f836040516106b89190611ae2565b60405180910390a35050565b6000600160003373ffffffffffffffffffffffffffffffffffffffff1673ffffffffffffffffffffffffffffffffffffffff16815260200190815260200160002060009054906101000a900460ff16905090565b600115156000803373ffffffffffffffffffffffffffffffffffffffff1673ffffffffffffffffffffffffffffffffffffffff16815260200190815260200160002060009054906101000a900460ff161515146107aa576040517f08c379a00000000000000000000000000000000000000000000000000000000081526004016107a1906119a3565b60405180910390fd5b43600360003373ffffffffffffffffffffffffffffffffffffffff1673ffffffffffffffffffffffffffffffffffffffff168152602001908152602001600020541161082b576040517f08c379a000000000000000000000000000000000000000000000000000000000815260040161082290611a0f565b60405180910390fd5b600160076000846040516020016108429190611a50565b60405160208183030381529060405280519060200120815260200190815260200160002060006101000a81548160ff0219169083151502179055503373ffffffffffffffffffffffffffffffffffffffff16827f9dce5852767e8ff17b82fed93e65b4f5345480011604fe1525eb93ef83811d65836040516108c49190611ae2565b60405180910390a35050565b600060076000836040516020016108e79190611a50565b60405160208183030381529060405280519060200120815260200190815260200160002060009054906101000a900460ff169050919050565b60011515600160003373ffffffffffffffffffffffffffffffffffffffff1673ffffffffffffffffffffffffffffffffffffffff16815260200190815260200160002060009054906101000a900460ff161515146109b3576040517f08c379a00000000000000000000000000000000000000000000000000000000081526004016109aa906119a3565b60405180910390fd5b600460008273ffffffffffffffffffffffffffffffffffffffff1673ffffffffffffffffffffffffffffffffffffffff16815260200190815260200160002060009055600160008273ffffffffffffffffffffffffffffffffffffffff1673ffffffffffffffffffffffffffffffffffffffff16815260200190815260200160002060006101000a81549060ff021916905550565b60038113610a8b576040517f08c379a0000000000000000000000000000000000000000000000000000000008152600401610a8290611b50565b60405180910390fd5b33600260006101000a81548173ffffffffffffffffffffffffffffffffffffffff021916908373ffffffffffffffffffffffffffffffffffffffff16021790555050565b60006005600083604051602001610ae69190611a50565b60405160208183030381529060405280519060200120815260200190815260200160002060009054906101000a900460ff169050919050565b3373ffffffffffffffffffffffffffffffffffffffff16600260009054906101000a900473ffffffffffffffffffffffffffffffffffffffff1673ffffffffffffffffffffffffffffffffffffffff1614610baf576040517f08c379a0000000000000000000000000000000000000000000000000000000008152600401610ba69061185f565b60405180910390fd5b3373ffffffffffffffffffffffffffffffffffffffff16600260009054906101000a900473ffffffffffffffffffffffffffffffffffffffff1673ffffffffffffffffffffffffffffffffffffffff1614610c3f576040517f08c379a0000000000000000000000000000000000000000000000000000000008152600401610c369061185f565b60405180910390fd5b8073ffffffffffffffffffffffffffffffffffffffff16600260009054906101000a900473ffffffffffffffffffffffffffffffffffffffff1673ffffffffffffffffffffffffffffffffffffffff1603610ccf576040517f08c379a0000000000000000000000000000000000000000000000000000000008152600401610cc6906118cb565b60405180910390fd5b43600460008373ffffffffffffffffffffffffffffffffffffffff1673ffffffffffffffffffffffffffffffffffffffff1681526020019081526020016000205410610d50576040517f08c379a0000000000000000000000000000000000000000000000000000000008152600401610d4790611937565b60405180910390fd5b610d5b4360286113a8565b600460008373ffffffffffffffffffffffffffffffffffffffff1673ffffffffffffffffffffffffffffffffffffffff1681526020019081526020016000208190555060018060008373ffffffffffffffffffffffffffffffffffffffff1673ffffffffffffffffffffffffffffffffffffffff16815260200190815260200160002060006101000a81548160ff0219169083151502179055508073ffffffffffffffffffffffffffffffffffffffff167f6b0e1d28d263422a620520c077040ce995db3e9b959e1daf117338b2b6f3c0eb60405160405180910390a250565b60006006600083604051602001610e529190611bac565b60405160208183030381529060405280519060200120815260200190815260200160002060009054906101000a900460ff169050919050565b60011515600160003373ffffffffffffffffffffffffffffffffffffffff1673ffffffffffffffffffffffffffffffffffffffff16815260200190815260200160002060009054906101000a900460ff16151514610f1e576040517f08c379a0000000000000000000000000000000000000000000000000000000008152600401610f15906119a3565b60405180910390fd5b43600460003373ffffffffffffffffffffffffffffffffffffffff1673ffffffffffffffffffffffffffffffffffffffff1681526020019081526020016000205411610f9f576040517f08c379a0000000000000000000000000000000000000000000000000000000008152600401610f9690611a0f565b60405180910390fd5b600115156005600089604051602001610fb89190611a50565b60405160208183030381529060405280519060200120815260200190815260200160002060009054906101000a900460ff1615151461102c576040517f08c379a000000000000000000000000000000000000000000000000000000000815260040161102390611c0f565b60405180910390fd5b6001151560076000886040516020016110459190611a50565b60405160208183030381529060405280519060200120815260200190815260200160002060009054906101000a900460ff161515146110b9576040517f08c379a00000000000000000000000000000000000000000000000000000000081526004016110b090611c7b565b60405180910390fd5b60878513156110fd576040517f08c379a00000000000000000000000000000000000000000000000000000000081526004016110f490611ce7565b60405180910390fd5b60e6841415801561110f575060328314155b801561113b57507fffffffffffffffffffffffffffffffffffffffffffffffffffffffffffffffff8214155b1561117b576040517f08c379a000000000000000000000000000000000000000000000000000000000815260040161117290611d53565b60405180910390fd5b600160066000836040516020016111929190611bac565b60405160208183030381529060405280519060200120815260200190815260200160002060006101000a81548160ff0219169083151502179055503373ffffffffffffffffffffffffffffffffffffffff16816040516111f29190611bac565b60405180910390207f07a9eee897cf9c187115548d8c2a3448f1291d8c8329bb0234099309a58057a760405160405180910390a350505050505050565b600115156000803373ffffffffffffffffffffffffffffffffffffffff1673ffffffffffffffffffffffffffffffffffffffff16815260200190815260200160002060009054906101000a900460ff161515146112c1576040517f08c379a00000000000000000000000000000000000000000000000000000000081526004016112b8906119a3565b60405180910390fd5b600360008273ffffffffffffffffffffffffffffffffffffffff1673ffffffffffffffffffffffffffffffffffffffff168152602001908152602001600020600090556000808273ffffffffffffffffffffffffffffffffffffffff1673ffffffffffffffffffffffffffffffffffffffff16815260200190815260200160002060006101000a81549060ff021916905550565b60008060003373ffffffffffffffffffffffffffffffffffffffff1673ffffffffffffffffffffffffffffffffffffffff16815260200190815260200160002060009054906101000a900460ff16905090565b600081836113b69190611da2565b905092915050565b6000604051905090565b600080fd5b600080fd5b600073ffffffffffffffffffffffffffffffffffffffff82169050919050565b60006113fd826113d2565b9050919050565b61140d816113f2565b811461141857600080fd5b50565b60008135905061142a81611404565b92915050565b600060208284031215611446576114456113c8565b5b60006114548482850161141b565b91505092915050565b6000819050919050565b6114708161145d565b811461147b57600080fd5b50565b60008135905061148d81611467565b92915050565b600080fd5b600080fd5b6000601f19601f8301169050919050565b7f4e487b7100000000000000000000000000000000000000000000000000000000600052604160045260246000fd5b6114e68261149d565b810181811067ffffffffffffffff82111715611505576115046114ae565b5b80604052505050565b60006115186113be565b905061152482826114dd565b919050565b600067ffffffffffffffff821115611544576115436114ae565b5b61154d8261149d565b9050602081019050919050565b82818337600083830152505050565b600061157c61157784611529565b61150e565b90508281526020810184848401111561159857611597611498565b5b6115a384828561155a565b509392505050565b600082601f8301126115c0576115bf611493565b5b81356115d0848260208601611569565b91505092915050565b600080604083850312156115f0576115ef6113c8565b5b60006115fe8582860161147e565b925050602083013567ffffffffffffffff81111561161f5761161e6113cd565b5b61162b858286016115ab565b9150509250929050565b60008115159050919050565b61164a81611635565b82525050565b60006020820190506116656000830184611641565b92915050565b600060208284031215611681576116806113c8565b5b600061168f8482850161147e565b91505092915050565b6000819050919050565b6116ab81611698565b81146116b657600080fd5b50565b6000813590506116c8816116a2565b92915050565b6000602082840312156116e4576116e36113c8565b5b60006116f2848285016116b9565b91505092915050565b600060208284031215611711576117106113c8565b5b600082013567ffffffffffffffff81111561172f5761172e6113cd565b5b61173b848285016115ab565b91505092915050565b600080600080600080600060e0888a031215611763576117626113c8565b5b60006117718a828b0161147e565b97505060206117828a828b0161147e565b96505060406117938a828b016116b9565b95505060606117a48a828b016116b9565b94505060806117b58a828b016116b9565b93505060a06117c68a828b016116b9565b92505060c088013567ffffffffffffffff8111156117e7576117e66113cd565b5b6117f38a828b016115ab565b91505092959891949750929550565b600082825260208201905092915050565b7f796f7520617265206e6f74206120636572746966696572000000000000000000600082015250565b6000611849601783611802565b915061185482611813565b602082019050919050565b600060208201905081810360008301526118788161183c565b9050919050565b7f4120636572697469666965722063616e6e6f7420626520616c736f2061204d31600082015250565b60006118b5602083611802565b91506118c08261187f565b602082019050919050565b600060208201905081810360008301526118e4816118a8565b9050919050565b7f796f752068617665207374696c6c2074696d6500000000000000000000000000600082015250565b6000611921601383611802565b915061192c826118eb565b602082019050919050565b6000602082019050818103600083015261195081611914565b9050919050565b7f796f7520617265206e6f74207175616c69666965642075736572000000000000600082015250565b600061198d601a83611802565b915061199882611957565b602082019050919050565b600060208201905081810360008301526119bc81611980565b9050919050565b7f796f75722074696d65206f6620757361676520656e6400000000000000000000600082015250565b60006119f9601683611802565b9150611a04826119c3565b602082019050919050565b60006020820190508181036000830152611a28816119ec565b9050919050565b6000819050919050565b611a4a611a458261145d565b611a2f565b82525050565b6000611a5c8284611a39565b60208201915081905092915050565b600081519050919050565b60005b83811015611a94578082015181840152602081019050611a79565b83811115611aa3576000848401525b50505050565b6000611ab482611a6b565b611abe8185611802565b9350611ace818560208601611a76565b611ad78161149d565b840191505092915050565b60006020820190508181036000830152611afc8184611aa9565b905092915050565b7f796f75206172656e277420612063657469666965720000000000000000000000600082015250565b6000611b3a601583611802565b9150611b4582611b04565b602082019050919050565b60006020820190508181036000830152611b6981611b2d565b9050919050565b600081905092915050565b6000611b8682611a6b565b611b908185611b70565b9350611ba0818560208601611a76565b80840191505092915050565b6000611bb88284611b7b565b915081905092915050565b7f6361676573206e6f7420666f756e640000000000000000000000000000000000600082015250565b6000611bf9600f83611802565b9150611c0482611bc3565b602082019050919050565b60006020820190508181036000830152611c2881611bec565b9050919050565b7f74687265616473206e6f7420666f756e64000000000000000000000000000000600082015250565b6000611c65601183611802565b9150611c7082611c2f565b602082019050919050565b60006020820190508181036000830152611c9481611c58565b9050919050565b7f54656d706572617475726520636c617373206572726f72000000000000000000600082015250565b6000611cd1601783611802565b9150611cdc82611c9b565b602082019050919050565b60006020820190508181036000830152611d0081611cc4565b9050919050565b7f416c696d656e746174696f6e2074656e73696f6e204572726f72000000000000600082015250565b6000611d3d601a83611802565b9150611d4882611d07565b602082019050919050565b60006020820190508181036000830152611d6c81611d30565b9050919050565b7f4e487b7100000000000000000000000000000000000000000000000000000000600052601160045260246000fd5b6000611dad8261145d565b9150611db88361145d565b9250827fffffffffffffffffffffffffffffffffffffffffffffffffffffffffffffffff03821115611ded57611dec611d73565b5b82820190509291505056fea2646970667358221220dbb7fd0d3952741bef99f5b5b7121b82dacf330a4aee870adfe56ce58edcc80c64736f6c634300080d0033",
  "immutableReferences": {},
  "source": "//Project method\n\n// SPDX-License-Identifier: MIT\npragma solidity ^0.8.0;\n\nimport \"@openzeppelin/contracts/utils/math/SafeMath.sol\";\n\ncontract ElectricEngine {\n\n    mapping(address => bool) private m1; //producer that certifies threads and cages\n    mapping(address => bool) private m2; //user that test engine\n    //mapping(address => bool) private g;\n    //mapping(address => bool) private f;\n    address private certifier; //who specified the parameter for the verification.\n\n    mapping(address => uint256) private timem1;//block when the service ends for m1\n    mapping(address => uint256) private timem2;//block when the service ends for m1\n    //mapping(address => uint256) private timeg;\n    //mapping(address => uint256) private timef;\n\n    //address private owner;\n\n    //mapping(bytes32 => bool) private bubbleCopper;\n    //mapping(bytes32 => bool) private bubbleSteel;\n    mapping(bytes32 => bool) private cages; \n    mapping(bytes32 => bool) private engines;\n    mapping(bytes32 => bool) private threads;\n\n\n    //Events with information goal\n    event addedm1(address indexed user);\n    event addedm2(address indexed user);\n    //event addedf(address indexed user);\n    //event addedg(address indexed user);\n    event certThreads(uint indexed fatt, address indexed user,string producer);\n    event certCages(uint indexed fatt, address indexed user,string producer);\n    event certEngines(string indexed lot, address indexed user);\n    \n    //int[5] private proof;\n    //int[5] private info;\n\n\n    constructor(){\n\n      /*m1[0x984765fCd218D3937E4298Dd1746b47828D5E9f8] = true;\n      m2[0xCCf44CeA3140c0253D845D04973bC0D0E5eED163] = true;\n      f[0x10CdeAE4C0d04aD512E017E3F7d236a463c578bB] = true;\n      g[0xeaaF394C2468442eCb543d43B11326903e27e311] = true;\n      timem1[0x984765fCd218D3937E4298Dd1746b47828D5E9f8] = SafeMath.add(block.number, 40);\n      timem2[0xCCf44CeA3140c0253D845D04973bC0D0E5eED163] = SafeMath.add(block.number, 40);\n      timeg[0x10CdeAE4C0d04aD512E017E3F7d236a463c578bB] = SafeMath.add(block.number, 40);\n      timef[0xeaaF394C2468442eCb543d43B11326903e27e311] = SafeMath.add(block.number, 40);\n      certifier = 0x984765fCd218D3937E4298Dd1746b47828D5E9f8;*/\n      //owner = msg.sender;\n      certifier = msg.sender;\n      \n      \n\n      // DOMANDA -- Facciamo creare i certificati europei agli utenti certificatori oppure usiamo i certificatori solo come gli utenti che controllano i singoli lotti?\n\n\n     \n    }\n\n    \n\n    /*function UserInfos( int8 info1, int8 info2, int8 info3, int8 info4, int8 info5) external{\n        require(msg.sender == certifier, \"you are not a certifier\");\n        info[0] = info1;\n        info[1] = info2;\n        info[2] = info3;\n        info[3] = info4;\n        info[4] = info5;\n\n    }*/\n\n    /*function UserProofs(int8 proof1, int8 proof2, int8 proof3, int8 proof4, int proof5) external{\n        require(msg.sender == certifier, \"you are not a certifier\");\n        proof[0] = proof1;\n        proof[1] = proof2;\n        proof[2] = proof3;\n        proof[3] = proof4;\n        proof[4] = proof5;\n\n    }*/\n\n    function addcertifier(int infop) external{\n        require(infop>3,\"you aren't a cetifier\");\n        certifier = msg.sender;\n        \n\n    }\n\n    modifier isCertifier{\n      require(certifier == msg.sender, \"you are not a certifier\");\n      _;\n\n\n    }\n\n    modifier ism1{\n      require(m1[msg.sender] == true, \"you are not qualified user\");\n      _;\n\n\n    }\n\n    modifier ism2{\n      require(m2[msg.sender] == true, \"you are not qualified user\");\n      _;\n\n\n    }\n\n    function delm1(address  ut1) external ism1{ \n\n        delete timem1[ut1];\n        delete m1[ut1];\n    }  \n\n    function delm2(address  ut2) external ism2{ \n\n        delete timem2[ut2];\n        delete m2[ut2];\n    }  \n\n\n    function addm1(address  ut1) external isCertifier{ \n\n        //require(infop>info[0],\"you aren't a m1\");\n        require(certifier != ut1, \"A ceritifier cannot be also a M1\");\n        require(timem1[ut1]<block.number,\"you have still time\");\n        timem1[ut1] = SafeMath.add(block.number, 40); //Assign to the producer the block where its service ends\n        m1[ut1] = true; //ut1 is a producer of cages and threads\n        emit addedm1(ut1);\n    }\n\n    \n\n    function addm2(address ut2) external isCertifier{\n\n        //require(infop>info[1],\"you aren't a m2\");\n        require(certifier == msg.sender, \"you are not a certifier\");\n        require(certifier != ut2, \"A ceritifier cannot be also a M1\");\n        require(timem2[ut2]<block.number,\"you have still time\");\n        timem2[ut2] = SafeMath.add(block.number, 40); //Assign to the producer the block where its service ends\n        m2[ut2] = true; //ut2 is a engine tester\n        emit addedm2(ut2);\n    } \n\n    /*function addG(int8 infop) external {\n        require(infop>info[2],\"you aren't a G\");\n        require(timeg[msg.sender]<block.timestamp,\"you have still time\");\n        timeg[msg.sender] = SafeMath.add(block.timestamp, 40);\n        m1[msg.sender] = true;\n        emit addedg(msg.sender);\n    } \n\n    function addmF(int8 infop) external {\n        require(infop>info[4],\"you aren't a F\");\n        require(timef[msg.sender]<block.timestamp,\"you have still time\");\n        timef[msg.sender] = SafeMath.add(block.timestamp, 40);\n        m1[msg.sender] = true;\n        emit addedf(msg.sender);\n\n    } */\n\n    /*\n\n    FOR NOW CERTIFY ONLY THREADS, CAGES AND ENGINES\n\n    function certificateSteels(int proofo, string memory object) external { \n      \n        require(proofo>proof[0],\"not valid Steels\");\n        require(f[msg.sender] == true, \"you are not qualified user\");\n        require(timef[msg.sender]>block.number, \"your time of usage end\");\n        bubbleSteel[keccak256(abi.encodePacked(object))] = true;\n    } \n    \n\n    function certificateCoppers(int proofo, string memory object) external {\n        require(proofo>proof[1],\"not valid Coppers\");\n        require(g[msg.sender] == true, \"you are not qualified user\");\n        require(timeg[msg.sender]>block.number, \"your time of usage end\");\n        bubbleCopper[keccak256(abi.encodePacked(object))] = true;\n    }  \n\n    */\n\n    function certificateThreads(uint fatt, string memory producer) external ism1{ //Ask threads data (Producer and Fattura d'aquisto) to certidicate the threads\n        \n        require(timem1[msg.sender]>block.number, \"your time of usage end\");\n        threads[keccak256(abi.encodePacked(fatt))] = true; //the key value for the threads is now the invoice (fattura) code.\n        emit certThreads(fatt,msg.sender,producer);\n        //return(producer, fatt); //this function return the producer and the invoice code - if useful\n    }\n\n    function certificateCage(uint fatt, string memory producer) external ism1{ //Ask for cages data (Producer and Fattura d'aquisto) to certificate the cages\n        \n        require(timem1[msg.sender]>block.number, \"your time of usage end\");\n        cages[keccak256(abi.encodePacked(fatt))] = true;//the key value for the threads is now the invoice (fattura) code.\n        emit certCages(fatt,msg.sender,producer);\n        //return(producer, fatt); //As above\n    }\n\n    function certificateEngines(uint cage_fatt, uint thread_fatt, int temp, int ts, int fr, int Y, string memory object) external ism2{\n       \n        require(timem2[msg.sender]>block.number, \"your time of usage end\"); \n        require(cages[keccak256(abi.encodePacked(cage_fatt))] == true, \"cages not found\"); //cage_fatt -> cage invoice//thread_fatt -> thread invoice id\n        require(threads[keccak256(abi.encodePacked(thread_fatt))] == true, \"threads not found\"); //thread_fatt -> thread invoice id\n        require(temp <= 135, \"Temperature class error\"); //check if the tested temperature class is less then or equal to teh one defined in the certificate (defiened when the cintract is created)\n        if (ts != 230 && fr != 50 && Y != -1){ //check the parameter for the alimentation tension\n            revert(\"Alimentation tension Error\");\n        }\n        engines[keccak256(abi.encodePacked(object))] = true; //set as true an engine with ID lotto, azienda:number.\n        //segnare i due pezzi cages e thread come non certificati !!!!!!!!!!!!!!!!!!!!!!!!!!!!!!!!!!!!!!!!!!!!!!!!!!!!!!!!!!!!!!!!!!!!!!!!!!!!!!!!!!!!!!!!!!!!!!!!!!!!!!!!!!!!!!!!!!!!\n        emit certEngines(object,msg.sender);\n    } \n\n   /* function isCertificatesSteels(string memory object) view external returns(bool) {\n        return bubbleSteel[keccak256(abi.encodePacked(object))];\n    }   \n\n    function isCertificatedCoppers(string memory object) view external returns(bool){\n   \n        return bubbleCopper[keccak256(abi.encodePacked(object))];\n    }   */\n\n    function isCertificatedThreads(uint fatt) view external returns(bool){ \n      \n        return threads[keccak256(abi.encodePacked(fatt))];\n    } \n\n    function isCertificatedCages(uint fatt) view external returns(bool){\n \n        return cages[keccak256(abi.encodePacked(fatt))];\n    } \n\n    function isCertificatedEngines(string memory lot) view external returns(bool){\n    \n        return engines[keccak256(abi.encodePacked(lot))];\n    } \n\n   function isM1() view external returns(bool) {\n        return m1[msg.sender];\n    }   \n\n    function isM2() view external returns(bool){\n   \n        return m2[msg.sender];\n    }   \n\n    /*function isF() view external returns(bool){\n      \n        return f[msg.sender];\n    } \n\n    function isG() view external returns(bool){\n \n        return g[msg.sender];\n    } */\n\n\n\n\n\n\n    /*function payStorageFee() external payable {\n        require(msg.sender == customer, \"Only the customer can pay the storage fee\");\n        require(msg.value > 0, \"Storage fee should be greater than zero\");\n        balances[storageProvider] += msg.value;\n        emit StorageFeePaid(msg.sender, msg.value);\n    }\n\n    function storeItems(uint256 _amount) external {\n        require(msg.sender == customer, \"Only the customer can store items\");\n        require(balances[customer] >= _amount, \"Insufficient balance to store items\");\n        balances[customer] -= _amount;\n        storedItems[customer] += _amount;\n        emit ItemsStored(msg.sender, _amount);\n    }\n\n    function retrieveItems(uint256 _amount) external {\n        require(msg.sender == customer, \"Only the customer can retrieve items\");\n        require(storedItems[customer] >= _amount, \"Insufficient stored items to retrieve\");\n        storedItems[customer] -= _amount;\n        balances[customer] += _amount;\n        emit ItemsRetrieved(msg.sender, _amount);\n    }*/\n}\n\n\n\n",
  "sourcePath": "/home/parallels/Desktop/BLOCK_PROJ/BlockchainProject/Proj_source/contracts/Proj_contract.sol",
  "compiler": {
    "name": "solc",
    "version": "0.8.13+commit.abaa5c0e.Emscripten.clang"
  },
  "schemaVersion": "3.4.13",
  "updatedAt": "2023-08-16T13:10:11.973Z",
  "networkType": "ethereum",
  "devdoc": {
    "kind": "dev",
    "methods": {},
    "version": 1
  },
  "userdoc": {
    "kind": "user",
    "methods": {},
    "version": 1
  }
}