{
  "contractName": "ElectricEngine",
  "abi": [
    {
      "inputs": [],
      "stateMutability": "nonpayable",
      "type": "constructor"
    },
    {
      "anonymous": false,
      "inputs": [
        {
          "indexed": true,
          "internalType": "address",
          "name": "user",
          "type": "address"
        }
      ],
      "name": "addedm1",
      "type": "event"
    },
    {
      "inputs": [
        {
          "internalType": "int8",
          "name": "info1",
          "type": "int8"
        },
        {
          "internalType": "int8",
          "name": "info2",
          "type": "int8"
        },
        {
          "internalType": "int8",
          "name": "info3",
          "type": "int8"
        },
        {
          "internalType": "int8",
          "name": "info4",
          "type": "int8"
        },
        {
          "internalType": "int8",
          "name": "info5",
          "type": "int8"
        }
      ],
      "name": "UserInfos",
      "outputs": [],
      "stateMutability": "nonpayable",
      "type": "function"
    },
    {
      "inputs": [
        {
          "internalType": "int8",
          "name": "proof1",
          "type": "int8"
        },
        {
          "internalType": "int8",
          "name": "proof2",
          "type": "int8"
        },
        {
          "internalType": "int8",
          "name": "proof3",
          "type": "int8"
        },
        {
          "internalType": "int8",
          "name": "proof4",
          "type": "int8"
        },
        {
          "internalType": "int256",
          "name": "proof5",
          "type": "int256"
        }
      ],
      "name": "UserProofs",
      "outputs": [],
      "stateMutability": "nonpayable",
      "type": "function"
    },
    {
      "inputs": [
        {
          "internalType": "int256",
          "name": "infop",
          "type": "int256"
        }
      ],
      "name": "addcertifier",
      "outputs": [],
      "stateMutability": "nonpayable",
      "type": "function"
    },
    {
      "inputs": [
        {
          "internalType": "int8",
          "name": "infop",
          "type": "int8"
        }
      ],
      "name": "addm1",
      "outputs": [],
      "stateMutability": "nonpayable",
      "type": "function"
    },
    {
      "inputs": [
        {
          "internalType": "int8",
          "name": "infop",
          "type": "int8"
        }
      ],
      "name": "addm2",
      "outputs": [],
      "stateMutability": "nonpayable",
      "type": "function"
    },
    {
      "inputs": [
        {
          "internalType": "int8",
          "name": "infop",
          "type": "int8"
        }
      ],
      "name": "addG",
      "outputs": [],
      "stateMutability": "nonpayable",
      "type": "function"
    },
    {
      "inputs": [
        {
          "internalType": "int8",
          "name": "infop",
          "type": "int8"
        }
      ],
      "name": "addmF",
      "outputs": [],
      "stateMutability": "nonpayable",
      "type": "function"
    },
    {
      "inputs": [
        {
          "internalType": "int256",
          "name": "proofo",
          "type": "int256"
        },
        {
          "internalType": "string",
          "name": "object",
          "type": "string"
        }
      ],
      "name": "certificateSteels",
      "outputs": [],
      "stateMutability": "nonpayable",
      "type": "function"
    },
    {
      "inputs": [
        {
          "internalType": "int256",
          "name": "proofo",
          "type": "int256"
        },
        {
          "internalType": "string",
          "name": "object",
          "type": "string"
        }
      ],
      "name": "certificateCoppers",
      "outputs": [],
      "stateMutability": "nonpayable",
      "type": "function"
    },
    {
      "inputs": [
        {
          "internalType": "int256",
          "name": "proofo",
          "type": "int256"
        },
        {
          "internalType": "string",
          "name": "object",
          "type": "string"
        }
      ],
      "name": "certificateThreads",
      "outputs": [],
      "stateMutability": "nonpayable",
      "type": "function"
    },
    {
      "inputs": [
        {
          "internalType": "int256",
          "name": "proofo",
          "type": "int256"
        },
        {
          "internalType": "string",
          "name": "object",
          "type": "string"
        }
      ],
      "name": "certificateCages",
      "outputs": [],
      "stateMutability": "nonpayable",
      "type": "function"
    },
    {
      "inputs": [
        {
          "internalType": "int256",
          "name": "proofo",
          "type": "int256"
        },
        {
          "internalType": "string",
          "name": "object",
          "type": "string"
        }
      ],
      "name": "certificateEngines",
      "outputs": [],
      "stateMutability": "nonpayable",
      "type": "function"
    },
    {
      "inputs": [
        {
          "internalType": "string",
          "name": "object",
          "type": "string"
        }
      ],
      "name": "isCertificatesSteels",
      "outputs": [
        {
          "internalType": "bool",
          "name": "",
          "type": "bool"
        }
      ],
      "stateMutability": "view",
      "type": "function",
      "constant": true
    },
    {
      "inputs": [
        {
          "internalType": "string",
          "name": "object",
          "type": "string"
        }
      ],
      "name": "isCertificatedCoppers",
      "outputs": [
        {
          "internalType": "bool",
          "name": "",
          "type": "bool"
        }
      ],
      "stateMutability": "view",
      "type": "function",
      "constant": true
    },
    {
      "inputs": [
        {
          "internalType": "string",
          "name": "object",
          "type": "string"
        }
      ],
      "name": "isCertificatedThreads",
      "outputs": [
        {
          "internalType": "bool",
          "name": "",
          "type": "bool"
        }
      ],
      "stateMutability": "view",
      "type": "function",
      "constant": true
    },
    {
      "inputs": [
        {
          "internalType": "string",
          "name": "object",
          "type": "string"
        }
      ],
      "name": "isCertificatedCages",
      "outputs": [
        {
          "internalType": "bool",
          "name": "",
          "type": "bool"
        }
      ],
      "stateMutability": "view",
      "type": "function",
      "constant": true
    },
    {
      "inputs": [
        {
          "internalType": "string",
          "name": "object",
          "type": "string"
        }
      ],
      "name": "isCertificatedEngines",
      "outputs": [
        {
          "internalType": "bool",
          "name": "",
          "type": "bool"
        }
      ],
      "stateMutability": "view",
      "type": "function",
      "constant": true
    },
    {
      "inputs": [],
      "name": "isM1",
      "outputs": [
        {
          "internalType": "bool",
          "name": "",
          "type": "bool"
        }
      ],
      "stateMutability": "view",
      "type": "function",
      "constant": true
    },
    {
      "inputs": [],
      "name": "isM2",
      "outputs": [
        {
          "internalType": "bool",
          "name": "",
          "type": "bool"
        }
      ],
      "stateMutability": "view",
      "type": "function",
      "constant": true
    },
    {
      "inputs": [],
      "name": "isF",
      "outputs": [
        {
          "internalType": "bool",
          "name": "",
          "type": "bool"
        }
      ],
      "stateMutability": "view",
      "type": "function",
      "constant": true
    },
    {
      "inputs": [],
      "name": "isG",
      "outputs": [
        {
          "internalType": "bool",
          "name": "",
          "type": "bool"
        }
      ],
      "stateMutability": "view",
      "type": "function",
      "constant": true
    }
  ],
  "bytecode": "0x60806040523480156200001157600080fd5b50600160008073984765fcd218d3937e4298dd1746b47828d5e9f873ffffffffffffffffffffffffffffffffffffffff1673ffffffffffffffffffffffffffffffffffffffff16815260200190815260200160002060006101000a81548160ff021916908315150217905550600180600073ccf44cea3140c0253d845d04973bc0d0e5eed16373ffffffffffffffffffffffffffffffffffffffff1673ffffffffffffffffffffffffffffffffffffffff16815260200190815260200160002060006101000a81548160ff0219169083151502179055506001600360007310cdeae4c0d04ad512e017e3f7d236a463c578bb73ffffffffffffffffffffffffffffffffffffffff1673ffffffffffffffffffffffffffffffffffffffff16815260200190815260200160002060006101000a81548160ff02191690831515021790555060016002600073eaaf394c2468442ecb543d43b11326903e27e31173ffffffffffffffffffffffffffffffffffffffff1673ffffffffffffffffffffffffffffffffffffffff16815260200190815260200160002060006101000a81548160ff0219169083151502179055506000620001da426028620003d960201b62001a441760201c565b9050806005600073984765fcd218d3937e4298dd1746b47828d5e9f873ffffffffffffffffffffffffffffffffffffffff1673ffffffffffffffffffffffffffffffffffffffff16815260200190815260200160002081905550806006600073ccf44cea3140c0253d845d04973bc0d0e5eed16373ffffffffffffffffffffffffffffffffffffffff1673ffffffffffffffffffffffffffffffffffffffff1681526020019081526020016000208190555080600760007310cdeae4c0d04ad512e017e3f7d236a463c578bb73ffffffffffffffffffffffffffffffffffffffff1673ffffffffffffffffffffffffffffffffffffffff16815260200190815260200160002081905550806008600073eaaf394c2468442ecb543d43b11326903e27e31173ffffffffffffffffffffffffffffffffffffffff1673ffffffffffffffffffffffffffffffffffffffff1681526020019081526020016000208190555073984765fcd218d3937e4298dd1746b47828d5e9f8600460006101000a81548173ffffffffffffffffffffffffffffffffffffffff021916908373ffffffffffffffffffffffffffffffffffffffff16021790555033600960006101000a81548173ffffffffffffffffffffffffffffffffffffffff021916908373ffffffffffffffffffffffffffffffffffffffff1602179055505062000487565b60008183620003e991906200042a565b905092915050565b6000819050919050565b7f4e487b7100000000000000000000000000000000000000000000000000000000600052601160045260246000fd5b60006200043782620003f1565b91506200044483620003f1565b9250827fffffffffffffffffffffffffffffffffffffffffffffffffffffffffffffffff038211156200047c576200047b620003fb565b5b828201905092915050565b61263880620004976000396000f3fe608060405234801561001057600080fd5b50600436106101375760003560e01c80637cfe1779116100b8578063a7e3d64c1161007c578063a7e3d64c14610334578063ae2c766714610364578063ce41e22214610382578063d87487711461039e578063d9172889146103ba578063dbc78964146103d857610137565b80637cfe177914610294578063862a9faf146102b05780638748a146146102cc57806397c974b1146102fc5780639e5c31961461031857610137565b80635a174a61116100ff5780635a174a61146101de5780635f64ab861461020e5780636354511f1461023e578063735a29c71461025c5780637aa3ae7e1461027857610137565b8063107b95dd1461013c578063188ad88a1461016c578063258c6647146101885780634767be39146101a6578063513f8c2f146101c2575b600080fd5b61015660048036038101906101519190611bb4565b6103f4565b6040516101639190611c18565b60405180910390f35b61018660048036038101906101819190611c69565b610444565b005b610190610720565b60405161019d9190611c18565b60405180910390f35b6101c060048036038101906101bb9190611c69565b610774565b005b6101dc60048036038101906101d79190611cc5565b610936565b005b6101f860048036038101906101f39190611bb4565b6109bd565b6040516102059190611c18565b60405180910390f35b61022860048036038101906102239190611bb4565b610a0d565b6040516102359190611c18565b60405180910390f35b610246610a5d565b6040516102539190611c18565b60405180910390f35b61027660048036038101906102719190611d2b565b610ab1565b005b610292600480360381019061028d9190611c69565b610bb4565b005b6102ae60048036038101906102a99190611c69565b610ea6565b005b6102ca60048036038101906102c59190611d2b565b611198565b005b6102e660048036038101906102e19190611bb4565b6112de565b6040516102f39190611c18565b60405180910390f35b61031660048036038101906103119190611d58565b61132e565b005b610332600480360381019061032d9190611d2b565b611458565b005b61034e60048036038101906103499190611bb4565b61155b565b60405161035b9190611c18565b60405180910390f35b61036c6115ab565b6040516103799190611c18565b60405180910390f35b61039c60048036038101906103979190611c69565b6115ff565b005b6103b860048036038101906103b39190611d2b565b6117c1565b005b6103c26118c4565b6040516103cf9190611c18565b60405180910390f35b6103f260048036038101906103ed9190611dd3565b611917565b005b6000600b60008360405160200161040b9190611ec8565b60405160208183030381529060405280519060200120815260200190815260200160002060009054906101000a900460ff169050919050565b601060026005811061045957610458611edf565b5b0154821361049c576040517f08c379a000000000000000000000000000000000000000000000000000000000815260040161049390611f6b565b60405180910390fd5b60011515600b6000836040516020016104b59190611ec8565b60405160208183030381529060405280519060200120815260200190815260200160002060009054906101000a900460ff16151514610529576040517f08c379a000000000000000000000000000000000000000000000000000000000815260040161052090611fd7565b60405180910390fd5b60011515600a6000836040516020016105429190611ec8565b60405160208183030381529060405280519060200120815260200190815260200160002060009054906101000a900460ff161515146105b6576040517f08c379a00000000000000000000000000000000000000000000000000000000081526004016105ad90612043565b60405180910390fd5b60011515600360003373ffffffffffffffffffffffffffffffffffffffff1673ffffffffffffffffffffffffffffffffffffffff16815260200190815260200160002060009054906101000a900460ff16151514610649576040517f08c379a0000000000000000000000000000000000000000000000000000000008152600401610640906120af565b60405180910390fd5b42600860003373ffffffffffffffffffffffffffffffffffffffff1673ffffffffffffffffffffffffffffffffffffffff16815260200190815260200160002054116106ca576040517f08c379a00000000000000000000000000000000000000000000000000000000081526004016106c19061211b565b60405180910390fd5b6001600e6000836040516020016106e19190611ec8565b60405160208183030381529060405280519060200120815260200190815260200160002060006101000a81548160ff0219169083151502179055505050565b6000600160003373ffffffffffffffffffffffffffffffffffffffff1673ffffffffffffffffffffffffffffffffffffffff16815260200190815260200160002060009054906101000a900460ff16905090565b601060006005811061078957610788611edf565b5b015482136107cc576040517f08c379a00000000000000000000000000000000000000000000000000000000081526004016107c390612187565b60405180910390fd5b60011515600360003373ffffffffffffffffffffffffffffffffffffffff1673ffffffffffffffffffffffffffffffffffffffff16815260200190815260200160002060009054906101000a900460ff1615151461085f576040517f08c379a0000000000000000000000000000000000000000000000000000000008152600401610856906120af565b60405180910390fd5b42600860003373ffffffffffffffffffffffffffffffffffffffff1673ffffffffffffffffffffffffffffffffffffffff16815260200190815260200160002054116108e0576040517f08c379a00000000000000000000000000000000000000000000000000000000081526004016108d79061211b565b60405180910390fd5b6001600b6000836040516020016108f79190611ec8565b60405160208183030381529060405280519060200120815260200190815260200160002060006101000a81548160ff0219169083151502179055505050565b60038113610979576040517f08c379a0000000000000000000000000000000000000000000000000000000008152600401610970906121f3565b60405180910390fd5b33600460006101000a81548173ffffffffffffffffffffffffffffffffffffffff021916908373ffffffffffffffffffffffffffffffffffffffff16021790555050565b6000600e6000836040516020016109d49190611ec8565b60405160208183030381529060405280519060200120815260200190815260200160002060009054906101000a900460ff169050919050565b6000600c600083604051602001610a249190611ec8565b60405160208183030381529060405280519060200120815260200190815260200160002060009054906101000a900460ff169050919050565b6000600260003373ffffffffffffffffffffffffffffffffffffffff1673ffffffffffffffffffffffffffffffffffffffff16815260200190815260200160002060009054906101000a900460ff16905090565b6015600160058110610ac657610ac5611edf565b5b01548160000b13610b0c576040517f08c379a0000000000000000000000000000000000000000000000000000000008152600401610b039061225f565b60405180910390fd5b610b17426028611a44565b600660003373ffffffffffffffffffffffffffffffffffffffff1673ffffffffffffffffffffffffffffffffffffffff1681526020019081526020016000208190555060016000803373ffffffffffffffffffffffffffffffffffffffff1673ffffffffffffffffffffffffffffffffffffffff16815260200190815260200160002060006101000a81548160ff02191690831515021790555050565b6010600360058110610bc957610bc8611edf565b5b01548213610c0c576040517f08c379a0000000000000000000000000000000000000000000000000000000008152600401610c03906122cb565b60405180910390fd5b60011515600e600083604051602001610c259190611ec8565b60405160208183030381529060405280519060200120815260200190815260200160002060009054906101000a900460ff16151514610c99576040517f08c379a0000000000000000000000000000000000000000000000000000000008152600401610c9090612337565b60405180910390fd5b60011515600260003373ffffffffffffffffffffffffffffffffffffffff1673ffffffffffffffffffffffffffffffffffffffff16815260200190815260200160002060009054906101000a900460ff1615151480610d475750600115156000803373ffffffffffffffffffffffffffffffffffffffff1673ffffffffffffffffffffffffffffffffffffffff16815260200190815260200160002060009054906101000a900460ff161515145b610d86576040517f08c379a0000000000000000000000000000000000000000000000000000000008152600401610d7d906120af565b60405180910390fd5b42600760003373ffffffffffffffffffffffffffffffffffffffff1673ffffffffffffffffffffffffffffffffffffffff168152602001908152602001600020541180610e11575042600560003373ffffffffffffffffffffffffffffffffffffffff1673ffffffffffffffffffffffffffffffffffffffff16815260200190815260200160002054115b610e50576040517f08c379a0000000000000000000000000000000000000000000000000000000008152600401610e479061211b565b60405180910390fd5b6001600c600083604051602001610e679190611ec8565b60405160208183030381529060405280519060200120815260200190815260200160002060006101000a81548160ff0219169083151502179055505050565b6010600460058110610ebb57610eba611edf565b5b01548213610efe576040517f08c379a0000000000000000000000000000000000000000000000000000000008152600401610ef5906122cb565b60405180910390fd5b60011515600c600083604051602001610f179190611ec8565b60405160208183030381529060405280519060200120815260200190815260200160002060009054906101000a900460ff16151514610f8b576040517f08c379a0000000000000000000000000000000000000000000000000000000008152600401610f8290612337565b60405180910390fd5b600115156000803373ffffffffffffffffffffffffffffffffffffffff1673ffffffffffffffffffffffffffffffffffffffff16815260200190815260200160002060009054906101000a900460ff1615151480611039575060011515600160003373ffffffffffffffffffffffffffffffffffffffff1673ffffffffffffffffffffffffffffffffffffffff16815260200190815260200160002060009054906101000a900460ff161515145b611078576040517f08c379a000000000000000000000000000000000000000000000000000000000815260040161106f906120af565b60405180910390fd5b42600560003373ffffffffffffffffffffffffffffffffffffffff1673ffffffffffffffffffffffffffffffffffffffff168152602001908152602001600020541180611103575042600660003373ffffffffffffffffffffffffffffffffffffffff1673ffffffffffffffffffffffffffffffffffffffff16815260200190815260200160002054115b611142576040517f08c379a00000000000000000000000000000000000000000000000000000000081526004016111399061211b565b60405180910390fd5b6001600e6000836040516020016111599190611ec8565b60405160208183030381529060405280519060200120815260200190815260200160002060006101000a81548160ff0219169083151502179055505050565b60156000600581106111ad576111ac611edf565b5b01548160000b136111f3576040517f08c379a00000000000000000000000000000000000000000000000000000000081526004016111ea906123a3565b60405180910390fd5b6111fe426028611a44565b600560003373ffffffffffffffffffffffffffffffffffffffff1673ffffffffffffffffffffffffffffffffffffffff1681526020019081526020016000208190555060016000803373ffffffffffffffffffffffffffffffffffffffff1673ffffffffffffffffffffffffffffffffffffffff16815260200190815260200160002060006101000a81548160ff0219169083151502179055503373ffffffffffffffffffffffffffffffffffffffff167f2756cd91fb7c0be01353207b0107f45f9dbe5f2837c4a796fe7d95c060d7588260405160405180910390a250565b6000600e6000836040516020016112f59190611ec8565b60405160208183030381529060405280519060200120815260200190815260200160002060009054906101000a900460ff169050919050565b600460009054906101000a900473ffffffffffffffffffffffffffffffffffffffff1673ffffffffffffffffffffffffffffffffffffffff163373ffffffffffffffffffffffffffffffffffffffff16146113be576040517f08c379a00000000000000000000000000000000000000000000000000000000081526004016113b59061240f565b60405180910390fd5b8460000b60106000600581106113d7576113d6611edf565b5b01819055508360000b60106001600581106113f5576113f4611edf565b5b01819055508260000b601060026005811061141357611412611edf565b5b01819055508160000b601060036005811061143157611430611edf565b5b018190555080601060046005811061144c5761144b611edf565b5b01819055505050505050565b601560026005811061146d5761146c611edf565b5b01548160000b136114b3576040517f08c379a00000000000000000000000000000000000000000000000000000000081526004016114aa9061247b565b60405180910390fd5b6114be426028611a44565b600760003373ffffffffffffffffffffffffffffffffffffffff1673ffffffffffffffffffffffffffffffffffffffff1681526020019081526020016000208190555060016000803373ffffffffffffffffffffffffffffffffffffffff1673ffffffffffffffffffffffffffffffffffffffff16815260200190815260200160002060006101000a81548160ff02191690831515021790555050565b6000600a6000836040516020016115729190611ec8565b60405160208183030381529060405280519060200120815260200190815260200160002060009054906101000a900460ff169050919050565b6000600360003373ffffffffffffffffffffffffffffffffffffffff1673ffffffffffffffffffffffffffffffffffffffff16815260200190815260200160002060009054906101000a900460ff16905090565b601060016005811061161457611613611edf565b5b01548213611657576040517f08c379a000000000000000000000000000000000000000000000000000000000815260040161164e906124e7565b60405180910390fd5b60011515600260003373ffffffffffffffffffffffffffffffffffffffff1673ffffffffffffffffffffffffffffffffffffffff16815260200190815260200160002060009054906101000a900460ff161515146116ea576040517f08c379a00000000000000000000000000000000000000000000000000000000081526004016116e1906120af565b60405180910390fd5b42600760003373ffffffffffffffffffffffffffffffffffffffff1673ffffffffffffffffffffffffffffffffffffffff168152602001908152602001600020541161176b576040517f08c379a00000000000000000000000000000000000000000000000000000000081526004016117629061211b565b60405180910390fd5b6001600a6000836040516020016117829190611ec8565b60405160208183030381529060405280519060200120815260200190815260200160002060006101000a81548160ff0219169083151502179055505050565b60156004600581106117d6576117d5611edf565b5b01548160000b1361181c576040517f08c379a000000000000000000000000000000000000000000000000000000000815260040161181390612553565b60405180910390fd5b611827426028611a44565b600860003373ffffffffffffffffffffffffffffffffffffffff1673ffffffffffffffffffffffffffffffffffffffff1681526020019081526020016000208190555060016000803373ffffffffffffffffffffffffffffffffffffffff1673ffffffffffffffffffffffffffffffffffffffff16815260200190815260200160002060006101000a81548160ff02191690831515021790555050565b60008060003373ffffffffffffffffffffffffffffffffffffffff1673ffffffffffffffffffffffffffffffffffffffff16815260200190815260200160002060009054906101000a900460ff16905090565b600460009054906101000a900473ffffffffffffffffffffffffffffffffffffffff1673ffffffffffffffffffffffffffffffffffffffff163373ffffffffffffffffffffffffffffffffffffffff16146119a7576040517f08c379a000000000000000000000000000000000000000000000000000000000815260040161199e9061240f565b60405180910390fd5b8460000b60156000600581106119c0576119bf611edf565b5b01819055508360000b60156001600581106119de576119dd611edf565b5b01819055508260000b60156002600581106119fc576119fb611edf565b5b01819055508160000b6015600360058110611a1a57611a19611edf565b5b01819055508060000b6015600460058110611a3857611a37611edf565b5b01819055505050505050565b60008183611a5291906125ac565b905092915050565b6000604051905090565b600080fd5b600080fd5b600080fd5b600080fd5b6000601f19601f8301169050919050565b7f4e487b7100000000000000000000000000000000000000000000000000000000600052604160045260246000fd5b611ac182611a78565b810181811067ffffffffffffffff82111715611ae057611adf611a89565b5b80604052505050565b6000611af3611a5a565b9050611aff8282611ab8565b919050565b600067ffffffffffffffff821115611b1f57611b1e611a89565b5b611b2882611a78565b9050602081019050919050565b82818337600083830152505050565b6000611b57611b5284611b04565b611ae9565b905082815260208101848484011115611b7357611b72611a73565b5b611b7e848285611b35565b509392505050565b600082601f830112611b9b57611b9a611a6e565b5b8135611bab848260208601611b44565b91505092915050565b600060208284031215611bca57611bc9611a64565b5b600082013567ffffffffffffffff811115611be857611be7611a69565b5b611bf484828501611b86565b91505092915050565b60008115159050919050565b611c1281611bfd565b82525050565b6000602082019050611c2d6000830184611c09565b92915050565b6000819050919050565b611c4681611c33565b8114611c5157600080fd5b50565b600081359050611c6381611c3d565b92915050565b60008060408385031215611c8057611c7f611a64565b5b6000611c8e85828601611c54565b925050602083013567ffffffffffffffff811115611caf57611cae611a69565b5b611cbb85828601611b86565b9150509250929050565b600060208284031215611cdb57611cda611a64565b5b6000611ce984828501611c54565b91505092915050565b60008160000b9050919050565b611d0881611cf2565b8114611d1357600080fd5b50565b600081359050611d2581611cff565b92915050565b600060208284031215611d4157611d40611a64565b5b6000611d4f84828501611d16565b91505092915050565b600080600080600060a08688031215611d7457611d73611a64565b5b6000611d8288828901611d16565b9550506020611d9388828901611d16565b9450506040611da488828901611d16565b9350506060611db588828901611d16565b9250506080611dc688828901611c54565b9150509295509295909350565b600080600080600060a08688031215611def57611dee611a64565b5b6000611dfd88828901611d16565b9550506020611e0e88828901611d16565b9450506040611e1f88828901611d16565b9350506060611e3088828901611d16565b9250506080611e4188828901611d16565b9150509295509295909350565b600081519050919050565b600081905092915050565b60005b83811015611e82578082015181840152602081019050611e67565b83811115611e91576000848401525b50505050565b6000611ea282611e4e565b611eac8185611e59565b9350611ebc818560208601611e64565b80840191505092915050565b6000611ed48284611e97565b915081905092915050565b7f4e487b7100000000000000000000000000000000000000000000000000000000600052603260045260246000fd5b600082825260208201905092915050565b7f6e6f742076616c69642054687265616473000000000000000000000000000000600082015250565b6000611f55601183611f0e565b9150611f6082611f1f565b602082019050919050565b60006020820190508181036000830152611f8481611f48565b9050919050565b7f6e6f7420666f756e6420537465656c7300000000000000000000000000000000600082015250565b6000611fc1601083611f0e565b9150611fcc82611f8b565b602082019050919050565b60006020820190508181036000830152611ff081611fb4565b9050919050565b7f6e6f7420666f756e6420436f7070657273000000000000000000000000000000600082015250565b600061202d601183611f0e565b915061203882611ff7565b602082019050919050565b6000602082019050818103600083015261205c81612020565b9050919050565b7f796f7520617265206e6f74207175616c69666965642075736572000000000000600082015250565b6000612099601a83611f0e565b91506120a482612063565b602082019050919050565b600060208201905081810360008301526120c88161208c565b9050919050565b7f796f75722074696d65206f6620757361676520656e6400000000000000000000600082015250565b6000612105601683611f0e565b9150612110826120cf565b602082019050919050565b60006020820190508181036000830152612134816120f8565b9050919050565b7f6e6f742076616c696420537465656c7300000000000000000000000000000000600082015250565b6000612171601083611f0e565b915061217c8261213b565b602082019050919050565b600060208201905081810360008301526121a081612164565b9050919050565b7f796f75206172656e277420612063657469666965720000000000000000000000600082015250565b60006121dd601583611f0e565b91506121e8826121a7565b602082019050919050565b6000602082019050818103600083015261220c816121d0565b9050919050565b7f796f75206172656e27742061206d320000000000000000000000000000000000600082015250565b6000612249600f83611f0e565b915061225482612213565b602082019050919050565b600060208201905081810360008301526122788161223c565b9050919050565b7f6e6f742076616c69642043616765730000000000000000000000000000000000600082015250565b60006122b5600f83611f0e565b91506122c08261227f565b602082019050919050565b600060208201905081810360008301526122e4816122a8565b9050919050565b7f6e6f7420666f756e642054687265616473000000000000000000000000000000600082015250565b6000612321601183611f0e565b915061232c826122eb565b602082019050919050565b6000602082019050818103600083015261235081612314565b9050919050565b7f796f75206172656e27742061206d310000000000000000000000000000000000600082015250565b600061238d600f83611f0e565b915061239882612357565b602082019050919050565b600060208201905081810360008301526123bc81612380565b9050919050565b7f796f7520617265206e6f74206120636572746966696572000000000000000000600082015250565b60006123f9601783611f0e565b9150612404826123c3565b602082019050919050565b60006020820190508181036000830152612428816123ec565b9050919050565b7f796f75206172656e277420612047000000000000000000000000000000000000600082015250565b6000612465600e83611f0e565b91506124708261242f565b602082019050919050565b6000602082019050818103600083015261249481612458565b9050919050565b7f6e6f742076616c696420436f7070657273000000000000000000000000000000600082015250565b60006124d1601183611f0e565b91506124dc8261249b565b602082019050919050565b60006020820190508181036000830152612500816124c4565b9050919050565b7f796f75206172656e277420612046000000000000000000000000000000000000600082015250565b600061253d600e83611f0e565b915061254882612507565b602082019050919050565b6000602082019050818103600083015261256c81612530565b9050919050565b6000819050919050565b7f4e487b7100000000000000000000000000000000000000000000000000000000600052601160045260246000fd5b60006125b782612573565b91506125c283612573565b9250827fffffffffffffffffffffffffffffffffffffffffffffffffffffffffffffffff038211156125f7576125f661257d565b5b82820190509291505056fea264697066735822122020e61ef1fa6d3736a990579362d325222c8b26c820798a8d84da1829f8c199ae64736f6c634300080d0033",
  "immutableReferences": {},
  "source": "// SPDX-License-Identifier: MIT\npragma solidity ^0.8.0;\n\nimport \"@openzeppelin/contracts/utils/math/SafeMath.sol\";\n\ncontract ElectricEngine {\n\n    mapping(address => bool) private m1;\n    mapping(address => bool) private m2;\n    mapping(address => bool) private g;\n    mapping(address => bool) private f;\n    address private certifier; //who specified the parameter for the verification.\n\n    mapping(address => uint256) private timem1;\n    mapping(address => uint256) private timem2;\n    mapping(address => uint256) private timeg;\n    mapping(address => uint256) private timef;\n\n    address private owner;\n\n    mapping(bytes32 => bool) private bubbleCopper;\n    mapping(bytes32 => bool) private bubbleSteel;\n    mapping(bytes32 => bool) private cages;\n    mapping(bytes32 => bool) private engines;\n    mapping(bytes32 => bool) private threads;\n\n \n    mapping(address => uint256) private storedItems;\n\n    event addedm1(address indexed user);\n    \n    int[5] private proof;\n    int[5] private info;\n\n    constructor(){\n\n      m1[0x984765fCd218D3937E4298Dd1746b47828D5E9f8] = true;\n      m2[0xCCf44CeA3140c0253D845D04973bC0D0E5eED163] = true;\n      f[0x10CdeAE4C0d04aD512E017E3F7d236a463c578bB] = true;\n      g[0xeaaF394C2468442eCb543d43B11326903e27e311] = true;\n      uint256 time = SafeMath.add(block.timestamp, 40);\n      timem1[0x984765fCd218D3937E4298Dd1746b47828D5E9f8] = time;\n      timem2[0xCCf44CeA3140c0253D845D04973bC0D0E5eED163] = time;\n      timeg[0x10CdeAE4C0d04aD512E017E3F7d236a463c578bB] = time;\n      timef[0xeaaF394C2468442eCb543d43B11326903e27e311] = time;\n      certifier = 0x984765fCd218D3937E4298Dd1746b47828D5E9f8;\n      owner = msg.sender;\n\n\n     \n    }\n\n    \n    \n    \n\n    function UserInfos( int8 info1, int8 info2, int8 info3, int8 info4, int8 info5) external{\n        require(msg.sender == certifier, \"you are not a certifier\");\n        info[0] = info1;\n        info[1] = info2;\n        info[2] = info3;\n        info[3] = info4;\n        info[4] = info5;\n\n    }\n\n    function UserProofs(int8 proof1, int8 proof2, int8 proof3, int8 proof4, int proof5) external{\n        require(msg.sender == certifier, \"you are not a certifier\");\n        proof[0] = proof1;\n        proof[1] = proof2;\n        proof[2] = proof3;\n        proof[3] = proof4;\n        proof[4] = proof5;\n\n    }\n\n    function addcertifier(int infop) external{\n        require(infop>3,\"you aren't a cetifier\");\n        certifier = msg.sender;\n\n    }\n\n    function addm1(int8 infop) external {\n        require(infop>info[0],\"you aren't a m1\");\n        timem1[msg.sender] = SafeMath.add(block.timestamp, 40);\n        m1[msg.sender] = true;\n        emit addedm1(msg.sender);\n    } \n\n    function addm2(int8 infop) external {\n        require(infop>info[1],\"you aren't a m2\");\n        timem2[msg.sender] = SafeMath.add(block.timestamp, 40);\n        m1[msg.sender] = true;\n    } \n\n    function addG(int8 infop) external {\n        require(infop>info[2],\"you aren't a G\");\n        timeg[msg.sender] = SafeMath.add(block.timestamp, 40);\n        m1[msg.sender] = true;\n    } \n\n    function addmF(int8 infop) external {\n        require(infop>info[4],\"you aren't a F\");\n        timef[msg.sender] = SafeMath.add(block.timestamp, 40);\n        m1[msg.sender] = true;\n    } \n\n\n    function certificateSteels(int proofo, string memory object) external {\n      \n        require(proofo>proof[0],\"not valid Steels\");\n        require(f[msg.sender] == true, \"you are not qualified user\");\n        require(timef[msg.sender]>block.timestamp, \"your time of usage end\");\n        bubbleSteel[keccak256(abi.encodePacked(object))] = true;\n    }   \n\n    function certificateCoppers(int proofo, string memory object) external {\n        require(proofo>proof[1],\"not valid Coppers\");\n        require(g[msg.sender] == true, \"you are not qualified user\");\n        require(timeg[msg.sender]>block.timestamp, \"your time of usage end\");\n        bubbleCopper[keccak256(abi.encodePacked(object))] = true;\n    }   \n\n    function certificateThreads(int proofo, string memory object) external {\n        require(proofo>proof[2],\"not valid Threads\");\n        require(bubbleSteel[keccak256(abi.encodePacked(object))] == true, \"not found Steels\");\n        require(bubbleCopper[keccak256(abi.encodePacked(object))] == true, \"not found Coppers\");\n        require(f[msg.sender] == true, \"you are not qualified user\");\n        require(timef[msg.sender]>block.timestamp, \"your time of usage end\");\n        threads[keccak256(abi.encodePacked(object))] = true;\n    } \n\n    function certificateCages(int proofo, string memory object) external {\n        require(proofo>proof[3],\"not valid Cages\");\n        require(threads[keccak256(abi.encodePacked(object))] == true, \"not found Threads\");\n        require(g[msg.sender] == true || m1[msg.sender] == true, \"you are not qualified user\"); //sistemare\n        require(timeg[msg.sender]>block.timestamp || timem1[msg.sender]>block.timestamp, \"your time of usage end\"); //sistemare\n        cages[keccak256(abi.encodePacked(object))] = true;\n    } \n\n    function certificateEngines(int proofo, string memory object) external {\n        require(proofo>proof[4],\"not valid Cages\");\n        require(cages[keccak256(abi.encodePacked(object))] == true, \"not found Threads\");\n        require(m1[msg.sender] == true || m2[msg.sender] == true, \"you are not qualified user\");//sistemare\n        require(timem1[msg.sender]>block.timestamp || timem2[msg.sender]>block.timestamp, \"your time of usage end\"); //sistemare\n        threads[keccak256(abi.encodePacked(object))] = true;\n    } \n\n    function isCertificatesSteels(string memory object) view external returns(bool) {\n        return bubbleSteel[keccak256(abi.encodePacked(object))];\n    }   \n\n    function isCertificatedCoppers(string memory object) view external returns(bool){\n   \n        return bubbleCopper[keccak256(abi.encodePacked(object))];\n    }   \n\n    function isCertificatedThreads(string memory object) view external returns(bool){\n      \n        return threads[keccak256(abi.encodePacked(object))];\n    } \n\n    function isCertificatedCages(string memory object) view external returns(bool){\n \n        return cages[keccak256(abi.encodePacked(object))];\n    } \n\n    function isCertificatedEngines(string memory object) view external returns(bool){\n    \n        return threads[keccak256(abi.encodePacked(object))];\n    } \n\n   function isM1() view external returns(bool) {\n        return m1[msg.sender];\n    }   \n\n    function isM2() view external returns(bool){\n   \n        return m2[msg.sender];\n    }   \n\n    function isF() view external returns(bool){\n      \n        return f[msg.sender];\n    } \n\n    function isG() view external returns(bool){\n \n        return g[msg.sender];\n    } \n\n\n\n\n\n\n    /*function payStorageFee() external payable {\n        require(msg.sender == customer, \"Only the customer can pay the storage fee\");\n        require(msg.value > 0, \"Storage fee should be greater than zero\");\n        balances[storageProvider] += msg.value;\n        emit StorageFeePaid(msg.sender, msg.value);\n    }\n\n    function storeItems(uint256 _amount) external {\n        require(msg.sender == customer, \"Only the customer can store items\");\n        require(balances[customer] >= _amount, \"Insufficient balance to store items\");\n        balances[customer] -= _amount;\n        storedItems[customer] += _amount;\n        emit ItemsStored(msg.sender, _amount);\n    }\n\n    function retrieveItems(uint256 _amount) external {\n        require(msg.sender == customer, \"Only the customer can retrieve items\");\n        require(storedItems[customer] >= _amount, \"Insufficient stored items to retrieve\");\n        storedItems[customer] -= _amount;\n        balances[customer] += _amount;\n        emit ItemsRetrieved(msg.sender, _amount);\n    }*/\n}\n\n",
  "sourcePath": "/home/parallels/Desktop/BLOCK_PROJ/BlockchainProject/Proj_source/contracts/Proj_contract.sol",
  "compiler": {
    "name": "solc",
    "version": "0.8.13+commit.abaa5c0e.Emscripten.clang"
  },
  "schemaVersion": "3.4.13",
  "updatedAt": "2023-06-25T19:39:10.982Z",
  "networkType": "ethereum",
  "devdoc": {
    "kind": "dev",
    "methods": {},
    "version": 1
  },
  "userdoc": {
    "kind": "user",
    "methods": {},
    "version": 1
  }
}