{
  "contractName": "ElectricPump",
  "abi": [
    {
      "inputs": [],
      "stateMutability": "nonpayable",
      "type": "constructor"
    },
    {
      "anonymous": false,
      "inputs": [
        {
          "indexed": true,
          "internalType": "address",
          "name": "user",
          "type": "address"
        }
      ],
      "name": "addedm1",
      "type": "event"
    },
    {
      "anonymous": false,
      "inputs": [
        {
          "indexed": true,
          "internalType": "address",
          "name": "user",
          "type": "address"
        }
      ],
      "name": "addedm2",
      "type": "event"
    },
    {
      "anonymous": false,
      "inputs": [
        {
          "indexed": true,
          "internalType": "uint256",
          "name": "fatt",
          "type": "uint256"
        },
        {
          "indexed": true,
          "internalType": "address",
          "name": "user",
          "type": "address"
        },
        {
          "indexed": false,
          "internalType": "string",
          "name": "producer",
          "type": "string"
        }
      ],
      "name": "certBody",
      "type": "event"
    },
    {
      "anonymous": false,
      "inputs": [
        {
          "indexed": true,
          "internalType": "uint256",
          "name": "fatt",
          "type": "uint256"
        },
        {
          "indexed": true,
          "internalType": "address",
          "name": "user",
          "type": "address"
        },
        {
          "indexed": false,
          "internalType": "string",
          "name": "producer",
          "type": "string"
        }
      ],
      "name": "certEngine",
      "type": "event"
    },
    {
      "anonymous": false,
      "inputs": [
        {
          "indexed": true,
          "internalType": "string",
          "name": "lot",
          "type": "string"
        },
        {
          "indexed": true,
          "internalType": "address",
          "name": "user",
          "type": "address"
        }
      ],
      "name": "certPump",
      "type": "event"
    },
    {
      "inputs": [
        {
          "internalType": "int256",
          "name": "infop",
          "type": "int256"
        }
      ],
      "name": "addcertifier",
      "outputs": [],
      "stateMutability": "nonpayable",
      "type": "function"
    },
    {
      "inputs": [
        {
          "internalType": "address",
          "name": "ut1",
          "type": "address"
        }
      ],
      "name": "addm1",
      "outputs": [],
      "stateMutability": "nonpayable",
      "type": "function"
    },
    {
      "inputs": [
        {
          "internalType": "address",
          "name": "ut2",
          "type": "address"
        }
      ],
      "name": "addm2",
      "outputs": [],
      "stateMutability": "nonpayable",
      "type": "function"
    },
    {
      "inputs": [
        {
          "internalType": "address",
          "name": "ut1",
          "type": "address"
        }
      ],
      "name": "delm1",
      "outputs": [],
      "stateMutability": "nonpayable",
      "type": "function"
    },
    {
      "inputs": [
        {
          "internalType": "address",
          "name": "ut2",
          "type": "address"
        }
      ],
      "name": "delm2",
      "outputs": [],
      "stateMutability": "nonpayable",
      "type": "function"
    },
    {
      "inputs": [],
      "name": "isCertifier_",
      "outputs": [
        {
          "internalType": "bool",
          "name": "",
          "type": "bool"
        }
      ],
      "stateMutability": "view",
      "type": "function",
      "constant": true
    },
    {
      "inputs": [],
      "name": "isM1",
      "outputs": [
        {
          "internalType": "bool",
          "name": "",
          "type": "bool"
        }
      ],
      "stateMutability": "view",
      "type": "function",
      "constant": true
    },
    {
      "inputs": [],
      "name": "isM2",
      "outputs": [
        {
          "internalType": "bool",
          "name": "",
          "type": "bool"
        }
      ],
      "stateMutability": "view",
      "type": "function",
      "constant": true
    },
    {
      "inputs": [
        {
          "internalType": "uint256",
          "name": "fatt",
          "type": "uint256"
        },
        {
          "internalType": "string",
          "name": "producer",
          "type": "string"
        }
      ],
      "name": "certificateEngine",
      "outputs": [],
      "stateMutability": "nonpayable",
      "type": "function"
    },
    {
      "inputs": [
        {
          "internalType": "uint256",
          "name": "fatt",
          "type": "uint256"
        },
        {
          "internalType": "string",
          "name": "producer",
          "type": "string"
        }
      ],
      "name": "certificateBody",
      "outputs": [],
      "stateMutability": "nonpayable",
      "type": "function"
    },
    {
      "inputs": [
        {
          "internalType": "uint256",
          "name": "fatt",
          "type": "uint256"
        }
      ],
      "name": "isCertificatedBodies",
      "outputs": [
        {
          "internalType": "bool",
          "name": "",
          "type": "bool"
        }
      ],
      "stateMutability": "view",
      "type": "function",
      "constant": true
    },
    {
      "inputs": [
        {
          "internalType": "uint256",
          "name": "fatt",
          "type": "uint256"
        }
      ],
      "name": "isCertificatedPumps",
      "outputs": [
        {
          "internalType": "bool",
          "name": "",
          "type": "bool"
        }
      ],
      "stateMutability": "view",
      "type": "function",
      "constant": true
    },
    {
      "inputs": [
        {
          "internalType": "string",
          "name": "lot",
          "type": "string"
        }
      ],
      "name": "isCertificatedEngines",
      "outputs": [
        {
          "internalType": "bool",
          "name": "",
          "type": "bool"
        }
      ],
      "stateMutability": "view",
      "type": "function",
      "constant": true
    }
  ],
  "bytecode": "0x608060405234801561001057600080fd5b5033600260006101000a81548173ffffffffffffffffffffffffffffffffffffffff021916908373ffffffffffffffffffffffffffffffffffffffff1602179055506117e6806100616000396000f3fe608060405234801561001057600080fd5b50600436106100cf5760003560e01c806350a7c8561161008c5780635f7a9801116100665780635f7a9801146101fc5780638748a14614610218578063c477cc5f14610248578063d917288914610264576100cf565b806350a7c85614610194578063513f8c2f146101b05780635dea12cc146101cc576100cf565b8063041b1a7b146100d457806307890067146100f2578063143823f81461010e578063258c66471461013e57806327a6a7d11461015c578063377c69bd14610178575b600080fd5b6100dc610282565b6040516100e99190610fff565b60405180910390f35b61010c6004803603810190610107919061108c565b6102da565b005b610128600480360381019061012391906110ef565b610566565b6040516101359190610fff565b60405180910390f35b6101466105b6565b6040516101539190610fff565b60405180910390f35b61017660048036038101906101719190611262565b61060a565b005b610192600480360381019061018d919061108c565b6107c2565b005b6101ae60048036038101906101a99190611262565b6108ea565b005b6101ca60048036038101906101c591906112f4565b610aa2565b005b6101e660048036038101906101e191906110ef565b610b29565b6040516101f39190610fff565b60405180910390f35b6102166004803603810190610211919061108c565b610b79565b005b610232600480360381019061022d9190611321565b610e05565b60405161023f9190610fff565b60405180910390f35b610262600480360381019061025d919061108c565b610e55565b005b61026c610f7b565b6040516102799190610fff565b60405180910390f35b60003373ffffffffffffffffffffffffffffffffffffffff16600260009054906101000a900473ffffffffffffffffffffffffffffffffffffffff1673ffffffffffffffffffffffffffffffffffffffff1614905090565b3373ffffffffffffffffffffffffffffffffffffffff16600260009054906101000a900473ffffffffffffffffffffffffffffffffffffffff1673ffffffffffffffffffffffffffffffffffffffff161461036a576040517f08c379a0000000000000000000000000000000000000000000000000000000008152600401610361906113c7565b60405180910390fd5b8073ffffffffffffffffffffffffffffffffffffffff16600260009054906101000a900473ffffffffffffffffffffffffffffffffffffffff1673ffffffffffffffffffffffffffffffffffffffff16036103fa576040517f08c379a00000000000000000000000000000000000000000000000000000000081526004016103f190611433565b60405180910390fd5b43600360008373ffffffffffffffffffffffffffffffffffffffff1673ffffffffffffffffffffffffffffffffffffffff168152602001908152602001600020541061047b576040517f08c379a00000000000000000000000000000000000000000000000000000000081526004016104729061149f565b60405180910390fd5b610486436028610fce565b600360008373ffffffffffffffffffffffffffffffffffffffff1673ffffffffffffffffffffffffffffffffffffffff1681526020019081526020016000208190555060016000808373ffffffffffffffffffffffffffffffffffffffff1673ffffffffffffffffffffffffffffffffffffffff16815260200190815260200160002060006101000a81548160ff0219169083151502179055508073ffffffffffffffffffffffffffffffffffffffff167f2756cd91fb7c0be01353207b0107f45f9dbe5f2837c4a796fe7d95c060d7588260405160405180910390a250565b6000600560008360405160200161057d91906114e0565b60405160208183030381529060405280519060200120815260200190815260200160002060009054906101000a900460ff169050919050565b6000600160003373ffffffffffffffffffffffffffffffffffffffff1673ffffffffffffffffffffffffffffffffffffffff16815260200190815260200160002060009054906101000a900460ff16905090565b600115156000803373ffffffffffffffffffffffffffffffffffffffff1673ffffffffffffffffffffffffffffffffffffffff16815260200190815260200160002060009054906101000a900460ff1615151461069c576040517f08c379a000000000000000000000000000000000000000000000000000000000815260040161069390611547565b60405180910390fd5b43600360003373ffffffffffffffffffffffffffffffffffffffff1673ffffffffffffffffffffffffffffffffffffffff168152602001908152602001600020541161071d576040517f08c379a0000000000000000000000000000000000000000000000000000000008152600401610714906115b3565b60405180910390fd5b6001600760008460405160200161073491906114e0565b60405160208183030381529060405280519060200120815260200190815260200160002060006101000a81548160ff0219169083151502179055503373ffffffffffffffffffffffffffffffffffffffff16827fae896347b69b86c73035885156e34afa655820d19bd2bf6af5030d92504fbc52836040516107b6919061164a565b60405180910390a35050565b60011515600160003373ffffffffffffffffffffffffffffffffffffffff1673ffffffffffffffffffffffffffffffffffffffff16815260200190815260200160002060009054906101000a900460ff16151514610855576040517f08c379a000000000000000000000000000000000000000000000000000000000815260040161084c90611547565b60405180910390fd5b600460008273ffffffffffffffffffffffffffffffffffffffff1673ffffffffffffffffffffffffffffffffffffffff16815260200190815260200160002060009055600160008273ffffffffffffffffffffffffffffffffffffffff1673ffffffffffffffffffffffffffffffffffffffff16815260200190815260200160002060006101000a81549060ff021916905550565b600115156000803373ffffffffffffffffffffffffffffffffffffffff1673ffffffffffffffffffffffffffffffffffffffff16815260200190815260200160002060009054906101000a900460ff1615151461097c576040517f08c379a000000000000000000000000000000000000000000000000000000000815260040161097390611547565b60405180910390fd5b43600360003373ffffffffffffffffffffffffffffffffffffffff1673ffffffffffffffffffffffffffffffffffffffff16815260200190815260200160002054116109fd576040517f08c379a00000000000000000000000000000000000000000000000000000000081526004016109f4906115b3565b60405180910390fd5b60016005600084604051602001610a1491906114e0565b60405160208183030381529060405280519060200120815260200190815260200160002060006101000a81548160ff0219169083151502179055503373ffffffffffffffffffffffffffffffffffffffff16827fc5de4dc559709017f38644da79f99d5a40af2d5898fa3e11929b51423829005e83604051610a96919061164a565b60405180910390a35050565b60038113610ae5576040517f08c379a0000000000000000000000000000000000000000000000000000000008152600401610adc906116b8565b60405180910390fd5b33600260006101000a81548173ffffffffffffffffffffffffffffffffffffffff021916908373ffffffffffffffffffffffffffffffffffffffff16021790555050565b60006006600083604051602001610b4091906114e0565b60405160208183030381529060405280519060200120815260200190815260200160002060009054906101000a900460ff169050919050565b3373ffffffffffffffffffffffffffffffffffffffff16600260009054906101000a900473ffffffffffffffffffffffffffffffffffffffff1673ffffffffffffffffffffffffffffffffffffffff1614610c09576040517f08c379a0000000000000000000000000000000000000000000000000000000008152600401610c00906113c7565b60405180910390fd5b8073ffffffffffffffffffffffffffffffffffffffff16600260009054906101000a900473ffffffffffffffffffffffffffffffffffffffff1673ffffffffffffffffffffffffffffffffffffffff1603610c99576040517f08c379a0000000000000000000000000000000000000000000000000000000008152600401610c9090611433565b60405180910390fd5b43600460008373ffffffffffffffffffffffffffffffffffffffff1673ffffffffffffffffffffffffffffffffffffffff1681526020019081526020016000205410610d1a576040517f08c379a0000000000000000000000000000000000000000000000000000000008152600401610d119061149f565b60405180910390fd5b610d25436028610fce565b600460008373ffffffffffffffffffffffffffffffffffffffff1673ffffffffffffffffffffffffffffffffffffffff1681526020019081526020016000208190555060018060008373ffffffffffffffffffffffffffffffffffffffff1673ffffffffffffffffffffffffffffffffffffffff16815260200190815260200160002060006101000a81548160ff0219169083151502179055508073ffffffffffffffffffffffffffffffffffffffff167f6b0e1d28d263422a620520c077040ce995db3e9b959e1daf117338b2b6f3c0eb60405160405180910390a250565b60006007600083604051602001610e1c9190611714565b60405160208183030381529060405280519060200120815260200190815260200160002060009054906101000a900460ff169050919050565b600115156000803373ffffffffffffffffffffffffffffffffffffffff1673ffffffffffffffffffffffffffffffffffffffff16815260200190815260200160002060009054906101000a900460ff16151514610ee7576040517f08c379a0000000000000000000000000000000000000000000000000000000008152600401610ede90611547565b60405180910390fd5b600360008273ffffffffffffffffffffffffffffffffffffffff1673ffffffffffffffffffffffffffffffffffffffff168152602001908152602001600020600090556000808273ffffffffffffffffffffffffffffffffffffffff1673ffffffffffffffffffffffffffffffffffffffff16815260200190815260200160002060006101000a81549060ff021916905550565b60008060003373ffffffffffffffffffffffffffffffffffffffff1673ffffffffffffffffffffffffffffffffffffffff16815260200190815260200160002060009054906101000a900460ff16905090565b60008183610fdc919061175a565b905092915050565b60008115159050919050565b610ff981610fe4565b82525050565b60006020820190506110146000830184610ff0565b92915050565b6000604051905090565b600080fd5b600080fd5b600073ffffffffffffffffffffffffffffffffffffffff82169050919050565b60006110598261102e565b9050919050565b6110698161104e565b811461107457600080fd5b50565b60008135905061108681611060565b92915050565b6000602082840312156110a2576110a1611024565b5b60006110b084828501611077565b91505092915050565b6000819050919050565b6110cc816110b9565b81146110d757600080fd5b50565b6000813590506110e9816110c3565b92915050565b60006020828403121561110557611104611024565b5b6000611113848285016110da565b91505092915050565b600080fd5b600080fd5b6000601f19601f8301169050919050565b7f4e487b7100000000000000000000000000000000000000000000000000000000600052604160045260246000fd5b61116f82611126565b810181811067ffffffffffffffff8211171561118e5761118d611137565b5b80604052505050565b60006111a161101a565b90506111ad8282611166565b919050565b600067ffffffffffffffff8211156111cd576111cc611137565b5b6111d682611126565b9050602081019050919050565b82818337600083830152505050565b6000611205611200846111b2565b611197565b90508281526020810184848401111561122157611220611121565b5b61122c8482856111e3565b509392505050565b600082601f8301126112495761124861111c565b5b81356112598482602086016111f2565b91505092915050565b6000806040838503121561127957611278611024565b5b6000611287858286016110da565b925050602083013567ffffffffffffffff8111156112a8576112a7611029565b5b6112b485828601611234565b9150509250929050565b6000819050919050565b6112d1816112be565b81146112dc57600080fd5b50565b6000813590506112ee816112c8565b92915050565b60006020828403121561130a57611309611024565b5b6000611318848285016112df565b91505092915050565b60006020828403121561133757611336611024565b5b600082013567ffffffffffffffff81111561135557611354611029565b5b61136184828501611234565b91505092915050565b600082825260208201905092915050565b7f796f7520617265206e6f74206120636572746966696572000000000000000000600082015250565b60006113b160178361136a565b91506113bc8261137b565b602082019050919050565b600060208201905081810360008301526113e0816113a4565b9050919050565b7f4120636572697469666965722063616e6e6f7420626520616c736f2061204d31600082015250565b600061141d60208361136a565b9150611428826113e7565b602082019050919050565b6000602082019050818103600083015261144c81611410565b9050919050565b7f796f752068617665207374696c6c2074696d6500000000000000000000000000600082015250565b600061148960138361136a565b915061149482611453565b602082019050919050565b600060208201905081810360008301526114b88161147c565b9050919050565b6000819050919050565b6114da6114d5826110b9565b6114bf565b82525050565b60006114ec82846114c9565b60208201915081905092915050565b7f796f7520617265206e6f74207175616c69666965642075736572000000000000600082015250565b6000611531601a8361136a565b915061153c826114fb565b602082019050919050565b6000602082019050818103600083015261156081611524565b9050919050565b7f796f75722074696d65206f6620757361676520656e6400000000000000000000600082015250565b600061159d60168361136a565b91506115a882611567565b602082019050919050565b600060208201905081810360008301526115cc81611590565b9050919050565b600081519050919050565b60005b838110156115fc5780820151818401526020810190506115e1565b8381111561160b576000848401525b50505050565b600061161c826115d3565b611626818561136a565b93506116368185602086016115de565b61163f81611126565b840191505092915050565b600060208201905081810360008301526116648184611611565b905092915050565b7f796f75206172656e277420612063657469666965720000000000000000000000600082015250565b60006116a260158361136a565b91506116ad8261166c565b602082019050919050565b600060208201905081810360008301526116d181611695565b9050919050565b600081905092915050565b60006116ee826115d3565b6116f881856116d8565b93506117088185602086016115de565b80840191505092915050565b600061172082846116e3565b915081905092915050565b7f4e487b7100000000000000000000000000000000000000000000000000000000600052601160045260246000fd5b6000611765826110b9565b9150611770836110b9565b9250827fffffffffffffffffffffffffffffffffffffffffffffffffffffffffffffffff038211156117a5576117a461172b565b5b82820190509291505056fea26469706673582212202b7b6be312a240dcbe801e99f306e4fd066a2c58673cbf2ef2e94e221292b92f64736f6c634300080d0033",
  "immutableReferences": {},
  "source": "//Project method\n\n// SPDX-License-Identifier: MIT\npragma solidity ^0.8.0;\nimport \"./Certificate_contract.sol\";\n\n\ncontract ElectricPump is BaseCertContract{\n\n   \n\n   \n    mapping(bytes32 => bool) private body; \n\n    mapping(bytes32 => bool) private pump;\n\n    mapping(bytes32 => bool) private engine;\n\n\n    \n\n    event certBody(uint indexed fatt, address indexed user,string producer);\n\n\n    event certEngine(uint indexed fatt, address indexed user,string producer);\n\n\n    event certPump(string indexed lot, address indexed user);\n\n\n    constructor() public BaseCertContract(){}\n\n\n  \n\n    function certificateEngine(uint fatt, string memory producer) external ism1{ //Ask engine data (Producer and Fattura d'aquisto) to certidicate the engine\n        \n        require(timem1[msg.sender]>block.number, \"your time of usage end\");\n        engine[keccak256(abi.encodePacked(fatt))] = true; //the key value for the threads is now the invoice (fattura) code.\n        emit certEngine(fatt,msg.sender,producer);\n    }\n\n    function certificateBody(uint fatt, string memory producer) external ism1{ //Ask for body data (Producer and Fattura d'aquisto) to certificate the body\n       \n        require(timem1[msg.sender]>block.number, \"your time of usage end\");\n        body[keccak256(abi.encodePacked(fatt))] = true;//the key value for the threads is now the invoice (fattura) code.\n        emit certBody(fatt,msg.sender,producer);\n    }\n\n    /*function certificatePump(uint body_fatt, uint engine_fatt, int power, int voltage, int maxvoltage, int t, int freq, int maxspeed, int dens, int maxdepth, int temp, string memory object) external ism2{\n      \n        require(timem2[msg.sender]>block.number, \"your time of usage end\"); \n        require(body[keccak256(abi.encodePacked(body_fatt))] == true, \"cages not found\"); //body_fatt -> body invoice\n        require(engine[keccak256(abi.encodePacked(engine_fatt))] == true, \"threads not found\"); //engine_fatt -> engine invoice id\n        require(temp <= 135, \"Temperature class error\"); //check if the tested temperature class is less then or equal to teh one defined in the certificate (defiened when the cintract is created)\n        if (ts != 230 && fr != 50 && Y != -1){ //check the parameter for the alimentation tension\n            revert(\"Alimentation tension Error\");\n        }\n        pump[keccak256(abi.encodePacked(object))] = true; //set as true an engine with ID lotto, azienda:number.\n        //segnare i due pezzi cages e thread come non certificati !!!!!!!!!!!!!!!!!!!!!!!!!!!!!!!!!!!!!!!!!!!!!!!!!!!!!!!!!!!!!!!!!!!!!!!!!!!!!!!!!!!!!!!!!!!!!!!!!!!!!!!!!!!!!!!!!!!!\n        //emit certPump(lot, user);\n    }*/\n\n\n    function isCertificatedBodies(uint fatt) view external returns(bool){ \n      \n        return body[keccak256(abi.encodePacked(fatt))];\n    } \n\n    function isCertificatedPumps(uint fatt) view external returns(bool){\n \n        return pump[keccak256(abi.encodePacked(fatt))];\n    } \n\n    function isCertificatedEngines(string memory lot) view external returns(bool){\n    \n        return engine[keccak256(abi.encodePacked(lot))];\n    } \n\n    \n}",
  "sourcePath": "/home/parallels/Desktop/BLOCK_PROJ/BlockchainProject/Proj_source/contracts/pump_contract.sol",
  "compiler": {
    "name": "solc",
    "version": "0.8.13+commit.abaa5c0e.Emscripten.clang"
  },
  "schemaVersion": "3.4.13",
  "updatedAt": "2023-08-18T15:18:14.396Z",
  "networkType": "ethereum",
  "devdoc": {
    "kind": "dev",
    "methods": {},
    "version": 1
  },
  "userdoc": {
    "kind": "user",
    "methods": {},
    "version": 1
  }
}