{
  "contractName": "ElectricEngine",
  "abi": [
    {
      "inputs": [],
      "stateMutability": "nonpayable",
      "type": "constructor"
    },
    {
      "anonymous": false,
      "inputs": [
        {
          "indexed": true,
          "internalType": "address",
          "name": "user",
          "type": "address"
        }
      ],
      "name": "addedm1",
      "type": "event"
    },
    {
      "anonymous": false,
      "inputs": [
        {
          "indexed": true,
          "internalType": "address",
          "name": "user",
          "type": "address"
        }
      ],
      "name": "addedm2",
      "type": "event"
    },
    {
      "anonymous": false,
      "inputs": [
        {
          "indexed": true,
          "internalType": "uint256",
          "name": "fatt",
          "type": "uint256"
        },
        {
          "indexed": true,
          "internalType": "address",
          "name": "user",
          "type": "address"
        },
        {
          "indexed": false,
          "internalType": "string",
          "name": "producer",
          "type": "string"
        }
      ],
      "name": "certCages",
      "type": "event"
    },
    {
      "anonymous": false,
      "inputs": [
        {
          "indexed": true,
          "internalType": "string",
          "name": "lot",
          "type": "string"
        },
        {
          "indexed": true,
          "internalType": "address",
          "name": "user",
          "type": "address"
        }
      ],
      "name": "certEngines",
      "type": "event"
    },
    {
      "anonymous": false,
      "inputs": [
        {
          "indexed": true,
          "internalType": "uint256",
          "name": "fatt",
          "type": "uint256"
        },
        {
          "indexed": true,
          "internalType": "address",
          "name": "user",
          "type": "address"
        },
        {
          "indexed": false,
          "internalType": "string",
          "name": "producer",
          "type": "string"
        }
      ],
      "name": "certThreads",
      "type": "event"
    },
    {
      "inputs": [
        {
          "internalType": "int256",
          "name": "infop",
          "type": "int256"
        }
      ],
      "name": "addcertifier",
      "outputs": [],
      "stateMutability": "nonpayable",
      "type": "function"
    },
    {
      "inputs": [
        {
          "internalType": "address",
          "name": "ut1",
          "type": "address"
        }
      ],
      "name": "addm1",
      "outputs": [],
      "stateMutability": "nonpayable",
      "type": "function"
    },
    {
      "inputs": [
        {
          "internalType": "address",
          "name": "ut2",
          "type": "address"
        }
      ],
      "name": "addm2",
      "outputs": [],
      "stateMutability": "nonpayable",
      "type": "function"
    },
    {
      "inputs": [
        {
          "internalType": "address",
          "name": "ut1",
          "type": "address"
        }
      ],
      "name": "delm1",
      "outputs": [],
      "stateMutability": "nonpayable",
      "type": "function"
    },
    {
      "inputs": [
        {
          "internalType": "address",
          "name": "ut2",
          "type": "address"
        }
      ],
      "name": "delm2",
      "outputs": [],
      "stateMutability": "nonpayable",
      "type": "function"
    },
    {
      "inputs": [],
      "name": "isCertifier_",
      "outputs": [
        {
          "internalType": "bool",
          "name": "",
          "type": "bool"
        }
      ],
      "stateMutability": "view",
      "type": "function",
      "constant": true
    },
    {
      "inputs": [],
      "name": "isM1",
      "outputs": [
        {
          "internalType": "bool",
          "name": "",
          "type": "bool"
        }
      ],
      "stateMutability": "view",
      "type": "function",
      "constant": true
    },
    {
      "inputs": [],
      "name": "isM2",
      "outputs": [
        {
          "internalType": "bool",
          "name": "",
          "type": "bool"
        }
      ],
      "stateMutability": "view",
      "type": "function",
      "constant": true
    },
    {
      "inputs": [
        {
          "internalType": "uint256",
          "name": "fatt",
          "type": "uint256"
        },
        {
          "internalType": "string",
          "name": "producer",
          "type": "string"
        }
      ],
      "name": "certificateThreads",
      "outputs": [],
      "stateMutability": "nonpayable",
      "type": "function"
    },
    {
      "inputs": [
        {
          "internalType": "uint256",
          "name": "fatt",
          "type": "uint256"
        },
        {
          "internalType": "string",
          "name": "producer",
          "type": "string"
        }
      ],
      "name": "certificateCage",
      "outputs": [],
      "stateMutability": "nonpayable",
      "type": "function"
    },
    {
      "inputs": [
        {
          "internalType": "uint256",
          "name": "cage_fatt",
          "type": "uint256"
        },
        {
          "internalType": "uint256",
          "name": "thread_fatt",
          "type": "uint256"
        },
        {
          "internalType": "int256",
          "name": "temp",
          "type": "int256"
        },
        {
          "internalType": "int256",
          "name": "ts",
          "type": "int256"
        },
        {
          "internalType": "int256",
          "name": "fr",
          "type": "int256"
        },
        {
          "internalType": "int256",
          "name": "Y",
          "type": "int256"
        },
        {
          "internalType": "string",
          "name": "object",
          "type": "string"
        }
      ],
      "name": "certificateEngines",
      "outputs": [],
      "stateMutability": "nonpayable",
      "type": "function"
    },
    {
      "inputs": [
        {
          "internalType": "uint256",
          "name": "fatt",
          "type": "uint256"
        }
      ],
      "name": "isCertificatedThreads",
      "outputs": [
        {
          "internalType": "bool",
          "name": "",
          "type": "bool"
        }
      ],
      "stateMutability": "view",
      "type": "function",
      "constant": true
    },
    {
      "inputs": [
        {
          "internalType": "uint256",
          "name": "fatt",
          "type": "uint256"
        }
      ],
      "name": "isCertificatedCages",
      "outputs": [
        {
          "internalType": "bool",
          "name": "",
          "type": "bool"
        }
      ],
      "stateMutability": "view",
      "type": "function",
      "constant": true
    },
    {
      "inputs": [
        {
          "internalType": "string",
          "name": "lot",
          "type": "string"
        }
      ],
      "name": "isCertificatedEngines",
      "outputs": [
        {
          "internalType": "bool",
          "name": "",
          "type": "bool"
        }
      ],
      "stateMutability": "view",
      "type": "function",
      "constant": true
    }
  ],
  "bytecode": "0x608060405234801561001057600080fd5b5033600260006101000a81548173ffffffffffffffffffffffffffffffffffffffff021916908373ffffffffffffffffffffffffffffffffffffffff160217905550611e2f806100616000396000f3fe608060405234801561001057600080fd5b50600436106100ea5760003560e01c8063513f8c2f1161008c5780638748a146116100665780638748a14614610233578063af9f124f14610263578063c477cc5f1461027f578063d91728891461029b576100ea565b8063513f8c2f146101cb5780635e3e7ab6146101e75780635f7a980114610217576100ea565b8063258c6647116100c8578063258c6647146101455780632c690b3f146101635780632cd47e1a1461017f578063377c69bd146101af576100ea565b8063041b1a7b146100ef578063078900671461010d5780631698143414610129575b600080fd5b6100f76102b9565b60405161010491906113da565b60405180910390f35b61012760048036038101906101229190611467565b610311565b005b610143600480360381019061013e9190611610565b61059d565b005b61014d610755565b60405161015a91906113da565b60405180910390f35b61017d60048036038101906101789190611610565b6107a9565b005b6101996004803603810190610194919061166c565b610961565b6040516101a691906113da565b60405180910390f35b6101c960048036038101906101c49190611467565b6109b1565b005b6101e560048036038101906101e091906116cf565b610ad9565b005b61020160048036038101906101fc919061166c565b610b60565b60405161020e91906113da565b60405180910390f35b610231600480360381019061022c9190611467565b610bb0565b005b61024d600480360381019061024891906116fc565b610e3c565b60405161025a91906113da565b60405180910390f35b61027d60048036038101906102789190611745565b610e8c565b005b61029960048036038101906102949190611467565b611230565b005b6102a3611356565b6040516102b091906113da565b60405180910390f35b60003373ffffffffffffffffffffffffffffffffffffffff16600260009054906101000a900473ffffffffffffffffffffffffffffffffffffffff1673ffffffffffffffffffffffffffffffffffffffff1614905090565b3373ffffffffffffffffffffffffffffffffffffffff16600260009054906101000a900473ffffffffffffffffffffffffffffffffffffffff1673ffffffffffffffffffffffffffffffffffffffff16146103a1576040517f08c379a000000000000000000000000000000000000000000000000000000000815260040161039890611860565b60405180910390fd5b8073ffffffffffffffffffffffffffffffffffffffff16600260009054906101000a900473ffffffffffffffffffffffffffffffffffffffff1673ffffffffffffffffffffffffffffffffffffffff1603610431576040517f08c379a0000000000000000000000000000000000000000000000000000000008152600401610428906118cc565b60405180910390fd5b43600360008373ffffffffffffffffffffffffffffffffffffffff1673ffffffffffffffffffffffffffffffffffffffff16815260200190815260200160002054106104b2576040517f08c379a00000000000000000000000000000000000000000000000000000000081526004016104a990611938565b60405180910390fd5b6104bd4360286113a9565b600360008373ffffffffffffffffffffffffffffffffffffffff1673ffffffffffffffffffffffffffffffffffffffff1681526020019081526020016000208190555060016000808373ffffffffffffffffffffffffffffffffffffffff1673ffffffffffffffffffffffffffffffffffffffff16815260200190815260200160002060006101000a81548160ff0219169083151502179055508073ffffffffffffffffffffffffffffffffffffffff167f2756cd91fb7c0be01353207b0107f45f9dbe5f2837c4a796fe7d95c060d7588260405160405180910390a250565b600115156000803373ffffffffffffffffffffffffffffffffffffffff1673ffffffffffffffffffffffffffffffffffffffff16815260200190815260200160002060009054906101000a900460ff1615151461062f576040517f08c379a0000000000000000000000000000000000000000000000000000000008152600401610626906119a4565b60405180910390fd5b43600360003373ffffffffffffffffffffffffffffffffffffffff1673ffffffffffffffffffffffffffffffffffffffff16815260200190815260200160002054116106b0576040517f08c379a00000000000000000000000000000000000000000000000000000000081526004016106a790611a10565b60405180910390fd5b600160056000846040516020016106c79190611a51565b60405160208183030381529060405280519060200120815260200190815260200160002060006101000a81548160ff0219169083151502179055503373ffffffffffffffffffffffffffffffffffffffff16827f7fc2a2441cf93b10214bb4f95f4e39a190bc195d0296d475c4806a8a17448f5f836040516107499190611ae3565b60405180910390a35050565b6000600160003373ffffffffffffffffffffffffffffffffffffffff1673ffffffffffffffffffffffffffffffffffffffff16815260200190815260200160002060009054906101000a900460ff16905090565b600115156000803373ffffffffffffffffffffffffffffffffffffffff1673ffffffffffffffffffffffffffffffffffffffff16815260200190815260200160002060009054906101000a900460ff1615151461083b576040517f08c379a0000000000000000000000000000000000000000000000000000000008152600401610832906119a4565b60405180910390fd5b43600360003373ffffffffffffffffffffffffffffffffffffffff1673ffffffffffffffffffffffffffffffffffffffff16815260200190815260200160002054116108bc576040517f08c379a00000000000000000000000000000000000000000000000000000000081526004016108b390611a10565b60405180910390fd5b600160076000846040516020016108d39190611a51565b60405160208183030381529060405280519060200120815260200190815260200160002060006101000a81548160ff0219169083151502179055503373ffffffffffffffffffffffffffffffffffffffff16827f9dce5852767e8ff17b82fed93e65b4f5345480011604fe1525eb93ef83811d65836040516109559190611ae3565b60405180910390a35050565b600060076000836040516020016109789190611a51565b60405160208183030381529060405280519060200120815260200190815260200160002060009054906101000a900460ff169050919050565b60011515600160003373ffffffffffffffffffffffffffffffffffffffff1673ffffffffffffffffffffffffffffffffffffffff16815260200190815260200160002060009054906101000a900460ff16151514610a44576040517f08c379a0000000000000000000000000000000000000000000000000000000008152600401610a3b906119a4565b60405180910390fd5b600460008273ffffffffffffffffffffffffffffffffffffffff1673ffffffffffffffffffffffffffffffffffffffff16815260200190815260200160002060009055600160008273ffffffffffffffffffffffffffffffffffffffff1673ffffffffffffffffffffffffffffffffffffffff16815260200190815260200160002060006101000a81549060ff021916905550565b60038113610b1c576040517f08c379a0000000000000000000000000000000000000000000000000000000008152600401610b1390611b51565b60405180910390fd5b33600260006101000a81548173ffffffffffffffffffffffffffffffffffffffff021916908373ffffffffffffffffffffffffffffffffffffffff16021790555050565b60006005600083604051602001610b779190611a51565b60405160208183030381529060405280519060200120815260200190815260200160002060009054906101000a900460ff169050919050565b3373ffffffffffffffffffffffffffffffffffffffff16600260009054906101000a900473ffffffffffffffffffffffffffffffffffffffff1673ffffffffffffffffffffffffffffffffffffffff1614610c40576040517f08c379a0000000000000000000000000000000000000000000000000000000008152600401610c3790611860565b60405180910390fd5b8073ffffffffffffffffffffffffffffffffffffffff16600260009054906101000a900473ffffffffffffffffffffffffffffffffffffffff1673ffffffffffffffffffffffffffffffffffffffff1603610cd0576040517f08c379a0000000000000000000000000000000000000000000000000000000008152600401610cc7906118cc565b60405180910390fd5b43600460008373ffffffffffffffffffffffffffffffffffffffff1673ffffffffffffffffffffffffffffffffffffffff1681526020019081526020016000205410610d51576040517f08c379a0000000000000000000000000000000000000000000000000000000008152600401610d4890611938565b60405180910390fd5b610d5c4360286113a9565b600460008373ffffffffffffffffffffffffffffffffffffffff1673ffffffffffffffffffffffffffffffffffffffff1681526020019081526020016000208190555060018060008373ffffffffffffffffffffffffffffffffffffffff1673ffffffffffffffffffffffffffffffffffffffff16815260200190815260200160002060006101000a81548160ff0219169083151502179055508073ffffffffffffffffffffffffffffffffffffffff167f6b0e1d28d263422a620520c077040ce995db3e9b959e1daf117338b2b6f3c0eb60405160405180910390a250565b60006006600083604051602001610e539190611bad565b60405160208183030381529060405280519060200120815260200190815260200160002060009054906101000a900460ff169050919050565b60011515600160003373ffffffffffffffffffffffffffffffffffffffff1673ffffffffffffffffffffffffffffffffffffffff16815260200190815260200160002060009054906101000a900460ff16151514610f1f576040517f08c379a0000000000000000000000000000000000000000000000000000000008152600401610f16906119a4565b60405180910390fd5b43600460003373ffffffffffffffffffffffffffffffffffffffff1673ffffffffffffffffffffffffffffffffffffffff1681526020019081526020016000205411610fa0576040517f08c379a0000000000000000000000000000000000000000000000000000000008152600401610f9790611a10565b60405180910390fd5b600115156005600089604051602001610fb99190611a51565b60405160208183030381529060405280519060200120815260200190815260200160002060009054906101000a900460ff1615151461102d576040517f08c379a000000000000000000000000000000000000000000000000000000000815260040161102490611c10565b60405180910390fd5b6001151560076000886040516020016110469190611a51565b60405160208183030381529060405280519060200120815260200190815260200160002060009054906101000a900460ff161515146110ba576040517f08c379a00000000000000000000000000000000000000000000000000000000081526004016110b190611c7c565b60405180910390fd5b60878513156110fe576040517f08c379a00000000000000000000000000000000000000000000000000000000081526004016110f590611ce8565b60405180910390fd5b60e68414158015611110575060328314155b801561113c57507fffffffffffffffffffffffffffffffffffffffffffffffffffffffffffffffff8214155b1561117c576040517f08c379a000000000000000000000000000000000000000000000000000000000815260040161117390611d54565b60405180910390fd5b600160066000836040516020016111939190611bad565b60405160208183030381529060405280519060200120815260200190815260200160002060006101000a81548160ff0219169083151502179055503373ffffffffffffffffffffffffffffffffffffffff16816040516111f39190611bad565b60405180910390207f07a9eee897cf9c187115548d8c2a3448f1291d8c8329bb0234099309a58057a760405160405180910390a350505050505050565b600115156000803373ffffffffffffffffffffffffffffffffffffffff1673ffffffffffffffffffffffffffffffffffffffff16815260200190815260200160002060009054906101000a900460ff161515146112c2576040517f08c379a00000000000000000000000000000000000000000000000000000000081526004016112b9906119a4565b60405180910390fd5b600360008273ffffffffffffffffffffffffffffffffffffffff1673ffffffffffffffffffffffffffffffffffffffff168152602001908152602001600020600090556000808273ffffffffffffffffffffffffffffffffffffffff1673ffffffffffffffffffffffffffffffffffffffff16815260200190815260200160002060006101000a81549060ff021916905550565b60008060003373ffffffffffffffffffffffffffffffffffffffff1673ffffffffffffffffffffffffffffffffffffffff16815260200190815260200160002060009054906101000a900460ff16905090565b600081836113b79190611da3565b905092915050565b60008115159050919050565b6113d4816113bf565b82525050565b60006020820190506113ef60008301846113cb565b92915050565b6000604051905090565b600080fd5b600080fd5b600073ffffffffffffffffffffffffffffffffffffffff82169050919050565b600061143482611409565b9050919050565b61144481611429565b811461144f57600080fd5b50565b6000813590506114618161143b565b92915050565b60006020828403121561147d5761147c6113ff565b5b600061148b84828501611452565b91505092915050565b6000819050919050565b6114a781611494565b81146114b257600080fd5b50565b6000813590506114c48161149e565b92915050565b600080fd5b600080fd5b6000601f19601f8301169050919050565b7f4e487b7100000000000000000000000000000000000000000000000000000000600052604160045260246000fd5b61151d826114d4565b810181811067ffffffffffffffff8211171561153c5761153b6114e5565b5b80604052505050565b600061154f6113f5565b905061155b8282611514565b919050565b600067ffffffffffffffff82111561157b5761157a6114e5565b5b611584826114d4565b9050602081019050919050565b82818337600083830152505050565b60006115b36115ae84611560565b611545565b9050828152602081018484840111156115cf576115ce6114cf565b5b6115da848285611591565b509392505050565b600082601f8301126115f7576115f66114ca565b5b81356116078482602086016115a0565b91505092915050565b60008060408385031215611627576116266113ff565b5b6000611635858286016114b5565b925050602083013567ffffffffffffffff81111561165657611655611404565b5b611662858286016115e2565b9150509250929050565b600060208284031215611682576116816113ff565b5b6000611690848285016114b5565b91505092915050565b6000819050919050565b6116ac81611699565b81146116b757600080fd5b50565b6000813590506116c9816116a3565b92915050565b6000602082840312156116e5576116e46113ff565b5b60006116f3848285016116ba565b91505092915050565b600060208284031215611712576117116113ff565b5b600082013567ffffffffffffffff8111156117305761172f611404565b5b61173c848285016115e2565b91505092915050565b600080600080600080600060e0888a031215611764576117636113ff565b5b60006117728a828b016114b5565b97505060206117838a828b016114b5565b96505060406117948a828b016116ba565b95505060606117a58a828b016116ba565b94505060806117b68a828b016116ba565b93505060a06117c78a828b016116ba565b92505060c088013567ffffffffffffffff8111156117e8576117e7611404565b5b6117f48a828b016115e2565b91505092959891949750929550565b600082825260208201905092915050565b7f796f7520617265206e6f74206120636572746966696572000000000000000000600082015250565b600061184a601783611803565b915061185582611814565b602082019050919050565b600060208201905081810360008301526118798161183d565b9050919050565b7f4120636572697469666965722063616e6e6f7420626520616c736f2061204d31600082015250565b60006118b6602083611803565b91506118c182611880565b602082019050919050565b600060208201905081810360008301526118e5816118a9565b9050919050565b7f796f752068617665207374696c6c2074696d6500000000000000000000000000600082015250565b6000611922601383611803565b915061192d826118ec565b602082019050919050565b6000602082019050818103600083015261195181611915565b9050919050565b7f796f7520617265206e6f74207175616c69666965642075736572000000000000600082015250565b600061198e601a83611803565b915061199982611958565b602082019050919050565b600060208201905081810360008301526119bd81611981565b9050919050565b7f796f75722074696d65206f6620757361676520656e6400000000000000000000600082015250565b60006119fa601683611803565b9150611a05826119c4565b602082019050919050565b60006020820190508181036000830152611a29816119ed565b9050919050565b6000819050919050565b611a4b611a4682611494565b611a30565b82525050565b6000611a5d8284611a3a565b60208201915081905092915050565b600081519050919050565b60005b83811015611a95578082015181840152602081019050611a7a565b83811115611aa4576000848401525b50505050565b6000611ab582611a6c565b611abf8185611803565b9350611acf818560208601611a77565b611ad8816114d4565b840191505092915050565b60006020820190508181036000830152611afd8184611aaa565b905092915050565b7f796f75206172656e277420612063657469666965720000000000000000000000600082015250565b6000611b3b601583611803565b9150611b4682611b05565b602082019050919050565b60006020820190508181036000830152611b6a81611b2e565b9050919050565b600081905092915050565b6000611b8782611a6c565b611b918185611b71565b9350611ba1818560208601611a77565b80840191505092915050565b6000611bb98284611b7c565b915081905092915050565b7f6361676573206e6f7420666f756e640000000000000000000000000000000000600082015250565b6000611bfa600f83611803565b9150611c0582611bc4565b602082019050919050565b60006020820190508181036000830152611c2981611bed565b9050919050565b7f74687265616473206e6f7420666f756e64000000000000000000000000000000600082015250565b6000611c66601183611803565b9150611c7182611c30565b602082019050919050565b60006020820190508181036000830152611c9581611c59565b9050919050565b7f54656d706572617475726520636c617373206572726f72000000000000000000600082015250565b6000611cd2601783611803565b9150611cdd82611c9c565b602082019050919050565b60006020820190508181036000830152611d0181611cc5565b9050919050565b7f416c696d656e746174696f6e2074656e73696f6e204572726f72000000000000600082015250565b6000611d3e601a83611803565b9150611d4982611d08565b602082019050919050565b60006020820190508181036000830152611d6d81611d31565b9050919050565b7f4e487b7100000000000000000000000000000000000000000000000000000000600052601160045260246000fd5b6000611dae82611494565b9150611db983611494565b9250827fffffffffffffffffffffffffffffffffffffffffffffffffffffffffffffffff03821115611dee57611ded611d74565b5b82820190509291505056fea2646970667358221220add7fea40fa407ae71e64570bdb17b5781601a51c9a23c62b9f5c18e1130eb9264736f6c634300080d0033",
  "immutableReferences": {},
  "source": "//ElectricEngine contract\n\n// SPDX-License-Identifier: MIT\npragma solidity ^0.8.0;\nimport \"./Certificate_contract.sol\";\n\n\ncontract ElectricEngine is BaseCertContract{\n\n   \n    //mapping(address => bool) private g;\n    //mapping(address => bool) private f;\n  \n\n    \n    //mapping(address => uint256) private timeg;\n    //mapping(address => uint256) private timef;\n\n    //address private owner;\n\n    //mapping(bytes32 => bool) private bubbleCopper;\n    //mapping(bytes32 => bool) private bubbleSteel;\n    mapping(bytes32 => bool) private cages; \n    mapping(bytes32 => bool) private engines;\n    mapping(bytes32 => bool) private threads;\n\n\n    //event addedf(address indexed user);\n    //event addedg(address indexed user);\n    event certThreads(uint indexed fatt, address indexed user,string producer);\n    event certCages(uint indexed fatt, address indexed user,string producer);\n    event certEngines(string indexed lot, address indexed user);\n    \n    //int[5] private proof;\n    //int[5] private info;\n\n\n    constructor() public BaseCertContract(){\n\n      /*m1[0x984765fCd218D3937E4298Dd1746b47828D5E9f8] = true;\n      m2[0xCCf44CeA3140c0253D845D04973bC0D0E5eED163] = true;\n      f[0x10CdeAE4C0d04aD512E017E3F7d236a463c578bB] = true;\n      g[0xeaaF394C2468442eCb543d43B11326903e27e311] = true;\n      timem1[0x984765fCd218D3937E4298Dd1746b47828D5E9f8] = SafeMath.add(block.number, 40);\n      timem2[0xCCf44CeA3140c0253D845D04973bC0D0E5eED163] = SafeMath.add(block.number, 40);\n      timeg[0x10CdeAE4C0d04aD512E017E3F7d236a463c578bB] = SafeMath.add(block.number, 40);\n      timef[0xeaaF394C2468442eCb543d43B11326903e27e311] = SafeMath.add(block.number, 40);\n      certifier = 0x984765fCd218D3937E4298Dd1746b47828D5E9f8;*/\n      //owner = msg.sender;\n      \n      \n      \n\n      // DOMANDA -- Facciamo creare i certificati europei agli utenti certificatori oppure usiamo i certificatori solo come gli utenti che controllano i singoli lotti?\n\n\n     \n    }\n\n    \n\n    /*function UserInfos( int8 info1, int8 info2, int8 info3, int8 info4, int8 info5) external{\n        require(msg.sender == certifier, \"you are not a certifier\");\n        info[0] = info1;\n        info[1] = info2;\n        info[2] = info3;\n        info[3] = info4;\n        info[4] = info5;\n\n    }*/\n\n    /*function UserProofs(int8 proof1, int8 proof2, int8 proof3, int8 proof4, int proof5) external{\n        require(msg.sender == certifier, \"you are not a certifier\");\n        proof[0] = proof1;\n        proof[1] = proof2;\n        proof[2] = proof3;\n        proof[3] = proof4;\n        proof[4] = proof5;\n\n    }*/\n\n   \n\n \n    /*function addG(int8 infop) external {\n        require(infop>info[2],\"you aren't a G\");\n        require(timeg[msg.sender]<block.timestamp,\"you have still time\");\n        timeg[msg.sender] = SafeMath.add(block.timestamp, 40);\n        m1[msg.sender] = true;\n        emit addedg(msg.sender);\n    } \n\n    function addmF(int8 infop) external {\n        require(infop>info[4],\"you aren't a F\");\n        require(timef[msg.sender]<block.timestamp,\"you have still time\");\n        timef[msg.sender] = SafeMath.add(block.timestamp, 40);\n        m1[msg.sender] = true;\n        emit addedf(msg.sender);\n\n    } */\n\n    /*\n\n    FOR NOW CERTIFY ONLY THREADS, CAGES AND ENGINES\n\n    function certificateSteels(int proofo, string memory object) external { \n      \n        require(proofo>proof[0],\"not valid Steels\");\n        require(f[msg.sender] == true, \"you are not qualified user\");\n        require(timef[msg.sender]>block.number, \"your time of usage end\");\n        bubbleSteel[keccak256(abi.encodePacked(object))] = true;\n    } \n    \n\n    function certificateCoppers(int proofo, string memory object) external {\n        require(proofo>proof[1],\"not valid Coppers\");\n        require(g[msg.sender] == true, \"you are not qualified user\");\n        require(timeg[msg.sender]>block.number, \"your time of usage end\");\n        bubbleCopper[keccak256(abi.encodePacked(object))] = true;\n    }  \n\n    */\n\n    function certificateThreads(uint fatt, string memory producer) external ism1{ //Ask threads data (Producer and Fattura d'aquisto) to certidicate the threads\n        \n        require(timem1[msg.sender]>block.number, \"your time of usage end\");\n        threads[keccak256(abi.encodePacked(fatt))] = true; //the key value for the threads is now the invoice (fattura) code.\n        emit certThreads(fatt,msg.sender,producer);\n        //return(producer, fatt); //this function return the producer and the invoice code - if useful\n    }\n\n    function certificateCage(uint fatt, string memory producer) external ism1{ //Ask for cages data (Producer and Fattura d'aquisto) to certificate the cages\n        \n        require(timem1[msg.sender]>block.number, \"your time of usage end\");\n        cages[keccak256(abi.encodePacked(fatt))] = true;//the key value for the threads is now the invoice (fattura) code.\n        emit certCages(fatt,msg.sender,producer);\n        //return(producer, fatt); //As above\n    }\n\n    function certificateEngines(uint cage_fatt, uint thread_fatt, int temp, int ts, int fr, int Y, string memory object) external ism2{\n       \n        require(timem2[msg.sender]>block.number, \"your time of usage end\"); \n        require(cages[keccak256(abi.encodePacked(cage_fatt))] == true, \"cages not found\"); //cage_fatt -> cage invoice//thread_fatt -> thread invoice id\n        require(threads[keccak256(abi.encodePacked(thread_fatt))] == true, \"threads not found\"); //thread_fatt -> thread invoice id\n        require(temp <= 135, \"Temperature class error\"); //check if the tested temperature class is less then or equal to teh one defined in the certificate (defiened when the cintract is created)\n        if (ts != 230 && fr != 50 && Y != -1){ //check the parameter for the alimentation tension\n            revert(\"Alimentation tension Error\");\n        }\n        engines[keccak256(abi.encodePacked(object))] = true; //set as true an engine with ID lotto, azienda:number.\n        //segnare i due pezzi cages e thread come non certificati !!!!!!!!!!!!!!!!!!!!!!!!!!!!!!!!!!!!!!!!!!!!!!!!!!!!!!!!!!!!!!!!!!!!!!!!!!!!!!!!!!!!!!!!!!!!!!!!!!!!!!!!!!!!!!!!!!!!\n        emit certEngines(object,msg.sender);\n    } \n\n   /* function isCertificatesSteels(string memory object) view external returns(bool) {\n        return bubbleSteel[keccak256(abi.encodePacked(object))];\n    }   \n\n    function isCertificatedCoppers(string memory object) view external returns(bool){\n   \n        return bubbleCopper[keccak256(abi.encodePacked(object))];\n    }   */\n\n    function isCertificatedThreads(uint fatt) view external returns(bool){ \n      \n        return threads[keccak256(abi.encodePacked(fatt))];\n    } \n\n    function isCertificatedCages(uint fatt) view external returns(bool){\n \n        return cages[keccak256(abi.encodePacked(fatt))];\n    } \n\n    function isCertificatedEngines(string memory lot) view external returns(bool){\n    \n        return engines[keccak256(abi.encodePacked(lot))];\n    } \n\n  \n    /*function isF() view external returns(bool){\n      \n        return f[msg.sender];\n    } \n\n    function isG() view external returns(bool){\n \n        return g[msg.sender];\n    } */\n\n\n\n\n\n\n    /*function payStorageFee() external payable {\n        require(msg.sender == customer, \"Only the customer can pay the storage fee\");\n        require(msg.value > 0, \"Storage fee should be greater than zero\");\n        balances[storageProvider] += msg.value;\n        emit StorageFeePaid(msg.sender, msg.value);\n    }\n\n    function storeItems(uint256 _amount) external {\n        require(msg.sender == customer, \"Only the customer can store items\");\n        require(balances[customer] >= _amount, \"Insufficient balance to store items\");\n        balances[customer] -= _amount;\n        storedItems[customer] += _amount;\n        emit ItemsStored(msg.sender, _amount);\n    }\n\n    function retrieveItems(uint256 _amount) external {\n        require(msg.sender == customer, \"Only the customer can retrieve items\");\n        require(storedItems[customer] >= _amount, \"Insufficient stored items to retrieve\");\n        storedItems[customer] -= _amount;\n        balances[customer] += _amount;\n        emit ItemsRetrieved(msg.sender, _amount);\n    }*/\n}\n\n\n\n",
  "sourcePath": "/home/parallels/Desktop/BLOCK_PROJ/BlockchainProject/Proj_source/contracts/Proj_contract.sol",
  "compiler": {
    "name": "solc",
    "version": "0.8.13+commit.abaa5c0e.Emscripten.clang"
  },
  "schemaVersion": "3.4.13",
  "updatedAt": "2023-08-18T15:18:13.674Z",
  "networkType": "ethereum",
  "devdoc": {
    "kind": "dev",
    "methods": {},
    "version": 1
  },
  "userdoc": {
    "kind": "user",
    "methods": {},
    "version": 1
  }
}