{
  "contractName": "ElectricEngine",
  "abi": [
    {
      "inputs": [],
      "stateMutability": "nonpayable",
      "type": "constructor"
    },
    {
      "anonymous": false,
      "inputs": [
        {
          "indexed": true,
          "internalType": "address",
          "name": "user",
          "type": "address"
        }
      ],
      "name": "addedm1",
      "type": "event"
    },
    {
      "anonymous": false,
      "inputs": [
        {
          "indexed": true,
          "internalType": "address",
          "name": "user",
          "type": "address"
        }
      ],
      "name": "addedm2",
      "type": "event"
    },
    {
      "anonymous": false,
      "inputs": [
        {
          "indexed": true,
          "internalType": "uint256",
          "name": "fatt",
          "type": "uint256"
        },
        {
          "indexed": true,
          "internalType": "address",
          "name": "user",
          "type": "address"
        },
        {
          "indexed": false,
          "internalType": "string",
          "name": "producer",
          "type": "string"
        }
      ],
      "name": "certCages",
      "type": "event"
    },
    {
      "anonymous": false,
      "inputs": [
        {
          "indexed": true,
          "internalType": "string",
          "name": "lot",
          "type": "string"
        },
        {
          "indexed": true,
          "internalType": "address",
          "name": "user",
          "type": "address"
        }
      ],
      "name": "certEngines",
      "type": "event"
    },
    {
      "anonymous": false,
      "inputs": [
        {
          "indexed": true,
          "internalType": "uint256",
          "name": "fatt",
          "type": "uint256"
        },
        {
          "indexed": true,
          "internalType": "address",
          "name": "user",
          "type": "address"
        },
        {
          "indexed": false,
          "internalType": "string",
          "name": "producer",
          "type": "string"
        }
      ],
      "name": "certThreads",
      "type": "event"
    },
    {
      "inputs": [
        {
          "internalType": "int256",
          "name": "infop",
          "type": "int256"
        }
      ],
      "name": "addcertifier",
      "outputs": [],
      "stateMutability": "nonpayable",
      "type": "function"
    },
    {
      "inputs": [
        {
          "internalType": "address",
          "name": "ut1",
          "type": "address"
        }
      ],
      "name": "addm1",
      "outputs": [],
      "stateMutability": "nonpayable",
      "type": "function"
    },
    {
      "inputs": [
        {
          "internalType": "address",
          "name": "ut2",
          "type": "address"
        }
      ],
      "name": "addm2",
      "outputs": [],
      "stateMutability": "nonpayable",
      "type": "function"
    },
    {
      "inputs": [
        {
          "internalType": "address",
          "name": "ut1",
          "type": "address"
        }
      ],
      "name": "delm1",
      "outputs": [],
      "stateMutability": "nonpayable",
      "type": "function"
    },
    {
      "inputs": [
        {
          "internalType": "address",
          "name": "ut2",
          "type": "address"
        }
      ],
      "name": "delm2",
      "outputs": [],
      "stateMutability": "nonpayable",
      "type": "function"
    },
    {
      "inputs": [],
      "name": "isCertifier_",
      "outputs": [
        {
          "internalType": "bool",
          "name": "",
          "type": "bool"
        }
      ],
      "stateMutability": "view",
      "type": "function",
      "constant": true
    },
    {
      "inputs": [],
      "name": "isM1",
      "outputs": [
        {
          "internalType": "bool",
          "name": "",
          "type": "bool"
        }
      ],
      "stateMutability": "view",
      "type": "function",
      "constant": true
    },
    {
      "inputs": [],
      "name": "isM2",
      "outputs": [
        {
          "internalType": "bool",
          "name": "",
          "type": "bool"
        }
      ],
      "stateMutability": "view",
      "type": "function",
      "constant": true
    },
    {
      "inputs": [
        {
          "internalType": "uint256",
          "name": "fatt",
          "type": "uint256"
        },
        {
          "internalType": "string",
          "name": "producer",
          "type": "string"
        }
      ],
      "name": "certificateThreads",
      "outputs": [],
      "stateMutability": "nonpayable",
      "type": "function"
    },
    {
      "inputs": [
        {
          "internalType": "uint256",
          "name": "fatt",
          "type": "uint256"
        },
        {
          "internalType": "string",
          "name": "producer",
          "type": "string"
        }
      ],
      "name": "certificateCage",
      "outputs": [],
      "stateMutability": "nonpayable",
      "type": "function"
    },
    {
      "inputs": [
        {
          "internalType": "uint256",
          "name": "cage_fatt",
          "type": "uint256"
        },
        {
          "internalType": "uint256",
          "name": "thread_fatt",
          "type": "uint256"
        },
        {
          "internalType": "int256",
          "name": "temp",
          "type": "int256"
        },
        {
          "internalType": "int256",
          "name": "ts",
          "type": "int256"
        },
        {
          "internalType": "int256",
          "name": "fr",
          "type": "int256"
        },
        {
          "internalType": "int256",
          "name": "Y",
          "type": "int256"
        },
        {
          "internalType": "string",
          "name": "object",
          "type": "string"
        }
      ],
      "name": "certificateEngines",
      "outputs": [],
      "stateMutability": "nonpayable",
      "type": "function"
    },
    {
      "inputs": [
        {
          "internalType": "string",
          "name": "object",
          "type": "string"
        }
      ],
      "name": "getElectricEngineData",
      "outputs": [
        {
          "internalType": "uint256",
          "name": "",
          "type": "uint256"
        },
        {
          "internalType": "uint256",
          "name": "",
          "type": "uint256"
        },
        {
          "internalType": "int256",
          "name": "",
          "type": "int256"
        },
        {
          "internalType": "int256",
          "name": "",
          "type": "int256"
        },
        {
          "internalType": "int256",
          "name": "",
          "type": "int256"
        },
        {
          "internalType": "int256",
          "name": "",
          "type": "int256"
        }
      ],
      "stateMutability": "view",
      "type": "function",
      "constant": true
    },
    {
      "inputs": [
        {
          "internalType": "uint256",
          "name": "fatt",
          "type": "uint256"
        }
      ],
      "name": "isCertificatedThreads",
      "outputs": [
        {
          "internalType": "bool",
          "name": "",
          "type": "bool"
        }
      ],
      "stateMutability": "view",
      "type": "function",
      "constant": true
    },
    {
      "inputs": [
        {
          "internalType": "uint256",
          "name": "fatt",
          "type": "uint256"
        }
      ],
      "name": "isCertificatedCages",
      "outputs": [
        {
          "internalType": "bool",
          "name": "",
          "type": "bool"
        }
      ],
      "stateMutability": "view",
      "type": "function",
      "constant": true
    },
    {
      "inputs": [
        {
          "internalType": "string",
          "name": "lot",
          "type": "string"
        }
      ],
      "name": "isCertificatedEngines",
      "outputs": [
        {
          "internalType": "bool",
          "name": "",
          "type": "bool"
        }
      ],
      "stateMutability": "view",
      "type": "function",
      "constant": true
    }
  ],
  "bytecode": "0x608060405234801561001057600080fd5b5033600260006101000a81548173ffffffffffffffffffffffffffffffffffffffff021916908373ffffffffffffffffffffffffffffffffffffffff16021790555061244d806100616000396000f3fe608060405234801561001057600080fd5b50600436106100f55760003560e01c806348639350116100975780638748a146116100665780638748a14614610273578063af9f124f146102a3578063c477cc5f146102bf578063d9172889146102db576100f5565b806348639350146101d6578063513f8c2f1461020b5780635e3e7ab6146102275780635f7a980114610257576100f5565b8063258c6647116100d3578063258c6647146101505780632c690b3f1461016e5780632cd47e1a1461018a578063377c69bd146101ba576100f5565b8063041b1a7b146100fa57806307890067146101185780631698143414610134575b600080fd5b6101026102f9565b60405161010f91906118ad565b60405180910390f35b610132600480360381019061012d919061193a565b610351565b005b61014e60048036038101906101499190611ae3565b6105dd565b005b610158610795565b60405161016591906118ad565b60405180910390f35b61018860048036038101906101839190611ae3565b6107e9565b005b6101a4600480360381019061019f9190611b3f565b6109a1565b6040516101b191906118ad565b60405180910390f35b6101d460048036038101906101cf919061193a565b6109f1565b005b6101f060048036038101906101eb9190611b6c565b610b19565b60405161020296959493929190611bdd565b60405180910390f35b61022560048036038101906102209190611c6a565b610d32565b005b610241600480360381019061023c9190611b3f565b610db9565b60405161024e91906118ad565b60405180910390f35b610271600480360381019061026c919061193a565b610e09565b005b61028d60048036038101906102889190611b6c565b611095565b60405161029a91906118ad565b60405180910390f35b6102bd60048036038101906102b89190611c97565b6110e5565b005b6102d960048036038101906102d4919061193a565b611660565b005b6102e3611786565b6040516102f091906118ad565b60405180910390f35b60003373ffffffffffffffffffffffffffffffffffffffff16600260009054906101000a900473ffffffffffffffffffffffffffffffffffffffff1673ffffffffffffffffffffffffffffffffffffffff1614905090565b3373ffffffffffffffffffffffffffffffffffffffff16600260009054906101000a900473ffffffffffffffffffffffffffffffffffffffff1673ffffffffffffffffffffffffffffffffffffffff16146103e1576040517f08c379a00000000000000000000000000000000000000000000000000000000081526004016103d890611db2565b60405180910390fd5b8073ffffffffffffffffffffffffffffffffffffffff16600260009054906101000a900473ffffffffffffffffffffffffffffffffffffffff1673ffffffffffffffffffffffffffffffffffffffff1603610471576040517f08c379a000000000000000000000000000000000000000000000000000000000815260040161046890611e1e565b60405180910390fd5b43600360008373ffffffffffffffffffffffffffffffffffffffff1673ffffffffffffffffffffffffffffffffffffffff16815260200190815260200160002054106104f2576040517f08c379a00000000000000000000000000000000000000000000000000000000081526004016104e990611e8a565b60405180910390fd5b6104fd4360286117d9565b600360008373ffffffffffffffffffffffffffffffffffffffff1673ffffffffffffffffffffffffffffffffffffffff1681526020019081526020016000208190555060016000808373ffffffffffffffffffffffffffffffffffffffff1673ffffffffffffffffffffffffffffffffffffffff16815260200190815260200160002060006101000a81548160ff0219169083151502179055508073ffffffffffffffffffffffffffffffffffffffff167f2756cd91fb7c0be01353207b0107f45f9dbe5f2837c4a796fe7d95c060d7588260405160405180910390a250565b600115156000803373ffffffffffffffffffffffffffffffffffffffff1673ffffffffffffffffffffffffffffffffffffffff16815260200190815260200160002060009054906101000a900460ff1615151461066f576040517f08c379a000000000000000000000000000000000000000000000000000000000815260040161066690611ef6565b60405180910390fd5b43600360003373ffffffffffffffffffffffffffffffffffffffff1673ffffffffffffffffffffffffffffffffffffffff16815260200190815260200160002054116106f0576040517f08c379a00000000000000000000000000000000000000000000000000000000081526004016106e790611f62565b60405180910390fd5b600160066000846040516020016107079190611fa3565b60405160208183030381529060405280519060200120815260200190815260200160002060006101000a81548160ff0219169083151502179055503373ffffffffffffffffffffffffffffffffffffffff16827f7fc2a2441cf93b10214bb4f95f4e39a190bc195d0296d475c4806a8a17448f5f836040516107899190612035565b60405180910390a35050565b6000600160003373ffffffffffffffffffffffffffffffffffffffff1673ffffffffffffffffffffffffffffffffffffffff16815260200190815260200160002060009054906101000a900460ff16905090565b600115156000803373ffffffffffffffffffffffffffffffffffffffff1673ffffffffffffffffffffffffffffffffffffffff16815260200190815260200160002060009054906101000a900460ff1615151461087b576040517f08c379a000000000000000000000000000000000000000000000000000000000815260040161087290611ef6565b60405180910390fd5b43600360003373ffffffffffffffffffffffffffffffffffffffff1673ffffffffffffffffffffffffffffffffffffffff16815260200190815260200160002054116108fc576040517f08c379a00000000000000000000000000000000000000000000000000000000081526004016108f390611f62565b60405180910390fd5b600160086000846040516020016109139190611fa3565b60405160208183030381529060405280519060200120815260200190815260200160002060006101000a81548160ff0219169083151502179055503373ffffffffffffffffffffffffffffffffffffffff16827f9dce5852767e8ff17b82fed93e65b4f5345480011604fe1525eb93ef83811d65836040516109959190612035565b60405180910390a35050565b600060086000836040516020016109b89190611fa3565b60405160208183030381529060405280519060200120815260200190815260200160002060009054906101000a900460ff169050919050565b60011515600160003373ffffffffffffffffffffffffffffffffffffffff1673ffffffffffffffffffffffffffffffffffffffff16815260200190815260200160002060009054906101000a900460ff16151514610a84576040517f08c379a0000000000000000000000000000000000000000000000000000000008152600401610a7b90611ef6565b60405180910390fd5b600460008273ffffffffffffffffffffffffffffffffffffffff1673ffffffffffffffffffffffffffffffffffffffff16815260200190815260200160002060009055600160008273ffffffffffffffffffffffffffffffffffffffff1673ffffffffffffffffffffffffffffffffffffffff16815260200190815260200160002060006101000a81549060ff021916905550565b600080600080600080600115156007600089604051602001610b3b9190612093565b60405160208183030381529060405280519060200120815260200190815260200160002060009054906101000a900460ff16151514610baf576040517f08c379a0000000000000000000000000000000000000000000000000000000008152600401610ba6906120f6565b60405180910390fd5b6005600088604051602001610bc49190612093565b604051602081830303815290604052805190602001208152602001908152602001600020600001546005600089604051602001610c019190612093565b60405160208183030381529060405280519060200120815260200190815260200160002060010154600560008a604051602001610c3e9190612093565b60405160208183030381529060405280519060200120815260200190815260200160002060020154600560008b604051602001610c7b9190612093565b60405160208183030381529060405280519060200120815260200190815260200160002060030154600560008c604051602001610cb89190612093565b60405160208183030381529060405280519060200120815260200190815260200160002060040154600560008d604051602001610cf59190612093565b6040516020818303038152906040528051906020012081526020019081526020016000206005015495509550955095509550955091939550919395565b60038113610d75576040517f08c379a0000000000000000000000000000000000000000000000000000000008152600401610d6c90612162565b60405180910390fd5b33600260006101000a81548173ffffffffffffffffffffffffffffffffffffffff021916908373ffffffffffffffffffffffffffffffffffffffff16021790555050565b60006006600083604051602001610dd09190611fa3565b60405160208183030381529060405280519060200120815260200190815260200160002060009054906101000a900460ff169050919050565b3373ffffffffffffffffffffffffffffffffffffffff16600260009054906101000a900473ffffffffffffffffffffffffffffffffffffffff1673ffffffffffffffffffffffffffffffffffffffff1614610e99576040517f08c379a0000000000000000000000000000000000000000000000000000000008152600401610e9090611db2565b60405180910390fd5b8073ffffffffffffffffffffffffffffffffffffffff16600260009054906101000a900473ffffffffffffffffffffffffffffffffffffffff1673ffffffffffffffffffffffffffffffffffffffff1603610f29576040517f08c379a0000000000000000000000000000000000000000000000000000000008152600401610f2090611e1e565b60405180910390fd5b43600460008373ffffffffffffffffffffffffffffffffffffffff1673ffffffffffffffffffffffffffffffffffffffff1681526020019081526020016000205410610faa576040517f08c379a0000000000000000000000000000000000000000000000000000000008152600401610fa190611e8a565b60405180910390fd5b610fb54360286117d9565b600460008373ffffffffffffffffffffffffffffffffffffffff1673ffffffffffffffffffffffffffffffffffffffff1681526020019081526020016000208190555060018060008373ffffffffffffffffffffffffffffffffffffffff1673ffffffffffffffffffffffffffffffffffffffff16815260200190815260200160002060006101000a81548160ff0219169083151502179055508073ffffffffffffffffffffffffffffffffffffffff167f6b0e1d28d263422a620520c077040ce995db3e9b959e1daf117338b2b6f3c0eb60405160405180910390a250565b600060076000836040516020016110ac9190612093565b60405160208183030381529060405280519060200120815260200190815260200160002060009054906101000a900460ff169050919050565b60011515600160003373ffffffffffffffffffffffffffffffffffffffff1673ffffffffffffffffffffffffffffffffffffffff16815260200190815260200160002060009054906101000a900460ff16151514611178576040517f08c379a000000000000000000000000000000000000000000000000000000000815260040161116f90611ef6565b60405180910390fd5b43600460003373ffffffffffffffffffffffffffffffffffffffff1673ffffffffffffffffffffffffffffffffffffffff16815260200190815260200160002054116111f9576040517f08c379a00000000000000000000000000000000000000000000000000000000081526004016111f090611f62565b60405180910390fd5b6001151560066000896040516020016112129190611fa3565b60405160208183030381529060405280519060200120815260200190815260200160002060009054906101000a900460ff16151514611286576040517f08c379a000000000000000000000000000000000000000000000000000000000815260040161127d906121ce565b60405180910390fd5b60011515600860008860405160200161129f9190611fa3565b60405160208183030381529060405280519060200120815260200190815260200160002060009054906101000a900460ff16151514611313576040517f08c379a000000000000000000000000000000000000000000000000000000000815260040161130a9061223a565b60405180910390fd5b6087851315611357576040517f08c379a000000000000000000000000000000000000000000000000000000000815260040161134e906122a6565b60405180910390fd5b60e68414158015611369575060328314155b801561139557507fffffffffffffffffffffffffffffffffffffffffffffffffffffffffffffffff8214155b156113d5576040517f08c379a00000000000000000000000000000000000000000000000000000000081526004016113cc90612312565b60405180910390fd5b600160076000836040516020016113ec9190612093565b60405160208183030381529060405280519060200120815260200190815260200160002060006101000a81548160ff02191690831515021790555086600560008360405160200161143d9190612093565b6040516020818303038152906040528051906020012081526020019081526020016000206000018190555085600560008360405160200161147e9190612093565b604051602081830303815290604052805190602001208152602001908152602001600020600101819055508460056000836040516020016114bf9190612093565b604051602081830303815290604052805190602001208152602001908152602001600020600201819055508360056000836040516020016115009190612093565b604051602081830303815290604052805190602001208152602001908152602001600020600301819055508260056000836040516020016115419190612093565b604051602081830303815290604052805190602001208152602001908152602001600020600401819055508160056000836040516020016115829190612093565b604051602081830303815290604052805190602001208152602001908152602001600020600501819055508060056000836040516020016115c39190612093565b60405160208183030381529060405280519060200120815260200190815260200160002060060190805190602001906115fd9291906117ef565b503373ffffffffffffffffffffffffffffffffffffffff16816040516116239190612093565b60405180910390207f07a9eee897cf9c187115548d8c2a3448f1291d8c8329bb0234099309a58057a760405160405180910390a350505050505050565b600115156000803373ffffffffffffffffffffffffffffffffffffffff1673ffffffffffffffffffffffffffffffffffffffff16815260200190815260200160002060009054906101000a900460ff161515146116f2576040517f08c379a00000000000000000000000000000000000000000000000000000000081526004016116e990611ef6565b60405180910390fd5b600360008273ffffffffffffffffffffffffffffffffffffffff1673ffffffffffffffffffffffffffffffffffffffff168152602001908152602001600020600090556000808273ffffffffffffffffffffffffffffffffffffffff1673ffffffffffffffffffffffffffffffffffffffff16815260200190815260200160002060006101000a81549060ff021916905550565b60008060003373ffffffffffffffffffffffffffffffffffffffff1673ffffffffffffffffffffffffffffffffffffffff16815260200190815260200160002060009054906101000a900460ff16905090565b600081836117e79190612361565b905092915050565b8280546117fb906123e6565b90600052602060002090601f01602090048101928261181d5760008555611864565b82601f1061183657805160ff1916838001178555611864565b82800160010185558215611864579182015b82811115611863578251825591602001919060010190611848565b5b5090506118719190611875565b5090565b5b8082111561188e576000816000905550600101611876565b5090565b60008115159050919050565b6118a781611892565b82525050565b60006020820190506118c2600083018461189e565b92915050565b6000604051905090565b600080fd5b600080fd5b600073ffffffffffffffffffffffffffffffffffffffff82169050919050565b6000611907826118dc565b9050919050565b611917816118fc565b811461192257600080fd5b50565b6000813590506119348161190e565b92915050565b6000602082840312156119505761194f6118d2565b5b600061195e84828501611925565b91505092915050565b6000819050919050565b61197a81611967565b811461198557600080fd5b50565b60008135905061199781611971565b92915050565b600080fd5b600080fd5b6000601f19601f8301169050919050565b7f4e487b7100000000000000000000000000000000000000000000000000000000600052604160045260246000fd5b6119f0826119a7565b810181811067ffffffffffffffff82111715611a0f57611a0e6119b8565b5b80604052505050565b6000611a226118c8565b9050611a2e82826119e7565b919050565b600067ffffffffffffffff821115611a4e57611a4d6119b8565b5b611a57826119a7565b9050602081019050919050565b82818337600083830152505050565b6000611a86611a8184611a33565b611a18565b905082815260208101848484011115611aa257611aa16119a2565b5b611aad848285611a64565b509392505050565b600082601f830112611aca57611ac961199d565b5b8135611ada848260208601611a73565b91505092915050565b60008060408385031215611afa57611af96118d2565b5b6000611b0885828601611988565b925050602083013567ffffffffffffffff811115611b2957611b286118d7565b5b611b3585828601611ab5565b9150509250929050565b600060208284031215611b5557611b546118d2565b5b6000611b6384828501611988565b91505092915050565b600060208284031215611b8257611b816118d2565b5b600082013567ffffffffffffffff811115611ba057611b9f6118d7565b5b611bac84828501611ab5565b91505092915050565b611bbe81611967565b82525050565b6000819050919050565b611bd781611bc4565b82525050565b600060c082019050611bf26000830189611bb5565b611bff6020830188611bb5565b611c0c6040830187611bce565b611c196060830186611bce565b611c266080830185611bce565b611c3360a0830184611bce565b979650505050505050565b611c4781611bc4565b8114611c5257600080fd5b50565b600081359050611c6481611c3e565b92915050565b600060208284031215611c8057611c7f6118d2565b5b6000611c8e84828501611c55565b91505092915050565b600080600080600080600060e0888a031215611cb657611cb56118d2565b5b6000611cc48a828b01611988565b9750506020611cd58a828b01611988565b9650506040611ce68a828b01611c55565b9550506060611cf78a828b01611c55565b9450506080611d088a828b01611c55565b93505060a0611d198a828b01611c55565b92505060c088013567ffffffffffffffff811115611d3a57611d396118d7565b5b611d468a828b01611ab5565b91505092959891949750929550565b600082825260208201905092915050565b7f796f7520617265206e6f74206120636572746966696572000000000000000000600082015250565b6000611d9c601783611d55565b9150611da782611d66565b602082019050919050565b60006020820190508181036000830152611dcb81611d8f565b9050919050565b7f4120636572697469666965722063616e6e6f7420626520616c736f2061204d31600082015250565b6000611e08602083611d55565b9150611e1382611dd2565b602082019050919050565b60006020820190508181036000830152611e3781611dfb565b9050919050565b7f796f752068617665207374696c6c2074696d6500000000000000000000000000600082015250565b6000611e74601383611d55565b9150611e7f82611e3e565b602082019050919050565b60006020820190508181036000830152611ea381611e67565b9050919050565b7f796f7520617265206e6f74207175616c69666965642075736572000000000000600082015250565b6000611ee0601a83611d55565b9150611eeb82611eaa565b602082019050919050565b60006020820190508181036000830152611f0f81611ed3565b9050919050565b7f796f75722074696d65206f6620757361676520656e6400000000000000000000600082015250565b6000611f4c601683611d55565b9150611f5782611f16565b602082019050919050565b60006020820190508181036000830152611f7b81611f3f565b9050919050565b6000819050919050565b611f9d611f9882611967565b611f82565b82525050565b6000611faf8284611f8c565b60208201915081905092915050565b600081519050919050565b60005b83811015611fe7578082015181840152602081019050611fcc565b83811115611ff6576000848401525b50505050565b600061200782611fbe565b6120118185611d55565b9350612021818560208601611fc9565b61202a816119a7565b840191505092915050565b6000602082019050818103600083015261204f8184611ffc565b905092915050565b600081905092915050565b600061206d82611fbe565b6120778185612057565b9350612087818560208601611fc9565b80840191505092915050565b600061209f8284612062565b915081905092915050565b7f456e67696e652069736e2774207265636f726465640000000000000000000000600082015250565b60006120e0601583611d55565b91506120eb826120aa565b602082019050919050565b6000602082019050818103600083015261210f816120d3565b9050919050565b7f796f75206172656e277420612063657469666965720000000000000000000000600082015250565b600061214c601583611d55565b915061215782612116565b602082019050919050565b6000602082019050818103600083015261217b8161213f565b9050919050565b7f6361676573206e6f7420666f756e640000000000000000000000000000000000600082015250565b60006121b8600f83611d55565b91506121c382612182565b602082019050919050565b600060208201905081810360008301526121e7816121ab565b9050919050565b7f74687265616473206e6f7420666f756e64000000000000000000000000000000600082015250565b6000612224601183611d55565b915061222f826121ee565b602082019050919050565b6000602082019050818103600083015261225381612217565b9050919050565b7f54656d706572617475726520636c617373206572726f72000000000000000000600082015250565b6000612290601783611d55565b915061229b8261225a565b602082019050919050565b600060208201905081810360008301526122bf81612283565b9050919050565b7f416c696d656e746174696f6e2074656e73696f6e204572726f72000000000000600082015250565b60006122fc601a83611d55565b9150612307826122c6565b602082019050919050565b6000602082019050818103600083015261232b816122ef565b9050919050565b7f4e487b7100000000000000000000000000000000000000000000000000000000600052601160045260246000fd5b600061236c82611967565b915061237783611967565b9250827fffffffffffffffffffffffffffffffffffffffffffffffffffffffffffffffff038211156123ac576123ab612332565b5b828201905092915050565b7f4e487b7100000000000000000000000000000000000000000000000000000000600052602260045260246000fd5b600060028204905060018216806123fe57607f821691505b602082108103612411576124106123b7565b5b5091905056fea26469706673582212203c5fc3ccae6da28bd4f8164bd999451da0164c3c83fa872d7df5ce889eb2fdb664736f6c634300080d0033",
  "immutableReferences": {},
  "source": "//ElectricEngine contract\r\n\r\n// SPDX-License-Identifier: MIT\r\npragma solidity ^0.8.0;\r\nimport \"./Certificate_contract.sol\";\r\n\r\n\r\ncontract ElectricEngine is BaseCertContract{\r\n\r\n    //Struct for a electric engine\r\n    struct ElecEngine{ \r\n \t\tuint cage_fatt;\r\n        uint thread_fatt;\r\n        int temp;\r\n        int ts;\r\n        int fr;\r\n        int Y;\r\n        string object;\r\n    }\r\n\r\n    \r\n    mapping(bytes32 => ElecEngine) private dat;\r\n\r\n\r\n\r\n   \r\n    //mapping(address => bool) private g;\r\n    //mapping(address => bool) private f;\r\n  \r\n\r\n    \r\n    //mapping(address => uint256) private timeg;\r\n    //mapping(address => uint256) private timef;\r\n\r\n    //address private owner;\r\n\r\n    //mapping(bytes32 => bool) private bubbleCopper;\r\n    //mapping(bytes32 => bool) private bubbleSteel;\r\n    mapping(bytes32 => bool) private cages; \r\n    mapping(bytes32 => bool) private engines;\r\n    mapping(bytes32 => bool) private threads;\r\n\r\n\r\n    //event addedf(address indexed user);\r\n    //event addedg(address indexed user);\r\n    event certThreads(uint indexed fatt, address indexed user,string producer);\r\n    event certCages(uint indexed fatt, address indexed user,string producer);\r\n    event certEngines(string indexed lot, address indexed user);\r\n    \r\n    //int[5] private proof;\r\n    //int[5] private info;\r\n\r\n\r\n    constructor() public BaseCertContract(){\r\n\r\n      /*m1[0x984765fCd218D3937E4298Dd1746b47828D5E9f8] = true;\r\n      m2[0xCCf44CeA3140c0253D845D04973bC0D0E5eED163] = true;\r\n      f[0x10CdeAE4C0d04aD512E017E3F7d236a463c578bB] = true;\r\n      g[0xeaaF394C2468442eCb543d43B11326903e27e311] = true;\r\n      timem1[0x984765fCd218D3937E4298Dd1746b47828D5E9f8] = SafeMath.add(block.number, 40);\r\n      timem2[0xCCf44CeA3140c0253D845D04973bC0D0E5eED163] = SafeMath.add(block.number, 40);\r\n      timeg[0x10CdeAE4C0d04aD512E017E3F7d236a463c578bB] = SafeMath.add(block.number, 40);\r\n      timef[0xeaaF394C2468442eCb543d43B11326903e27e311] = SafeMath.add(block.number, 40);\r\n      certifier = 0x984765fCd218D3937E4298Dd1746b47828D5E9f8;*/\r\n      //owner = msg.sender;\r\n      \r\n      \r\n      \r\n\r\n      // DOMANDA -- Facciamo creare i certificati europei agli utenti certificatori oppure usiamo i certificatori solo come gli utenti che controllano i singoli lotti?\r\n\r\n\r\n     \r\n    }\r\n\r\n    \r\n\r\n    /*function UserInfos( int8 info1, int8 info2, int8 info3, int8 info4, int8 info5) external{\r\n        require(msg.sender == certifier, \"you are not a certifier\");\r\n        info[0] = info1;\r\n        info[1] = info2;\r\n        info[2] = info3;\r\n        info[3] = info4;\r\n        info[4] = info5;\r\n\r\n    }*/\r\n\r\n    /*function UserProofs(int8 proof1, int8 proof2, int8 proof3, int8 proof4, int proof5) external{\r\n        require(msg.sender == certifier, \"you are not a certifier\");\r\n        proof[0] = proof1;\r\n        proof[1] = proof2;\r\n        proof[2] = proof3;\r\n        proof[3] = proof4;\r\n        proof[4] = proof5;\r\n\r\n    }*/\r\n\r\n   \r\n\r\n \r\n    /*function addG(int8 infop) external {\r\n        require(infop>info[2],\"you aren't a G\");\r\n        require(timeg[msg.sender]<block.timestamp,\"you have still time\");\r\n        timeg[msg.sender] = SafeMath.add(block.timestamp, 40);\r\n        m1[msg.sender] = true;\r\n        emit addedg(msg.sender);\r\n    } \r\n\r\n    function addmF(int8 infop) external {\r\n        require(infop>info[4],\"you aren't a F\");\r\n        require(timef[msg.sender]<block.timestamp,\"you have still time\");\r\n        timef[msg.sender] = SafeMath.add(block.timestamp, 40);\r\n        m1[msg.sender] = true;\r\n        emit addedf(msg.sender);\r\n\r\n    } */\r\n\r\n    /*\r\n\r\n    FOR NOW CERTIFY ONLY THREADS, CAGES AND ENGINES\r\n\r\n    function certificateSteels(int proofo, string memory object) external { \r\n      \r\n        require(proofo>proof[0],\"not valid Steels\");\r\n        require(f[msg.sender] == true, \"you are not qualified user\");\r\n        require(timef[msg.sender]>block.number, \"your time of usage end\");\r\n        bubbleSteel[keccak256(abi.encodePacked(object))] = true;\r\n    } \r\n    \r\n\r\n    function certificateCoppers(int proofo, string memory object) external {\r\n        require(proofo>proof[1],\"not valid Coppers\");\r\n        require(g[msg.sender] == true, \"you are not qualified user\");\r\n        require(timeg[msg.sender]>block.number, \"your time of usage end\");\r\n        bubbleCopper[keccak256(abi.encodePacked(object))] = true;\r\n    }  \r\n\r\n    */\r\n\r\n    function certificateThreads(uint fatt, string memory producer) external ism1{ //Ask threads data (Producer and Fattura d'aquisto) to certidicate the threads\r\n        \r\n        require(timem1[msg.sender]>block.number, \"your time of usage end\");\r\n        threads[keccak256(abi.encodePacked(fatt))] = true; //the key value for the threads is now the invoice (fattura) code.\r\n        emit certThreads(fatt,msg.sender,producer);\r\n        //return(producer, fatt); //this function return the producer and the invoice code - if useful\r\n    }\r\n\r\n    function certificateCage(uint fatt, string memory producer) external ism1{ //Ask for cages data (Producer and Fattura d'aquisto) to certificate the cages\r\n        \r\n        require(timem1[msg.sender]>block.number, \"your time of usage end\");\r\n        cages[keccak256(abi.encodePacked(fatt))] = true;//the key value for the threads is now the invoice (fattura) code.\r\n        emit certCages(fatt,msg.sender,producer);\r\n        //return(producer, fatt); //As above\r\n    }\r\n\r\n    function certificateEngines(uint cage_fatt, uint thread_fatt, int temp, int ts, int fr, int Y, string memory object) external ism2{\r\n       \r\n        require(timem2[msg.sender]>block.number, \"your time of usage end\"); \r\n        require(cages[keccak256(abi.encodePacked(cage_fatt))] == true, \"cages not found\"); //cage_fatt -> cage invoice//thread_fatt -> thread invoice id\r\n        require(threads[keccak256(abi.encodePacked(thread_fatt))] == true, \"threads not found\"); //thread_fatt -> thread invoice id\r\n        require(temp <= 135, \"Temperature class error\"); //check if the tested temperature class is less then or equal to teh one defined in the certificate (defiened when the cintract is created)\r\n        if (ts != 230 && fr != 50 && Y != -1){ //check the parameter for the alimentation tension\r\n            revert(\"Alimentation tension Error\");\r\n        }\r\n        engines[keccak256(abi.encodePacked(object))] = true; //set as true an engine with ID lotto, azienda:number.\r\n        dat[keccak256(abi.encodePacked(object))].cage_fatt = cage_fatt;\r\n        dat[keccak256(abi.encodePacked(object))].thread_fatt = thread_fatt;\r\n        dat[keccak256(abi.encodePacked(object))].temp = temp;\r\n        dat[keccak256(abi.encodePacked(object))].ts = ts;\r\n        dat[keccak256(abi.encodePacked(object))].fr = fr;\r\n        dat[keccak256(abi.encodePacked(object))].Y = Y;\r\n        dat[keccak256(abi.encodePacked(object))].object = object;\r\n        //segnare i due pezzi cages e thread come non certificati !!!!!!!!!!!!!!!!!!!!!!!!!!!!!!!!!!!!!!!!!!!!!!!!!!!!!!!!!!!!!!!!!!!!!!!!!!!!!!!!!!!!!!!!!!!!!!!!!!!!!!!!!!!!!!!!!!!!\r\n        emit certEngines(object,msg.sender);\r\n    } \r\n\r\n   /* function isCertificatesSteels(string memory object) view external returns(bool) {\r\n        return bubbleSteel[keccak256(abi.encodePacked(object))];\r\n    }   \r\n\r\n    function isCertificatedCoppers(string memory object) view external returns(bool){\r\n   \r\n        return bubbleCopper[keccak256(abi.encodePacked(object))];\r\n    }   */\r\n\r\n    //Get info of a electric engine\r\n    function getElectricEngineData(string memory object) external view returns(uint,uint,int,int,int,int){\r\n       \r\n        require(engines[keccak256(abi.encodePacked(object))] == true, \"Engine isn't recorded\");\r\n        return (dat[keccak256(abi.encodePacked(object))].cage_fatt, dat[keccak256(abi.encodePacked(object))].thread_fatt, dat[keccak256(abi.encodePacked(object))].temp, dat[keccak256(abi.encodePacked(object))].ts, dat[keccak256(abi.encodePacked(object))].fr, dat[keccak256(abi.encodePacked(object))].Y);\r\n    }\r\n\r\n    function isCertificatedThreads(uint fatt) view external returns(bool){ \r\n      \r\n        return threads[keccak256(abi.encodePacked(fatt))];\r\n    } \r\n\r\n    function isCertificatedCages(uint fatt) view external returns(bool){\r\n \r\n        return cages[keccak256(abi.encodePacked(fatt))];\r\n    } \r\n\r\n    function isCertificatedEngines(string memory lot) view public returns(bool){\r\n    \r\n        return engines[keccak256(abi.encodePacked(lot))];\r\n    } \r\n\r\n  \r\n    /*function isF() view external returns(bool){\r\n      \r\n        return f[msg.sender];\r\n    } \r\n\r\n    function isG() view external returns(bool){\r\n \r\n        return g[msg.sender];\r\n    } */\r\n\r\n\r\n\r\n\r\n\r\n\r\n    /*function payStorageFee() external payable {\r\n        require(msg.sender == customer, \"Only the customer can pay the storage fee\");\r\n        require(msg.value > 0, \"Storage fee should be greater than zero\");\r\n        balances[storageProvider] += msg.value;\r\n        emit StorageFeePaid(msg.sender, msg.value);\r\n    }\r\n\r\n    function storeItems(uint256 _amount) external {\r\n        require(msg.sender == customer, \"Only the customer can store items\");\r\n        require(balances[customer] >= _amount, \"Insufficient balance to store items\");\r\n        balances[customer] -= _amount;\r\n        storedItems[customer] += _amount;\r\n        emit ItemsStored(msg.sender, _amount);\r\n    }\r\n\r\n    function retrieveItems(uint256 _amount) external {\r\n        require(msg.sender == customer, \"Only the customer can retrieve items\");\r\n        require(storedItems[customer] >= _amount, \"Insufficient stored items to retrieve\");\r\n        storedItems[customer] -= _amount;\r\n        balances[customer] += _amount;\r\n        emit ItemsRetrieved(msg.sender, _amount);\r\n    }*/\r\n}\r\n\r\n\r\n\r\n",
  "sourcePath": "C:\\Users\\stefa\\Documents\\GitHub\\BlockchainProject\\Proj_source\\contracts\\Proj_contract.sol",
  "compiler": {
    "name": "solc",
    "version": "0.8.13+commit.abaa5c0e.Emscripten.clang"
  },
  "schemaVersion": "3.4.14",
  "updatedAt": "2023-08-20T16:08:47.758Z",
  "networkType": "ethereum",
  "devdoc": {
    "kind": "dev",
    "methods": {},
    "version": 1
  },
  "userdoc": {
    "kind": "user",
    "methods": {},
    "version": 1
  }
}