{
  "contractName": "ElectricEngine",
  "abi": [
    {
      "inputs": [],
      "stateMutability": "nonpayable",
      "type": "constructor"
    },
    {
      "anonymous": false,
      "inputs": [
        {
          "indexed": true,
          "internalType": "address",
          "name": "user",
          "type": "address"
        }
      ],
      "name": "addedm1",
      "type": "event"
    },
    {
      "inputs": [
        {
          "internalType": "int8",
          "name": "info1",
          "type": "int8"
        },
        {
          "internalType": "int8",
          "name": "info2",
          "type": "int8"
        },
        {
          "internalType": "int8",
          "name": "info3",
          "type": "int8"
        },
        {
          "internalType": "int8",
          "name": "info4",
          "type": "int8"
        },
        {
          "internalType": "int8",
          "name": "info5",
          "type": "int8"
        }
      ],
      "name": "UserInfos",
      "outputs": [],
      "stateMutability": "nonpayable",
      "type": "function"
    },
    {
      "inputs": [
        {
          "internalType": "int8",
          "name": "proof1",
          "type": "int8"
        },
        {
          "internalType": "int8",
          "name": "proof2",
          "type": "int8"
        },
        {
          "internalType": "int8",
          "name": "proof3",
          "type": "int8"
        },
        {
          "internalType": "int8",
          "name": "proof4",
          "type": "int8"
        },
        {
          "internalType": "int256",
          "name": "proof5",
          "type": "int256"
        }
      ],
      "name": "UserProofs",
      "outputs": [],
      "stateMutability": "nonpayable",
      "type": "function"
    },
    {
      "inputs": [
        {
          "internalType": "int256",
          "name": "infop",
          "type": "int256"
        }
      ],
      "name": "addcertifier",
      "outputs": [],
      "stateMutability": "nonpayable",
      "type": "function"
    },
    {
      "inputs": [
        {
          "internalType": "int8",
          "name": "infop",
          "type": "int8"
        }
      ],
      "name": "addm1",
      "outputs": [],
      "stateMutability": "nonpayable",
      "type": "function"
    },
    {
      "inputs": [
        {
          "internalType": "int8",
          "name": "infop",
          "type": "int8"
        }
      ],
      "name": "addm2",
      "outputs": [],
      "stateMutability": "nonpayable",
      "type": "function"
    },
    {
      "inputs": [
        {
          "internalType": "int8",
          "name": "infop",
          "type": "int8"
        }
      ],
      "name": "addG",
      "outputs": [],
      "stateMutability": "nonpayable",
      "type": "function"
    },
    {
      "inputs": [
        {
          "internalType": "int8",
          "name": "infop",
          "type": "int8"
        }
      ],
      "name": "addmF",
      "outputs": [],
      "stateMutability": "nonpayable",
      "type": "function"
    },
    {
      "inputs": [
        {
          "internalType": "uint256",
          "name": "fatt",
          "type": "uint256"
        },
        {
          "internalType": "string",
          "name": "producer",
          "type": "string"
        }
      ],
      "name": "certificateThreads",
      "outputs": [
        {
          "internalType": "string",
          "name": "",
          "type": "string"
        },
        {
          "internalType": "uint256",
          "name": "",
          "type": "uint256"
        }
      ],
      "stateMutability": "nonpayable",
      "type": "function"
    },
    {
      "inputs": [
        {
          "internalType": "uint256",
          "name": "fatt",
          "type": "uint256"
        },
        {
          "internalType": "string",
          "name": "producer",
          "type": "string"
        }
      ],
      "name": "certificateCage",
      "outputs": [
        {
          "internalType": "string",
          "name": "",
          "type": "string"
        },
        {
          "internalType": "uint256",
          "name": "",
          "type": "uint256"
        }
      ],
      "stateMutability": "nonpayable",
      "type": "function"
    },
    {
      "inputs": [
        {
          "internalType": "int256",
          "name": "proofo",
          "type": "int256"
        },
        {
          "internalType": "uint256",
          "name": "cage_fatt",
          "type": "uint256"
        },
        {
          "internalType": "uint256",
          "name": "thread_fatt",
          "type": "uint256"
        },
        {
          "internalType": "int256",
          "name": "temp",
          "type": "int256"
        },
        {
          "internalType": "int256",
          "name": "ts",
          "type": "int256"
        },
        {
          "internalType": "int256",
          "name": "fr",
          "type": "int256"
        },
        {
          "internalType": "int256",
          "name": "Y",
          "type": "int256"
        },
        {
          "internalType": "string",
          "name": "object",
          "type": "string"
        }
      ],
      "name": "certificateEngines",
      "outputs": [],
      "stateMutability": "nonpayable",
      "type": "function"
    },
    {
      "inputs": [
        {
          "internalType": "string",
          "name": "object",
          "type": "string"
        }
      ],
      "name": "isCertificatedThreads",
      "outputs": [
        {
          "internalType": "bool",
          "name": "",
          "type": "bool"
        }
      ],
      "stateMutability": "view",
      "type": "function",
      "constant": true
    },
    {
      "inputs": [
        {
          "internalType": "string",
          "name": "object",
          "type": "string"
        }
      ],
      "name": "isCertificatedCages",
      "outputs": [
        {
          "internalType": "bool",
          "name": "",
          "type": "bool"
        }
      ],
      "stateMutability": "view",
      "type": "function",
      "constant": true
    },
    {
      "inputs": [
        {
          "internalType": "string",
          "name": "object",
          "type": "string"
        }
      ],
      "name": "isCertificatedEngines",
      "outputs": [
        {
          "internalType": "bool",
          "name": "",
          "type": "bool"
        }
      ],
      "stateMutability": "view",
      "type": "function",
      "constant": true
    },
    {
      "inputs": [],
      "name": "isM1",
      "outputs": [
        {
          "internalType": "bool",
          "name": "",
          "type": "bool"
        }
      ],
      "stateMutability": "view",
      "type": "function",
      "constant": true
    },
    {
      "inputs": [],
      "name": "isM2",
      "outputs": [
        {
          "internalType": "bool",
          "name": "",
          "type": "bool"
        }
      ],
      "stateMutability": "view",
      "type": "function",
      "constant": true
    },
    {
      "inputs": [],
      "name": "isF",
      "outputs": [
        {
          "internalType": "bool",
          "name": "",
          "type": "bool"
        }
      ],
      "stateMutability": "view",
      "type": "function",
      "constant": true
    },
    {
      "inputs": [],
      "name": "isG",
      "outputs": [
        {
          "internalType": "bool",
          "name": "",
          "type": "bool"
        }
      ],
      "stateMutability": "view",
      "type": "function",
      "constant": true
    }
  ],
  "bytecode": "0x60806040523480156200001157600080fd5b50600160008073984765fcd218d3937e4298dd1746b47828d5e9f873ffffffffffffffffffffffffffffffffffffffff1673ffffffffffffffffffffffffffffffffffffffff16815260200190815260200160002060006101000a81548160ff021916908315150217905550600180600073ccf44cea3140c0253d845d04973bc0d0e5eed16373ffffffffffffffffffffffffffffffffffffffff1673ffffffffffffffffffffffffffffffffffffffff16815260200190815260200160002060006101000a81548160ff0219169083151502179055506001600360007310cdeae4c0d04ad512e017e3f7d236a463c578bb73ffffffffffffffffffffffffffffffffffffffff1673ffffffffffffffffffffffffffffffffffffffff16815260200190815260200160002060006101000a81548160ff02191690831515021790555060016002600073eaaf394c2468442ecb543d43b11326903e27e31173ffffffffffffffffffffffffffffffffffffffff1673ffffffffffffffffffffffffffffffffffffffff16815260200190815260200160002060006101000a81548160ff0219169083151502179055506000620001da426028620003d960201b620014c31760201c565b9050806005600073984765fcd218d3937e4298dd1746b47828d5e9f873ffffffffffffffffffffffffffffffffffffffff1673ffffffffffffffffffffffffffffffffffffffff16815260200190815260200160002081905550806006600073ccf44cea3140c0253d845d04973bc0d0e5eed16373ffffffffffffffffffffffffffffffffffffffff1673ffffffffffffffffffffffffffffffffffffffff1681526020019081526020016000208190555080600760007310cdeae4c0d04ad512e017e3f7d236a463c578bb73ffffffffffffffffffffffffffffffffffffffff1673ffffffffffffffffffffffffffffffffffffffff16815260200190815260200160002081905550806008600073eaaf394c2468442ecb543d43b11326903e27e31173ffffffffffffffffffffffffffffffffffffffff1673ffffffffffffffffffffffffffffffffffffffff1681526020019081526020016000208190555073984765fcd218d3937e4298dd1746b47828d5e9f8600460006101000a81548173ffffffffffffffffffffffffffffffffffffffff021916908373ffffffffffffffffffffffffffffffffffffffff16021790555033600960006101000a81548173ffffffffffffffffffffffffffffffffffffffff021916908373ffffffffffffffffffffffffffffffffffffffff1602179055505062000487565b60008183620003e991906200042a565b905092915050565b6000819050919050565b7f4e487b7100000000000000000000000000000000000000000000000000000000600052601160045260246000fd5b60006200043782620003f1565b91506200044483620003f1565b9250827fffffffffffffffffffffffffffffffffffffffffffffffffffffffffffffffff038211156200047c576200047b620003fb565b5b828201905092915050565b61219180620004976000396000f3fe608060405234801561001057600080fd5b506004361061010b5760003560e01c806378f17c90116100a25780639e5c3196116100715780639e5c3196146102ca578063ae2c7667146102e6578063d874877114610304578063d917288914610320578063dbc789641461033e5761010b565b806378f17c9014610246578063862a9faf146102625780638748a1461461027e57806397c974b1146102ae5761010b565b80635a174a61116100de5780635a174a61146101ac5780635f64ab86146101dc5780636354511f1461020c578063735a29c71461022a5761010b565b80631698143414610110578063258c6647146101415780632c690b3f1461015f578063513f8c2f14610190575b600080fd5b61012a60048036038101906101259190611669565b61035a565b60405161013892919061175c565b60405180910390f35b61014961052b565b60405161015691906117a7565b60405180910390f35b61017960048036038101906101749190611669565b61057f565b60405161018792919061175c565b60405180910390f35b6101aa60048036038101906101a591906117f8565b610750565b005b6101c660048036038101906101c19190611825565b6107d7565b6040516101d391906117a7565b60405180910390f35b6101f660048036038101906101f19190611825565b610827565b60405161020391906117a7565b60405180910390f35b610214610877565b60405161022191906117a7565b60405180910390f35b610244600480360381019061023f91906118a7565b6108cb565b005b610260600480360381019061025b91906118d4565b6109ce565b005b61027c600480360381019061027791906118a7565b610e29565b005b61029860048036038101906102939190611825565b610f6f565b6040516102a591906117a7565b60405180910390f35b6102c860048036038101906102c391906119a6565b610fbf565b005b6102e460048036038101906102df91906118a7565b6110e9565b005b6102ee6111ec565b6040516102fb91906117a7565b60405180910390f35b61031e600480360381019061031991906118a7565b611240565b005b610328611343565b60405161033591906117a7565b60405180910390f35b61035860048036038101906103539190611a21565b611396565b005b60606000600115156000803373ffffffffffffffffffffffffffffffffffffffff1673ffffffffffffffffffffffffffffffffffffffff16815260200190815260200160002060009054906101000a900460ff161515148061040c575060011515600160003373ffffffffffffffffffffffffffffffffffffffff1673ffffffffffffffffffffffffffffffffffffffff16815260200190815260200160002060009054906101000a900460ff161515145b61044b576040517f08c379a000000000000000000000000000000000000000000000000000000000815260040161044290611ae8565b60405180910390fd5b42600860003373ffffffffffffffffffffffffffffffffffffffff1673ffffffffffffffffffffffffffffffffffffffff16815260200190815260200160002054116104cc576040517f08c379a00000000000000000000000000000000000000000000000000000000081526004016104c390611b54565b60405180910390fd5b6001600c6000866040516020016104e39190611b95565b60405160208183030381529060405280519060200120815260200190815260200160002060006101000a81548160ff0219169083151502179055508284915091509250929050565b6000600160003373ffffffffffffffffffffffffffffffffffffffff1673ffffffffffffffffffffffffffffffffffffffff16815260200190815260200160002060009054906101000a900460ff16905090565b60606000600115156000803373ffffffffffffffffffffffffffffffffffffffff1673ffffffffffffffffffffffffffffffffffffffff16815260200190815260200160002060009054906101000a900460ff1615151480610631575060011515600160003373ffffffffffffffffffffffffffffffffffffffff1673ffffffffffffffffffffffffffffffffffffffff16815260200190815260200160002060009054906101000a900460ff161515145b610670576040517f08c379a000000000000000000000000000000000000000000000000000000000815260040161066790611ae8565b60405180910390fd5b42600860003373ffffffffffffffffffffffffffffffffffffffff1673ffffffffffffffffffffffffffffffffffffffff16815260200190815260200160002054116106f1576040517f08c379a00000000000000000000000000000000000000000000000000000000081526004016106e890611b54565b60405180910390fd5b6001600e6000866040516020016107089190611b95565b60405160208183030381529060405280519060200120815260200190815260200160002060006101000a81548160ff0219169083151502179055508284915091509250929050565b60038113610793576040517f08c379a000000000000000000000000000000000000000000000000000000000815260040161078a90611bfc565b60405180910390fd5b33600460006101000a81548173ffffffffffffffffffffffffffffffffffffffff021916908373ffffffffffffffffffffffffffffffffffffffff16021790555050565b6000600e6000836040516020016107ee9190611c58565b60405160208183030381529060405280519060200120815260200190815260200160002060009054906101000a900460ff169050919050565b6000600c60008360405160200161083e9190611c58565b60405160208183030381529060405280519060200120815260200190815260200160002060009054906101000a900460ff169050919050565b6000600260003373ffffffffffffffffffffffffffffffffffffffff1673ffffffffffffffffffffffffffffffffffffffff16815260200190815260200160002060009054906101000a900460ff16905090565b60156001600581106108e0576108df611c6f565b5b01548160000b13610926576040517f08c379a000000000000000000000000000000000000000000000000000000000815260040161091d90611cea565b60405180910390fd5b6109314260286114c3565b600660003373ffffffffffffffffffffffffffffffffffffffff1673ffffffffffffffffffffffffffffffffffffffff1681526020019081526020016000208190555060016000803373ffffffffffffffffffffffffffffffffffffffff1673ffffffffffffffffffffffffffffffffffffffff16815260200190815260200160002060006101000a81548160ff02191690831515021790555050565b60106004600581106109e3576109e2611c6f565b5b01548813610a26576040517f08c379a0000000000000000000000000000000000000000000000000000000008152600401610a1d90611d56565b60405180910390fd5b600115156000803373ffffffffffffffffffffffffffffffffffffffff1673ffffffffffffffffffffffffffffffffffffffff16815260200190815260200160002060009054906101000a900460ff1615151480610ad4575060011515600160003373ffffffffffffffffffffffffffffffffffffffff1673ffffffffffffffffffffffffffffffffffffffff16815260200190815260200160002060009054906101000a900460ff161515145b610b13576040517f08c379a0000000000000000000000000000000000000000000000000000000008152600401610b0a90611ae8565b60405180910390fd5b42600560003373ffffffffffffffffffffffffffffffffffffffff1673ffffffffffffffffffffffffffffffffffffffff168152602001908152602001600020541180610b9e575042600660003373ffffffffffffffffffffffffffffffffffffffff1673ffffffffffffffffffffffffffffffffffffffff16815260200190815260200160002054115b610bdd576040517f08c379a0000000000000000000000000000000000000000000000000000000008152600401610bd490611b54565b60405180910390fd5b60011515600c600088604051602001610bf69190611b95565b60405160208183030381529060405280519060200120815260200190815260200160002060009054906101000a900460ff16151514610c6a576040517f08c379a0000000000000000000000000000000000000000000000000000000008152600401610c6190611dc2565b60405180910390fd5b6001600e600089604051602001610c819190611b95565b60405160208183030381529060405280519060200120815260200190815260200160002060006101000a81548160ff0219169083151502179055610cfa576040517f08c379a0000000000000000000000000000000000000000000000000000000008152600401610cf190611e2e565b60405180910390fd5b6087851315610d3e576040517f08c379a0000000000000000000000000000000000000000000000000000000008152600401610d3590611e9a565b60405180910390fd5b600060e685148015610d505750603284145b8015610d7b57507fffffffffffffffffffffffffffffffffffffffffffffffffffffffffffffffff83145b15610d8557600190505b6001151581151514610dcc576040517f08c379a0000000000000000000000000000000000000000000000000000000008152600401610dc390611f06565b60405180910390fd5b6001600d600084604051602001610de39190611c58565b60405160208183030381529060405280519060200120815260200190815260200160002060006101000a81548160ff021916908315150217905550505050505050505050565b6015600060058110610e3e57610e3d611c6f565b5b01548160000b13610e84576040517f08c379a0000000000000000000000000000000000000000000000000000000008152600401610e7b90611f72565b60405180910390fd5b610e8f4260286114c3565b600560003373ffffffffffffffffffffffffffffffffffffffff1673ffffffffffffffffffffffffffffffffffffffff1681526020019081526020016000208190555060016000803373ffffffffffffffffffffffffffffffffffffffff1673ffffffffffffffffffffffffffffffffffffffff16815260200190815260200160002060006101000a81548160ff0219169083151502179055503373ffffffffffffffffffffffffffffffffffffffff167f2756cd91fb7c0be01353207b0107f45f9dbe5f2837c4a796fe7d95c060d7588260405160405180910390a250565b6000600d600083604051602001610f869190611c58565b60405160208183030381529060405280519060200120815260200190815260200160002060009054906101000a900460ff169050919050565b600460009054906101000a900473ffffffffffffffffffffffffffffffffffffffff1673ffffffffffffffffffffffffffffffffffffffff163373ffffffffffffffffffffffffffffffffffffffff161461104f576040517f08c379a000000000000000000000000000000000000000000000000000000000815260040161104690611fde565b60405180910390fd5b8460000b601060006005811061106857611067611c6f565b5b01819055508360000b601060016005811061108657611085611c6f565b5b01819055508260000b60106002600581106110a4576110a3611c6f565b5b01819055508160000b60106003600581106110c2576110c1611c6f565b5b01819055508060106004600581106110dd576110dc611c6f565b5b01819055505050505050565b60156002600581106110fe576110fd611c6f565b5b01548160000b13611144576040517f08c379a000000000000000000000000000000000000000000000000000000000815260040161113b9061204a565b60405180910390fd5b61114f4260286114c3565b600760003373ffffffffffffffffffffffffffffffffffffffff1673ffffffffffffffffffffffffffffffffffffffff1681526020019081526020016000208190555060016000803373ffffffffffffffffffffffffffffffffffffffff1673ffffffffffffffffffffffffffffffffffffffff16815260200190815260200160002060006101000a81548160ff02191690831515021790555050565b6000600360003373ffffffffffffffffffffffffffffffffffffffff1673ffffffffffffffffffffffffffffffffffffffff16815260200190815260200160002060009054906101000a900460ff16905090565b601560046005811061125557611254611c6f565b5b01548160000b1361129b576040517f08c379a0000000000000000000000000000000000000000000000000000000008152600401611292906120b6565b60405180910390fd5b6112a64260286114c3565b600860003373ffffffffffffffffffffffffffffffffffffffff1673ffffffffffffffffffffffffffffffffffffffff1681526020019081526020016000208190555060016000803373ffffffffffffffffffffffffffffffffffffffff1673ffffffffffffffffffffffffffffffffffffffff16815260200190815260200160002060006101000a81548160ff02191690831515021790555050565b60008060003373ffffffffffffffffffffffffffffffffffffffff1673ffffffffffffffffffffffffffffffffffffffff16815260200190815260200160002060009054906101000a900460ff16905090565b600460009054906101000a900473ffffffffffffffffffffffffffffffffffffffff1673ffffffffffffffffffffffffffffffffffffffff163373ffffffffffffffffffffffffffffffffffffffff1614611426576040517f08c379a000000000000000000000000000000000000000000000000000000000815260040161141d90611fde565b60405180910390fd5b8460000b601560006005811061143f5761143e611c6f565b5b01819055508360000b601560016005811061145d5761145c611c6f565b5b01819055508260000b601560026005811061147b5761147a611c6f565b5b01819055508160000b601560036005811061149957611498611c6f565b5b01819055508060000b60156004600581106114b7576114b6611c6f565b5b01819055505050505050565b600081836114d19190612105565b905092915050565b6000604051905090565b600080fd5b600080fd5b6000819050919050565b611500816114ed565b811461150b57600080fd5b50565b60008135905061151d816114f7565b92915050565b600080fd5b600080fd5b6000601f19601f8301169050919050565b7f4e487b7100000000000000000000000000000000000000000000000000000000600052604160045260246000fd5b6115768261152d565b810181811067ffffffffffffffff821117156115955761159461153e565b5b80604052505050565b60006115a86114d9565b90506115b4828261156d565b919050565b600067ffffffffffffffff8211156115d4576115d361153e565b5b6115dd8261152d565b9050602081019050919050565b82818337600083830152505050565b600061160c611607846115b9565b61159e565b90508281526020810184848401111561162857611627611528565b5b6116338482856115ea565b509392505050565b600082601f8301126116505761164f611523565b5b81356116608482602086016115f9565b91505092915050565b600080604083850312156116805761167f6114e3565b5b600061168e8582860161150e565b925050602083013567ffffffffffffffff8111156116af576116ae6114e8565b5b6116bb8582860161163b565b9150509250929050565b600081519050919050565b600082825260208201905092915050565b60005b838110156116ff5780820151818401526020810190506116e4565b8381111561170e576000848401525b50505050565b600061171f826116c5565b61172981856116d0565b93506117398185602086016116e1565b6117428161152d565b840191505092915050565b611756816114ed565b82525050565b600060408201905081810360008301526117768185611714565b9050611785602083018461174d565b9392505050565b60008115159050919050565b6117a18161178c565b82525050565b60006020820190506117bc6000830184611798565b92915050565b6000819050919050565b6117d5816117c2565b81146117e057600080fd5b50565b6000813590506117f2816117cc565b92915050565b60006020828403121561180e5761180d6114e3565b5b600061181c848285016117e3565b91505092915050565b60006020828403121561183b5761183a6114e3565b5b600082013567ffffffffffffffff811115611859576118586114e8565b5b6118658482850161163b565b91505092915050565b60008160000b9050919050565b6118848161186e565b811461188f57600080fd5b50565b6000813590506118a18161187b565b92915050565b6000602082840312156118bd576118bc6114e3565b5b60006118cb84828501611892565b91505092915050565b600080600080600080600080610100898b0312156118f5576118f46114e3565b5b60006119038b828c016117e3565b98505060206119148b828c0161150e565b97505060406119258b828c0161150e565b96505060606119368b828c016117e3565b95505060806119478b828c016117e3565b94505060a06119588b828c016117e3565b93505060c06119698b828c016117e3565b92505060e089013567ffffffffffffffff81111561198a576119896114e8565b5b6119968b828c0161163b565b9150509295985092959890939650565b600080600080600060a086880312156119c2576119c16114e3565b5b60006119d088828901611892565b95505060206119e188828901611892565b94505060406119f288828901611892565b9350506060611a0388828901611892565b9250506080611a14888289016117e3565b9150509295509295909350565b600080600080600060a08688031215611a3d57611a3c6114e3565b5b6000611a4b88828901611892565b9550506020611a5c88828901611892565b9450506040611a6d88828901611892565b9350506060611a7e88828901611892565b9250506080611a8f88828901611892565b9150509295509295909350565b7f796f7520617265206e6f74207175616c69666965642075736572000000000000600082015250565b6000611ad2601a836116d0565b9150611add82611a9c565b602082019050919050565b60006020820190508181036000830152611b0181611ac5565b9050919050565b7f796f75722074696d65206f6620757361676520656e6400000000000000000000600082015250565b6000611b3e6016836116d0565b9150611b4982611b08565b602082019050919050565b60006020820190508181036000830152611b6d81611b31565b9050919050565b6000819050919050565b611b8f611b8a826114ed565b611b74565b82525050565b6000611ba18284611b7e565b60208201915081905092915050565b7f796f75206172656e277420612063657469666965720000000000000000000000600082015250565b6000611be66015836116d0565b9150611bf182611bb0565b602082019050919050565b60006020820190508181036000830152611c1581611bd9565b9050919050565b600081905092915050565b6000611c32826116c5565b611c3c8185611c1c565b9350611c4c8185602086016116e1565b80840191505092915050565b6000611c648284611c27565b915081905092915050565b7f4e487b7100000000000000000000000000000000000000000000000000000000600052603260045260246000fd5b7f796f75206172656e27742061206d320000000000000000000000000000000000600082015250565b6000611cd4600f836116d0565b9150611cdf82611c9e565b602082019050919050565b60006020820190508181036000830152611d0381611cc7565b9050919050565b7f6e6f742076616c69642043616765730000000000000000000000000000000000600082015250565b6000611d40600f836116d0565b9150611d4b82611d0a565b602082019050919050565b60006020820190508181036000830152611d6f81611d33565b9050919050565b7f6361676573206e6f7420666f756e640000000000000000000000000000000000600082015250565b6000611dac600f836116d0565b9150611db782611d76565b602082019050919050565b60006020820190508181036000830152611ddb81611d9f565b9050919050565b7f74687265616473206e6f7420666f756e64000000000000000000000000000000600082015250565b6000611e186011836116d0565b9150611e2382611de2565b602082019050919050565b60006020820190508181036000830152611e4781611e0b565b9050919050565b7f54656d706572617475726520636c617373206572726f72000000000000000000600082015250565b6000611e846017836116d0565b9150611e8f82611e4e565b602082019050919050565b60006020820190508181036000830152611eb381611e77565b9050919050565b7f416c696d656e746174696f6e2074656e73696f6e204572726f72000000000000600082015250565b6000611ef0601a836116d0565b9150611efb82611eba565b602082019050919050565b60006020820190508181036000830152611f1f81611ee3565b9050919050565b7f796f75206172656e27742061206d310000000000000000000000000000000000600082015250565b6000611f5c600f836116d0565b9150611f6782611f26565b602082019050919050565b60006020820190508181036000830152611f8b81611f4f565b9050919050565b7f796f7520617265206e6f74206120636572746966696572000000000000000000600082015250565b6000611fc86017836116d0565b9150611fd382611f92565b602082019050919050565b60006020820190508181036000830152611ff781611fbb565b9050919050565b7f796f75206172656e277420612047000000000000000000000000000000000000600082015250565b6000612034600e836116d0565b915061203f82611ffe565b602082019050919050565b6000602082019050818103600083015261206381612027565b9050919050565b7f796f75206172656e277420612046000000000000000000000000000000000000600082015250565b60006120a0600e836116d0565b91506120ab8261206a565b602082019050919050565b600060208201905081810360008301526120cf81612093565b9050919050565b7f4e487b7100000000000000000000000000000000000000000000000000000000600052601160045260246000fd5b6000612110826114ed565b915061211b836114ed565b9250827fffffffffffffffffffffffffffffffffffffffffffffffffffffffffffffffff038211156121505761214f6120d6565b5b82820190509291505056fea2646970667358221220e2ed53aaee4cb93ac2a3c9e2621a6c49f863151c66434d654d9029157726421964736f6c634300080d0033",
  "immutableReferences": {},
  "source": "// SPDX-License-Identifier: MIT\r\npragma solidity ^0.8.0;\r\n\r\nimport \"@openzeppelin/contracts/utils/math/SafeMath.sol\";\r\n\r\ncontract ElectricEngine {\r\n\r\n    mapping(address => bool) private m1;\r\n    mapping(address => bool) private m2;\r\n    mapping(address => bool) private g;\r\n    mapping(address => bool) private f;\r\n    address private certifier; //who specified the parameter for the verification.\r\n\r\n    mapping(address => uint256) private timem1;\r\n    mapping(address => uint256) private timem2;\r\n    mapping(address => uint256) private timeg;\r\n    mapping(address => uint256) private timef;\r\n\r\n    address private owner;\r\n\r\n    mapping(bytes32 => bool) private bubbleCopper;\r\n    mapping(bytes32 => bool) private bubbleSteel;\r\n    mapping(bytes32 => bool) private cages;\r\n    mapping(bytes32 => bool) private engines;\r\n    mapping(bytes32 => bool) private threads;\r\n\r\n \r\n    mapping(address => uint256) private storedItems;\r\n\r\n    event addedm1(address indexed user);\r\n    \r\n    int[5] private proof;\r\n    int[5] private info;\r\n\r\n\r\n    constructor(){\r\n\r\n      m1[0x984765fCd218D3937E4298Dd1746b47828D5E9f8] = true;\r\n      m2[0xCCf44CeA3140c0253D845D04973bC0D0E5eED163] = true;\r\n      f[0x10CdeAE4C0d04aD512E017E3F7d236a463c578bB] = true;\r\n      g[0xeaaF394C2468442eCb543d43B11326903e27e311] = true;\r\n      uint256 time = SafeMath.add(block.timestamp, 40);\r\n      timem1[0x984765fCd218D3937E4298Dd1746b47828D5E9f8] = time;\r\n      timem2[0xCCf44CeA3140c0253D845D04973bC0D0E5eED163] = time;\r\n      timeg[0x10CdeAE4C0d04aD512E017E3F7d236a463c578bB] = time;\r\n      timef[0xeaaF394C2468442eCb543d43B11326903e27e311] = time;\r\n      certifier = 0x984765fCd218D3937E4298Dd1746b47828D5E9f8;\r\n      owner = msg.sender;\r\n      \r\n\r\n      // DOMANDA -- Facciamo creare i certificati europei agli utenti certificatori oppure usiamo i certificatori solo come gli utenti che controllano i singoli lotti?\r\n\r\n\r\n     \r\n    }\r\n\r\n    \r\n\r\n    function UserInfos( int8 info1, int8 info2, int8 info3, int8 info4, int8 info5) external{\r\n        require(msg.sender == certifier, \"you are not a certifier\");\r\n        info[0] = info1;\r\n        info[1] = info2;\r\n        info[2] = info3;\r\n        info[3] = info4;\r\n        info[4] = info5;\r\n\r\n    }\r\n\r\n    function UserProofs(int8 proof1, int8 proof2, int8 proof3, int8 proof4, int proof5) external{\r\n        require(msg.sender == certifier, \"you are not a certifier\");\r\n        proof[0] = proof1;\r\n        proof[1] = proof2;\r\n        proof[2] = proof3;\r\n        proof[3] = proof4;\r\n        proof[4] = proof5;\r\n\r\n    }\r\n\r\n    function addcertifier(int infop) external{\r\n        require(infop>3,\"you aren't a cetifier\");\r\n        certifier = msg.sender;\r\n\r\n    }\r\n\r\n    function addm1(int8 infop) external {\r\n        require(infop>info[0],\"you aren't a m1\");\r\n        timem1[msg.sender] = SafeMath.add(block.timestamp, 40);\r\n        m1[msg.sender] = true;\r\n        emit addedm1(msg.sender);\r\n    } \r\n\r\n    function addm2(int8 infop) external {\r\n        require(infop>info[1],\"you aren't a m2\");\r\n        timem2[msg.sender] = SafeMath.add(block.timestamp, 40);\r\n        m1[msg.sender] = true;\r\n    } \r\n\r\n    function addG(int8 infop) external {\r\n        require(infop>info[2],\"you aren't a G\");\r\n        timeg[msg.sender] = SafeMath.add(block.timestamp, 40);\r\n        m1[msg.sender] = true;\r\n    } \r\n\r\n    function addmF(int8 infop) external {\r\n        require(infop>info[4],\"you aren't a F\");\r\n        timef[msg.sender] = SafeMath.add(block.timestamp, 40);\r\n        m1[msg.sender] = true;\r\n    } \r\n\r\n    /*\r\n\r\n    FOR NOW CERTIFY ONLY THREADS, CAGES AND ENGINES\r\n\r\n    function certificateSteels(int proofo, string memory object) external { \r\n      \r\n        require(proofo>proof[0],\"not valid Steels\");\r\n        require(f[msg.sender] == true, \"you are not qualified user\");\r\n        require(timef[msg.sender]>block.timestamp, \"your time of usage end\");\r\n        bubbleSteel[keccak256(abi.encodePacked(object))] = true;\r\n    } \r\n\r\n    function certificateCoppers(int proofo, string memory object) external {\r\n        require(proofo>proof[1],\"not valid Coppers\");\r\n        require(g[msg.sender] == true, \"you are not qualified user\");\r\n        require(timeg[msg.sender]>block.timestamp, \"your time of usage end\");\r\n        bubbleCopper[keccak256(abi.encodePacked(object))] = true;\r\n    }  \r\n\r\n    */\r\n\r\n    function certificateThreads(uint fatt, string memory producer) external returns(string memory, uint) { //Ask for threads data - Producer and Fattura d'aquisto\r\n        require(m1[msg.sender] == true || m2[msg.sender] == true, \"you are not qualified user\");//sistemare\r\n        require(timef[msg.sender]>block.timestamp, \"your time of usage end\");\r\n        threads[keccak256(abi.encodePacked(fatt))] = true; //the key value for the threads is now the invoice (fattura) code\r\n        return(producer, fatt); //this function return the producer and the invoice code - if useful\r\n    }\r\n\r\n    function certificateCage(uint fatt, string memory producer) external returns(string memory, uint) { //Ask for cages data - Producer and Fattura d'aquisto\r\n        require(m1[msg.sender] == true || m2[msg.sender] == true, \"you are not qualified user\");//sistemare\r\n        require(timef[msg.sender]>block.timestamp, \"your time of usage end\");\r\n        cages[keccak256(abi.encodePacked(fatt))] = true;\r\n        return(producer, fatt); //As above\r\n    }\r\n\r\n    function certificateEngines(int proofo, uint cage_fatt, uint thread_fatt, int temp, int ts, int fr, int Y, string memory object) external {\r\n        require(proofo>proof[4],\"not valid Cages\");\r\n        require(m1[msg.sender] == true || m2[msg.sender] == true, \"you are not qualified user\");//sistemare\r\n        require(timem1[msg.sender]>block.timestamp || timem2[msg.sender]>block.timestamp, \"your time of usage end\"); //sistemare\r\n        require(cages[keccak256(abi.encodePacked(thread_fatt))] == true, \"cages not found\"); //thread_fatt -> thread invoice id\r\n        require(threads[keccak256(abi.encodePacked(cage_fatt))] = true, \"threads not found\"); //cage_fatt -> cage invoice id\r\n        require(temp <= 135, \"Temperature class error\"); //check if the tested temperature class is less then or equal to teh one defined in the certificate (defiened when the cintract is created\r\n        bool check_alim = false;\r\n        if (ts == 230 && fr==50 && Y== -1){ //check the parameter for the alimentation tension\r\n            check_alim = true;\r\n        }\r\n        require(check_alim == true, \"Alimentation tension Error\");\r\n         engines[keccak256(abi.encodePacked(object))] = true; //set as true an engine with ID = object (numero del lotto??)\r\n    } \r\n\r\n   /* function isCertificatesSteels(string memory object) view external returns(bool) {\r\n        return bubbleSteel[keccak256(abi.encodePacked(object))];\r\n    }   \r\n\r\n    function isCertificatedCoppers(string memory object) view external returns(bool){\r\n   \r\n        return bubbleCopper[keccak256(abi.encodePacked(object))];\r\n    }   */\r\n\r\n    function isCertificatedThreads(string memory object) view external returns(bool){\r\n      \r\n        return threads[keccak256(abi.encodePacked(object))];\r\n    } \r\n\r\n    function isCertificatedCages(string memory object) view external returns(bool){\r\n \r\n        return cages[keccak256(abi.encodePacked(object))];\r\n    } \r\n\r\n    function isCertificatedEngines(string memory object) view external returns(bool){\r\n    \r\n        return engines[keccak256(abi.encodePacked(object))];\r\n    } \r\n\r\n   function isM1() view external returns(bool) {\r\n        return m1[msg.sender];\r\n    }   \r\n\r\n    function isM2() view external returns(bool){\r\n   \r\n        return m2[msg.sender];\r\n    }   \r\n\r\n    function isF() view external returns(bool){\r\n      \r\n        return f[msg.sender];\r\n    } \r\n\r\n    function isG() view external returns(bool){\r\n \r\n        return g[msg.sender];\r\n    } \r\n\r\n\r\n\r\n\r\n\r\n\r\n    /*function payStorageFee() external payable {\r\n        require(msg.sender == customer, \"Only the customer can pay the storage fee\");\r\n        require(msg.value > 0, \"Storage fee should be greater than zero\");\r\n        balances[storageProvider] += msg.value;\r\n        emit StorageFeePaid(msg.sender, msg.value);\r\n    }\r\n\r\n    function storeItems(uint256 _amount) external {\r\n        require(msg.sender == customer, \"Only the customer can store items\");\r\n        require(balances[customer] >= _amount, \"Insufficient balance to store items\");\r\n        balances[customer] -= _amount;\r\n        storedItems[customer] += _amount;\r\n        emit ItemsStored(msg.sender, _amount);\r\n    }\r\n\r\n    function retrieveItems(uint256 _amount) external {\r\n        require(msg.sender == customer, \"Only the customer can retrieve items\");\r\n        require(storedItems[customer] >= _amount, \"Insufficient stored items to retrieve\");\r\n        storedItems[customer] -= _amount;\r\n        balances[customer] += _amount;\r\n        emit ItemsRetrieved(msg.sender, _amount);\r\n    }*/\r\n}\r\n\r\n\r\n\r\n",
  "sourcePath": "C:\\Users\\stefa\\Documents\\GitHub\\BlockchainProject\\Proj_source\\contracts\\Proj_contract.sol",
  "compiler": {
    "name": "solc",
    "version": "0.8.13+commit.abaa5c0e.Emscripten.clang"
  },
  "schemaVersion": "3.4.14",
  "updatedAt": "2023-06-30T14:33:18.023Z",
  "networkType": "ethereum",
  "devdoc": {
    "kind": "dev",
    "methods": {},
    "version": 1
  },
  "userdoc": {
    "kind": "user",
    "methods": {},
    "version": 1
  }
}