{
  "contractName": "ElectricEngine",
  "abi": [
    {
      "inputs": [],
      "stateMutability": "nonpayable",
      "type": "constructor"
    },
    {
      "anonymous": false,
      "inputs": [
        {
          "indexed": true,
          "internalType": "address",
          "name": "user",
          "type": "address"
        }
      ],
      "name": "addedm1",
      "type": "event"
    },
    {
      "anonymous": false,
      "inputs": [
        {
          "indexed": true,
          "internalType": "address",
          "name": "user",
          "type": "address"
        }
      ],
      "name": "addedm2",
      "type": "event"
    },
    {
      "anonymous": false,
      "inputs": [
        {
          "indexed": true,
          "internalType": "uint256",
          "name": "fatt",
          "type": "uint256"
        },
        {
          "indexed": true,
          "internalType": "address",
          "name": "user",
          "type": "address"
        },
        {
          "indexed": false,
          "internalType": "string",
          "name": "producer",
          "type": "string"
        }
      ],
      "name": "certCages",
      "type": "event"
    },
    {
      "anonymous": false,
      "inputs": [
        {
          "indexed": true,
          "internalType": "string",
          "name": "lot",
          "type": "string"
        },
        {
          "indexed": true,
          "internalType": "address",
          "name": "user",
          "type": "address"
        }
      ],
      "name": "certEngines",
      "type": "event"
    },
    {
      "anonymous": false,
      "inputs": [
        {
          "indexed": true,
          "internalType": "uint256",
          "name": "fatt",
          "type": "uint256"
        },
        {
          "indexed": true,
          "internalType": "address",
          "name": "user",
          "type": "address"
        },
        {
          "indexed": false,
          "internalType": "string",
          "name": "producer",
          "type": "string"
        }
      ],
      "name": "certThreads",
      "type": "event"
    },
    {
      "inputs": [
        {
          "internalType": "int256",
          "name": "infop",
          "type": "int256"
        }
      ],
      "name": "addcertifier",
      "outputs": [],
      "stateMutability": "nonpayable",
      "type": "function"
    },
    {
      "inputs": [
        {
          "internalType": "address",
          "name": "ut1",
          "type": "address"
        }
      ],
      "name": "delm1",
      "outputs": [],
      "stateMutability": "nonpayable",
      "type": "function"
    },
    {
      "inputs": [
        {
          "internalType": "address",
          "name": "ut2",
          "type": "address"
        }
      ],
      "name": "delm2",
      "outputs": [],
      "stateMutability": "nonpayable",
      "type": "function"
    },
    {
      "inputs": [
        {
          "internalType": "address",
          "name": "ut1",
          "type": "address"
        }
      ],
      "name": "addm1",
      "outputs": [],
      "stateMutability": "nonpayable",
      "type": "function"
    },
    {
      "inputs": [
        {
          "internalType": "address",
          "name": "ut2",
          "type": "address"
        }
      ],
      "name": "addm2",
      "outputs": [],
      "stateMutability": "nonpayable",
      "type": "function"
    },
    {
      "inputs": [
        {
          "internalType": "uint256",
          "name": "fatt",
          "type": "uint256"
        },
        {
          "internalType": "string",
          "name": "producer",
          "type": "string"
        }
      ],
      "name": "certificateThreads",
      "outputs": [],
      "stateMutability": "nonpayable",
      "type": "function"
    },
    {
      "inputs": [
        {
          "internalType": "uint256",
          "name": "fatt",
          "type": "uint256"
        },
        {
          "internalType": "string",
          "name": "producer",
          "type": "string"
        }
      ],
      "name": "certificateCage",
      "outputs": [],
      "stateMutability": "nonpayable",
      "type": "function"
    },
    {
      "inputs": [
        {
          "internalType": "uint256",
          "name": "cage_fatt",
          "type": "uint256"
        },
        {
          "internalType": "uint256",
          "name": "thread_fatt",
          "type": "uint256"
        },
        {
          "internalType": "int256",
          "name": "temp",
          "type": "int256"
        },
        {
          "internalType": "int256",
          "name": "ts",
          "type": "int256"
        },
        {
          "internalType": "int256",
          "name": "fr",
          "type": "int256"
        },
        {
          "internalType": "int256",
          "name": "Y",
          "type": "int256"
        },
        {
          "internalType": "string",
          "name": "object",
          "type": "string"
        }
      ],
      "name": "certificateEngines",
      "outputs": [],
      "stateMutability": "nonpayable",
      "type": "function"
    },
    {
      "inputs": [
        {
          "internalType": "uint256",
          "name": "fatt",
          "type": "uint256"
        }
      ],
      "name": "isCertificatedThreads",
      "outputs": [
        {
          "internalType": "bool",
          "name": "",
          "type": "bool"
        }
      ],
      "stateMutability": "view",
      "type": "function",
      "constant": true
    },
    {
      "inputs": [
        {
          "internalType": "uint256",
          "name": "fatt",
          "type": "uint256"
        }
      ],
      "name": "isCertificatedCages",
      "outputs": [
        {
          "internalType": "bool",
          "name": "",
          "type": "bool"
        }
      ],
      "stateMutability": "view",
      "type": "function",
      "constant": true
    },
    {
      "inputs": [
        {
          "internalType": "string",
          "name": "lot",
          "type": "string"
        }
      ],
      "name": "isCertificatedEngines",
      "outputs": [
        {
          "internalType": "bool",
          "name": "",
          "type": "bool"
        }
      ],
      "stateMutability": "view",
      "type": "function",
      "constant": true
    },
    {
      "inputs": [],
      "name": "isM1",
      "outputs": [
        {
          "internalType": "bool",
          "name": "",
          "type": "bool"
        }
      ],
      "stateMutability": "view",
      "type": "function",
      "constant": true
    },
    {
      "inputs": [],
      "name": "isM2",
      "outputs": [
        {
          "internalType": "bool",
          "name": "",
          "type": "bool"
        }
      ],
      "stateMutability": "view",
      "type": "function",
      "constant": true
    },
    {
      "inputs": [],
      "name": "isCertifier_",
      "outputs": [
        {
          "internalType": "bool",
          "name": "",
          "type": "bool"
        }
      ],
      "stateMutability": "view",
      "type": "function",
      "constant": true
    }
  ],
  "bytecode": "0x608060405234801561001057600080fd5b5033600260006101000a81548173ffffffffffffffffffffffffffffffffffffffff021916908373ffffffffffffffffffffffffffffffffffffffff160217905550611ebf806100616000396000f3fe608060405234801561001057600080fd5b50600436106100ea5760003560e01c8063513f8c2f1161008c5780638748a146116100665780638748a14614610233578063af9f124f14610263578063c477cc5f1461027f578063d91728891461029b576100ea565b8063513f8c2f146101cb5780635e3e7ab6146101e75780635f7a980114610217576100ea565b8063258c6647116100c8578063258c6647146101455780632c690b3f146101635780632cd47e1a1461017f578063377c69bd146101af576100ea565b8063041b1a7b146100ef578063078900671461010d5780631698143414610129575b600080fd5b6100f76102b9565b604051610104919061146a565b60405180910390f35b610127600480360381019061012291906114f7565b610311565b005b610143600480360381019061013e91906116a0565b61059d565b005b61014d610755565b60405161015a919061146a565b60405180910390f35b61017d600480360381019061017891906116a0565b6107a9565b005b610199600480360381019061019491906116fc565b610961565b6040516101a6919061146a565b60405180910390f35b6101c960048036038101906101c491906114f7565b6109b1565b005b6101e560048036038101906101e0919061175f565b610ad9565b005b61020160048036038101906101fc91906116fc565b610b60565b60405161020e919061146a565b60405180910390f35b610231600480360381019061022c91906114f7565b610bb0565b005b61024d6004803603810190610248919061178c565b610ecc565b60405161025a919061146a565b60405180910390f35b61027d600480360381019061027891906117d5565b610f1c565b005b610299600480360381019061029491906114f7565b6112c0565b005b6102a36113e6565b6040516102b0919061146a565b60405180910390f35b60003373ffffffffffffffffffffffffffffffffffffffff16600260009054906101000a900473ffffffffffffffffffffffffffffffffffffffff1673ffffffffffffffffffffffffffffffffffffffff1614905090565b3373ffffffffffffffffffffffffffffffffffffffff16600260009054906101000a900473ffffffffffffffffffffffffffffffffffffffff1673ffffffffffffffffffffffffffffffffffffffff16146103a1576040517f08c379a0000000000000000000000000000000000000000000000000000000008152600401610398906118f0565b60405180910390fd5b8073ffffffffffffffffffffffffffffffffffffffff16600260009054906101000a900473ffffffffffffffffffffffffffffffffffffffff1673ffffffffffffffffffffffffffffffffffffffff1603610431576040517f08c379a00000000000000000000000000000000000000000000000000000000081526004016104289061195c565b60405180910390fd5b43600360008373ffffffffffffffffffffffffffffffffffffffff1673ffffffffffffffffffffffffffffffffffffffff16815260200190815260200160002054106104b2576040517f08c379a00000000000000000000000000000000000000000000000000000000081526004016104a9906119c8565b60405180910390fd5b6104bd436028611439565b600360008373ffffffffffffffffffffffffffffffffffffffff1673ffffffffffffffffffffffffffffffffffffffff1681526020019081526020016000208190555060016000808373ffffffffffffffffffffffffffffffffffffffff1673ffffffffffffffffffffffffffffffffffffffff16815260200190815260200160002060006101000a81548160ff0219169083151502179055508073ffffffffffffffffffffffffffffffffffffffff167f2756cd91fb7c0be01353207b0107f45f9dbe5f2837c4a796fe7d95c060d7588260405160405180910390a250565b600115156000803373ffffffffffffffffffffffffffffffffffffffff1673ffffffffffffffffffffffffffffffffffffffff16815260200190815260200160002060009054906101000a900460ff1615151461062f576040517f08c379a000000000000000000000000000000000000000000000000000000000815260040161062690611a34565b60405180910390fd5b43600360003373ffffffffffffffffffffffffffffffffffffffff1673ffffffffffffffffffffffffffffffffffffffff16815260200190815260200160002054116106b0576040517f08c379a00000000000000000000000000000000000000000000000000000000081526004016106a790611aa0565b60405180910390fd5b600160056000846040516020016106c79190611ae1565b60405160208183030381529060405280519060200120815260200190815260200160002060006101000a81548160ff0219169083151502179055503373ffffffffffffffffffffffffffffffffffffffff16827f7fc2a2441cf93b10214bb4f95f4e39a190bc195d0296d475c4806a8a17448f5f836040516107499190611b73565b60405180910390a35050565b6000600160003373ffffffffffffffffffffffffffffffffffffffff1673ffffffffffffffffffffffffffffffffffffffff16815260200190815260200160002060009054906101000a900460ff16905090565b600115156000803373ffffffffffffffffffffffffffffffffffffffff1673ffffffffffffffffffffffffffffffffffffffff16815260200190815260200160002060009054906101000a900460ff1615151461083b576040517f08c379a000000000000000000000000000000000000000000000000000000000815260040161083290611a34565b60405180910390fd5b43600360003373ffffffffffffffffffffffffffffffffffffffff1673ffffffffffffffffffffffffffffffffffffffff16815260200190815260200160002054116108bc576040517f08c379a00000000000000000000000000000000000000000000000000000000081526004016108b390611aa0565b60405180910390fd5b600160076000846040516020016108d39190611ae1565b60405160208183030381529060405280519060200120815260200190815260200160002060006101000a81548160ff0219169083151502179055503373ffffffffffffffffffffffffffffffffffffffff16827f9dce5852767e8ff17b82fed93e65b4f5345480011604fe1525eb93ef83811d65836040516109559190611b73565b60405180910390a35050565b600060076000836040516020016109789190611ae1565b60405160208183030381529060405280519060200120815260200190815260200160002060009054906101000a900460ff169050919050565b60011515600160003373ffffffffffffffffffffffffffffffffffffffff1673ffffffffffffffffffffffffffffffffffffffff16815260200190815260200160002060009054906101000a900460ff16151514610a44576040517f08c379a0000000000000000000000000000000000000000000000000000000008152600401610a3b90611a34565b60405180910390fd5b600460008273ffffffffffffffffffffffffffffffffffffffff1673ffffffffffffffffffffffffffffffffffffffff16815260200190815260200160002060009055600160008273ffffffffffffffffffffffffffffffffffffffff1673ffffffffffffffffffffffffffffffffffffffff16815260200190815260200160002060006101000a81549060ff021916905550565b60038113610b1c576040517f08c379a0000000000000000000000000000000000000000000000000000000008152600401610b1390611be1565b60405180910390fd5b33600260006101000a81548173ffffffffffffffffffffffffffffffffffffffff021916908373ffffffffffffffffffffffffffffffffffffffff16021790555050565b60006005600083604051602001610b779190611ae1565b60405160208183030381529060405280519060200120815260200190815260200160002060009054906101000a900460ff169050919050565b3373ffffffffffffffffffffffffffffffffffffffff16600260009054906101000a900473ffffffffffffffffffffffffffffffffffffffff1673ffffffffffffffffffffffffffffffffffffffff1614610c40576040517f08c379a0000000000000000000000000000000000000000000000000000000008152600401610c37906118f0565b60405180910390fd5b3373ffffffffffffffffffffffffffffffffffffffff16600260009054906101000a900473ffffffffffffffffffffffffffffffffffffffff1673ffffffffffffffffffffffffffffffffffffffff1614610cd0576040517f08c379a0000000000000000000000000000000000000000000000000000000008152600401610cc7906118f0565b60405180910390fd5b8073ffffffffffffffffffffffffffffffffffffffff16600260009054906101000a900473ffffffffffffffffffffffffffffffffffffffff1673ffffffffffffffffffffffffffffffffffffffff1603610d60576040517f08c379a0000000000000000000000000000000000000000000000000000000008152600401610d579061195c565b60405180910390fd5b43600460008373ffffffffffffffffffffffffffffffffffffffff1673ffffffffffffffffffffffffffffffffffffffff1681526020019081526020016000205410610de1576040517f08c379a0000000000000000000000000000000000000000000000000000000008152600401610dd8906119c8565b60405180910390fd5b610dec436028611439565b600460008373ffffffffffffffffffffffffffffffffffffffff1673ffffffffffffffffffffffffffffffffffffffff1681526020019081526020016000208190555060018060008373ffffffffffffffffffffffffffffffffffffffff1673ffffffffffffffffffffffffffffffffffffffff16815260200190815260200160002060006101000a81548160ff0219169083151502179055508073ffffffffffffffffffffffffffffffffffffffff167f6b0e1d28d263422a620520c077040ce995db3e9b959e1daf117338b2b6f3c0eb60405160405180910390a250565b60006006600083604051602001610ee39190611c3d565b60405160208183030381529060405280519060200120815260200190815260200160002060009054906101000a900460ff169050919050565b60011515600160003373ffffffffffffffffffffffffffffffffffffffff1673ffffffffffffffffffffffffffffffffffffffff16815260200190815260200160002060009054906101000a900460ff16151514610faf576040517f08c379a0000000000000000000000000000000000000000000000000000000008152600401610fa690611a34565b60405180910390fd5b43600460003373ffffffffffffffffffffffffffffffffffffffff1673ffffffffffffffffffffffffffffffffffffffff1681526020019081526020016000205411611030576040517f08c379a000000000000000000000000000000000000000000000000000000000815260040161102790611aa0565b60405180910390fd5b6001151560056000896040516020016110499190611ae1565b60405160208183030381529060405280519060200120815260200190815260200160002060009054906101000a900460ff161515146110bd576040517f08c379a00000000000000000000000000000000000000000000000000000000081526004016110b490611ca0565b60405180910390fd5b6001151560076000886040516020016110d69190611ae1565b60405160208183030381529060405280519060200120815260200190815260200160002060009054906101000a900460ff1615151461114a576040517f08c379a000000000000000000000000000000000000000000000000000000000815260040161114190611d0c565b60405180910390fd5b608785131561118e576040517f08c379a000000000000000000000000000000000000000000000000000000000815260040161118590611d78565b60405180910390fd5b60e684141580156111a0575060328314155b80156111cc57507fffffffffffffffffffffffffffffffffffffffffffffffffffffffffffffffff8214155b1561120c576040517f08c379a000000000000000000000000000000000000000000000000000000000815260040161120390611de4565b60405180910390fd5b600160066000836040516020016112239190611c3d565b60405160208183030381529060405280519060200120815260200190815260200160002060006101000a81548160ff0219169083151502179055503373ffffffffffffffffffffffffffffffffffffffff16816040516112839190611c3d565b60405180910390207f07a9eee897cf9c187115548d8c2a3448f1291d8c8329bb0234099309a58057a760405160405180910390a350505050505050565b600115156000803373ffffffffffffffffffffffffffffffffffffffff1673ffffffffffffffffffffffffffffffffffffffff16815260200190815260200160002060009054906101000a900460ff16151514611352576040517f08c379a000000000000000000000000000000000000000000000000000000000815260040161134990611a34565b60405180910390fd5b600360008273ffffffffffffffffffffffffffffffffffffffff1673ffffffffffffffffffffffffffffffffffffffff168152602001908152602001600020600090556000808273ffffffffffffffffffffffffffffffffffffffff1673ffffffffffffffffffffffffffffffffffffffff16815260200190815260200160002060006101000a81549060ff021916905550565b60008060003373ffffffffffffffffffffffffffffffffffffffff1673ffffffffffffffffffffffffffffffffffffffff16815260200190815260200160002060009054906101000a900460ff16905090565b600081836114479190611e33565b905092915050565b60008115159050919050565b6114648161144f565b82525050565b600060208201905061147f600083018461145b565b92915050565b6000604051905090565b600080fd5b600080fd5b600073ffffffffffffffffffffffffffffffffffffffff82169050919050565b60006114c482611499565b9050919050565b6114d4816114b9565b81146114df57600080fd5b50565b6000813590506114f1816114cb565b92915050565b60006020828403121561150d5761150c61148f565b5b600061151b848285016114e2565b91505092915050565b6000819050919050565b61153781611524565b811461154257600080fd5b50565b6000813590506115548161152e565b92915050565b600080fd5b600080fd5b6000601f19601f8301169050919050565b7f4e487b7100000000000000000000000000000000000000000000000000000000600052604160045260246000fd5b6115ad82611564565b810181811067ffffffffffffffff821117156115cc576115cb611575565b5b80604052505050565b60006115df611485565b90506115eb82826115a4565b919050565b600067ffffffffffffffff82111561160b5761160a611575565b5b61161482611564565b9050602081019050919050565b82818337600083830152505050565b600061164361163e846115f0565b6115d5565b90508281526020810184848401111561165f5761165e61155f565b5b61166a848285611621565b509392505050565b600082601f8301126116875761168661155a565b5b8135611697848260208601611630565b91505092915050565b600080604083850312156116b7576116b661148f565b5b60006116c585828601611545565b925050602083013567ffffffffffffffff8111156116e6576116e5611494565b5b6116f285828601611672565b9150509250929050565b6000602082840312156117125761171161148f565b5b600061172084828501611545565b91505092915050565b6000819050919050565b61173c81611729565b811461174757600080fd5b50565b60008135905061175981611733565b92915050565b6000602082840312156117755761177461148f565b5b60006117838482850161174a565b91505092915050565b6000602082840312156117a2576117a161148f565b5b600082013567ffffffffffffffff8111156117c0576117bf611494565b5b6117cc84828501611672565b91505092915050565b600080600080600080600060e0888a0312156117f4576117f361148f565b5b60006118028a828b01611545565b97505060206118138a828b01611545565b96505060406118248a828b0161174a565b95505060606118358a828b0161174a565b94505060806118468a828b0161174a565b93505060a06118578a828b0161174a565b92505060c088013567ffffffffffffffff81111561187857611877611494565b5b6118848a828b01611672565b91505092959891949750929550565b600082825260208201905092915050565b7f796f7520617265206e6f74206120636572746966696572000000000000000000600082015250565b60006118da601783611893565b91506118e5826118a4565b602082019050919050565b60006020820190508181036000830152611909816118cd565b9050919050565b7f4120636572697469666965722063616e6e6f7420626520616c736f2061204d31600082015250565b6000611946602083611893565b915061195182611910565b602082019050919050565b6000602082019050818103600083015261197581611939565b9050919050565b7f796f752068617665207374696c6c2074696d6500000000000000000000000000600082015250565b60006119b2601383611893565b91506119bd8261197c565b602082019050919050565b600060208201905081810360008301526119e1816119a5565b9050919050565b7f796f7520617265206e6f74207175616c69666965642075736572000000000000600082015250565b6000611a1e601a83611893565b9150611a29826119e8565b602082019050919050565b60006020820190508181036000830152611a4d81611a11565b9050919050565b7f796f75722074696d65206f6620757361676520656e6400000000000000000000600082015250565b6000611a8a601683611893565b9150611a9582611a54565b602082019050919050565b60006020820190508181036000830152611ab981611a7d565b9050919050565b6000819050919050565b611adb611ad682611524565b611ac0565b82525050565b6000611aed8284611aca565b60208201915081905092915050565b600081519050919050565b60005b83811015611b25578082015181840152602081019050611b0a565b83811115611b34576000848401525b50505050565b6000611b4582611afc565b611b4f8185611893565b9350611b5f818560208601611b07565b611b6881611564565b840191505092915050565b60006020820190508181036000830152611b8d8184611b3a565b905092915050565b7f796f75206172656e277420612063657469666965720000000000000000000000600082015250565b6000611bcb601583611893565b9150611bd682611b95565b602082019050919050565b60006020820190508181036000830152611bfa81611bbe565b9050919050565b600081905092915050565b6000611c1782611afc565b611c218185611c01565b9350611c31818560208601611b07565b80840191505092915050565b6000611c498284611c0c565b915081905092915050565b7f6361676573206e6f7420666f756e640000000000000000000000000000000000600082015250565b6000611c8a600f83611893565b9150611c9582611c54565b602082019050919050565b60006020820190508181036000830152611cb981611c7d565b9050919050565b7f74687265616473206e6f7420666f756e64000000000000000000000000000000600082015250565b6000611cf6601183611893565b9150611d0182611cc0565b602082019050919050565b60006020820190508181036000830152611d2581611ce9565b9050919050565b7f54656d706572617475726520636c617373206572726f72000000000000000000600082015250565b6000611d62601783611893565b9150611d6d82611d2c565b602082019050919050565b60006020820190508181036000830152611d9181611d55565b9050919050565b7f416c696d656e746174696f6e2074656e73696f6e204572726f72000000000000600082015250565b6000611dce601a83611893565b9150611dd982611d98565b602082019050919050565b60006020820190508181036000830152611dfd81611dc1565b9050919050565b7f4e487b7100000000000000000000000000000000000000000000000000000000600052601160045260246000fd5b6000611e3e82611524565b9150611e4983611524565b9250827fffffffffffffffffffffffffffffffffffffffffffffffffffffffffffffffff03821115611e7e57611e7d611e04565b5b82820190509291505056fea26469706673582212200fa5852a690f89353c6499fbd48b3b2839d636f8021c4f9f8e631fc56851f63064736f6c634300080d0033",
  "immutableReferences": {},
  "source": "//Project method\n\n// SPDX-License-Identifier: MIT\npragma solidity ^0.8.0;\n\nimport \"@openzeppelin/contracts/utils/math/SafeMath.sol\";\n\ncontract ElectricEngine {\n\n    mapping(address => bool) private m1; //producer that certifies threads and cages\n    mapping(address => bool) private m2; //user that test engine\n    //mapping(address => bool) private g;\n    //mapping(address => bool) private f;\n    address private certifier; //who specified the parameter for the verification.\n\n    mapping(address => uint256) private timem1;//block when the service ends for m1\n    mapping(address => uint256) private timem2;//block when the service ends for m1\n    //mapping(address => uint256) private timeg;\n    //mapping(address => uint256) private timef;\n\n    //address private owner;\n\n    //mapping(bytes32 => bool) private bubbleCopper;\n    //mapping(bytes32 => bool) private bubbleSteel;\n    mapping(bytes32 => bool) private cages; \n    mapping(bytes32 => bool) private engines;\n    mapping(bytes32 => bool) private threads;\n\n\n    //Events with information goal\n    event addedm1(address indexed user);\n    event addedm2(address indexed user);\n    //event addedf(address indexed user);\n    //event addedg(address indexed user);\n    event certThreads(uint indexed fatt, address indexed user,string producer);\n    event certCages(uint indexed fatt, address indexed user,string producer);\n    event certEngines(string indexed lot, address indexed user);\n    \n    //int[5] private proof;\n    //int[5] private info;\n\n\n    constructor(){\n\n      /*m1[0x984765fCd218D3937E4298Dd1746b47828D5E9f8] = true;\n      m2[0xCCf44CeA3140c0253D845D04973bC0D0E5eED163] = true;\n      f[0x10CdeAE4C0d04aD512E017E3F7d236a463c578bB] = true;\n      g[0xeaaF394C2468442eCb543d43B11326903e27e311] = true;\n      timem1[0x984765fCd218D3937E4298Dd1746b47828D5E9f8] = SafeMath.add(block.number, 40);\n      timem2[0xCCf44CeA3140c0253D845D04973bC0D0E5eED163] = SafeMath.add(block.number, 40);\n      timeg[0x10CdeAE4C0d04aD512E017E3F7d236a463c578bB] = SafeMath.add(block.number, 40);\n      timef[0xeaaF394C2468442eCb543d43B11326903e27e311] = SafeMath.add(block.number, 40);\n      certifier = 0x984765fCd218D3937E4298Dd1746b47828D5E9f8;*/\n      //owner = msg.sender;\n      certifier = msg.sender;\n      \n      \n\n      // DOMANDA -- Facciamo creare i certificati europei agli utenti certificatori oppure usiamo i certificatori solo come gli utenti che controllano i singoli lotti?\n\n\n     \n    }\n\n    \n\n    /*function UserInfos( int8 info1, int8 info2, int8 info3, int8 info4, int8 info5) external{\n        require(msg.sender == certifier, \"you are not a certifier\");\n        info[0] = info1;\n        info[1] = info2;\n        info[2] = info3;\n        info[3] = info4;\n        info[4] = info5;\n\n    }*/\n\n    /*function UserProofs(int8 proof1, int8 proof2, int8 proof3, int8 proof4, int proof5) external{\n        require(msg.sender == certifier, \"you are not a certifier\");\n        proof[0] = proof1;\n        proof[1] = proof2;\n        proof[2] = proof3;\n        proof[3] = proof4;\n        proof[4] = proof5;\n\n    }*/\n\n    function addcertifier(int infop) external{\n        require(infop>3,\"you aren't a cetifier\");\n        certifier = msg.sender;\n        \n\n    }\n\n    modifier isCertifier{\n      require(certifier == msg.sender, \"you are not a certifier\");\n      _;\n\n\n    }\n\n    modifier ism1{\n      require(m1[msg.sender] == true, \"you are not qualified user\");\n      _;\n\n\n    }\n\n    modifier ism2{\n      require(m2[msg.sender] == true, \"you are not qualified user\");\n      _;\n\n\n    }\n\n    function delm1(address  ut1) external ism1{ \n\n        delete timem1[ut1];\n        delete m1[ut1];\n    }  \n\n    function delm2(address  ut2) external ism2{ \n\n        delete timem2[ut2];\n        delete m2[ut2];\n    }  \n\n\n    function addm1(address  ut1) external isCertifier{ \n\n        //require(infop>info[0],\"you aren't a m1\");\n        require(certifier != ut1, \"A ceritifier cannot be also a M1\");\n        require(timem1[ut1]<block.number,\"you have still time\");\n        timem1[ut1] = SafeMath.add(block.number, 40); //Assign to the producer the block where its service ends\n        m1[ut1] = true; //ut1 is a producer of cages and threads\n        emit addedm1(ut1);\n    }\n\n    \n\n    function addm2(address ut2) external isCertifier{\n\n        //require(infop>info[1],\"you aren't a m2\");\n        require(certifier == msg.sender, \"you are not a certifier\");\n        require(certifier != ut2, \"A ceritifier cannot be also a M1\");\n        require(timem2[ut2]<block.number,\"you have still time\");\n        timem2[ut2] = SafeMath.add(block.number, 40); //Assign to the producer the block where its service ends\n        m2[ut2] = true; //ut2 is a engine tester\n        emit addedm2(ut2);\n    } \n\n    /*function addG(int8 infop) external {\n        require(infop>info[2],\"you aren't a G\");\n        require(timeg[msg.sender]<block.timestamp,\"you have still time\");\n        timeg[msg.sender] = SafeMath.add(block.timestamp, 40);\n        m1[msg.sender] = true;\n        emit addedg(msg.sender);\n    } \n\n    function addmF(int8 infop) external {\n        require(infop>info[4],\"you aren't a F\");\n        require(timef[msg.sender]<block.timestamp,\"you have still time\");\n        timef[msg.sender] = SafeMath.add(block.timestamp, 40);\n        m1[msg.sender] = true;\n        emit addedf(msg.sender);\n\n    } */\n\n    /*\n\n    FOR NOW CERTIFY ONLY THREADS, CAGES AND ENGINES\n\n    function certificateSteels(int proofo, string memory object) external { \n      \n        require(proofo>proof[0],\"not valid Steels\");\n        require(f[msg.sender] == true, \"you are not qualified user\");\n        require(timef[msg.sender]>block.number, \"your time of usage end\");\n        bubbleSteel[keccak256(abi.encodePacked(object))] = true;\n    } \n    \n\n    function certificateCoppers(int proofo, string memory object) external {\n        require(proofo>proof[1],\"not valid Coppers\");\n        require(g[msg.sender] == true, \"you are not qualified user\");\n        require(timeg[msg.sender]>block.number, \"your time of usage end\");\n        bubbleCopper[keccak256(abi.encodePacked(object))] = true;\n    }  \n\n    */\n\n    function certificateThreads(uint fatt, string memory producer) external ism1{ //Ask threads data (Producer and Fattura d'aquisto) to certidicate the threads\n        \n        require(timem1[msg.sender]>block.number, \"your time of usage end\");\n        threads[keccak256(abi.encodePacked(fatt))] = true; //the key value for the threads is now the invoice (fattura) code.\n        emit certThreads(fatt,msg.sender,producer);\n        //return(producer, fatt); //this function return the producer and the invoice code - if useful\n    }\n\n    function certificateCage(uint fatt, string memory producer) external ism1{ //Ask for cages data (Producer and Fattura d'aquisto) to certificate the cages\n        \n        require(timem1[msg.sender]>block.number, \"your time of usage end\");\n        cages[keccak256(abi.encodePacked(fatt))] = true;//the key value for the threads is now the invoice (fattura) code.\n        emit certCages(fatt,msg.sender,producer);\n        //return(producer, fatt); //As above\n    }\n\n    function certificateEngines(uint cage_fatt, uint thread_fatt, int temp, int ts, int fr, int Y, string memory object) external ism2{\n       \n        require(timem2[msg.sender]>block.number, \"your time of usage end\"); \n        require(cages[keccak256(abi.encodePacked(cage_fatt))] == true, \"cages not found\"); //cage_fatt -> cage invoice//thread_fatt -> thread invoice id\n        require(threads[keccak256(abi.encodePacked(thread_fatt))] == true, \"threads not found\"); //thread_fatt -> thread invoice id\n        require(temp <= 135, \"Temperature class error\"); //check if the tested temperature class is less then or equal to teh one defined in the certificate (defiened when the cintract is created)\n        if (ts != 230 && fr != 50 && Y != -1){ //check the parameter for the alimentation tension\n            revert(\"Alimentation tension Error\");\n        }\n        engines[keccak256(abi.encodePacked(object))] = true; //set as true an engine with ID lotto, azienda:number.\n        //segnare i due pezzi cages e thread come non certificati !!!!!!!!!!!!!!!!!!!!!!!!!!!!!!!!!!!!!!!!!!!!!!!!!!!!!!!!!!!!!!!!!!!!!!!!!!!!!!!!!!!!!!!!!!!!!!!!!!!!!!!!!!!!!!!!!!!!\n        emit certEngines(object,msg.sender);\n    } \n\n   /* function isCertificatesSteels(string memory object) view external returns(bool) {\n        return bubbleSteel[keccak256(abi.encodePacked(object))];\n    }   \n\n    function isCertificatedCoppers(string memory object) view external returns(bool){\n   \n        return bubbleCopper[keccak256(abi.encodePacked(object))];\n    }   */\n\n    function isCertificatedThreads(uint fatt) view external returns(bool){ \n      \n        return threads[keccak256(abi.encodePacked(fatt))];\n    } \n\n    function isCertificatedCages(uint fatt) view external returns(bool){\n \n        return cages[keccak256(abi.encodePacked(fatt))];\n    } \n\n    function isCertificatedEngines(string memory lot) view external returns(bool){\n    \n        return engines[keccak256(abi.encodePacked(lot))];\n    } \n\n   function isM1() view external returns(bool) {\n        return m1[msg.sender];\n    }   \n\n    function isM2() view external returns(bool){\n   \n        return m2[msg.sender];\n    }   \n\n    \n    function isCertifier_() view external returns(bool){\n   \n        return certifier == msg.sender;\n    }  \n\n    /*function isF() view external returns(bool){\n      \n        return f[msg.sender];\n    } \n\n    function isG() view external returns(bool){\n \n        return g[msg.sender];\n    } */\n\n\n\n\n\n\n    /*function payStorageFee() external payable {\n        require(msg.sender == customer, \"Only the customer can pay the storage fee\");\n        require(msg.value > 0, \"Storage fee should be greater than zero\");\n        balances[storageProvider] += msg.value;\n        emit StorageFeePaid(msg.sender, msg.value);\n    }\n\n    function storeItems(uint256 _amount) external {\n        require(msg.sender == customer, \"Only the customer can store items\");\n        require(balances[customer] >= _amount, \"Insufficient balance to store items\");\n        balances[customer] -= _amount;\n        storedItems[customer] += _amount;\n        emit ItemsStored(msg.sender, _amount);\n    }\n\n    function retrieveItems(uint256 _amount) external {\n        require(msg.sender == customer, \"Only the customer can retrieve items\");\n        require(storedItems[customer] >= _amount, \"Insufficient stored items to retrieve\");\n        storedItems[customer] -= _amount;\n        balances[customer] += _amount;\n        emit ItemsRetrieved(msg.sender, _amount);\n    }*/\n}\n\n\n\n",
  "sourcePath": "/home/parallels/Desktop/BLOCK_PROJ/BlockchainProject/Proj_source/contracts/Proj_contract.sol",
  "compiler": {
    "name": "solc",
    "version": "0.8.13+commit.abaa5c0e.Emscripten.clang"
  },
  "schemaVersion": "3.4.13",
  "updatedAt": "2023-08-17T14:58:05.117Z",
  "networkType": "ethereum",
  "devdoc": {
    "kind": "dev",
    "methods": {},
    "version": 1
  },
  "userdoc": {
    "kind": "user",
    "methods": {},
    "version": 1
  }
}