{
  "contractName": "HelloBlockchain",
  "abi": [
    {
      "inputs": [
        {
          "internalType": "string",
          "name": "message",
          "type": "string"
        }
      ],
      "stateMutability": "nonpayable",
      "type": "constructor"
    },
    {
      "inputs": [],
      "name": "RequestMessage",
      "outputs": [
        {
          "internalType": "string",
          "name": "",
          "type": "string"
        }
      ],
      "stateMutability": "view",
      "type": "function",
      "constant": true
    },
    {
      "inputs": [],
      "name": "Requestor",
      "outputs": [
        {
          "internalType": "address",
          "name": "",
          "type": "address"
        }
      ],
      "stateMutability": "view",
      "type": "function",
      "constant": true
    },
    {
      "inputs": [],
      "name": "Responder",
      "outputs": [
        {
          "internalType": "address",
          "name": "",
          "type": "address"
        }
      ],
      "stateMutability": "view",
      "type": "function",
      "constant": true
    },
    {
      "inputs": [],
      "name": "ResponseMessage",
      "outputs": [
        {
          "internalType": "string",
          "name": "",
          "type": "string"
        }
      ],
      "stateMutability": "view",
      "type": "function",
      "constant": true
    },
    {
      "inputs": [],
      "name": "State",
      "outputs": [
        {
          "internalType": "enum HelloBlockchain.StateType",
          "name": "",
          "type": "uint8"
        }
      ],
      "stateMutability": "view",
      "type": "function",
      "constant": true
    },
    {
      "inputs": [
        {
          "internalType": "string",
          "name": "requestMessage",
          "type": "string"
        }
      ],
      "name": "SendRequest",
      "outputs": [],
      "stateMutability": "nonpayable",
      "type": "function"
    },
    {
      "inputs": [
        {
          "internalType": "string",
          "name": "responseMessage",
          "type": "string"
        }
      ],
      "name": "SendResponse",
      "outputs": [],
      "stateMutability": "nonpayable",
      "type": "function"
    },
    {
      "inputs": [],
      "name": "seeOwn",
      "outputs": [
        {
          "internalType": "address",
          "name": "Requesto",
          "type": "address"
        }
      ],
      "stateMutability": "view",
      "type": "function",
      "constant": true
    }
  ],
  "bytecode": "0x60806040523480156200001157600080fd5b5060405162000cb838038062000cb8833981810160405281019062000037919062000312565b33600060016101000a81548173ffffffffffffffffffffffffffffffffffffffff021916908373ffffffffffffffffffffffffffffffffffffffff160217905550806002908051906020019062000090929190620000c5565b5060008060006101000a81548160ff02191690836001811115620000b957620000b862000363565b5b021790555050620003f6565b828054620000d390620003c1565b90600052602060002090601f016020900481019282620000f7576000855562000143565b82601f106200011257805160ff191683800117855562000143565b8280016001018555821562000143579182015b828111156200014257825182559160200191906001019062000125565b5b50905062000152919062000156565b5090565b5b808211156200017157600081600090555060010162000157565b5090565b6000604051905090565b600080fd5b600080fd5b600080fd5b600080fd5b6000601f19601f8301169050919050565b7f4e487b7100000000000000000000000000000000000000000000000000000000600052604160045260246000fd5b620001de8262000193565b810181811067ffffffffffffffff821117156200020057620001ff620001a4565b5b80604052505050565b60006200021562000175565b9050620002238282620001d3565b919050565b600067ffffffffffffffff821115620002465762000245620001a4565b5b620002518262000193565b9050602081019050919050565b60005b838110156200027e57808201518184015260208101905062000261565b838111156200028e576000848401525b50505050565b6000620002ab620002a58462000228565b62000209565b905082815260208101848484011115620002ca57620002c96200018e565b5b620002d78482856200025e565b509392505050565b600082601f830112620002f757620002f662000189565b5b81516200030984826020860162000294565b91505092915050565b6000602082840312156200032b576200032a6200017f565b5b600082015167ffffffffffffffff8111156200034c576200034b62000184565b5b6200035a84828501620002df565b91505092915050565b7f4e487b7100000000000000000000000000000000000000000000000000000000600052602160045260246000fd5b7f4e487b7100000000000000000000000000000000000000000000000000000000600052602260045260246000fd5b60006002820490506001821680620003da57607f821691505b602082108103620003f057620003ef62000392565b5b50919050565b6108b280620004066000396000f3fe608060405234801561001057600080fd5b50600436106100885760003560e01c8063d181ada11161005b578063d181ada114610101578063e750e2da1461011f578063f1b6dccd1461013d578063fd05116c1461015b57610088565b80635ab28ecb1461008d578063829c2d6d146100ab578063a7a1ba15146100c7578063c159f90b146100e3575b600080fd5b610095610179565b6040516100a2919061057a565b60405180910390f35b6100c560048036038101906100c091906106e5565b610207565b005b6100e160048036038101906100dc91906106e5565b61028c565b005b6100eb61032a565b6040516100f8919061076f565b60405180910390f35b610109610353565b604051610116919061076f565b60405180910390f35b610127610379565b604051610134919061057a565b60405180910390f35b610145610407565b6040516101529190610801565b60405180910390f35b610163610418565b604051610170919061076f565b60405180910390f35b600380546101869061084b565b80601f01602080910402602001604051908101604052809291908181526020018280546101b29061084b565b80156101ff5780601f106101d4576101008083540402835291602001916101ff565b820191906000526020600020905b8154815290600101906020018083116101e257829003601f168201915b505050505081565b33600160006101000a81548173ffffffffffffffffffffffffffffffffffffffff021916908373ffffffffffffffffffffffffffffffffffffffff160217905550806003908051906020019061025e92919061043e565b5060016000806101000a81548160ff021916908360018111156102845761028361078a565b5b021790555050565b3373ffffffffffffffffffffffffffffffffffffffff16600060019054906101000a900473ffffffffffffffffffffffffffffffffffffffff1673ffffffffffffffffffffffffffffffffffffffff16146102e657600080fd5b80600290805190602001906102fc92919061043e565b5060008060006101000a81548160ff021916908360018111156103225761032161078a565b5b021790555050565b60008060019054906101000a900473ffffffffffffffffffffffffffffffffffffffff16905090565b600160009054906101000a900473ffffffffffffffffffffffffffffffffffffffff1681565b600280546103869061084b565b80601f01602080910402602001604051908101604052809291908181526020018280546103b29061084b565b80156103ff5780601f106103d4576101008083540402835291602001916103ff565b820191906000526020600020905b8154815290600101906020018083116103e257829003601f168201915b505050505081565b60008054906101000a900460ff1681565b600060019054906101000a900473ffffffffffffffffffffffffffffffffffffffff1681565b82805461044a9061084b565b90600052602060002090601f01602090048101928261046c57600085556104b3565b82601f1061048557805160ff19168380011785556104b3565b828001600101855582156104b3579182015b828111156104b2578251825591602001919060010190610497565b5b5090506104c091906104c4565b5090565b5b808211156104dd5760008160009055506001016104c5565b5090565b600081519050919050565b600082825260208201905092915050565b60005b8381101561051b578082015181840152602081019050610500565b8381111561052a576000848401525b50505050565b6000601f19601f8301169050919050565b600061054c826104e1565b61055681856104ec565b93506105668185602086016104fd565b61056f81610530565b840191505092915050565b600060208201905081810360008301526105948184610541565b905092915050565b6000604051905090565b600080fd5b600080fd5b600080fd5b600080fd5b7f4e487b7100000000000000000000000000000000000000000000000000000000600052604160045260246000fd5b6105f282610530565b810181811067ffffffffffffffff82111715610611576106106105ba565b5b80604052505050565b600061062461059c565b905061063082826105e9565b919050565b600067ffffffffffffffff8211156106505761064f6105ba565b5b61065982610530565b9050602081019050919050565b82818337600083830152505050565b600061068861068384610635565b61061a565b9050828152602081018484840111156106a4576106a36105b5565b5b6106af848285610666565b509392505050565b600082601f8301126106cc576106cb6105b0565b5b81356106dc848260208601610675565b91505092915050565b6000602082840312156106fb576106fa6105a6565b5b600082013567ffffffffffffffff811115610719576107186105ab565b5b610725848285016106b7565b91505092915050565b600073ffffffffffffffffffffffffffffffffffffffff82169050919050565b60006107598261072e565b9050919050565b6107698161074e565b82525050565b60006020820190506107846000830184610760565b92915050565b7f4e487b7100000000000000000000000000000000000000000000000000000000600052602160045260246000fd5b600281106107ca576107c961078a565b5b50565b60008190506107db826107b9565b919050565b60006107eb826107cd565b9050919050565b6107fb816107e0565b82525050565b600060208201905061081660008301846107f2565b92915050565b7f4e487b7100000000000000000000000000000000000000000000000000000000600052602260045260246000fd5b6000600282049050600182168061086357607f821691505b6020821081036108765761087561081c565b5b5091905056fea2646970667358221220839845878a77bfb7761284da14027a4bcfe4f33a850237cc4f32e8a0b1add1ee64736f6c634300080d0033",
  "immutableReferences": {},
  "source": "// SPDX-License-Identifier: MIT \npragma solidity >=0.4.25 <0.9.0;\n\ncontract HelloBlockchain {\n    enum StateType { Request, Respond }\n\n    StateType public  State;\n    address public  Requestor;\n    address public  Responder;\n\n    string public RequestMessage;\n    string public ResponseMessage;\n\n    constructor(string memory message) {\n        Requestor = msg.sender;\n        RequestMessage = message;\n        State = StateType.Request;\n    }\n\n    // call this function to send a request\n    function SendRequest(string memory requestMessage) public {\n\n        if (Requestor != msg.sender) {\n            revert();\n        }\n\n        RequestMessage = requestMessage;\n        State = StateType.Request;\n    }\n\n    // call this function to send a response\n    function SendResponse(string memory responseMessage) public {\n\n        Responder = msg.sender;\n        ResponseMessage = responseMessage;\n        State = StateType.Respond;\n    }\n\n    function seeOwn() public view returns (address Requesto){\n\n        return Requestor;\n    }\n}\n",
  "sourcePath": "/home/parallels/Desktop/projectBlock/contracts/HelloBlockchain.sol",
  "compiler": {
    "name": "solc",
    "version": "0.8.13+commit.abaa5c0e.Emscripten.clang"
  },
  "schemaVersion": "3.4.13",
  "updatedAt": "2023-06-11T13:48:46.741Z",
  "networkType": "ethereum",
  "devdoc": {
    "kind": "dev",
    "methods": {},
    "version": 1
  },
  "userdoc": {
    "kind": "user",
    "methods": {},
    "version": 1
  }
}