{
  "contractName": "HelloBlockchain",
  "abi": [
    {
      "inputs": [
        {
          "internalType": "string",
          "name": "message",
          "type": "string"
        }
      ],
      "stateMutability": "nonpayable",
      "type": "constructor"
    },
    {
      "inputs": [],
      "name": "RequestMessage",
      "outputs": [
        {
          "internalType": "string",
          "name": "",
          "type": "string"
        }
      ],
      "stateMutability": "view",
      "type": "function",
      "constant": true
    },
    {
      "inputs": [],
      "name": "Requestor",
      "outputs": [
        {
          "internalType": "address",
          "name": "",
          "type": "address"
        }
      ],
      "stateMutability": "view",
      "type": "function",
      "constant": true
    },
    {
      "inputs": [],
      "name": "Responder",
      "outputs": [
        {
          "internalType": "address",
          "name": "",
          "type": "address"
        }
      ],
      "stateMutability": "view",
      "type": "function",
      "constant": true
    },
    {
      "inputs": [],
      "name": "ResponseMessage",
      "outputs": [
        {
          "internalType": "string",
          "name": "",
          "type": "string"
        }
      ],
      "stateMutability": "view",
      "type": "function",
      "constant": true
    },
    {
      "inputs": [],
      "name": "State",
      "outputs": [
        {
          "internalType": "enum HelloBlockchain.StateType",
          "name": "",
          "type": "uint8"
        }
      ],
      "stateMutability": "view",
      "type": "function",
      "constant": true
    },
    {
      "inputs": [
        {
          "internalType": "string",
          "name": "requestMessage",
          "type": "string"
        }
      ],
      "name": "SendRequest",
      "outputs": [],
      "stateMutability": "nonpayable",
      "type": "function"
    },
    {
      "inputs": [
        {
          "internalType": "string",
          "name": "responseMessage",
          "type": "string"
        }
      ],
      "name": "SendResponse",
      "outputs": [],
      "stateMutability": "nonpayable",
      "type": "function"
    },
    {
      "inputs": [],
      "name": "seeOwn",
      "outputs": [
        {
          "internalType": "address",
          "name": "Requesto",
          "type": "address"
        }
      ],
      "stateMutability": "view",
      "type": "function",
      "constant": true
    },
    {
      "inputs": [],
      "name": "getOracleinfo",
      "outputs": [
        {
          "internalType": "uint256",
          "name": "",
          "type": "uint256"
        }
      ],
      "stateMutability": "nonpayable",
      "type": "function"
    }
  ],
  "bytecode": "0x60806040523480156200001157600080fd5b506040516200194a3803806200194a83398181016040528101906200003791906200038c565b33600060016101000a81548173ffffffffffffffffffffffffffffffffffffffff021916908373ffffffffffffffffffffffffffffffffffffffff16021790555080600290805190602001906200009092919062000131565b5060008060006101000a81548160ff02191690836001811115620000b957620000b8620003dd565b5b0217905550604051620000cc90620001c2565b604051809103906000f080158015620000e9573d6000803e3d6000fd5b50600460006101000a81548173ffffffffffffffffffffffffffffffffffffffff021916908373ffffffffffffffffffffffffffffffffffffffff1602179055505062000470565b8280546200013f906200043b565b90600052602060002090601f016020900481019282620001635760008555620001af565b82601f106200017e57805160ff1916838001178555620001af565b82800160010185558215620001af579182015b82811115620001ae57825182559160200191906001019062000191565b5b509050620001be9190620001d0565b5090565b610920806200102a83390190565b5b80821115620001eb576000816000905550600101620001d1565b5090565b6000604051905090565b600080fd5b600080fd5b600080fd5b600080fd5b6000601f19601f8301169050919050565b7f4e487b7100000000000000000000000000000000000000000000000000000000600052604160045260246000fd5b62000258826200020d565b810181811067ffffffffffffffff821117156200027a57620002796200021e565b5b80604052505050565b60006200028f620001ef565b90506200029d82826200024d565b919050565b600067ffffffffffffffff821115620002c057620002bf6200021e565b5b620002cb826200020d565b9050602081019050919050565b60005b83811015620002f8578082015181840152602081019050620002db565b8381111562000308576000848401525b50505050565b6000620003256200031f84620002a2565b62000283565b90508281526020810184848401111562000344576200034362000208565b5b62000351848285620002d8565b509392505050565b600082601f83011262000371576200037062000203565b5b8151620003838482602086016200030e565b91505092915050565b600060208284031215620003a557620003a4620001f9565b5b600082015167ffffffffffffffff811115620003c657620003c5620001fe565b5b620003d48482850162000359565b91505092915050565b7f4e487b7100000000000000000000000000000000000000000000000000000000600052602160045260246000fd5b7f4e487b7100000000000000000000000000000000000000000000000000000000600052602260045260246000fd5b600060028204905060018216806200045457607f821691505b6020821081036200046a57620004696200040c565b5b50919050565b610baa80620004806000396000f3fe608060405234801561001057600080fd5b50600436106100935760003560e01c8063c159f90b11610066578063c159f90b1461010c578063d181ada11461012a578063e750e2da14610148578063f1b6dccd14610166578063fd05116c1461018457610093565b80635ab28ecb14610098578063829c2d6d146100b6578063a7a1ba15146100d2578063bdd0fa4a146100ee575b600080fd5b6100a06101a2565b6040516100ad91906106ec565b60405180910390f35b6100d060048036038101906100cb9190610857565b610230565b005b6100ec60048036038101906100e79190610857565b6102b5565b005b6100f6610353565b60405161010391906108b9565b60405180910390f35b61011461049c565b6040516101219190610915565b60405180910390f35b6101326104c5565b60405161013f9190610915565b60405180910390f35b6101506104eb565b60405161015d91906106ec565b60405180910390f35b61016e610579565b60405161017b91906109a7565b60405180910390f35b61018c61058a565b6040516101999190610915565b60405180910390f35b600380546101af906109f1565b80601f01602080910402602001604051908101604052809291908181526020018280546101db906109f1565b80156102285780601f106101fd57610100808354040283529160200191610228565b820191906000526020600020905b81548152906001019060200180831161020b57829003601f168201915b505050505081565b33600160006101000a81548173ffffffffffffffffffffffffffffffffffffffff021916908373ffffffffffffffffffffffffffffffffffffffff16021790555080600390805190602001906102879291906105b0565b5060016000806101000a81548160ff021916908360018111156102ad576102ac610930565b5b021790555050565b3373ffffffffffffffffffffffffffffffffffffffff16600060019054906101000a900473ffffffffffffffffffffffffffffffffffffffff1673ffffffffffffffffffffffffffffffffffffffff161461030f57600080fd5b80600290805190602001906103259291906105b0565b5060008060006101000a81548160ff0219169083600181111561034b5761034a610930565b5b021790555050565b600080600460009054906101000a900473ffffffffffffffffffffffffffffffffffffffff1673ffffffffffffffffffffffffffffffffffffffff16632215ec2c6040518163ffffffff1660e01b81526004016103af90610a6e565b6020604051808303816000875af11580156103ce573d6000803e3d6000fd5b505050506040513d601f19601f820116820180604052508101906103f29190610ac4565b90506000600460009054906101000a900473ffffffffffffffffffffffffffffffffffffffff1673ffffffffffffffffffffffffffffffffffffffff166354f6127f836040518263ffffffff1660e01b81526004016104519190610b00565b602060405180830381865afa15801561046e573d6000803e3d6000fd5b505050506040513d601f19601f820116820180604052508101906104929190610b47565b9050809250505090565b60008060019054906101000a900473ffffffffffffffffffffffffffffffffffffffff16905090565b600160009054906101000a900473ffffffffffffffffffffffffffffffffffffffff1681565b600280546104f8906109f1565b80601f0160208091040260200160405190810160405280929190818152602001828054610524906109f1565b80156105715780601f1061054657610100808354040283529160200191610571565b820191906000526020600020905b81548152906001019060200180831161055457829003601f168201915b505050505081565b60008054906101000a900460ff1681565b600060019054906101000a900473ffffffffffffffffffffffffffffffffffffffff1681565b8280546105bc906109f1565b90600052602060002090601f0160209004810192826105de5760008555610625565b82601f106105f757805160ff1916838001178555610625565b82800160010185558215610625579182015b82811115610624578251825591602001919060010190610609565b5b5090506106329190610636565b5090565b5b8082111561064f576000816000905550600101610637565b5090565b600081519050919050565b600082825260208201905092915050565b60005b8381101561068d578082015181840152602081019050610672565b8381111561069c576000848401525b50505050565b6000601f19601f8301169050919050565b60006106be82610653565b6106c8818561065e565b93506106d881856020860161066f565b6106e1816106a2565b840191505092915050565b6000602082019050818103600083015261070681846106b3565b905092915050565b6000604051905090565b600080fd5b600080fd5b600080fd5b600080fd5b7f4e487b7100000000000000000000000000000000000000000000000000000000600052604160045260246000fd5b610764826106a2565b810181811067ffffffffffffffff821117156107835761078261072c565b5b80604052505050565b600061079661070e565b90506107a2828261075b565b919050565b600067ffffffffffffffff8211156107c2576107c161072c565b5b6107cb826106a2565b9050602081019050919050565b82818337600083830152505050565b60006107fa6107f5846107a7565b61078c565b90508281526020810184848401111561081657610815610727565b5b6108218482856107d8565b509392505050565b600082601f83011261083e5761083d610722565b5b813561084e8482602086016107e7565b91505092915050565b60006020828403121561086d5761086c610718565b5b600082013567ffffffffffffffff81111561088b5761088a61071d565b5b61089784828501610829565b91505092915050565b6000819050919050565b6108b3816108a0565b82525050565b60006020820190506108ce60008301846108aa565b92915050565b600073ffffffffffffffffffffffffffffffffffffffff82169050919050565b60006108ff826108d4565b9050919050565b61090f816108f4565b82525050565b600060208201905061092a6000830184610906565b92915050565b7f4e487b7100000000000000000000000000000000000000000000000000000000600052602160045260246000fd5b600281106109705761096f610930565b5b50565b60008190506109818261095f565b919050565b600061099182610973565b9050919050565b6109a181610986565b82525050565b60006020820190506109bc6000830184610998565b92915050565b7f4e487b7100000000000000000000000000000000000000000000000000000000600052602260045260246000fd5b60006002820490506001821680610a0957607f821691505b602082108103610a1c57610a1b6109c2565b5b50919050565b7f687474703a2f2f6c6f63616c686f73743a333030302f64617461000000000000600082015250565b6000610a58601a8361065e565b9150610a6382610a22565b602082019050919050565b60006020820190508181036000830152610a8781610a4b565b9050919050565b6000819050919050565b610aa181610a8e565b8114610aac57600080fd5b50565b600081519050610abe81610a98565b92915050565b600060208284031215610ada57610ad9610718565b5b6000610ae884828501610aaf565b91505092915050565b610afa81610a8e565b82525050565b6000602082019050610b156000830184610af1565b92915050565b610b24816108a0565b8114610b2f57600080fd5b50565b600081519050610b4181610b1b565b92915050565b600060208284031215610b5d57610b5c610718565b5b6000610b6b84828501610b32565b9150509291505056fea2646970667358221220e01c7550b5106a01ff9eaa3ca2b98f5bf51a72869978cedb7ff8c0ee1a1a752264736f6c634300080d0033608060405234801561001057600080fd5b50336000806101000a81548173ffffffffffffffffffffffffffffffffffffffff021916908373ffffffffffffffffffffffffffffffffffffffff1602179055506108c0806100606000396000f3fe608060405234801561001057600080fd5b50600436106100575760003560e01c80630147fb0c1461005c5780632215ec2c1461008c57806354f6127f146100bc5780638da5cb5b146100ec578063a31d29c81461010a575b600080fd5b61007660048036038101906100719190610387565b610126565b60405161008391906103cd565b60405180910390f35b6100a660048036038101906100a1919061052e565b61013e565b6040516100b39190610586565b60405180910390f35b6100d660048036038101906100d19190610387565b6101c4565b6040516100e391906103cd565b60405180910390f35b6100f46101e1565b60405161010191906105e2565b60405180910390f35b610124600480360381019061011f9190610629565b610205565b005b60016020528060005260406000206000915090505481565b6000808260405160200161015291906106e3565b60405160208183030381529060405280519060200120905060006001600083815260200190815260200160002081905550807f0b9e739be1da46c8bc5578d0e27291c6f1a74f7c9028de596480af04a394cdeb846040516101b39190610744565b60405180910390a280915050919050565b600060016000838152602001908152602001600020549050919050565b60008054906101000a900473ffffffffffffffffffffffffffffffffffffffff1681565b60008054906101000a900473ffffffffffffffffffffffffffffffffffffffff1673ffffffffffffffffffffffffffffffffffffffff163373ffffffffffffffffffffffffffffffffffffffff1614610293576040517f08c379a000000000000000000000000000000000000000000000000000000000815260040161028a906107d8565b60405180910390fd5b60006001600084815260200190815260200160002054146102e9576040517f08c379a00000000000000000000000000000000000000000000000000000000081526004016102e09061086a565b60405180910390fd5b806001600084815260200190815260200160002081905550817f041e0e2d123c8df5baf138c9cb3250f6eb4c993c7705695328dd865d1318dcbf8260405161033191906103cd565b60405180910390a25050565b6000604051905090565b600080fd5b600080fd5b6000819050919050565b61036481610351565b811461036f57600080fd5b50565b6000813590506103818161035b565b92915050565b60006020828403121561039d5761039c610347565b5b60006103ab84828501610372565b91505092915050565b6000819050919050565b6103c7816103b4565b82525050565b60006020820190506103e260008301846103be565b92915050565b600080fd5b600080fd5b6000601f19601f8301169050919050565b7f4e487b7100000000000000000000000000000000000000000000000000000000600052604160045260246000fd5b61043b826103f2565b810181811067ffffffffffffffff8211171561045a57610459610403565b5b80604052505050565b600061046d61033d565b90506104798282610432565b919050565b600067ffffffffffffffff82111561049957610498610403565b5b6104a2826103f2565b9050602081019050919050565b82818337600083830152505050565b60006104d16104cc8461047e565b610463565b9050828152602081018484840111156104ed576104ec6103ed565b5b6104f88482856104af565b509392505050565b600082601f830112610515576105146103e8565b5b81356105258482602086016104be565b91505092915050565b60006020828403121561054457610543610347565b5b600082013567ffffffffffffffff8111156105625761056161034c565b5b61056e84828501610500565b91505092915050565b61058081610351565b82525050565b600060208201905061059b6000830184610577565b92915050565b600073ffffffffffffffffffffffffffffffffffffffff82169050919050565b60006105cc826105a1565b9050919050565b6105dc816105c1565b82525050565b60006020820190506105f760008301846105d3565b92915050565b610606816103b4565b811461061157600080fd5b50565b600081359050610623816105fd565b92915050565b600080604083850312156106405761063f610347565b5b600061064e85828601610372565b925050602061065f85828601610614565b9150509250929050565b600081519050919050565b600081905092915050565b60005b8381101561069d578082015181840152602081019050610682565b838111156106ac576000848401525b50505050565b60006106bd82610669565b6106c78185610674565b93506106d781856020860161067f565b80840191505092915050565b60006106ef82846106b2565b915081905092915050565b600082825260208201905092915050565b600061071682610669565b61072081856106fa565b935061073081856020860161067f565b610739816103f2565b840191505092915050565b6000602082019050818103600083015261075e818461070b565b905092915050565b7f4f6e6c7920636f6e7472616374206f776e65722063616e2063616c6c2074686960008201527f732066756e6374696f6e00000000000000000000000000000000000000000000602082015250565b60006107c2602a836106fa565b91506107cd82610766565b604082019050919050565b600060208201905081810360008301526107f1816107b5565b9050919050565b7f4461746120666f7220746865207265717565737420616c72656164792070726f60008201527f7669646564000000000000000000000000000000000000000000000000000000602082015250565b60006108546025836106fa565b915061085f826107f8565b604082019050919050565b6000602082019050818103600083015261088381610847565b905091905056fea2646970667358221220dddf9a809298a18c82a8a74fb1b3039aab6e81068f27a13ca9c78058b2e7afc364736f6c634300080d0033",
  "immutableReferences": {},
  "source": "// SPDX-License-Identifier: MIT \r\npragma solidity >=0.4.25 <0.9.0;\r\n\r\nimport \"./Oracle.sol\";\r\n\r\ncontract HelloBlockchain {\r\n    enum StateType { Request, Respond }\r\n\r\n    StateType public  State;\r\n    address public  Requestor;\r\n    address public  Responder;\r\n\r\n    string public RequestMessage;\r\n    string public ResponseMessage;\r\n\r\n    Oracle private orac;\r\n\r\n    constructor(string memory message) {\r\n        Requestor = msg.sender;\r\n        RequestMessage = message;\r\n        State = StateType.Request;\r\n        orac = new Oracle();\r\n\r\n    }\r\n\r\n    // call this function to send a request\r\n    function SendRequest(string memory requestMessage) public {\r\n\r\n        if (Requestor != msg.sender) {\r\n            revert();\r\n        }\r\n\r\n        RequestMessage = requestMessage;\r\n        State = StateType.Request;\r\n    }\r\n\r\n    // call this function to send a response\r\n    function SendResponse(string memory responseMessage) public {\r\n\r\n        Responder = msg.sender;\r\n        ResponseMessage = responseMessage;\r\n        State = StateType.Respond;\r\n    }\r\n\r\n    function seeOwn() public view returns (address Requesto){\r\n\r\n        return Requestor;\r\n    }\r\n\r\n    function getOracleinfo() public returns(uint256){\r\n        bytes32 infoid = orac.requestData(\"http://localhost:3000/data\");\r\n        uint256 info = orac.getData(infoid);\r\n        return info;\r\n    }\r\n}\r\n",
  "sourcePath": "C:\\Users\\stefa\\Documents\\GitHub\\BlockchainProject\\Proj_source\\contracts\\HelloBlockchain.sol",
  "compiler": {
    "name": "solc",
    "version": "0.8.13+commit.abaa5c0e.Emscripten.clang"
  },
  "schemaVersion": "3.4.14",
  "updatedAt": "2023-06-30T14:33:17.132Z",
  "networkType": "ethereum",
  "devdoc": {
    "kind": "dev",
    "methods": {},
    "version": 1
  },
  "userdoc": {
    "kind": "user",
    "methods": {},
    "version": 1
  }
}