{
  "contractName": "Oracle",
  "abi": [
    {
      "inputs": [],
      "stateMutability": "nonpayable",
      "type": "constructor"
    },
    {
      "anonymous": false,
      "inputs": [
        {
          "indexed": true,
          "internalType": "bytes32",
          "name": "requestId",
          "type": "bytes32"
        },
        {
          "indexed": false,
          "internalType": "string",
          "name": "url",
          "type": "string"
        }
      ],
      "name": "DataRequest",
      "type": "event"
    },
    {
      "anonymous": false,
      "inputs": [
        {
          "indexed": true,
          "internalType": "bytes32",
          "name": "requestId",
          "type": "bytes32"
        },
        {
          "indexed": false,
          "internalType": "uint256",
          "name": "result",
          "type": "uint256"
        }
      ],
      "name": "DataResponse",
      "type": "event"
    },
    {
      "inputs": [
        {
          "internalType": "bytes32",
          "name": "",
          "type": "bytes32"
        }
      ],
      "name": "data",
      "outputs": [
        {
          "internalType": "uint256",
          "name": "",
          "type": "uint256"
        }
      ],
      "stateMutability": "view",
      "type": "function",
      "constant": true
    },
    {
      "inputs": [],
      "name": "owner",
      "outputs": [
        {
          "internalType": "address",
          "name": "",
          "type": "address"
        }
      ],
      "stateMutability": "view",
      "type": "function",
      "constant": true
    },
    {
      "inputs": [
        {
          "internalType": "string",
          "name": "url",
          "type": "string"
        }
      ],
      "name": "requestData",
      "outputs": [
        {
          "internalType": "bytes32",
          "name": "",
          "type": "bytes32"
        }
      ],
      "stateMutability": "nonpayable",
      "type": "function"
    },
    {
      "inputs": [
        {
          "internalType": "bytes32",
          "name": "requestId",
          "type": "bytes32"
        },
        {
          "internalType": "uint256",
          "name": "result",
          "type": "uint256"
        }
      ],
      "name": "provideData",
      "outputs": [],
      "stateMutability": "nonpayable",
      "type": "function"
    },
    {
      "inputs": [
        {
          "internalType": "bytes32",
          "name": "requestId",
          "type": "bytes32"
        }
      ],
      "name": "getData",
      "outputs": [
        {
          "internalType": "uint256",
          "name": "",
          "type": "uint256"
        }
      ],
      "stateMutability": "view",
      "type": "function",
      "constant": true
    }
  ],
  "bytecode": "0x608060405234801561001057600080fd5b50336000806101000a81548173ffffffffffffffffffffffffffffffffffffffff021916908373ffffffffffffffffffffffffffffffffffffffff1602179055506108c0806100606000396000f3fe608060405234801561001057600080fd5b50600436106100575760003560e01c80630147fb0c1461005c5780632215ec2c1461008c57806354f6127f146100bc5780638da5cb5b146100ec578063a31d29c81461010a575b600080fd5b61007660048036038101906100719190610387565b610126565b60405161008391906103cd565b60405180910390f35b6100a660048036038101906100a1919061052e565b61013e565b6040516100b39190610586565b60405180910390f35b6100d660048036038101906100d19190610387565b6101c4565b6040516100e391906103cd565b60405180910390f35b6100f46101e1565b60405161010191906105e2565b60405180910390f35b610124600480360381019061011f9190610629565b610205565b005b60016020528060005260406000206000915090505481565b6000808260405160200161015291906106e3565b60405160208183030381529060405280519060200120905060006001600083815260200190815260200160002081905550807f0b9e739be1da46c8bc5578d0e27291c6f1a74f7c9028de596480af04a394cdeb846040516101b39190610744565b60405180910390a280915050919050565b600060016000838152602001908152602001600020549050919050565b60008054906101000a900473ffffffffffffffffffffffffffffffffffffffff1681565b60008054906101000a900473ffffffffffffffffffffffffffffffffffffffff1673ffffffffffffffffffffffffffffffffffffffff163373ffffffffffffffffffffffffffffffffffffffff1614610293576040517f08c379a000000000000000000000000000000000000000000000000000000000815260040161028a906107d8565b60405180910390fd5b60006001600084815260200190815260200160002054146102e9576040517f08c379a00000000000000000000000000000000000000000000000000000000081526004016102e09061086a565b60405180910390fd5b806001600084815260200190815260200160002081905550817f041e0e2d123c8df5baf138c9cb3250f6eb4c993c7705695328dd865d1318dcbf8260405161033191906103cd565b60405180910390a25050565b6000604051905090565b600080fd5b600080fd5b6000819050919050565b61036481610351565b811461036f57600080fd5b50565b6000813590506103818161035b565b92915050565b60006020828403121561039d5761039c610347565b5b60006103ab84828501610372565b91505092915050565b6000819050919050565b6103c7816103b4565b82525050565b60006020820190506103e260008301846103be565b92915050565b600080fd5b600080fd5b6000601f19601f8301169050919050565b7f4e487b7100000000000000000000000000000000000000000000000000000000600052604160045260246000fd5b61043b826103f2565b810181811067ffffffffffffffff8211171561045a57610459610403565b5b80604052505050565b600061046d61033d565b90506104798282610432565b919050565b600067ffffffffffffffff82111561049957610498610403565b5b6104a2826103f2565b9050602081019050919050565b82818337600083830152505050565b60006104d16104cc8461047e565b610463565b9050828152602081018484840111156104ed576104ec6103ed565b5b6104f88482856104af565b509392505050565b600082601f830112610515576105146103e8565b5b81356105258482602086016104be565b91505092915050565b60006020828403121561054457610543610347565b5b600082013567ffffffffffffffff8111156105625761056161034c565b5b61056e84828501610500565b91505092915050565b61058081610351565b82525050565b600060208201905061059b6000830184610577565b92915050565b600073ffffffffffffffffffffffffffffffffffffffff82169050919050565b60006105cc826105a1565b9050919050565b6105dc816105c1565b82525050565b60006020820190506105f760008301846105d3565b92915050565b610606816103b4565b811461061157600080fd5b50565b600081359050610623816105fd565b92915050565b600080604083850312156106405761063f610347565b5b600061064e85828601610372565b925050602061065f85828601610614565b9150509250929050565b600081519050919050565b600081905092915050565b60005b8381101561069d578082015181840152602081019050610682565b838111156106ac576000848401525b50505050565b60006106bd82610669565b6106c78185610674565b93506106d781856020860161067f565b80840191505092915050565b60006106ef82846106b2565b915081905092915050565b600082825260208201905092915050565b600061071682610669565b61072081856106fa565b935061073081856020860161067f565b610739816103f2565b840191505092915050565b6000602082019050818103600083015261075e818461070b565b905092915050565b7f4f6e6c7920636f6e7472616374206f776e65722063616e2063616c6c2074686960008201527f732066756e6374696f6e00000000000000000000000000000000000000000000602082015250565b60006107c2602a836106fa565b91506107cd82610766565b604082019050919050565b600060208201905081810360008301526107f1816107b5565b9050919050565b7f4461746120666f7220746865207265717565737420616c72656164792070726f60008201527f7669646564000000000000000000000000000000000000000000000000000000602082015250565b60006108546025836106fa565b915061085f826107f8565b604082019050919050565b6000602082019050818103600083015261088381610847565b905091905056fea2646970667358221220dddf9a809298a18c82a8a74fb1b3039aab6e81068f27a13ca9c78058b2e7afc364736f6c634300080d0033",
  "immutableReferences": {},
  "source": "// SPDX-License-Identifier: MIT\r\npragma solidity ^0.8.0;\r\n\r\ncontract Oracle {\r\n    address public owner;\r\n    mapping(bytes32 => uint256) public data;\r\n\r\n    event DataRequest(bytes32 indexed requestId, string url);\r\n    event DataResponse(bytes32 indexed requestId, uint256 result);\r\n\r\n    constructor() {\r\n        owner = msg.sender;\r\n    }\r\n\r\n    modifier onlyOwner() {\r\n        require(msg.sender == owner, \"Only contract owner can call this function\");\r\n        _;\r\n    }\r\n\r\n    function requestData(string memory url) public returns (bytes32) {\r\n        bytes32 requestId = keccak256(abi.encodePacked(url));\r\n        data[requestId] = 0;\r\n        emit DataRequest(requestId, url);\r\n        return requestId;\r\n    }\r\n\r\n    function provideData(bytes32 requestId, uint256 result) public onlyOwner {\r\n        require(data[requestId] == 0, \"Data for the request already provided\");\r\n        data[requestId] = result;\r\n        emit DataResponse(requestId, result);\r\n    }\r\n\r\n    function getData(bytes32 requestId) public view returns (uint256) {\r\n        return data[requestId];\r\n    }\r\n\r\n    \r\n}\r\n",
  "sourcePath": "C:\\Users\\stefa\\Documents\\GitHub\\BlockchainProject\\Proj_source\\contracts\\Oracle.sol",
  "compiler": {
    "name": "solc",
    "version": "0.8.13+commit.abaa5c0e.Emscripten.clang"
  },
  "schemaVersion": "3.4.13",
  "updatedAt": "2023-08-13T18:48:49.454Z",
  "networkType": "ethereum",
  "devdoc": {
    "kind": "dev",
    "methods": {},
    "version": 1
  },
  "userdoc": {
    "kind": "user",
    "methods": {},
    "version": 1
  }
}